:020000040800F2
:10000000D09F0120657A00080F4402081D7A00087D
:100010001D7A00081D7A00081D7A00080000000003
:1000200000000000000000000000000095710008C2
:100030001D7A0008000000003D710008C921010878
:100040006D7200086D7200086D7200086D72000814
:100050006D7200086D7200086D7200086D72000804
:100060006D7200086D7200086D7200086D720008F4
:100070006D7200086D7200086D7200086D720008E4
:100080006D7200086D7200086D7200086D720008D4
:100090006D7200086D7200086D7200086D720008C4
:1000A0006D7200086D7200086D7200086D720008B4
:1000B0006D7200086D7200086D7200086D720008A4
:1000C0006D7200086D7200086D7200086D72000894
:1000D0006D7200086D7200086D7200086D72000884
:1000E0006D7200086D7200086D7200086D72000874
:1000F0006D7200086D7200086D7200086D72000864
:100100006D7200086D7200086D7200086D72000853
:100110006D7200086D7200086D7200086D72000843
:100120006D7200086D7200086D7200086D72000833
:100130006D7200086D7200086D7200086D72000823
:100140006D7200086D7200086D7200086D72000813
:100150006D7200086D7200086D7200086D72000803
:100160006D7200086D7200086D7200086D720008F3
:100170006D7200086D7200086D7200086D720008E3
:100180006D7200086D7200086D7200086D720008D3
:100190006D7200086D7200086D7200086D720008C3
:1001A0006D7200086D7200086D7200086D720008B3
:1001B0006D7200086D7200086D7200086D720008A3
:0401C0006D72000854
:0C01C400FFFFFFFFFFFFFFFFFFFFFFFF3B
:1001D00001F0FF01102A2BDB10F0070F08D010F8F8
:1001E000013B013A8B422DD010F0070F42B3F6D1FC
:1001F000F0B441EA012141EA014122F007047FF015
:1002000000070023F0E80256083C85EA010586EA6B
:10021000010685FA47F5A3FA87F586FA47F6A5FAA7
:1002200087F68EB9EED1F0BC01F0FF0102F00702B3
:1002300032B110F8013B013A83EA010313B1F8D15E
:100240000020704701387047002D06BF354603383F
:10025000073815F0010F07D1013015F4807F02BF78
:10026000013015F4C03F0130F0BC0138704700BFC9
:1002700081F0004102E000BF83F0004330B54FEA57
:1002800041044FEA430594EA050F08BF90EA020FC4
:100290001FBF54EA000C55EA020C7FEA645C7FEA57
:1002A000655C00F0E2804FEA5454D4EB5555B8BF7A
:1002B0006D420CDD2C4480EA020281EA030382EAEB
:1002C000000083EA010180EA020281EA0303362D7D
:1002D00088BF30BD11F0004F4FEA01314FF4801C50
:1002E0004CEA113102D0404261EB410113F0004F62
:1002F0004FEA03334CEA133302D0524263EB430319
:1003000094EA050F00F0A780A4F10104D5F1200EB6
:100310000DDB02FA0EFC22FA05F2801841F1000111
:1003200003FA0EF2801843FA05F359410EE0A5F1E5
:1003300020050EF1200E012A03FA0EFC28BF4CF016
:10034000020C43FA05F3C01851EBE37101F00045CC
:1003500007D54FF0000EDCF1000C7EEB00006EEBD9
:100360000101B1F5801F1BD3B1F5001F0CD3490863
:100370005FEA30004FEA3C0C04F101044FEA4452BA
:1003800012F5800F80F09A80BCF1004F08BF5FEA41
:10039000500C50F1000041EB045141EA050130BD21
:1003A0005FEA4C0C404141EB0101013C28BFB1F533
:1003B000801FE9D291F0000F04BF01460020B1FA7E
:1003C00081F308BF2033A3F10B03B3F120020CDA51
:1003D0000C3208DD02F1140CC2F10C0201FA0CF02F
:1003E00021FA02F10CE002F11402D8BFC2F1200C94
:1003F00001FA02F120FA0CFCDCBF41EA0C0190404A
:10040000E41AA2BF01EB0451294330BD6FEA040492
:100410001F3C1CDA0C340EDC04F11404C4F120027D
:1004200020FA04F001FA02F340EA030021FA04F38F
:1004300045EA030130BDC4F10C04C4F1200220FAE6
:1004400002F001FA04F340EA0300294630BD21FA24
:1004500004F0294630BD94F0000F83F4801306BFEA
:1004600081F480110134013D4EE77FEA645C18BFDE
:100470007FEA655C29D094EA050F08BF90EA020F75
:1004800005D054EA000C04BF1946104630BD91EA6D
:10049000030F1EBF0021002030BD5FEA545C05D170
:1004A0004000494128BF41F0004130BD14F58004AF
:1004B0003CBF01F5801130BD01F0004545F0FE4123
:1004C00041F470014FF0000030BD7FEA645C1ABF58
:1004D000194610467FEA655C1CBF0B46024650EA8F
:1004E000013406BF52EA033591EA030F41F40021BB
:1004F00030BD00BF90F0000F04BF0021704730B541
:100500004FF4806404F132044FF000054FF0000115
:1005100050E700BF90F0000F04BF0021704730B5D6
:100520004FF4806404F1320410F0004548BF4042AB
:100530004FF000013EE700BF42004FEAE2014FEA00
:1005400031014FEA02701FBF12F07F4393F07F4FDB
:1005500081F06051704732F07F4208BF704793F0DE
:100560007F4F04BF41F40021704730B54FF46074F1
:1005700001F0004521F000411CE700BF50EA0102F4
:1005800008BF704730B54FF000050AE050EA01029D
:1005900008BF704730B511F0004502D5404261EB0D
:1005A00041014FF4806404F132045FEA915C3FF44E
:1005B000D8AE4FF003025FEADC0C18BF03325FEAEB
:1005C000DC0C18BF033202EBDC02C2F1200300FA9C
:1005D00003FC20FA02F001FA03FE40EA0E0021FAC1
:1005E00002F11444BDE600BF70B54FF0FF0C4CF4AF
:1005F000E06C1CEA11541DBF1CEA135594EA0C0F61
:1006000095EA0C0F00F0DEF82C4481EA030621EA9B
:100610004C5123EA4C5350EA013518BF52EA0335D6
:1006200041F4801143F4801338D0A0FB02CE4FF088
:100630000005E1FB02E506F00042E0FB03E54FF0B8
:100640000006E1FB03569CF0000F18BF4EF0010EB0
:10065000A4F1FF04B6F5007F64F5407404D25FEAAC
:100660004E0E6D4146EB060642EAC62141EA55515F
:100670004FEAC52040EA5E504FEACE2EB4F1FD0CA1
:1006800088BFBCF5E06F1ED8BEF1004F08BF5FEA1F
:10069000500E50F1000041EB045170BD06F00046D1
:1006A00046EA010140EA020081EA0301B4EB5C047E
:1006B000C2BFD4EB0C0541EA045170BD41F4801176
:1006C0004FF0000E013C00F3AB8014F1360FDEBF9B
:1006D000002001F0004170BDC4F10004203C35DA77
:1006E0000C341BDC04F11404C4F1200500FA05F3FA
:1006F00020FA04F001FA05F240EA020001F000429B
:1007000021F0004110EBD37021FA04F642EB060110
:100710005EEA430E08BF20EAD37070BDC4F10C043A
:10072000C4F1200500FA04F320FA05F001FA04F2FE
:1007300040EA020001F0004110EBD37041F10001EA
:100740005EEA430E08BF20EAD37070BDC4F12005F5
:1007500000FA05F24EEA020E20FA04F301FA05F25D
:1007600043EA020321FA04F001F0004121FA04F205
:1007700020EA020000EBD3705EEA430E08BF20EAD5
:10078000D37070BD94F0000F0FD101F0004640000F
:1007900041EB010111F4801F08BF013CF7D041EA91
:1007A000060195F0000F18BF704703F00046520095
:1007B00043EB030313F4801F08BF013DF7D043EA66
:1007C0000603704794EA0C0F0CEA135518BF95EA1C
:1007D0000C0F0CD050EA410618BF52EA4306D1D1A3
:1007E00081EA030101F000414FF0000070BD50EAC2
:1007F000410606BF1046194652EA430619D094EA4C
:100800000C0F02D150EA013613D195EA0C0F05D135
:1008100052EA03361CBF104619460AD181EA030189
:1008200001F0004141F0FE4141F470014FF0000041
:1008300070BD41F0FE4141F4780170BD70B54FF0DC
:10084000FF0C4CF4E06C1CEA11541DBF1CEA13555C
:1008500094EA0C0F95EA0C0F00F0A7F8A4EB05043E
:1008600081EA030E52EA03354FEA013100F0888035
:100870004FEA03334FF0805545EA131343EA1263FE
:100880004FEA022245EA111545EA10654FEA0026B3
:100890000EF000419D4208BF964244F1FD0404F56C
:1008A000407402D25B084FEA3202B61A65EB0305C8
:1008B0005B084FEA32024FF480104FF4002CB6EB85
:1008C000020E75EB030E22BFB61A754640EA0C0005
:1008D0005B084FEA3202B6EB020E75EB030E22BF45
:1008E000B61A754640EA5C005B084FEA3202B6EB86
:1008F000020E75EB030E22BFB61A754640EA9C0045
:100900005B084FEA3202B6EB020E75EB030E22BF14
:10091000B61A754640EADC0055EA060E18D04FEAD2
:10092000051545EA16754FEA06164FEAC30343EA72
:1009300052734FEAC2025FEA1C1CC0D111F4801F3F
:100940000BD141EA00014FF000004FF0004CB6E738
:1009500011F4801F04BF01430020B4F1FD0C88BFD7
:10096000BCF5E06F3FF6AFAEB5EB030C04BFB6EBE2
:10097000020C5FEA500C50F1000041EB045170BDD5
:100980000EF0004E4EEA113114EB5C04C2BFD4EB02
:100990000C0541EA045170BD41F480114FF0000E86
:1009A000013C90E645EA060E8DE60CEA135594EA02
:1009B0000C0F08BF95EA0C0F3FF43BAF94EA0C0F05
:1009C0000AD150EA01347FF434AF95EA0C0F7FF47A
:1009D00025AF104619462CE795EA0C0F06D152EACE
:1009E00003353FF4FDAE1046194622E750EA4106B2
:1009F00018BF52EA43067FF4C5AE50EA41047FF4C3
:100A00000DAF52EA43057FF4EBAE12E74FF0FF3C27
:100A100006E000BF4FF0010C02E000BF4FF0010CF8
:100A20004DF804CD4FEA410C7FEA6C5C4FEA430C71
:100A300018BF7FEA6C5C1BD001B050EA410C0CBFC0
:100A400052EA430C91EA030F02BF90EA020F002022
:100A5000704710F1000F91EA030F58BF994208BF89
:100A600090422CBFD8176FEAE37040F00100704746
:100A70004FEA410C7FEA6C5C02D150EA013C07D19D
:100A80004FEA430C7FEA6C5CD6D152EA033CD3D0E8
:100A90005DF8040B704700BF8446104662468C46E2
:100AA0001946634600E000BF01B5FFF7B7FF002815
:100AB00048BF10F1000F01BD4DF808EDFFF7F4FF3E
:100AC0000CBF012000205DF808FB00BF4DF808EDC9
:100AD000FFF7EAFF34BF012000205DF808FB00BFEC
:100AE0004DF808EDFFF7E0FF94BF012000205DF80E
:100AF00008FB00BF4DF808EDFFF7CEFF94BF0120C3
:100B000000205DF808FB00BF4DF808EDFFF7C4FFBB
:100B100034BF012000205DF808FB00BF4FEA41020E
:100B200012F5001215D211D56FF47873B3EB62523F
:100B300012D94FEAC12343F0004343EA505311F066
:100B4000004F23FA02F018BF404270474FF00000F8
:100B5000704750EA013005D111F0004008BF6FF036
:100B6000004070474FF00000704700BF80F0004029
:100B700002E000BF81F0004142001FBF5FEA410375
:100B800092EA030F7FEA226C7FEA236C6AD04FEA75
:100B90001262D2EB1363C1BFD218414048404140BA
:100BA000B8BF5B42192B88BF704710F0004F40F46C
:100BB000000020F07F4018BF404211F0004F41F488
:100BC000000121F07F4118BF494292EA030F3FD054
:100BD000A2F1010241FA03FC10EB0C00C3F1200367
:100BE00001FA03F100F0004302D5494260EB4000F6
:100BF000B0F5000F13D3B0F1807F06D340084FEA61
:100C0000310102F10102FE2A51D2B1F1004F40EB55
:100C1000C25008BF20F0010040EA030070474900BD
:100C200040EB0000013A28BFB0F5000FEDD2B0FA5A
:100C300080FCACF1080CB2EB0C0200FA0CF0AABF7D
:100C400000EBC25052421843BCBFD040184370471B
:100C500092F0000F81F4000106BF80F40000013221
:100C6000013BB5E74FEA41037FEA226C18BF7FEAF8
:100C7000236C21D092EA030F04D092F0000F08BF3A
:100C80000846704790EA010F1CBF0020704712F021
:100C90007F4F04D1400028BF40F00040704712F160
:100CA00000723CBF00F50000704700F0004343F0C5
:100CB000FE4040F4000070477FEA226216BF0846FB
:100CC0007FEA23630146420206BF5FEA412390EABE
:100CD000010F40F4800070474FF0000304E000BFB4
:100CE00010F0004348BF40425FEA000C08BF704765
:100CF00043F0964301464FF000001CE050EA010229
:100D000008BF70474FF000030AE000BF50EA01023D
:100D100008BF704711F0004302D5404261EB41012A
:100D20005FEA010C02BF84460146002043F0B6434F
:100D300008BFA3F18053A3F50003BCFA8CF2083A74
:100D4000A3EBC25310DB01FA02FC634400FA02FC7D
:100D5000C2F12002BCF1004F20FA02F243EB020084
:100D600008BF20F00100704702F1200201FA02FCE6
:100D7000C2F1200250EA4C0021FA02F243EB0200D9
:100D800008BF20EADC7070474FF0FF3C06E000BF70
:100D90004FF0010C02E000BF4FF0010C4DF804CD04
:100DA0004FEA40024FEA41037FEA226C18BF7FEA14
:100DB000236C11D001B052EA530C18BF90EA010F16
:100DC00058BFB2EB030088BFC81738BF6FEAE170A5
:100DD00018BF40F0010070477FEA226C02D15FEA41
:100DE000402C05D17FEA236CE4D15FEA412CE1D0AD
:100DF0005DF8040B704700BF844608466146FFE774
:100E00000FB5FFF7C9FF002848BF10F1000F0FBD55
:100E10004DF808EDFFF7F4FF0CBF012000205DF84E
:100E200008FB00BF4DF808EDFFF7EAFF34BF0120D3
:100E300000205DF808FB00BF4DF808EDFFF7E0FF6C
:100E400094BF012000205DF808FB00BF4DF808EDBD
:100E5000FFF7D2FF94BF012000205DF808FB00BF20
:100E60004DF808EDFFF7C8FF34BF012000205DF802
:100E700008FB00BF7BB972B90029BEBF00204FF04C
:100E8000004106E008BF00281CBF6FF000414FF092
:100E9000FF3000F057B8ADF1080C6DE904CE002921
:100EA00009DB002B1ADB00F078F8DDF804E0DDE95F
:100EB000022304B07047404261EB4101002B1BDB71
:100EC00000F06BF8DDF804E0DDE9022304B04042F5
:100ED00061EB4101524263EB43037047524263EBC3
:100EE000430300F05AF8DDF804E0DDE9022304B022
:100EF000404261EB41017047524263EB430300F013
:100F00004CF8DDF804E0DDE9022304B0524263EB63
:100F10004303704753B94AB9002908BF00281CBFD2
:100F20004FF0FF314FF0FF3000F00CB8ADF1080C7E
:100F30006DE904CE00F031F8DDF804E0DDE90223CC
:100F400004B07047704700BF4FEA410C7FEA6C5C09
:100F500002D150EA013C0AD14FEA430C7FEA6C5CB3
:100F600002D152EA033C02D14FF0000070474FF02B
:100F700001007047430803F05533C01A00F03333C3
:100F8000800800F03330184400EB10104FF00133AC
:100F900000F00F305843000E70472DE9F0478646A9
:100FA0008C460846089E154674461946002B40F0AC
:100FB000C2808542B2FA82F245D94AB1C2F1200319
:100FC00000FA02FC2EFA03F3954043EA0C0C94401D
:100FD0004FEA154EA8B2BCFBFEF8230C0EFB18CC52
:100FE00008FB00F943EA0C43994528D9EB1808F1AE
:100FF000FF3704D2994502D9A8F102072B44A3EB8D
:101000000903A4B2B3FBFEFC0EFB1C330CFB00F087
:1010100044EA0344A04214D92C190CF1FF3304D242
:10102000A04202D9ACF102032C44241A43EA07403F
:101030001EB1D440002334607360BDE8F08747469A
:10104000DDE76346F1E792BB431B01214FEA154EF2
:10105000AFB2B3FBFEFC200C0EFB1C330CFB07F8FD
:1010600040EA0343984562D9EB180CF1FF3004D2F3
:10107000984502D9ACF102002B44A3EB0803A4B2BB
:10108000B3FBFEFC0EFB1C330CFB07F744EA0344E6
:10109000A7424ED92C190CF1FF3304D2A74202D932
:1010A000ACF102032C44E41B43EA0040C0E7C2F168
:1010B000200320FA03F1954090402EFA03F30343F6
:1010C0004FEA154EAFB2B1FBFEFC0EFB1C10190C23
:1010D0000CFB07F841EA0041884504FA02F422D9E2
:1010E00069180CF1FF3004D2884502D9ACF1020036
:1010F0002944A1EB08019BB2B1FBFEFC0EFB1C11C5
:101100000CFB07F743EA01439F420ED9EB180CF1A1
:10111000FF3104D29F4202D9ACF102012B44DB1B08
:1011200041EA004192E76046E3E76146F7E760463F
:10113000A3E76346B7E7834206D916B900210846FC
:101140007BE7C6E900E0F9E7B3FA83F78FB983429A
:1011500001D3724508D8BEEB020460EB0303012003
:101160009C461EB9002168E73846FAE7C6E9004CFC
:10117000F8E7C7F1200CBB4022FA0CF41C432EFA0E
:101180000CF120FA0CF3B84001434FEA14490EFA6F
:1011900007F5B3FBF9F81FFA84FE09FB18300B0CB6
:1011A00008FB0EFA43EA00439A4502FA07F240D9D7
:1011B000E31808F1FF3004D29A4502D9A8F10200E1
:1011C0002344A3EB0A0389B2B3FBF9F809FB1833F4
:1011D00008FB0EFE41EA03418E452CD9611808F147
:1011E000FF3304D28E4502D9A8F10203214443EA19
:1011F0000040A0FB0298A1EB0E014145CE464346BC
:1012000002D306D14D4504D2B9EB020E68EB0403BC
:101210000138002EA6D0B5EB0E0261EB030101FAF6
:101220000CFC22FA07F34CEA0303F940C6E900314B
:1012300098E74046C5E74346D9E710F8012B11F877
:10124000013B012A28BF9A42F7D0D01A70470346C3
:1012500013F8012B002AFBD1181A0138704700003F
:101260002DE9F04F93B07F27B946074643E05C4B2A
:10127000029300200190009003460122594921F079
:1012800003FA4DE00AF1010ABAF1200F2ED8564BAD
:1012900053F82AB0ABF13200FFF72CF904460D46A3
:1012A0000BF11400FFF726F906460F464046FFF7FC
:1012B00031F902460B46CDE9042322462B46FFF7BF
:1012C00023FC0028DED032463B46DDE90401FFF76F
:1012D00007FC0028D6D0079D4F46DDF81890434BF9
:1012E00043F83AB003EBCA031D7102E04F46DDF844
:1012F000189009F1FF39B9F1000F3FDB5FFA89F56A
:10130000284615F039F8642021F0CDF9384B1868DB
:101310008368DB6839219847364B18600028A6D1CE
:10132000334B186807F53752383283681B691E2122
:10133000984707F50054D4F8F80DFFF7EBF882460C
:101340008B46D4F8FC0DFFF7E5F823A3D3E900237F
:10135000FFF774FA02460B4650465946FEF78EFFD9
:101360000022254BFFF740F9FFF7D8FB80464FF0EE
:10137000000A0795CDF81890B94685E70023202B81
:101380000AD81A4A02EBC302117903F148026A44EF
:1013900002F8241C0133F2E7212209A94FF440701E
:1013A00014F048FE60B9154B0293002001900090A4
:1013B000034603220B4921F067F913B0BDE8F08F13
:1013C0000F4B029300200190009003460122054933
:1013D00021F05AF9F1E700BF0000000080842E419F
:1013E00020E90208DCDD0208ECEB0208B035012040
:1013F000BC360120B836012000408F4074E9020855
:1014000040E902080000000008B50FA3D3E900235B
:10141000D0E90001FFF7E8F80DA3D3E90023FFF7B7
:101420000DFA0DA3D3E9002320F092F802460B46F3
:1014300000200D49FEF720FF09A3D3E90023FFF7A1
:10144000D3F808BDAFF30080D881734694EE4040D6
:101450000000000000AA8F403CDD79E2395BC83F04
:101460009A999999B3BE01410000F03F0000000035
:101470002DE9F04387B000F50055D5F8F80DFFF7DA
:1014800049F806460F46D5F8FC0DFFF743F84CA384
:10149000D3E90023FFF7D2F902460B46304639461E
:1014A000FEF7ECFE06460F46FFF738FB0446FFF753
:1014B00031F802460B4630463946FEF7DDFE002283
:1014C000414BFFF791F8FFF729FB404E049003943E
:1014D0003F4B02930024019400942346032231469B
:1014E000204621F0D1F8D5F8000EFFF713F880461A
:1014F0008946D5F8040EFFF70DF831A3D3E9002390
:10150000FFF79CF902460B4640464946FEF7B6FEF9
:1015100080468946FFF702FB0746FEF7FBFF0246BF
:101520000B4640464946FEF7A7FE0022264BFFF732
:101530005BF8FFF7F3FA04900397264B02930194AC
:101540000094234603223146204621F09DF8D5F829
:10155000080EFEF7DFFF80468946D5F80C0EFEF731
:10156000D9FF17A3D3E90023FFF768F902460B461A
:1015700040464946FEF782FE80468946FFF7CEFA8E
:101580000546FEF7C7FF02460B4640464946FEF7B2
:1015900073FE00220C4BFFF727F8FFF7BFFA049009
:1015A00003950D4B02930194009423460322314688
:1015B000204621F069F807B0BDE8F083AFF3008062
:1015C0000000000080842E4100408F40DCDD0208D6
:1015D000E4EA0208FCEA020814EB0208000000003A
:1015E000F8B5064614461D460022254B20462946DE
:1015F000FFF76CFA80BB1EA3D3E9002320462946DF
:10160000FFF782FA58BB20462946FFF787FA0746BC
:10161000FEF780FF02460B4620462946FEF72CFEC9
:1016200015A3D3E90023FEF7DFFF04460D46002291
:10163000134BFFF74BFAA8B90DA3D3E900232046BB
:101640002946FFF761FA80B9376020462946FFF73F
:1016500065FA70600020F8BD6FF02100FBE76FF0C5
:101660002100F8E76FF02100F5E76FF02100F2E7C5
:101670000000C0FFFFFFDF410000000080842E411A
:101680000000E0C10000000010B514464268036984
:101690001F2925D0202912D01E2902D06FF08500E5
:1016A0000CE05888FEF736FF1BA3D3E90023FEF7B2
:1016B0009BFF02460B462046FFF792FF10BD98881D
:1016C000138903FB00F000EB80008000FEF722FF8F
:1016D00013A3D3E90023FEF787FF02460B46EAE790
:1016E000D988C80B13D04942D9804FF0FF30DB882E
:1016F00000FB03F3108903FB00F0FEF70BFF08A3C8
:10170000D3E90023FEF770FF02460B46D3E7012022
:10171000EDE700BFAFF30080FCA9F1D24D62703F4E
:10172000F168E388B5F8E43E2DE9F04784B0002382
:1017300002930393012203210DF1070013F014FD1E
:10174000E0B19DF8073013F0600F1CD19DF8073011
:1017500013F0400F1BD19DF8073013F0200F1DD15F
:101760004FF0000A012211210DF1070013F0FCFCDB
:10177000002840D0504604B0BDE8F08713F002FCCA
:101780004FF0000AF6E702A813F008FEDEE702A811
:1017900013F0FEFB1C4BC3E90001DCE71A4BD3E955
:1017A000002302A813F01CFC15A3D3E90023FEF7C5
:1017B0001BFF8046894623244FF0010A05E0134BA6
:1017C00003EBC403C3E900672C4684B1651E0F4BCD
:1017D00003EBC503D3E900670022002330463946F6
:1017E000FFF76AF90028EAD10AF1010AE7E7074B97
:1017F000C3E90089B6E713F0C5FBBBE7AFF3008090
:101800001FA8AED74F5A333FA0310120A831012085
:101810002DE9F04F85B000240294ADF80C4006226B
:10182000282102A813F07CFFADF80040ADF802407B
:10183000ADF80440214615E04A0002F111036B4463
:1018400013F9083C10326A4422F8103C9BB21B0288
:101850009BB222F8103C12F9080C13FA80F322F81C
:10186000103C01310229E7D99DF909009DF90830A2
:1018700003EB0020FEF74EFE06460F469DF90B00D7
:101880009DF90A3003EB0020FEF744FE80468946AE
:101890009DF90D009DF90C3003EB0020FEF73AFE98
:1018A00004460D4600222A4B30463946FEF79CFE80
:1018B00025A3D3E90023FEF797FE06460F46002234
:1018C000234B40464946FEF78FFE1FA3D3E9002372
:1018D000FEF78AFE8046894600221D4B2046294697
:1018E000FEF782FE18A3D3E90023FEF77DFE8246B1
:1018F0008B4600244FF0804522462B463046394621
:101900001FF026FE06460F4622462B464046494615
:101910001FF01EFE02460B4630463946FEF7AEFC6F
:1019200006460F4622462B46504659461FF010FEEB
:1019300002460B4630463946FEF7A0FC1FF0B6FEC5
:1019400005B0BDE8F08F00BF0000000000706740E8
:101950000000703F000000002DE9F04784B082468F
:1019600000240294ADF80C400622282102A813F0AE
:10197000D7FEADF80040ADF80240ADF80440214676
:1019800015E04A0002F111036B4413F9083C1032D0
:101990006A4422F8103C9BB21B029BB222F8103C16
:1019A00012F9080C13FA80F322F8103C01310229D5
:1019B000E7D99DF909009DF9083003EB0020FEF7F7
:1019C000A9FD804689469DF90B009DF90A3003EB7D
:1019D0000020FEF79FFD06460F469DF90D009DF97C
:1019E0000C3003EB0020FEF795FD04460D46002267
:1019F000194B40464946FEF7F7FD15A3D3E90023EE
:101A0000FEF7F2FD804689460022134B30463946E8
:101A1000FEF7EAFD0EA3D3E90023FEF7E5FD064637
:101A20000F4600220C4B20462946FEF7DDFD08A399
:101A3000D3E90023FEF7D8FDCAE90089CAE90267A5
:101A4000CAE9040104B0BDE8F08700BFAFF300802D
:101A500000000000007067400000703F00000000C0
:101A60002DE9F04F91B0CDE90023DDE9003525F0F7
:101A7000004858EA030206460F4600F0A180844A57
:101A800021F00044944289468246029416D810D12F
:101A9000D8B9A04519D81ED1BBB97E4B9C4240F2A3
:101AA0009280002D80F2B2840020002111B0BDE8A8
:101AB000F08F904502D80ED1002B7AD004F140442B
:101AC00004F5801454EA0A047AD0734811B0BDE8D2
:101AD000F04F1FF0CDBEB9F1000F08DA6F4A904504
:101AE0000BD9002B00F09E804FF0020B23E0002B5F
:101AF00000F087804FF0000B1DE0664A904506D845
:101B0000002BF7D1B5F1804F68D09B4613E04FEA28
:101B10002852A2F2FF32142A36DDC2F1340223FA2F
:101B200002F101FA02F29A42EAD101F00101C1F197
:101B3000020B002B4FD0304639462BF06EFBBAF12A
:101B4000000F7CD1564B29F040429A4201D0002C24
:101B500075D1002D05DA02460B4600205049FEF7EC
:101B60006DFEB9F1000FA1DA04F1404404F58014D0
:101B700054EA0B045BD102460B4610461946FEF7A9
:101B80007BFB02460B4639E0002BB3D1C2F11402B5
:101B900048FA02F101FA02F24245414A25D1904544
:101BA00025D0B5F1804F19D001F00101C1F1020B30
:101BB000C1E704F1404303F5801303437FF46DAFA5
:101BC0003749002072E7002DBFF66EAFDDE9000354
:101BD00003F100416AE7B5F1804FACD132463B4694
:101BE00010461946FEF700FD60E790458AD1002DAA
:101BF00080F210842A4932463B460020FEF71EFE42
:101C000054E7274A9045F2D0B5F1804FE6D0254AF7
:101C100095427FF47AAF3046394611B0BDE8F04FB7
:101C20001FF070BDB5F1804F7FF45EAFD6E7BBF11A
:101C3000010F7FF43BAF01F10043194636E74FEA4D
:101C4000D973013B0C935BEA030302D132463B4656
:101C500093E7154B984540F2F98003F104739845DA
:101C60000C4B08D99C420BD8002DBFF61DAF06A324
:101C7000D3E90023B4E79C42F6D3094B9C4215D923
:101C8000002DF4DC10E700BF9C7500883CE4377E33
:101C90000000F07FFFFFEF3F94830308FFFF3F4307
:101CA0000000F03F0000E03F0000E041624B0022F6
:101CB000FEF7E2FA56A3D3E9002304460D46FEF7E9
:101CC00093FC55A3D3E9002306460F462046294638
:101CD000FEF78AFC594BCDE9020100222046294635
:101CE000FEF782FC02460B464DA1D1E90001FEF74A
:101CF000C3FA22462B46FEF777FC02460B4600202D
:101D00004F49FEF7B9FA2246804689462B462046BF
:101D10002946FEF769FC02460B4640464946FEF757
:101D200063FC41A3D3E90023FEF75EFC02460B46A9
:101D3000DDE90201FEF7A0FA02460B46804689461D
:101D400030463946FEF79AFA002432463B46204692
:101D50000D46FEF791FA02460B4640464946FEF70D
:101D60008BFA0C9A0BF1FF33134314BF324B354BF4
:101D70000022CDE90223DDE90023CDE9042300237D
:101D80000493DDE904AB06460F465B465246DDE9A7
:101D90000001FEF771FA22462B46FEF725FCDDE92D
:101DA00000238046894630463946FEF71DFC024630
:101DB0000B4640464946FEF761FA5B4606460F462B
:101DC000524620462946FEF70FFC0B460246804647
:101DD000894630463946FEF751FA1B4B9942044674
:101DE0000D468B4640F3098201F13F4303F5E003C2
:101DF000034300F0E7810EA3D3E90023DDE90201EC
:101E0000FEF7F2FB0AA3D3E90023EBE6AFF3008071
:101E1000000000604715F73F44DF5DF80BAE543E0D
:101E2000555555555555D53FFE822B654715F73FFE
:101E30009C7500883CE4377E0000F03F0000D03FF6
:101E40000000E03F0000F0BFFFFF8F40CE4B09EAEB
:101E5000030300222BB9CD4BFEF7C6FB6FF0340213
:101E60000291029B1B15A3F2FF3313440993029BBB
:101E7000C3F3130AC64B4AF07F559A4545F4401503
:101E800008DDC44B9A4540F39A81099B01330993BD
:101E9000A5F580154FF0000A4FEACA030D93BE4B1B
:101EA00003EBCA03D3E900342946CDE906341A46C8
:101EB0002346CDE90A01FEF7DFF9DDE90A230646EC
:101EC0000F46DDE90601FEF7D9F902460B46002070
:101ED000B249FEF7B3FCCDE90E0102460B4630468F
:101EE0003946FEF781FBCDE90401DDE90434CDE993
:101EF000023400230293DDE902896D1045F000559C
:101F000005F50025002205EB8A4340464946144664
:101F10001D46FEF769FB02460B4630463946FEF782
:101F2000ABF9DDE9062306460F4620462946FEF7B3
:101F3000A3F902460B46DDE90A01FEF79DF9424688
:101F40004B46FEF751FB02460B4630463946FEF73C
:101F500093F9DDE90E23FEF747FBDDE90423CDE924
:101F6000060110461946FEF73FFB75A3D3E900238F
:101F700004460D46FEF738FB73A3D3E90023FEF7B2
:101F80007DF922462B46FEF72FFB71A3D3E90023F0
:101F9000FEF774F922462B46FEF726FB6EA3D3E923
:101FA0000023FEF76BF922462B46FEF71DFB6CA3C0
:101FB000D3E90023FEF762F922462B46FEF714FB15
:101FC00069A3D3E90023FEF759F9224606460F46D6
:101FD0002B4620462946FEF707FB02460B463046B5
:101FE0003946FEF701FB424604460D464B46DDE905
:101FF0000401FEF743F9DDE90623FEF7F5FA224670
:102000002B46FEF73BF94246CDE90A014B464046D6
:102010004946FEF7E9FA624B002206460F46FEF7F4
:102020002DF9DDE90A23FEF729F900240D462246A1
:102030000B4640464946FEF7D7FA594B804689463B
:10204000002220462946FEF717F932463B46FEF7A6
:1020500013F902460B46DDE90A01FEF70DF9DDE949
:102060000423FEF7C1FA224606460F462B46DDE959
:102070000601FEF7B9FA02460B4630463946FEF72E
:10208000FDF806460F4602460B4640464946FEF717
:10209000F5F8002436A3D3E9002320460D46FEF7C9
:1020A000A3FA4246CDE904014B4620462946FEF7F5
:1020B000E3F802460B4630463946FEF7DDF82EA31C
:1020C000D3E90023FEF790FA2DA3D3E900230646B7
:1020D0000F4620462946FEF787FA02460B46304651
:1020E0003946FEF7CBF80D9A2E4B1344D3E9002363
:1020F000FEF7C4F8CDE906010998FEF70BFA0D9A30
:10210000294B1344D3E900890646DDE906230F462F
:10211000DDE90401FEF7B2F842464B46FEF7AEF8A1
:1021200032463B46FEF7AAF8002432463B4620469C
:102130000D46FEF7A1F842464B46FEF79DF835E006
:10214000EF4E454A287ECA3F65DBC9934A86CD3F9C
:1021500001411DA96074D13F4D268F515555D53F82
:10216000FFAB6FDBB66DDB3F033333333333E33F1A
:10217000000000E009C7EE3FFD033ADC09C7EE3F6F
:10218000F5015B14E02F3EBE0000F07F00004043ED
:102190008E98030079B60B0048E002080000F03F7B
:1021A0000000084028E0020838E00208DDE90423C6
:1021B000FEF762F802460B46DDE90601CFE54FF077
:1021C000010A69E696A3D3E9002330463946FEF7B3
:1021D00055F84246CDE900014B4620462946FEF718
:1021E0004BF802460B46DDE90001FEF78DFC0028A6
:1021F0007FF401AE40F2094323E09D4C21F00043FF
:10220000A34219D99B4B0B4403430AD086A3D3E9BD
:102210000023DDE90201FEF7E7F983A3D3E90023F8
:10222000E0E442464B46FEF727F832463B46FEF7CF
:1022300061FC0028DED0E9E78F4A934240F2E1805A
:102240001B15A3F2FE334FF4801A4AFA03FADA445C
:10225000CAF30A518948A1F2FF31084100EA0A0392
:10226000CAF3130AC1F114014AF4801A4AFA01FAB6
:10227000BBF1000F404649464FF00002B8BFCAF11B
:10228000000AFDF7F9FF8046894632463B46404644
:102290004946FDF7F3FF002465A3D3E90023204658
:1022A0000D46FEF7A1F94246CDE900014B46204616
:1022B0002946FDF7E1FF02460B4630463946FDF759
:1022C000DBFF5DA3D3E90023FEF78EF95CA3D3E91E
:1022D00000238046894620462946FEF785F90246B6
:1022E0000B4640464946FDF7C9FF04460D460246E7
:1022F0000B46DDE90001FDF7C1FFDDE90023804663
:102300008946FDF7B9FF02460B4620462946FDF7F0
:10231000B3FF424606460F464B4640464946FEF747
:1023200063F949A3D3E9002304460D46FEF75CF99F
:1023300047A3D3E90023FDF79FFF22462B46FEF774
:1023400053F945A3D3E90023FDF798FF22462B4616
:10235000FEF74AF942A3D3E90023FDF78DFF224699
:102360002B46FEF741F940A3D3E90023FDF786FF92
:1023700022462B46FEF738F902460B4640464946B0
:10238000FDF77AFF04460D4602460B464046494695
:10239000FEF72AF90022CDE900014FF080432046E4
:1023A0002946FDF769FF02460B46DDE90001FEF70D
:1023B00045FA324604460D463B4640464946FEF73E
:1023C00013F932463B46FDF759FF02460B462046BD
:1023D0002946FDF751FF42464B46FDF74DFF0246A9
:1023E0000B4600202649FDF747FF01EB0A54B4F5E0
:1023F000801F09DA524600F047F8DDE90223FFF7B3
:10240000F1BBDDF810A040E72146F6E7DDE9000169
:10241000FFF74CBB30463946FFF748BBAFF30080AF
:10242000FE822B654715973C59F3F8C21F6EA50134
:1024300000000000432EE63FEF39FAFE422EE63F51
:10244000396CA80C615C20BED0A4BE726937663EB0
:10245000F16BD2C541BDBB3E2CDE25AF6A56113FA4
:1024600093BDBE166CC1663F3E5555555555C53F8B
:10247000FFCB904000346F3F0000E03F0000F0FFD2
:102480000000F03F000000002DE9F0481646C1F3BF
:102490000A5283468C460B4682B921F0004303431F
:1024A00035D02D4B0022FEF79FF82C4B9E428346E1
:1024B0008C460DDA24A3D3E900231CE040F2FF7719
:1024C000BA4209D10246FDF7D9FE83468C461EE08A
:1024D000C1F30A520B46363A324440F2FE718A4248
:1024E0000CDD1BA3D3E900234FEADC711C4661F32A
:1024F000DF741B482146FEF777F8E6E7002A0ADD7D
:1025000023F0FF4323F4E00343EA0255AC46584668
:102510006146BDE8F08812F1350F09DA0CF000438E
:1025200043F0D27141F4B7310E4841F01F01C1E7C9
:1025300023F0FF43363223F4E00343EA02555846C2
:10254000094B29460022D6E759F3F8C21F6EA501B0
:102550009C7500883CE4377E00005043B03CFFFF90
:102560009C75008859F3F8C20000903C10B5A8B0E3
:102570000C460178684600F0E1FEA022694620463C
:102580002AF065FE034B1B7813B1002028B010BD64
:102590000420FBE7C50B002010B5A4B00C4690E862
:1025A0000600684620F0C8F89022694620462AF0C6
:1025B0004EFE044B1B7813B1002024B010BD042044
:1025C000FBE700BFC40B002010B5B0B00C4601689B
:1025D000684620F0C7F8C022694620462AF037FE38
:1025E000034B1B7813B1002030B010BD0420FBE773
:1025F000C30B002010B5A8B00C460178684620F047
:1026000075F8A022694620462AF021FE034B1B786C
:1026100013B1002028B010BD0420FBE7C20B00203E
:1026200010B5A4B00C460178684620F072F89022EC
:10263000694620462AF00BFE034B1B7813B100209D
:1026400024B010BD0420FBE7C10B002010B5C2B0C0
:102650000C4690E80600684620F0A6F84FF4847215
:10266000694620462AF0F3FD034B1B7813B1002086
:1026700042B010BD0420FBE7C00B002030B5C3B052
:1026800004460D46802200F10C0168462AF0DFFD69
:1026900094E80E0020A820F09EF8822220A9284667
:1026A0002AF0D5FD034B1B7813B1002043B030BD99
:1026B0000420FBE7BF0B002010B5A2B00C46017848
:1026C000684620F0A2F88822694620462AF0BFFD1D
:1026D000034B1B7813B1002022B010BD0420FBE790
:1026E000BE0B002010B5A2B00C460178684620F061
:1026F0009FF88822694620462AF0A9FD034B1B78E3
:1027000013B1002022B010BD0420FBE7BD0B002058
:1027100010B5A2B00C460178684620F09CF88822DB
:10272000694620462AF093FD034B1B7813B1002025
:1027300022B010BD0420FBE7BC0B002084B070B5B4
:10274000A6B005462BA880E80E00104B0393104B53
:102750000293002401940094234602220D4920464E
:102760001FF029FF0C4B1C7082263246214605A81B
:102770002AF0A8FD3246214628462AF0A3FD284625
:1027800026B0BDE8704004B0704700BF8CE002087E
:1027900068E00208E4DD0208BB0B002030B5C3B0DE
:1027A00004460D46802200F10C0168462AF04FFDD8
:1027B00094E80E0020A8FFF7C1FF822220A9284636
:1027C0002AF045FD034B1B7813B1002043B030BD08
:1027D0000420FBE7BB0B002030B5C3B004460D4618
:1027E000802200F10C0168462AF031FD94E80E00C9
:1027F00020A820F069F8822220A928462AF027FD87
:10280000034B1B7813B1002043B030BD0420FBE71D
:10281000BA0B002010B5A2B00C460178684620F033
:102820002DF88222694620462AF011FD034B1B78C1
:1028300013B1002022B010BD0420FBE7B90B00202B
:1028400010B5A2B00C460178684620F02AF8822222
:10285000694620462AF0FBFC034B1B7813B100208D
:1028600022B010BD0420FBE7B80B002000487047E1
:1028700018060020F8B586684768046912F0FC6FF6
:1028800033D1134602F03002302A3ED0504A1A406B
:10289000504DAA4249D003F00602042A55D013F441
:1028A000402202D013F4003F5CD0B2F5402F69D033
:1028B00013F4801F05D022B113F0010F01D083F46F
:1028C000402323F480123D684FF0010C0CFA01FC08
:1028D00015EA0C0F66D013F0010F73D023684CEA91
:1028E0000303236033689847F8BD3B4C4FF43573BE
:1028F00022463A493A4820F03BFC3A4820F038FC5E
:102900004FF43571204620F02CFC334C40F2D72395
:1029100022463549324820F02BFC344820F028FC70
:1029200040F2D721204620F01CFC2B4C40F2DB2348
:1029300022462F492A4820F01BFC2E4820F018FC84
:1029400040F2DB21204620F00CFC234C40F2DE2339
:1029500022462949224820F00BFC40F2DE21204685
:1029600020F0FFFB1C4C40F2E123224623491C4887
:1029700020F0FEFB224820F0FBFB40F2E121204644
:1029800020F0EFFB144C40F2E52322461D49144889
:1029900020F0EEFB1C4820F0EBFB40F2E521204646
:1029A00020F0DFFB0C4C40F2F123224617490C4883
:1029B00020F0DEFB164820F0DBFB40F2F121204640
:1029C00020F0CFFB236823EA0C0323608AE700BFD3
:1029D00002000300020001001CE5020850E50208A5
:1029E000B0E50208D0E50208F4E5020830E6020886
:1029F00070E60208B8E6020808E702083CE70208A9
:102A000084E70208C0E7020804E8020830E8020888
:102A100070E8020810B543681C68012303FA01F14D
:102A20000C4204D09AB18368DB68984710BD0A4C09
:102A300040F2335322460949094820F099FB0948DE
:102A400020F096FB40F23351204620F08AFB836849
:102A50001B699847EAE700BF1CE5020830E8020856
:102A6000B0E5020870E8020838B5436805691C68DB
:102A700001238B401C4208D02C68234202D0B2FABA
:102A800082F25209FFF7C6FF38BD084C40F25C5392
:102A900022460749074820F06BFB074820F068FBF7
:102AA00040F25C51204620F05CFB00BF1CE50208B0
:102AB00030E80208B0E5020870E8020808B5012213
:102AC00006210248FFF7D0FF08BD00BF7CD70208EF
:102AD00008B5012207210248FFF7C6FF08BD00BF65
:102AE0007CD7020808B5002207210248FFF7BCFF87
:102AF00008BD00BF7CD7020810B584B004460D485D
:102B00000D4B186029F0EBFF40B904F53850103038
:102B1000012211462AF02BF904B010BD074B029395
:102B20000020019000900346032205491FF0ACFDF0
:102B3000EBE700BF84D80208BC36012084E8020815
:102B4000DCDD020810B50446094829F09EF9012091
:102B500012F0A6FD012012F0B7FD064B186812F026
:102B60008FFD022012F05AFD2046FFF7C5FF10BD71
:102B70003726020870EC020800B58FB0212205A9A3
:102B80004FF4407013F0E0FA08B9002319E00F4B3E
:102B90000293002001900090034601220C491FF08F
:102BA00073FD10E003F138026A4412F8240C094A5C
:102BB00002EBC3010871084951F8231042F83310A1
:102BC0000133202BEED90FB05DF804FB9CE802081E
:102BD000DCDD0208B0350120ECEB020800B585B061
:102BE000A0F5E163B3F5486F01D800230BE00F4B6C
:102BF0000293002001900090034601220C491FF02F
:102C000043FD0DE00133202B0DD80A4A52F8332042
:102C10009042F7D1074A02EBC303187913F0ACFBDB
:102C200005B05DF804FB0020F8E700BFD4E8020817
:102C3000DCDD0208B035012030B585B0054611E075
:102C4000224B02930020019000900346012220496C
:102C50001FF01AFD05B030BD20461BF017FA00200A
:102C60001FF021FD05F5385410344FF0FF324FF0BE
:102C7000FF3320461BF052FA164B18688368DB6856
:102C800039219847144B18600028D9D1114B186886
:102C900005F5385283681B691F21984705F50053D5
:102CA000D3F8000EFEF71CF84FF07E51FEF7D8F86F
:102CB0000028D1D0094B02930020019000900346D8
:102CC000032203491FF0E0FCC6E700BF20E9020829
:102CD000DCDD0208BC360120B83601208CE9020890
:102CE000F0B589B00446083004F1C0010026002781
:102CF000CDE90667002504950A2303930295019503
:102D00000094124B41F288321AF044FC20601049C2
:102D10001AF0DAFA04F5A650083004F5AC51CDE902
:102D2000066704950B230393029501950094094BC4
:102D300041F288321AF02EFC04F58054C4F8C00425
:102D400005491AF0C1FA09B0F0BD00BFC726020854
:102D5000A4E90208392C0008BCE9020810B584B0C7
:102D60000446374829F0BBFE002831D0354829F009
:102D7000B6FE002836D0344829F0B1FE00283BD0FA
:102D80004FF4C02205213048FFF774FD00283DD1E3
:102D9000012205212C48FFF767FE20461FF068FC42
:102DA0002046FFF7CFFE032013F05CFA002838D14D
:102DB000264B0293019000900346032224491FF002
:102DC00063FCFFF7D9FE2046FFF78AFF04B010BD71
:102DD000204B029301900090034601221C491FF0F2
:102DE00053FCC3E71C4B0293019000900346012261
:102DF00017491FF049FCBEE7184B02930190009061
:102E00000346012212491FF03FFCB9E7144B02931D
:102E1000002001900090034601220D491FF034FC70
:102E2000B6E7104B02930020019000900346032266
:102E300007491FF029FC2046FEF712FAC3E700BF3E
:102E40000CD80208DCD702087CD7020844EA020842
:102E5000DCDD0208D0E90208E8E9020800EA02081D
:102E600020EA02087CEA02082DE9F0478AB00E4603
:102E70009246D0E9008940464946FDF74FFE044698
:102E8000FDF748FB02460B4640464946FDF7F4F97C
:102E90000022224BFDF7A8FBFDF740FE0546D6E9D0
:102EA000008940464946FDF739FE0646FDF732FBEC
:102EB00002460B4640464946FDF7DEF90022174B15
:102EC000FDF792FBFDF72AFE0746DAE90089404646
:102ED0004946FDF723FE8246FDF71CFB02460B46E2
:102EE00040464946FDF7C8F900220C4BFDF77CFB34
:102EF000FDF714FE0890CDF81CA0069705960495E2
:102F00000394074B02930020019000900346032294
:102F100004491FF0B9FB0AB0BDE8F08700408F40BC
:102F2000A8EA0208DCDD0208F0B58DB00C46037992
:102F3000152B00F2EF81DFE813F016002B003400B0
:102F40003D00580061006A007E00D200FD002801AB
:102F5000520163016A01ED0179019101AB01A20106
:102F6000BC01CF01D401FEF7DFFB11F07BFE04F5BD
:102F70003755C5E9000111F06FFE45E9020104F57E
:102F800036503830FEF740FAC5E902010DB0F0BD09
:102F9000FEF7CAFB11F066FE04F53754C4E90001E0
:102FA000F4E7FEF7C1FB11F057FE04F5375444E98E
:102FB0000201EBE7FEF7B8FB11F054FE04F53756BB
:102FC000C6E9000111F048FE46E9020104F5365554
:102FD00038352846FEF718FAC6E9020132460832AB
:102FE00029463046FFF740FFD0E78368187812F093
:102FF00057FB04F53954C4E90201C7E78368187820
:1030000012F04EFB04F53954C4E90401BEE706A8EA
:1030100028F0BDFF04F53853DDE90601C3E90C01D2
:1030200004F53954DDE9082344E90223DDE90A23E4
:10303000C4E90023AAE701F53957AC4ED7E90201EC
:10304000FDF76CFD0390AA4B0293002501950095B6
:103050002B460322314628461FF016FBD7E9040110
:10306000FDF75CFD0390A34B0293019500952B4661
:103070000322314628461FF007FB04F53853D3E9F5
:103080000C01FDF74BFD03909B4B029301950095BE
:103090002B460322314628461FF0F6FA04F5395430
:1030A00054E90201FDF73AFD0390944B0293019518
:1030B00000952B460322314628461FF0E5FAD4E955
:1030C0000001FDF72BFD03908D4B029301950095B8
:1030D0002B460322314628461FF0D6FA56E701F563
:1030E000385510354FF0FF324FF0FF3328461BF0B4
:1030F00015F8844B18688368DB6839219847824B40
:10310000186060B97F4B186804F53752383283680D
:103110001B691E21984728461AF0B8FF36E77B4BFB
:103120000293002001900090034601226F491FF096
:10313000ABFAF0E701F5385510354FF0FF324FF09C
:10314000FF3328461AF0EAFF6E4B18688368DB6885
:10315000392198476C4B186060B96A4B186804F5C0
:103160003852083283681B692021984728461AF094
:103170008DFF0BE7654B0293002001900090034602
:1031800001225A491FF080FAF0E701F53855103551
:103190004FF0FF324FF0FF3328461AF0BFFF594B74
:1031A00018688368DB6839219847574B186058B90D
:1031B000544B186804F5385283681B691F219847DF
:1031C00028461AF063FFE1E6504B0293002001907D
:1031D00000900346012245491FF056FAF0E701F539
:1031E000385510354FF0FF324FF0FF3328461AF0B4
:1031F00095FF2046FEF73CF928461AF047FFC5E642
:1032000083689A685968188812F014FFBEE68568CA
:10321000AA686968288812F097FF04F50054AA6824
:103220006968D4F8F00D2AF012F8AFE6856800243A
:1032300010E0E0B213F0E6FA4FF47A701FF033FAC0
:103240002E6813F0F7FA46F824004FF47A701FF056
:103250002AFA01342B7AA342EBD897E68368187ACE
:1032600013F0D0FA64201FF01EFA13F0E3FA04F50D
:103270000054C4F8B80E64201FF015FA86E613F067
:10328000BFF804F50054FDF72BFDC4F89C0E7DE655
:1032900083681868FFF7A2FC13F0ACF804F500543B
:1032A00084F8980E13F0ACF8FDF71AFDC4F89C0EE4
:1032B0006CE601F50054D4F89C0EFDF73DF9CDE91C
:1032C0000401134B02930020019000900346032257
:1032D00006491FF0D9F959E6836818781FF0ACF950
:1032E00054E6836818781FF0B5F94FE6DCDD020874
:1032F00028EB020848EB020864EB020884EB0208A2
:10330000A4EB0208BC360120B836012020E90208EF
:10331000C4EB02080393054B029300200190009038
:103320000346032202491FF0AFF92FE6E0EB020843
:10333000DCDD020800487047FC090020F0B5BBB096
:10334000044629F075FE0022431857D21344464A1A
:10335000A2FB035626F0030505EB96055B1BC01A7E
:1033600061F100014FF0CC3300FB03F302FB0133AA
:10337000A0FB02021344450845EAC375A0223B495D
:1033800012A829F064FF3A4B1B78002B38D0384B39
:1033900000221A7029F04CFE02460020531861D218
:1033A0000344314FA7FB030626F0030000EB960011
:1033B0001B1A0020D21A61F100064FF0CC3102FB3B
:1033C00001F107FB0611A2FB07231944520842EA48
:1033D000C172521B0492274B0393274B0293019017
:1033E00000900346032225491FF0CFF9A02212A91D
:1033F000204629F02CFF20463BB0F0BD0122A5E776
:103400008DF8483007AE1E4F0FCF0FC60FCF0FC637
:1034100097E8070003C632800DF11C0E0DF1490C30
:103420000FAF76460FCECCF80000CCF80410CCF8E5
:103430000820CCF80C30B6460CF1100CBE42F0D18E
:10344000BEE80300CCF80000CCF80410BEF8002061
:103450009EF80230ACF808208CF80A30044B0122A8
:103460001A7097E701209BE7CDCCCCCC58DF02083F
:10347000FC5B0120BCEC02087CEC020834DD020895
:1034800090EC020810B584B0FFF754FF17F002FE6D
:1034900038B1FFF7EBF9012116F0B4FC78B104B0B4
:1034A00010BD0E4B02930024019400942346012288
:1034B0000B4920461FF022FA204629F038FB094B21
:1034C00002930024019400942346012204492046DB
:1034D0001FF014FA204629F02AFB00BFE0EC020896
:1034E00034DD020810ED020830B5E9B02248FFF7DC
:1034F00035FCFFF7C7FF41F288301FF00EFA0EE0EF
:1035000003931E4B0293002001900090034601227A
:103510001B491FF0F3F94FF47A701FF0FEF90021F8
:103520002291ADF88C104FF6FF73ADF8883064250A
:10353000ADF88A5045AC8C22204629F0C3FEADF888
:103540001851842247A9684629F081FE94E80C00AE
:1035500022A924A81FF03EF89DF88C30002BCFD173
:10356000084B029300200190009003460322044977
:103570001FF0C4F9CFE700BFC00F002040ED0208E4
:1035800034DD02085CED02082DE9F04F91B00592A0
:103590000393134602F004020092C3F3C20210F038
:1035A0000303019340F0658207468A460132041DF9
:1035B000002848D027B1E31B0433534500F25C8256
:1035C000039B5D1E019B04930693029300264FF01C
:1035D000FF3B4FF00408C1460FB1039B2360531E0D
:1035E0000793002A40F35F81059B13F0020227D066
:1035F0000120E11B8B081AB1B1F5007F80F06781D3
:10360000029A0F2A00F27381002F00F08481DBB24E
:10361000029901F140026A4402F8103C02F820BC11
:10362000002800F0748163F07F0301F140026A44D6
:1036300002F8103C049B01330493029B0133029374
:10364000043400223DE001F0070A5444CAF1080A9C
:10365000B0E7002634E0002632E0002630E04FF0EC
:103660000808C1462CE025292AD10BF1010B0126BF
:103670004FF00408C14623E04729ECD82A2912D389
:103680002A39C9B2012000FA01F14FF6DA7001427D
:1036900016D111F0625F40F0C38011F0010F40F0CD
:1036A0008D8000260CE0252903D10BF1FF3B00267D
:1036B00006E001D9002603E0202901D02329CCD13E
:1036C0001D466B1C6978002900F04F81002ECAD07E
:1036D0007A29BED84C29CFD34C392E2960D801A0E5
:1036E00050F821F0C1360008A1370008A1370008C2
:1036F000A1370008A1370008A1370008A13700084A
:10370000A1370008A1370008A1370008A137000839
:10371000A1370008B5370008A1370008A137000815
:10372000A1370008A1370008A1370008A137000819
:10373000A1370008A137000821380008A137000888
:10374000B5370008B53700082138000821380008CF
:1037500021380008C1360008B53700085F36000878
:10376000A1370008C1360008A13700087F380008DB
:10377000B53700087F380008A1370008A1370008D6
:1037800089380008AD370008B5370008A1370008B0
:10379000A1370008B5370008A1370008A537000891
:1037A00000268DE74FF00408C14689E74FF0040872
:1037B000C14685E729786C2924D000264444013C81
:1037C000C8F100010C40204627B1E11B49448A455D
:1037D000C0F05581002A5DD1B9F1040F00F0AC8032
:1037E000B9F1080F40F0B0801A99073121F00701B4
:1037F00001F108001A90D1E900010FB1C4E90001FC
:1038000008345DE713F8021C6C2904D000264FF041
:103810000408C146D2E700264FF00808C146CDE7AC
:1038200029784C291BD01A99073121F0070101F1A1
:1038300008001A90D1E90001073424F0070447B1C9
:10384000E61B0836564514D82D784C2D14D0C4E903
:103850000001083400264FF00808C14630E71A99E5
:10386000073121F0070101F108001A90D1E90001A8
:10387000E2E76FF01B00F9E0C4E90001E9E7002688
:103880004FF00408C14699E7324600264FF004087D
:10389000C14693E704461A9A111D1A9112680392C1
:1038A000079A1D4698E67A4B039A9A4204D3794BBD
:1038B0009A420AD3002300E00023002B7FF494AE49
:1038C000059B03F00202002093E60123F5E7724C0A
:1038D00040F27B232246714971481FF049FC714830
:1038E0001FF046FC40F27B2120461FF03AFC6A4C58
:1038F0004FF420732246694969481FF039FC6A4831
:103900001FF036FC4FF4207120461FF02AFC069B66
:103910000133069391E610B10AF1010A8DE6009B8E
:1039200013B10AF1020A88E60398FDF790FC00EB58
:103930000A0303F1020A80E61A99081D1A90096821
:1039400007B121600434BBE6534C40F2C523224644
:10395000524953481FF00CFC494654481FF008FCDC
:1039600040F2C52120461FF0FCFBE31BB3F5806F3E
:1039700013D217B300223A609B083B70009B03B33D
:10398000069BFB70049BBB709BBB019DDDF8089000
:10399000DDF810B0DDF80C804BE03F4C40F2D12355
:1039A00022463E493E481FF0E3FB41481FF0E0FB42
:1039B00040F2D12120461FF0D4FB5344A3F108006C
:1039C00054E0069B7B70DDE701339842DDD903F1BB
:1039D00040026A4412F8101C12F9102C002AF3DA83
:1039E00001F07F01E21B013292454BD304F8011B29
:1039F000EAE7019B0298E8E7009B3BB305F140032F
:103A00006B4413F8203C04F8013B019EE31B334454
:103A100001339A4539D305F140036B4413F8103C48
:103A200004F8013B32464146204629F010FC34445C
:103A30000135A94519D9BBF1000FDDD005F14003CF
:103A40006B4413F9103C002BD6DAF1E705F1400383
:103A50006B4413F8103C57F82380002247F82320CA
:103A60004046FDF7F4FB461CD0E7E01B11B0BDE873
:103A7000F08F6FF00D00F9E76FF01B00F6E76FF0C5
:103A80001B00F3E76FF01B00F0E76FF01B00EDE7A2
:103A90004CD50208C483030870ED020880E70208D1
:103AA000B0E50208B8ED0208DCED0208F8ED020806
:103AB00010EE020808B503280AD840010830BFF309
:103AC0005B8F0A4B1B58BFF35B8F43B1002008BDCF
:103AD00020F024FD092303604FF0FF30F7E720F0CA
:103AE0001DFD092303604FF0FF30F0E7C0360120D1
:103AF00008B5002003280AD843010833BFF35B8FC1
:103B0000064AD358BFF35B8F3BB10130F2E720F098
:103B100005FD172303604FF0FF3008BDC0360120BC
:103B200000B503465A010832124902EB010CBFF3FB
:103B30005B8F8A58BFF35B8FCAB1501EBFF35B8F98
:103B40005CE8001F914204D14CE8000EBEF1000F6A
:103B5000F6D1BFF35B8FE5D1012A06D1054A5901A1
:103B600002EB43130020505058605DF804FB1046F0
:103B7000FBE700BFC036012043010833064A134467
:103B8000BFF35B8F53E8000F013043E80002002AC7
:103B9000F8D1BFF35B8F7047C036012070B5044683
:103BA0000E461546FFF786FF00280FDB084B03EB98
:103BB00044135B6833602DB163010833044A134436
:103BC00004332B606401024B185970BD0020FCE7E0
:103BD000C036012010B54FF0FF324FF0FF330E48D2
:103BE00019F056FFFFF784FF041E04DA0A481AF0A2
:103BF00065F8204610BD2046FFF7BEFF074B600169
:103C000003EB441100221A504A6008301844043073
:103C100029F01BF8EAE700BFE40C0020C0360120C1
:103C200008B5034610460B4A4FEA431E02EB431CFD
:103C300042F80E10CCF8040050B1C26842B173468D
:103C40000833044A1344043340F205121EF0ACFE5C
:103C500008BD00BFC0360120014B1860704700BF8F
:103C6000340A002010B586B0044603900491002168
:103C70000591009103A9064800F07AFA059B049A81
:103C8000934201DA0022E254059806B010BD00BF4D
:103C9000D529020800293BD038B50D4604682046D6
:103CA0001EF05BFF0146C20004EBC0035B8813F00B
:103CB000010F0FD000EB530334F833001B1A994265
:103CC00017D1A3185A8822F001025A8020461EF00C
:103CD00060FF38BD0F4CAF2322460F490F481FF03D
:103CE00047FA29460E481FF043FAAF2120461FF03D
:103CF00038FA084CB72322460A4908481FF038FA18
:103D0000294609481FF034FAB72120461FF029FA46
:103D1000704700BF3CEE020860EE0208B0E5020802
:103D200074EE0208ACEE0208D4EE02082DE9F84366
:103D3000154606684B420B4001F1FF3919EA0109AB
:103D400004D0032B4AD84C46994603E00C4604297C
:103D50003FD90423621E224244D1002D66D0B268AE
:103D6000B2EBD50F65D96119C91A0B31C9083046B4
:103D70001EF040FF074600285ED0014630461EF088
:103D80006BFE00EB0908A04408F1FF38644208EA22
:103D90000408A8EB090808EB0504073424F007041D
:103DA000414630461EF0D9FE0546A41BE41087426A
:103DB00028D3EF0006EBC5035B8805EB53039C4259
:103DC0002AD33E44738843F0010373804046BDE824
:103DD000F88311461EF049FF8046F7E74C469946A6
:103DE0000423B7E7164C4FF4A27322461549164830
:103DF0001FF0BEF915481FF0BBF94FF4A271204621
:103E00001FF0AFF90246394630461EF06FFE3946C4
:103E100030461EF0B2FECCE72246294630461EF060
:103E200065FE214630461EF0A8FECAE74FF00008A6
:103E3000CCE74FF00008C9E74FF00008C6E700BF25
:103E40003CEE020810EF0208B0E502082CEF020871
:103E500070B5B2F5802F1FD20346042A2CD9043A3C
:103E6000C81D20F007000A4422F00702121AD508E4
:103E7000172A31D9186085600023C360B5FA85F12F
:103E8000C1F1200EC1F124018900CE1DF1084B1CA7
:103E9000AB4231D8002345E0344C40F2EB132246CC
:103EA000334934481FF064F933481FF061F940F298
:103EB000EB1120461FF055F92C4C4FF4F9732246B4
:103EC0002E492C481FF054F92D481FF051F94FF49A
:103ED000F97120461FF045F9244C40F2FB132246AD
:103EE000284924481FF044F925481FF041F940F2C1
:103EF000FB1120461FF035F91C4C4FF4037322468A
:103F000021491C481FF034F91D481FF031F94FF4C6
:103F1000037120461FF025F903F1040C002440F83A
:103F20002C4001337345F7DB4C00A4B244804FF0C2
:103F3000000CA0F800C044F0010444806B1A4FEA62
:103F4000430E26F00704A51C20F805E0015322F0DB
:103F50000704951C20F805C002440353538843F01E
:103F6000010353801EF009FE70BD00BF3CEE020845
:103F70004CEF0208B0E5020864EF02087CEF02088B
:103F8000A0EF0208BCEF0208E8EF0208C0434FF0C0
:103F9000000C944519D230B511F80C3083EA000EAC
:103FA0000EF00F0E0A4C54F82E5085EA101080EADD
:103FB000131303F00F0354F8233083EA10100CF1AD
:103FC000010C9445E8D3C04330BDC043704700BFE7
:103FD00014F0020884460268002006E000EB80002E
:103FE000013203EB4003A3F1300013780349C95CAD
:103FF00011F0040FF2D1CCF800207047F97B0308D0
:1040000084460846012226E09CF8003043F0040371
:104010008CF80030F2B101301CE09CF8003043F025
:1040200008038CF80030F5E79CF8003043F01003EB
:104030008CF80030EEE79CF8003043F020038CF859
:104040000030E7E79CF8003043F040038CF8003084
:10405000E0E7002242B30378203B102BF9D801A1FE
:1040600051F823F02940000853400008534000084D
:1040700037400008534000085340000853400008F0
:1040800053400008534000085340000853400008C4
:104090001B40000853400008094000085340000836
:1040A00053400008454000089CF8003003F04403EA
:1040B000442B00D070479CF800306FF386138CF8C7
:1040C0000030F7E72DE9F84F05460C469346994630
:1040D0000A9FD078254B13F800A00AF0030A1EF0BF
:1040E00078FF064615E0BAF1010F20D0D2B2573260
:1040F000D2B207F8012D3246434628462146FCF746
:1041000009FFB54274F1000415D34F4513D9054694
:104110000C464FF000083246434628462146FCF73D
:10412000F9FE092ADFD8D2B23032D2B2E1E7D2B2F8
:104130003732D2B2DDE79BF8003013F0200F03D006
:10414000082E04D0102E09D03846BDE8F88F9BF811
:10415000023043F008038BF80230F5E79BF8023099
:1041600043F010038BF80230EEE700BFF97B030841
:104170002DE9F04F91B006460D4691460393002479
:1041800099F80000002800F0B982252808D009F12C
:1041900001092946B0470028C0F2B1820134EFE797
:1041A00000230493059306930793089309934946C4
:1041B00006A81EF0ECFE02909DF8193013F0010FD6
:1041C00000F09780039B1A1D03921F68002FC0F216
:1041D00088809DF8193013F0040F00F09C80039B39
:1041E0001A1D0392D3F800A0BAF1000FC0F28A8022
:1041F0000023079308939DF81A3003F007039DF8F6
:104200001910C1F3C301012B00F08E80022B00F0C6
:10421000D380042B00F02481032B00F03B819DF818
:10422000188018F0030B40F03B819DF81B30253BB4
:10423000532B00F2CA81DFE813F04001C801C80126
:10424000C801C801C801C801C801C801C801C80126
:10425000C801C801C801C801C801C801C801C80116
:10426000C801C801C801C801C801C801C801C80106
:10427000C801C801C801C801C801C801C801C801F6
:10428000C801C801C801C801C801C801C801C801E6
:10429000C801C801C801C801C801C801C801C801D6
:1042A0008101C801C801C801C801C801C801C8010D
:1042B000C801C801C8015E016701C801C801C80181
:1042C000C8016701C801C801C801C801BD01810159
:1042D000A101C801C8014D01C8018101C801C8017F
:1042E00081019DF8183043F004038DF818307F42A7
:1042F0006FE79DF91830002B02DB4FF0FF3768E7BE
:10430000079F66E79DF819306FF341038DF8193068
:104310004FF0FF3A6CE713F0020F02D0DDF820A057
:1043200066E74FF0FF3A63E7CB1E042B04D8DFE8C3
:1043300003F00B1D29353500039B1A1D03921B68E2
:10434000DA170493059206E0039B1A1D03921B687B
:10435000DA1704930592012928D002297FF45FAF70
:10436000BDF91030DA170493059258E7039B073321
:1043700023F0070303F108020392D3E90023CDE9F8
:104380000423E8E7039B073323F0070303F1080244
:104390000392D3E90023CDE90423DCE7039B1A1D34
:1043A00003921B68DA1704930592D4E79DF9103045
:1043B000DA170493059232E7CB1E042B04D8DFE80A
:1043C00003F00B1F35414100039B1A1D03921B682C
:1043D0000493002305931EE09DF81B30632B07D048
:1043E000039B1A1D03921B6804930023059312E09C
:1043F000039B1A1D03921B680493002305930AE094
:10440000039B073323F0070303F108020392D3E968
:104410000023CDE9042301291CD002297FF4FFAE3B
:10442000BDF81030049300230593F8E6039B07338F
:1044300023F0070303F108020392D3E90023CDE937
:104440000423E8E7039B1A1D03921B6804930023CF
:104450000593E0E79DF81030049300230593DEE612
:1044600008290BD0039B073323F0070303F108024D
:104470000392D3E90023CDE90423D0E6039B07335D
:1044800023F0070303F108020392D3E90023CDE9E7
:104490000423C4E6039B1A1D03921B680493BEE623
:1044A000029F3B464A46294630461EF0C6FD00287C
:1044B000C0F225810444B94662E629462520B0476A
:1044C0000028C0F21C810134D8460DF13E0A4FF09D
:1044D00000097FE0DDF81090BAF1000F06DA4846D7
:1044E000FCF7B5FE09EB000AD84673E05146484692
:1044F00028F010FFF6E7049B8DF82830D8460DF120
:10450000290A0DF1280965E018F0080F05D118F007
:10451000100804D04FF0200801E04FF02B08049A57
:10452000059B002B02DB0492059308E0524263EBEB
:104530004303049205934FF02D0800E0D8460DF197
:104540003E0300930AAB06AADDE90401FFF7BAFDBA
:104550008146BAF1000F6CDB0DF13E03A3EB0903BA
:104560009DF818206FF386128DF818209A4563D9AC
:10457000AAEB030307930DF13E0A2BE0049828B938
:10458000D846DFF880A1AAF1050923E00DF13E032A
:1045900000930AAB06AA0021FFF794FD81469DF81F
:1045A0001A3043F010038DF81A3078238DF81B3041
:1045B000D846CEE72246049906A81EF01FFDD8462D
:1045C0000DF13E0A4FF0000904E0D8460DF13E0A15
:1045D0004FF00009B9F1000F00F08D80AAEB09023D
:1045E000B8F1000F00D001329DF81A1011F0100F31
:1045F00025D00232079B134411F0400F01D0089AD6
:104600001344002F31DDFF1A9DF8183013F0040F0A
:104610002BD113F0400F17D0B8F1000F17D0294657
:104620004046B04700286ADB0134D8464FF0300BD3
:104630000FE00DF13E0ACDE70DF13E0ACAE711F099
:10464000080FD7D00132D5E74FF0200B01E04FF033
:10465000300B3B465F1E002B07DD29465846B0470E
:1046600000284CDB01343B46F4E7B8F1000F05D0DD
:1046700029464046B047002841DB01349DF81A30F6
:10468000C3F30012C3F3C0031A4305D029463020F8
:10469000B047002833DB01349DF81A3013F0100FB7
:1046A00006D029469DF81B00B047002827DB0134BF
:1046B000079B03F1FF38002B07DD29463020B04768
:1046C00000281CDB01344346F3E753464A4629469B
:1046D00030461EF0B2FC002811DB0444002F07DD39
:1046E00029462020B047002809DB0134013FF5E7C7
:1046F000DDF8089044E5DDF8089041E5204611B06A
:10470000BDE8F08F59F002082DE9F04182B08046F3
:104710000E46154600272A4601A940461EF0A7FC72
:10472000044602463146019828F091FD274426446C
:104730002D1B01D0002CEED1394640461EF0B8FCAE
:1047400018B9384602B0BDE8F081054C492322462D
:10475000044905481EF00CFD492120461EF001FDCC
:104760005CF0020884F00208B0E502082DE9F0418F
:1047700082B080460E461546002709E002460199A0
:10478000304628F064FD264427442D1B09D044B14F
:104790002A4601A940461EF0A9FC0446002EEDD190
:1047A000F2E7394640461EF0BEFC18B9384602B062
:1047B000BDE8F081054C8E232246054905481EF0D0
:1047C000D7FC8E2120461EF0CCFC00BF5CF0020816
:1047D00084F00208B0E502082DE9F04182B080467D
:1047E0000E4685680369ED1AAA4200D215460027D5
:1047F0002A4601A940461EF079FC04469EB10246B5
:104800000199304628F023FD264427442D1B01D072
:10481000002CEDD1002140461EF085FC70B93846D1
:1048200002B0BDE8F0810B4C9F2322460A490B4899
:104830001EF09EFC9F2120461EF093FC054CA823F1
:104840002246074905481EF093FCA82120461EF089
:1048500088FC00BF5CF002082C1C0308B0E50208CD
:1048600084F002080C4B1A6842F400721A601A684D
:1048700042F480621A604FF01002EFF3118382F36A
:104880001288BFF36F8F83F31188BFF36F8F034BD1
:10489000034A1A6000207047003C0240200B0020B1
:1048A0000024F40010B143685879704710B5064CE5
:1048B0004FF499732246054905481EF059FC4FF400
:1048C000997120461EF04DFC90F00208C8F00208D5
:1048D000B0E5020810B520B10268D26802B1904775
:1048E00010BD054C8A232246044905481EF040FCB1
:1048F0008A2120461EF035FC90F00208C8F002081C
:10490000B0E5020810B520B10268126962B19047A3
:1049100010BD064C9D232246054906481EF028FC82
:104920009D2120461EF01DFC0020F1E790F00208BA
:10493000C8F00208B0E5020810B518B10268926824
:10494000904710BD054CCF232246054905481EF06F
:104950000FFCCF2120461EF004FC00BF90F002089F
:10496000C8F00208B0E5020810B520B171B10268C4
:104970001268904710BD0B4CB12322460A490B48E0
:104980001EF0F6FBB12120461EF0EBFB054CB223D6
:104990002246074905481EF0EBFBB22120461EF0D7
:1049A000E0FB00BF90F00208C8F00208B0E5020882
:1049B000E0F0020838B50546144C00E01034144B02
:1049C0009C4212D8124B9C421FD22046FFF76AFF2E
:1049D0000028F3D0294620461EF0DDFB0028EDD04C
:1049E00029462046FFF7C0FFE8E70A4C4FF4E27380
:1049F0002246094909481EF0BBFB09481EF0B8FBD6
:104A00004FF4E27120461EF0ACFB38BD04DF020813
:104A100014DF0208F4F0020824F10208B0E50208ED
:104A200048F1020808B528F003FB0022431819D208
:104A300013440D4AA2FB03CE2EF0030C0CEB9E0C8C
:104A4000A3EB0C03C01A61F100014FF0CC3300FB63
:104A500003F302FB0133A0FB02021344400840EAC7
:104A6000C37008BD0122E3E7CDCCCCCC2DE9F041E9
:104A700007460546EDB195FAA5F6B6FA86F60E4C50
:104A800004EB06140123B3406FEA030825EA03058B
:104A9000237B002BEED02046FFF734FF0028E9D11E
:104AA00007EA0807636804221968204600F068F9DD
:104AB000E0E73846BDE8F08104DF02082DE9F04167
:104AC000314B324A9B1A9F2B12D880460F46304BEF
:104AD000BFF35B8F53E8005F6A1C43E800210029A5
:104AE000F8D1BFF35B8F002D4AD1284C002614E08B
:104AF000284C4FF48C732246274928481EF038FB77
:104B00004FF48C7120461EF02CFB63680422196858
:104B1000204600F035F9013610341B4B9C4211D869
:104B2000194B9C421ED2237B002BF5D02046FFF769
:104B3000D1FE2046FFF7E6FE0028E6D00123B34071
:104B40001D43E8E7134C40F225132246144913484D
:104B50001EF00EFB13481EF00BFB40F22511204601
:104B60001EF0FFFAB8F1000F0BD055B12846FFF741
:104B70007DFF0546002FF8D00A201EF013FBF4E756
:104B800000252846BDE8F08114DF020804DF020892
:104B90004C370120F4F0020868F10208B0E5020881
:104BA00024F1020848F10208014B53F82000704735
:104BB0008CF1020848B108B5054A1060054B196030
:104BC000084600F03FFB002008BD6FF0150070475D
:104BD000380A00204037012008B50023054A137029
:104BE000054A1360054A13604FF47A710448FFF7D1
:104BF000E1FF08BDFE5B012044370120483701205A
:104C0000254A0008174B1B7803B1704710B50021E7
:104C10000120FFF753FF144C00E01034134B9C426B
:104C20000BD8124B9C4218D22046FFF73BFE0028BF
:104C3000F3D02046FFF780FEEFE70D4C40F28713DC
:104C400022460C490C481EF093FA0C481EF090FACC
:104C500040F2871120461EF084FA024B01221A709E
:104C600010BD00BFFE5B012004DF020814DF020854
:104C7000F4F0020824F10208B0E5020848F1020845
:104C8000014B01221A707047FD5B01200D4BBFF3F1
:104C90005B8F53E8001F013143E80012002AF8D16E
:104CA000BFF35B8F00B97047074BBFF35B8F53E8CF
:104CB000001F013943E80012002AF8D1BFF35B8FCF
:104CC000F1E700BF443701204837012010B5044602
:104CD000044B1B689847A060214603481EF05DFA0C
:104CE00010BD00BF380A0020FC0B002010B1436843
:104CF0001971704710B5054CDE232246044905485A
:104D00001EF036FADE2120461EF02BFA90F0020843
:104D1000C8F00208B0E5020828B142681160436893
:104D200001225A71704710B5064C40F21713224603
:104D3000054906481EF01CFA40F2171120461EF0E5
:104D400010FA00BF90F00208C8F00208B0E50208AF
:104D50000248034BC01AC008704700BF04DF0208B6
:104D60000CDD020810B50C46FFF7F2FFA04203D994
:104D7000024B53F8340010BD0020FCE70CDD0208A4
:104D800070B504460D461646074BC31A1B11013376
:104D9000D9B2FFF7ABFF63689E7129462046FFF743
:104DA000BBFFFFF76DFF70BD04DF02082DE9F04F78
:104DB00085B002AF81460D4690461E46D7F830B00A
:104DC000D7F838A0BAF1000F47D0FB6B7B60009397
:104DD00053467A6B10210020FEF7D6FB002831DB0A
:104DE000014600EB0B03173300246FF300046FF34D
:104DF00041046FF3820469F3C50468F3881460F317
:104E000053246BF31F5423F00703ADEB030D0DF197
:104E100008086B4613F118000AD0BAF1000F07D04A
:104E2000FB6B009353467A6BFEF7AEFB002816DB54
:104E300033462246294640461EF0DCF90C37BD4673
:104E4000BDE8F08F0B4C752322460B490B481EF032
:104E50008FF9752120461EF084F90020C0E7054C2B
:104E60008F232246044905481EF082F98F212046EF
:104E70001EF077F9F8F1020824F20208B0E5020802
:104E80000EB400B584B0014605AB53F8042B039370
:104E9000002000900348FFF76BF904B05DF804EBC5
:104EA00003B070472332020830B585B011F0440FCB
:104EB00005D01A4B1C6834B9002005B030BD184924
:104EC000FFF7DEFFF9E7174B1968B2FBF1F1B1FB11
:104ED000F4FC154AA2FB0C32D20A4FF4616E0EFBB1
:104EE00012CE124BA3FB0E535B0904FB1C114FF4B3
:104EF0007A7C0CFB01F1B1FBF4F504FB15110CFB02
:104F000001F1B1FBF4F102910195C3EB0311AEEB9A
:104F1000810100910649FFF7B3FFCEE75437012026
:104F200030F2020850370120C5B3A29189888888E1
:104F30003CF2020861B108B52AB1064A52F82320B2
:104F400012B9054A00E0044A0449FFF799FF08BD79
:104F5000704700BFF0F2020858F20208D84903086F
:104F60002DE9F041054690461E46069F81B9002472
:104F70002EB1324610492846FFF782FF0444B7B1EC
:104F8000B8F1000F0DD0079B042B13D00B4909E09B
:104F90000B4B079A53F822200A49FFF771FF04468A
:104FA000E6E706493A462846FFF76AFF04442046EA
:104FB000BDE8F0810449F5E774F2020864F20208E2
:104FC00004F302086CF2020860F202082DE9F04FC7
:104FD00085B005460C46164603939DF8408001F0C7
:104FE000020B01F0010AC1F3C0091EF001F9D8B1AA
:104FF000024612492846FFF743FF0746BBF1000F60
:1050000014D14246514628461EF03EF9CDF80480A0
:105010000F9B00930E9B324649462846FFF7A0FFA0
:10502000384405B0BDE8F08F0027E7E7039A214632
:105030002846FFF739FF0744E3E700BF78F202088C
:1050400011F0100F0BD108B511F0200F03D0044957
:10505000FFF716FF08BD0349FFF712FFFAE7704795
:10506000987A03087CF202082DE9F04105460F46C4
:10507000164698460699FFF7E3FF0024444505DAF3
:1050800024492846FFF7FCFE0134F7E7002409E035
:1050900020492846FFF7F4FE0BE01F492846FFF79A
:1050A000EFFE01340F2C0CDC002C02DD14F0070F96
:1050B000EED0B442F1D23A5D18492846FFF7E0FE3F
:1050C000EFE717492846FFF7DBFE002409E0114906
:1050D0002846FFF7D5FE0BE012492846FFF7D0FE21
:1050E00001340F2C13DC002C02DD14F0070FEED07E
:1050F000B44207D23A5D0C4B9B5C13F0970FEBD197
:105100002E22E9E703492846FFF7BAFEE8E7BDE8A3
:10511000F08100BF70F2020888F2020880F20208F3
:105120008CF2020890F20208F97B03082DE9F041A5
:1051300084B004469DF828500B9F0D9EA5B9012B05
:105140001DD01F484FF0000837B13B4622461D498D
:105150001DF0FAFB002816DB16BB55BB20461EF0DF
:10516000C6F804B0BDE8F0810295019300920B46A9
:1051700000220E99FFF72AFF80461348E4E7124801
:105180004FF00008E0E7114C4FF40273224610493B
:1051900010481DF0EDFF4FF4027120461DF0E1FFB5
:1051A0000E9B0093434632460C9920461EF084F82D
:1051B000D3E72A460E9920461EF072F8CEE700BFCC
:1051C00041320208793202082332020894F20208BE
:1051D000C4F20208B0E502082DE9F04186B00546A8
:1051E0000C461746D1F808800E88C6F38216087858
:1051F000C0F3C2004B6833B1114A9B1A43F3CF018D
:10520000002918DA0023224652F8101BC1F34A2164
:105210006088C0F30B10541801B900220497039062
:10522000029401920096002241462846FFF77EFF35
:1052300006B0BDE8F081FFF795FD0346E3E700BF48
:105240000CDD0208074B01221A6004E04008054A01
:1052500013685B001360044B9842F7D8034B186047
:10526000704700BF5037012040420F0054370120E3
:1052700070B506460D46002405E0315D044883689C
:10528000DB6998470134AC42F7D3284670BD00BFB4
:105290000CD80208014B19600020704770370120BC
:1052A00010B5084827F01BFC00B110BD064C7F2349
:1052B0002246064906481DF05BFF7F2120461DF06F
:1052C00050FF00BF0CD8020818F3020858F3020878
:1052D000B0E5020808B5034B01221A7002481EF01F
:1052E00006F808BDFF5B0120B0F3020810B50C46BC
:1052F000044B1868FFF758FC03460F22214602486A
:10530000984710BD70370120B0F30208072801D973
:1053100000207047024B034483F8BB100120704704
:1053200074370120072801D900207047024B03443D
:1053300093F8BB00704700BF743701200A30024B5E
:1053400043F82010704700BF74370120014B5862AA
:10535000704700BF74370120136800221A705A701A
:1053600001221A70064A92F8C3203AB1022242F092
:1053700001021A7002230B60012070470022F6E739
:105380007437012030B545884FEA152EAEF104037D
:10539000DBB2012B21D9EDB2BEF1070F1FD8114BA3
:1053A0005B6A002400E00344187840B193F801C020
:1053B000F445F8D1A54201D00134F4E7012068B1E9
:1053C0001360BEF1020F02D01B780B6006E09A78E2
:1053D000DB7842EA03230B6000E0002030BD0020B0
:1053E000FCE700BF7437012038B50C460D4B5B6AF3
:1053F000156800E013441A788AB193F801C0BCF133
:10540000040FF7D193F802C0B0F804E0F445F1D1ED
:105410006046FFF787FF28700120206000E0002031
:1054200038BD00BF74370120034B93F8BA00003831
:1054300018BF0120704700BF74370120074B5B6A1B
:1054400000E013441A783AB159780229F9D1197950
:105450008142F6D90120704700207047743701203F
:10546000014B9861704700BF7437012010F0700F36
:1054700007D100F07F0310F0800F13D10120984076
:10548000704710B584B00390084B02930024019438
:10549000009423460122064920461DF035FF204690
:1054A00004B010BD1033012098407047C0F30208CB
:1054B000DCDE020830B585B0054609F0E1FC10F1EC
:1054C000780F0FD00446C8B92846FFF7CFFF114A1E
:1054D000D2F8C43023EA0003C2F8C43000242046C6
:1054E00005B030BD03950C4B029300200190009055
:1054F0000346022209491DF007FFE5E70395084B23
:1055000002930020019000900346012203491DF000
:10551000FBFEE4E774370120DCF30208DCDE02085E
:1055200000F402082DE9F04106460F4690461B4C58
:1055300005E0424639463046A8472CE02434184B53
:105540009C4216D8164B9C4223D26368154A556A72
:10555000AB42F3D3A569002DF0D09978327991420E
:10556000E7D05B79012BE9D1424639463046A8475E
:10557000E4E70D4C40F2D55322460C490C481DF08F
:10558000F7FD0C481DF0F4FD40F2D55120461DF00A
:10559000E8FD6FF08500BDE8F08100BF980F0020A6
:1055A000BC0F00207437012024F4020858F40208CC
:1055B000B0E5020848F10208F8B507460E46154660
:1055C000134C00E02434134B9C420DD8114B9C42E9
:1055D0001AD26369002BF5D02A46314638469847DF
:1055E00003460028EED111E00B4C40F20563224641
:1055F0000A490B481DF0BCFD0A481DF0B9FD40F2F8
:10560000056120461DF0ADFD6FF085031846F8BD1D
:10561000980F0020BC0F002024F4020858F4020860
:10562000B0E5020848F1020838B5154B00E0243314
:10563000144CA34211D8134CA3421ED25C68124DE5
:105640006D6AAC42F3D31D69002DF0D094F802C00E
:105650000479A445EBD1A84711E00C4C4FF4B76393
:1056600022460B490B481DF083FD0B481DF080FDC1
:105670004FF4B76120461DF074FD6FF0850038BD12
:10568000980F0020BC0F00207437012024F402087A
:1056900058F40208B0E5020848F1020830F080032F
:1056A00028D010B51549164B994211D8144B994280
:1056B0001ED20C6A00230A7F9A4207D904EBC30268
:1056C0001279824218D00133DBB2F4E72431EAE7E1
:1056D0000C4C40F2F13322460B490C481DF048FDBA
:1056E0000B481DF045FD40F2F13120461DF039FD1B
:1056F000002002E001207047012010BD980F00201B
:10570000BC0F002024F4020858F40208B0E5020897
:1057100048F1020870B586B00C4600798DF8170084
:10572000FFF7BCFF054640B19DF8176036F08003D7
:1057300006D0FFF779FE18B90546284606B070BDB9
:10574000BCB10396174B02930020019000900346D2
:10575000032215491DF0D8FD9DF8170009F004FB40
:10576000124BDB69002BE8D00DF117010820984798
:10577000E3E703960E4B029300200190009003464E
:10578000032209491DF0C0FD9DF8170009F016FB22
:10579000064BDB69002BD0D00DF11701092098478B
:1057A000CBE700BF7CF40208DCDE0208743701207E
:1057B00090F4020830B587B0044680788DF8100068
:1057C000A388ADF81230E37803F003038DF81430AA
:1057D000FFF74CFE0546334BD3F8C43003421AD1D1
:1057E00004A823F02BF810F1780F1FD060BB9DF8B0
:1057F000100009F00DFB10F1780F35D0002841D1D1
:10580000284B012083F8B900D3F8C4201543C3F80E
:10581000C45007B030BD20461DF085FD27F0D4F9F7
:105820000028DDD196201AF019FCD9E79DF8103038
:1058300003931D4B02930020019000900346022227
:105840001A491DF061FDD2E79DF810300393184B03
:105850000293002401940094234601221349204618
:105860001DF052FD2046D4E79DF810300393114BF4
:105870000293002001900090034602220B491DF084
:1058800043FDBDE79DF8103003930B4B02930024BA
:105890000194009423460122044920461DF034FD62
:1058A0002046B6E774370120A8F40208DCDE0208BF
:1058B000CCF40208F0F4020810F502082DE9F843D0
:1058C0000646194B5C6A0027FF25A846B94607E043
:1058D00094F80380A578B088854212D023781C44C0
:1058E0002378C3B16378042BF2D0052BF6D1B388AB
:1058F0009D42F3D1B278414620461DF029FD07466E
:10590000ECE771888845E9D1C9B2C0B2FFF7FEFC67
:105910000746A146E2E7044BDB6913B1494607207D
:1059200098473846BDE8F88374370120024B0022BF
:105930001A605A60704700BF2F3801202DE9F041EE
:105940000546224B5C6A43881BB10027FF26B04600
:1059500010E0FFF7EBFF6A881C4B83F8BA20DB6985
:1059600013B11B490320984701271EE094F80380D8
:1059700023781C442378BBB16378042BF6D0052B25
:1059800007D0022BF4D166796B889E42F0D10127B3
:10599000EEE76B889E42EBD1B8F1000FE8D12046CC
:1059A000FFF708FF0746E3E717B93846BDE8F0817F
:1059B000FFF7BCFF6A88054B83F8BA20DB69002B30
:1059C000F3D0034903209847EFE700BF7437012065
:1059D0002E38012010B5146890F90030002B0ADB36
:1059E0004378013B082B3AD8DFE803F024392F39FC
:1059F0001A39393921004378062B07D0082B08D0F3
:105A00000BB1002010BDFFF7A7FCFBE7FFF7BAFCC6
:105A1000F8E7144B93F8BA30237001200860F1E7DF
:105A2000807809F0EBF8B0FA80F04009EAE7FFF778
:105A300085FFE7E74388012B01D00020E2E7094B0F
:105A4000002283F8C3200120DCE74388012B01D02A
:105A50000020D7E70120034B83F8C300D2E70020E2
:105A6000D0E700BF7437012070B504460D461646D6
:105A7000184B9B690BB1984748B1237803F01F037B
:105A8000012B0DD0022B13D013B16FF0150070BD98
:105A9000324629462046FFF79DFF88B10020F6E7F1
:105AA0003246294620461DF05CFC60B10020EEE73E
:105AB0003246294620461DF09CFC38B10020E6E71E
:105AC0006FF01500E3E76FF01500E0E76FF01500E9
