:020000040000FA
:100000005054002049210000918700003521000054
:1000100035210000352100003521000000000000DE
:10002000000000000000000000000000E9220000C5
:100030003521000000000000B5220000352100003D
:10004000612400006124000061240000612400009C
:10005000612400006124000061240000612400008C
:10006000612400006124000061240000612400007C
:10007000612400006124000061240000612400006C
:10008000612400006124000061240000612400005C
:10009000612400006124000061240000612400004C
:1000A000612400006124000061240000612400003C
:1000B000612400006124000061240000612400002C
:1000C000612400006124000061240000612400001C
:1000D000612400006124000061240000612400000C
:1000E00061240000612400006124000061240000FC
:1000F00061240000612400006124000061240000EC
:1001000053B94AB9002908BF00281CBF4FF0FF317E
:100110004FF0FF3000F00CB8ADF1080C6DE904CEE3
:1001200000F008F8DDF804E0DDE9022304B07047D0
:10013000704700BF2DE9F04786468C460846089E6A
:10014000154674461946002B40F0C2808542B2FA2B
:1001500082F245D94AB1C2F1200300FA02FC2EFA1C
:1001600003F3954043EA0C0C94404FEA154EA8B2B5
:10017000BCFBFEF8230C0EFB18CC08FB00F943EA8D
:100180000C43994528D9EB1808F1FF3704D299455B
:1001900002D9A8F102072B44A3EB0903A4B2B3FBD5
:1001A000FEFC0EFB1C330CFB00F044EA0344A042AF
:1001B00014D92C190CF1FF3304D2A04202D9ACF1AE
:1001C00002032C44241A43EA07401EB1D440002302
:1001D00034607360BDE8F0874746DDE76346F1E7CA
:1001E00092BB431B01214FEA154EAFB2B3FBFEFC9D
:1001F000200C0EFB1C330CFB07F840EA0343984528
:1002000062D9EB180CF1FF3004D2984502D9ACF159
:1002100002002B44A3EB0803A4B2B3FBFEFC0EFBCD
:100220001C330CFB07F744EA0344A7424ED92C19B0
:100230000CF1FF3304D2A74202D9ACF102032C44E3
:10024000E41B43EA0040C0E7C2F1200320FA03F1B7
:10025000954090402EFA03F303434FEA154EAFB298
:10026000B1FBFEFC0EFB1C10190C0CFB07F841EA5D
:100270000041884504FA02F422D969180CF1FF30D4
:1002800004D2884502D9ACF102002944A1EB08014F
:100290009BB2B1FBFEFC0EFB1C110CFB07F743EA03
:1002A00001439F420ED9EB180CF1FF3104D29F425B
:1002B00002D9ACF102012B44DB1B41EA004192E779
:1002C0006046E3E76146F7E76046A3E76346B7E7C2
:1002D000834206D916B9002108467BE7C6E900E04B
:1002E000F9E7B3FA83F78FB9834201D3724508D88F
:1002F000BEEB020460EB030301209C461EB9002103
:1003000068E73846FAE7C6E9004CF8E7C7F1200C81
:10031000BB4022FA0CF41C432EFA0CF120FA0CF329
:10032000B84001434FEA14490EFA07F5B3FBF9F858
:100330001FFA84FE09FB18300B0C08FB0EFA43EA87
:1003400000439A4502FA07F240D9E31808F1FF305A
:1003500004D29A4502D9A8F102002344A3EB0A0370
:1003600089B2B3FBF9F809FB183308FB0EFE41EA2A
:1003700003418E452CD9611808F1FF3304D28E4514
:1003800002D9A8F10203214443EA0040A0FB0298ED
:10039000A1EB0E014145CE46434602D306D14D4561
:1003A00004D2B9EB020E68EB04030138002EA6D08C
:1003B000B5EB0E0261EB030101FA0CFC22FA07F324
:1003C0004CEA0303F940C6E9003198E74046C5E727
:1003D0004346D9E7F0B5224B224AC3F8002685B040
:1003E000C3F80426C3F80826C3F80C26C3F8102661
:1003F000C3F81426C3F81826C3F81C2606F0A2F882
:1004000001A800F07BFE184B1B68834200D0FEE77A
:100410004FF44041002009F016F8044600B1FEE711
:1004200069469DF8080006F06CF8009B039D1D448A
:10043000019B1E8903F0F8FCAF1901F083FA01F06B
:1004400057FA01F0ABFEAB5983F3088884F31488A4
:10045000BFF36F8FBFF36F8F7B689847FEE700BFD6
:10046000000001403546526EE803002021B1012909
:1004700006D06FF015007047044B53F830007047FA
:10048000024B03EBC0035868704700BF289E000072
:10049000084B400053F82020914208D0013053F817
:1004A000200081420CBF01204FF0FF307047002038
:1004B000704700BF289E00002DE9F04F1D46944B69
:1004C000D3F80090934B03EBC103DDB05B68059359
:1004D00090462B78059A9342CDE90610DDE96846EF
:1004E00009D1D8F8103013F00C0F04D02A4606F0CA
:1004F00034F9002850D03CA801F070F934B1002E36
:1005000004DD324621463CA807F0E8FCB8F808B004
:10051000D8F80CA0B8F80A30DA4403EB0A07002434
:10052000A7423DD83CA910A807F0FEFC6A9B23B166
:10053000202210A9184608F079F9002300932A46D2
:100540004FF6FF7341460AA805F0FDFF074618BBAA
:1005500028460F9C06F0C8F984421DD8DFF8B8A1E0
:100560004FF0FF340DF1220308AA09A90AA806F0EA
:1005700038F8002810DB40F0C38009990AA806F07B
:100580007CF800284AD1BDF82200644A4FF6FF717A
:1005900032F8023B8B423FD15D4BD3F80090B2E082
:1005A000679B3E1B9E4228BF1E46A34504D9A31944
:1005B0009B4538BFABEB0406A24504D9A3199A4565
:1005C00038BFAAEB0406669A33462146284608F04F
:1005D00066F80028E0D12B78059A9A4215D1D8F810
:1005E000103013F00C0F10D0A3450ED8A2450CD933
:1005F000669A0292A4EB0B0303F00F02CDE90062AE
:10060000DDE906102A4606F0B9F8669932463CA89C
:1006100007F064FC344483E79842B9D1BDF8223036
:10062000102B16D1BDF82060202EB5D10999334684
:100630003CAA284608F033F80028ADD132463CA940
:1006400010A806F0FCF8364B1B688342A4D10127A2
:1006500088E7012B32D1BDF82030202B9CD8099996
:100660003CAA284608F01BF80446002894D19DF8BF
:1006700020B0BBF1200F06D8DAF80030294E0593E0
:10068000059B9C4202DB4FF0FF346BE720A801F092
:10069000A5F8736856F8081B1A6820A807F01EFC16
:1006A00020A918A807F040FC5A463CA918A808F051
:1006B000ADF800283FF456AF0134E1E7222B7FF478
:1006C00051AF631C3FF44EAFDAF80030A342DADDDD
:1006D000BDF82030802B3FF65FAF09993CAA284631
:1006E00007F0DDFF00287FF457AFE4B2BDF82030FB
:1006F00000943CAA202110A800F066F98146C2E7C8
:10070000002F3FF449AF48465DB0BDE8F08F00BF11
:1007100004000020449E0000389E0000C0A300009A
:10072000E80300203C9E00002DE9F04FA24BADF500
:100730001B7D1C685B6804941B681C440646894644
:1007400030231EAA214604A806F054FB00285DD1E0
:10075000049B1E9A13449C4270D1269026AA2146DF
:1007600004A806F090FB269B184364D132AD5EAB23
:100770002A46214604A806F09EFB002858D16A6844
:10078000072A06D06FF0050420460DF51B7DBDE855
:10079000F08F8A49A86808F039F80028F2D15F9AEA
:1007A000082A02D06FF00604EEE78549609808F049
:1007B0002DF80028F6D104231EAA214604A806F02D
:1007C00019FB90BB30231EAA214604A806F012FB99
:1007D00040BB002326AA214604A8269306F053FB1B
:1007E000E8B9269B012B1AD104231EAA214604A88E
:1007F00006F000FB80B91E9C202C0AD104992246E9
:100800000EA808F013F83378042B1AD04FF0FF34F9
:10081000BAE76FF00B04B7E76FF00A04B4E76FF0C4
:100820000904B1E76FF00804AEE76FF00704ABE727
:100830006FF00404A8E76FF00204A5E76FF001046D
:10084000A2E700F0DFFE06F101080146404607F08E
:1008500076F907460028D9D100F0D4FE06AA03464F
:100860000EA9404607F0D9FD0128CFD10DF1580857
:1008700039462246404607F0E4FF41465EA805F0AF
:100880000AFF0028C2D1224606A95EA807F097FDFC
:100890000128BBD15EAA21461EA807F096FD0128BB
:1008A000B4D10123DFF81CA100249B4605AF3B70A7
:1008B0001EA95EA805F0EFFE0028A7D1BBF1000F2E
:1008C00024D0102251465EA807F079FD0128024687
:1008D0009CD139465EA807F072FD012896D15EAA28
:1008E0002021284607F071FD012883468ED126ABD2
:1008F00003EB441094B92022294607F097FF3B7878
:1009000001335C46DBB24FF0000BD0E720222946D2
:100910005EA807F054FD0128D3D077E710222946BE
:1009200007F084FF2AA95EA805F0B5FE044600285A
:100930007FF46CAF06F1610A102251465EA807F001
:100940003EFD01287FF462AF5EAA20211EA807F0B9
:100950003CFD01287FF45AAF06F140021EAB603621
:10096000A34612F8010F13F8011BB24281EA0001FD
:100970004BEA010BF5D1BBF1000F7FF447AF26A97D
:10098000284600F063FF01287FF440AF102259464B
:10099000404607F056FF1023C7F800B05246CDE995
:1009A0000175CDF800801946484607F048FC01283B
:1009B0003FF4EAAE2AE700BF309E000006A4000024
:1009C000FDA30000ECA300002DE9F04798B0164607
:1009D0001D469DF88020394BDFF8E48053F8321033
:1009E000039103EBC20307465B68D8F800901868D0
:1009F00004AA0144302303A806F0FCF9002849D1D9
:100A0000DDE903431C4405AA08AB214603A806F010
:100A100052FA00283ED1069A072A3BD12949079865
:100A200007F0F4FE002835D1099A082A32D1264968
:100A30000A9807F0EBFE68BB04AA214603A806F05B
:100A400026FA38BBDDE903A30AEB0302944221D165
:100A5000412B1FD13544302305AA294604A804960A
:100A600006F0C8F9A0B9DDE9043213449D420FD362
:100A70002A4604A908A805F0B6FE48B92A4604A9E2
:100A800010A805F0B0FE18B99AF80030042B05D074
:100A9000D8F80090484618B0BDE8F08700F0B2FDE5
:100AA00008AB0090202239460AF1010007F0B3F8A4
:100AB0000128EDD1054BD3F80090EBE73C9E0000F8
:100AC0000400002017A400000EA40000E80300208A
:100AD000094A0B78400052F820108B4209D00130AF
:100AE00052F82000834214BF4FF0FF304FF44070A3
:100AF00070474FF4407070474C9E00001FB50F4B7D
:100B000013F830000C4601F089F850B9206881686C
:100B100010236A46103907F0C2FD28B1206807F09B
:100B2000BDFD4FF0FF3006E005491022684607F092
:100B30006DFE0028F2D104B010BD00BF4C9E000035
:100B4000DCA300002DE9F04FDFF8109189B00646D4
:100B500000200D46D9F800409046FFF787FC06A913
:100B6000C0B201F05BF800285ED12946FFF77EFC99
:100B70002C2707A9C0B207FB056701F04FF8002832
:100B800039D02C2303FB0563DDF818A01B6913F093
:100B900010013FD19AF800B0D9F80040BBF1010F25
:100BA00006F1600944D04FF48073002101932C4B6F
:100BB0000093CDE90311029153463A464846FFF7A8
:100BC0007BFC04462C236B43F118F258254B069806
:100BD0009A420AD1CA680B899B1806D2826893424E
:100BE00003D2214B1B68A3421BD0C5B182680021F0
:100BF00007F07FFD13E0079807F096FD044607987D
:100C000007F04CFD7B1EFA1C13F8011FA142B8D15E
:100C10009342F9D11DB10699304605F03EFF134BC2
:100C20001C68069807F03AFD204609B0BDE8F08F31
:100C300013F00C0FB7D0CDF8008053463A46484623
:100C400005F051FD0028BDDBADD14246594648466E
:100C500005F033FD0028A6D0B4E700BF0400002053
:100C6000C82100203DB8F396E803002000000020D2
:100C70002DE9F0430D4687B0044600212846CDE912
:100C8000041105F0C9FE0646002855D02368404EE1
:100C9000B34203D105AA204605F04BFE236913F0A9
:100CA0000C0F3BD004F16007236A00950021224617
:100CB0003846039305F017FD014618B92A46384611
:100CC00005F0FBFCE36AB34204D104AA01212046EB
:100CD00005F02FFEE36B13F00C0F04F12C0224D06F
:100CE00004F16006E36C009500213046039305F0A3
:100CF000FAFC20B92A460121304605F0DEFCDDE988
:100D00000432934288BF0593059BAB60059A294640
:100D1000204600F0C9FA07B0BDE8F0831022FF2199
:100D200005F10C0007F08DFDCCE71022FF2105F145
:100D30001C0007F086FDE2E703A9FFF7DFFE03983A
:100D400005F1080105F08DFDAB68059305F10B0772
:100D500004F160095FFA86F82A460398414605F0D7
:100D60008EFD3A46002312F8011FFF290AD10133F4
:100D7000102BF8D110371EB1039807F08FFCC5E790
:100D80000126E7E72A464146484605F096FCF1E78A
:100D90003DB8F3962DE9F04F87B0CDE90423DFF895
:100DA000F0B03C4D3C4E81468A460027119B9F4245
:100DB00001D3002010E0119B0599A3EB0708B8F5BB
:100DC000806F28BF4FF4806843465A4679185046D2
:100DD00007F065FC18B1012007B0BDE8F08F9AF864
:100DE0000020049B012A1B7803D0012B2DD14B46F8
:100DF00003E0012B29D009F12C03109ABC181A69C1
:100E000012F00C0F21D01A89A24204EB080E37D938
:100E100072451AD2111BAEEB020089B24FF0000CE2
:100E2000DB6813449E4503D99C4234BF181B002045
:100E3000A31A01EB0B02CDE901C200900B4452460C
:100E4000002109F1600005F099FC109904984346CF
:100E50005A46791807F038FC0028BCD1C5F800665E
:100E60004744C5F80466C5F80866C5F80C66C5F8B9
:100E70001066C5F81466C5F81866C5F81C6695E7CF
:100E8000A4EB020C0CF00F0C40460021C8E700BF99
:100E9000EC130020000001403546526EF0B5924B35
:100EA00043620E46914B036500218FB0044608460D
:100EB000FFF7DCFA04F12001C0B200F0AFFE002819
:100EC00059D10121FFF7D2FA04F14C01C0B200F070
:100ED000A5FE00284FD1204605F06CFD00284BD11F
:100EE00000221146204605F00EFD00285AD120466A
:100EF00005F0EAFE002855D002A805F07DFD02A904
:100F0000204605F028FE00284CD102A805F084FDFB
:100F100080F0010102AAC9B2204605F0F4FC0246A5
:100F200000283FD102A805F077FD054600283DD1F5
:100F300002A92046FFF79CFE9DF80F3084F8583038
:100F4000033B012B06D8284600F0FEF810B1FF2322
:100F500084F858309DF80F30023B022B06D8002051
:100F600000F0DCF810B1FF2384F8583094F85830C2
:100F7000FF2B12D1FEE7FEE70123984284F8583098
:100F8000AED194F858308DF80F30013B042B62D865
:100F9000DFE803F0653636506A0002AA00212046D9
:100FA00005F0B1FC012384F85830EAE79DF80F7092
:100FB000012F18D1104602F0E3FF831E022B0546D5
:100FC0000ED802AA39462046FFF7BCFD484B1B68E5
:100FD000984205D0474B1D68A84214BF052501253E
:100FE00084F85850CDE7012102AA2046FFF7AAFD58
:100FF0003F4B1B6898420CBF9DF80F300523D2E78A
:1010000094F84020237D9A4214D80AD394F84120C2
:10101000637D9A420ED804D3B4F84220E38A9A4200
:1010200008D2E06C0021826807F063FB012384F89A
:10103000583014E002A92046FFF71AFE94F8583001
:10104000DA1E012A09D8002000F07EF818B9002025
:1010500000F064F818B1FF23E9E7022BF7D094F809
:101060005830FF2B04D1FEE7002000F06DF8F1E7C7
:101070000022012B204D019215D01146204605F08B
:1010800042FC80B12D68002302AA1946D1540133D5
:10109000302BFBD1E06C07F001FB206A07F0FEFA71
:1010A00028460FB0F0BD002211462046FFF74AFD4A
:1010B0000F4F3B688342E5D12A689A42E2D00D4A3D
:1010C00012689A42DED0019B01330193019B012BF0
:1010D00000D0FEE7206A05F01AFA3071236A5B68D7
:1010E00034603D68B360CEE7EC0B0020EC030020D9
:1010F000E8030020000000200400002038B5064D61
:1011000004464FF4E4720021284607F09AFB21467A
:101110002846FFF7C3FE38BDEC17002013B5094B76
:1011200001A913F8300000F079FD48B9019808F0E2
:1011300043FA0446019807F0B1FA204602B010BD08
:101140000124FAE7549E00001FB50F4B01A913F8C4
:10115000300000F063FDA8B9019802A902F0BAFEC0
:10116000044668B99DF80B30032B03D1019808F0B1
:10117000F1F90446019807F091FA204604B010BD39
:101180000124F7E70124F8E7549E00002DE9F3411C
:1011900006460C4617461D460BB9002628E01846A1
:1011A00005F03AFC0028F8D16946FFF7A7FC009843
:1011B00038B90124009807F071FA204602B0BDE862
:1011C000F08101A905F04DFB0028F2D1009807F04D
:1011D00065FA3046019905F00CFD736A5E686B791B
:1011E000012B21D1002CD8D12B68834298BF002637
:1011F00021460020FFF73AF96946C0B200F00EFD23
:101200000028D6D1009820233A46314607F047FA05
:1012100004460028CDD1002DCCD03C680D4BE41AFB
:1012200018BF4FF0FF34C5E7022BB6D12B68012B56
:1012300005D98342B1D8B4FA84F46409ADE7ACD1DE
:10124000002CD5D0012CA8D12C79023C18BF012448
:10125000A3E700BF3DB8F39673B54B681446114A37
:1012600003F0FF23934206460D4618D10B68012B6D
:1012700015D16946204602F02DFE9DF80030032B63
:101280000DD12146304605F008FC204608F062F9F1
:10129000A968204605F005FB204602F0FBFD02B0E0
:1012A00070BD00BF000100042DE9F04F0C4689B06D
:1012B0001146054605F09DFC6B6A039020465E686A
:1012C00005F0AAFB90B1E86D05F0BBFAAB6A00220D
:1012D000013B3244904201D9013BFAE7039A934221
:1012E00004D80123E37109B0BDE8F08F06A90320FB
:1012F00000F094FC07A9012000F090FC079A214619
:101300002846FFF7A9FF6379012B4BD1039FDFF834
:1013100058B141E022680399C2F101030B44BB427A
:1013200039D36B6A196853F8370003EBC703012AF6
:1013300053F8083CA0EB0109A3EB010A11D1079B6C
:101340000493E36A022B08D04146284605F0A5FB2A
:1013500022464146284605F0D5FB0499284605F06B
:101360009CFB32464946404605F095FB53464246B3
:101370004146CDE900962846FFF70CFD2146284658
:1013800005F057FB23680133236020B1DBF8003000
:101390000133CBF80030013FDDF81880002FB9D1C0
:1013A00001232360022363710127039BDDF818905A
:1013B0009F4206D9484607F071F9079807F06EF981
:1013C00091E72368BB424DD86A6ADDF81CA052F849
:1013D0003710D2F800B00491FB00083BD1582A6DB9
:1013E000D0581368A0EB03082379012B38D1A1EB67
:1013F0000B0132464846059105F04DFB05990091D9
:1014000043464A46514601962846FFF7C3FC21460B
:10141000284605F00EFB0223237118B1124A136807
:101420000133136032464146504605F034FB049BBD
:101430005246A3EB0B034946CDE900862846FFF749
:10144000A9FC2146284605F0F4FA236801332360FD
:101450000123237130B1044A13680133136001E0A2
:10146000022BDFD00137A0E7B41900200A4619B1DA
:10147000024B00211B681847704700BF080000207E
:10148000F0B5082289B005F052FECB6A03930B6BCE
:1014900004934B6B05938B6B0693CB6B07931346AF
:1014A0006A460C460646002711461046CDE90177EC
:1014B000009705F04AFD31460546304605F045FDEA
:1014C000216B0391616B0491A16B0591E16B054464
:1014D000CDE906171046114605F037FD31460544A3
:1014E000304605F032FD0544206A0090606A0190A4
:1014F000A06A0290A06B0690E06B07903046CDE9A1
:101500000477039705F021FD0544606A0090A06A06
:10151000D4F838C00190E06A0290CDF810C0606B3A
:10152000D4F83CC00390CDE905C0206A079030464E
:1015300005F00BFD0544E06A0090206B0190606BA4
:101540000290206A0690A06A07903046CDE90477A1
:10155000039705F01FFE236B0093636B0193A36B4E
:101560000293E36B0393636A0693E36A07932D1A6E
:101570000823304605F00EFE636B0093A36B0193C6
:10158000E36B0293236A0393636A0493A36ACDE92E
:101590000537236B07932D1A0823304605F0FAFD13
:1015A000A36B0093E36BCDE90137636A0393A36AEE
:1015B0000493E36A0593636B07932D1A082330465F
:1015C00005F0E8FD2D1A10D40D4C35B9082231462E
:1015D000204605F0B8FD01280FD0082322463146E9
:1015E000304605F0D7FD2D1AEFE7054A08233146AE
:1015F000304605F0AAFC2D18F8D409B0F0BD00BFA4
:10160000609E0000004870475C9E00002DE9F04F8E
:101610009DB0036802934368039383680493C3688F
:101620000593036906934369079383690893C36924
:101630000993DDE9062CDDE904BEDDE902469846A2
:10164000DFF890A1089B00930027CD595AF8049B1E
:101650000CAB2DBADD514FEAF223A94483EAB21351
:10166000009D83EA72634B4425EA020502EA0C09F5
:1016700085EA09052B44434486EA0B054FEA743892
:1016800088EAB408254006EA0B0985EA090588EAD4
:10169000B4580437A844402F03EB0E054344DE46FC
:1016A000DDF8008040F087804B490A914FF0100A26
:1016B00051460AF1010A0DF1700E0AF00F070EEB08
:1016C000870701F00F0957F8407C01974FEAB748A8
:1016D00088EAF71801F10E0707F00F070EEB8707EE
:1016E000093157F8407C4FEAF74E8EEA774ECDF835
:1016F0002CE001F00F010DF1700E0EEB81010EEBED
:10170000890951F8401C59F840EC7144DDF804E0B7
:1017100088EADE08DDF82CE041448EEA972E714419
:1017200005EA02084FEAF52E2CEA050787EA0807C2
:101730008EEAB51EDDF8288049F8401C8EEA756EE9
:10174000774458F804EFCDF8288077440F44009987
:10175000CDF800C039444FEA733E84EA06078EEAAA
:10176000B30E1F4004EA06088EEAB35E87EA080754
:101770007744BAF1400F01EB0B0E0F44B34622D170
:1017800002993944016003991944049B4160234440
:101790008360059B3344C360069B73440361079BCE
:1017A0002B444361089B13448361099B6344C361D9
:1017B0001DB0BDE8F08FCDF800C0B3469446264674
:1017C0002A461C4641E7944626462A461C4675464C
:1017D0003B466DE70C9F0000489F000010B5044693
:1017E000C8B17022002106F00AFC0B4B0B4A0C49D1
:1017F0000C48C4E900230C4BC4E902130B4BC4E9A9
:1018000004030B4BA36103F17453A3F52303A3F665
:101810009243E361012010BD85AE67BB67E6096AAC
:1018200072F36E3C7F520E513AF54FA58C68059BC2
:10183000ABD9831F0449431E0F3013F8012F8A5C74
:101840001A708342F9D170471FA40000F0B5264EEC
:1018500007460C460FCE8DB001AD0FC50FCE0FC59C
:1018600096E8070085E807003846002F38D0002C9E
:1018700038D0381F2146024610344B780D781B04AF
:1018800043EA0563CD782B438D78043143EA052381
:101890008C4242F8043FF0D1144C04218A070369BA
:1018A00016D1C3F30742A55C1A0EA25C42EA056298
:1018B000C3F30725DBB2655DE35C42EA054242EA19
:1018C000032221F0030330336B4453F82C3C534084
:1018D00050F8042F013153402C290361DED101203F
:1018E0000DB0F0BD2046FBE7F09D00001FA40000F6
:1018F000BFF36F8F72B6124B4FF0FF32C3F88020E8
:10190000C3F88420C3F88820C3F88C20C3F8902043
:10191000C3F89420C3F89820C3F89C20C3F8802112
:10192000C3F88421C3F88821C3F88C21C3F890211F
:10193000C3F89421C3F89821C3F89C21704700BFD5
:1019400000E100E0F8B5254B254D4FF0FF340127AD
:101950005F60C3F84843C3F8084303F5C04300265B
:101960005F60C3F84843C3F8084303F59833022087
:101970005F60C3F84843C3F80843C5F8084300F064
:10198000D1FC6F60C5F84C61D5F84C31C5F81061D9
:10199000D5F81031C5F84461D5F84431C5F8006573
:1019A00005F518352820C5F8084300F0BBFC6F602A
:1019B000C5F84C61D5F84C31C5F81061D5F8103137
:1019C000C5F84461D5F84431064BC5F80065C3F845
:1019D00008454FF08043C3F80843F8BD00B000400D
:1019E0000020004000F00140014B1860704700BF2C
:1019F0000C0000202DE9F047058B0446280790468F
:101A000011D4022905F0070540F0CC80204606F0ED
:101A10006DFD78B10138218B042811D8DFE800F082
:101A2000C2106D85950001290CBF45F0100545F0E9
:101A30002005258388F31188BFF36F8FBDE8F087F9
:101A400001F0070AAA4500F0A5800027B9463E46E6
:101A5000A368002B00F0BC8041F00801218388F3CB
:101A60001188BFF36F8FA168002900F0BA800D685C
:101A7000002900F0B680D1F8048033465246204653
:101A8000C047002D76D02B6829461D46F0E701F0AF
:101A900007035A1F012A1BD8002221F00701062B39
:101AA000276889B2C4E9002209D13B4603E0628B72
:101AB000013262831B68002BF9D141F002012183BE
:101AC000204606F013FD00287AD041F0200176E090
:101AD000042B0AD121F0070189B22183204606F0A8
:101AE00005FD10B141F020012183218B01F0070A8F
:101AF000AA454FD00027B946AAE7236921F007017C
:101B000041F00601062DD3F8009021832DD1B9F1C3
:101B1000000F3FD041F00801218388F31188BFF303
:101B20006F8F3A492046C84729E021F00701236911
:101B300041F0040189B2042DD3F804902183E6D04A
:101B400000273E464FF0040A82E721F0070123698F
:101B500041F0050189B2052DD3F808902183D6D034
:101B600000273E464FF0050A72E700273E464FF039
:101B7000060A6DE72B4687E7B9F1000FD1D1EFF3E5
:101B80001188202383F31288BFF36F8F238B23F0F8
:101B900008032383258BEA062ED525F01003238323
:101BA00005F007056669218B002EBFF670AF002394
:101BB0002768C4E9003321F0070141F001012183C6
:101BC000218B01F0070AAA454FF000097FF440AFCE
:101BD000002F9CD041F00801218388F31188BFF3C6
:101BE0006F8F002FC8D03D68394633465246204695
:101BF00006F0A8FC2F46F4E7AB067FF51BAF25F0F7
:101C00002003238305F0070500E700BF718500006E
:101C1000014B03600020704714A0000070B5114B09
:101C20001C680D46DCB1104B196800238B4202DBA7
:101C30006FF0010070BD224612F8106B864202D090
:101C400001331446F2E7E06810B96FF01200F1E7D3
:101C500007F0F3FD0028F8D02C600020EAE76FF0D1
:101C60000C00E7E71000002014A0000070B588B059
:101C700005460C46C0B269461646FFF7CFFF00285E
:101C80001BDB0098C8B14368029383682268019502
:101C9000CDE903360023CDE906230593C56806F098
:101CA000FDFC6DB12846084901AA07F006F907981E
:101CB00008B9059B236008B070BD6FF01500FAE706
:101CC0006FF01200F7E700BF37870000014804F00B
:101CD0006FBA00BFE8A0000038B5044618B90F4B32
:101CE0000F485B6898476168B1F5683F10D0B1F55F
:101CF000680F0DD00B4DA9420AD011F4686120681D
:101D000007D00146084807F0EEFD00232360656018
:101D100038BD142206F095FDF9E700BF68010020E8
:101D200004A600002C5F5CA9B81E002008B520B3F3
:101D30004368B3F5683F10D101220368BFF35B8F9E
:101D400053E8001F002903D143E800200028F7D101
:101D5000BFF35B8F0DD1002008BD094A93420AD022
:101D600000684FF0FF324FF0FF3303F009FC00280A
:101D7000F1D00448F0E70448EEE76FF4E040EBE709
:101D80002C5F5CA9E98FFFFFEA8FFFFF08B5D8B190
:101D90004368B3F5683F10D100220368BFF35B8F3F
:101DA00053E8001F012903D143E800200028F7D1A0
:101DB000BFF35B8F0BD1002008BD074A934208D0C8
:101DC000006803F055FCF6E76FF4E040F4E70348E1
:101DD000F2E70348F0E700BF2C5F5CA9E98FFFFF43
:101DE000EA8FFFFF10B5044618B91D4B1D485B680C
:101DF00098476368B3F5683F2FD0B3F5680F2CD0D0
:101E0000194A934219D1236803BB18484FF0FF3297
:101E10004FF0FF33214603F085FB08B923681BB957
:101E20000F4B13485B68984720681422002106F086
:101E300008FD4FF46863636008E0B3F5683F0DD8B0
:101E40003A2B03D040F6BA629342DED1206807F005
:101E500082FD636843F03A03636010BD054AF3E70F
:101E60006801002004A600002C5F5CA9B81E0020B9
:101E70002AA600003A00003A08B506490648402361
:101E8000142207F022FDBDE808400449044804F08C
:101E900001BA00BFB8190020B81E0020F0A0000051
:101EA00004A1000030BFFFF7FDBF00BF074A9368E1
:101EB00093F90E10002907DB526993421FBF044AB1
:101EC000536843F080535360704700BFC01F002029
:101ED00000ED00E0134B9A6A12F0007F9A6A14BF7B
:101EE0001E201D2012F0807F9A6A18BF1F2012F456
:101EF000002F9A6A18BF212012F4802F9A6A18BF07
:101F0000222012F4003F9A6A18BF232012F4803F67
:101F10009A6A6FEA02426FEA12429A6218BF24205C
:101F2000704700BF00ED00E010B5194B0246986AFB
:101F30009C6A10F4805F14BF1720162014F4006F01
:101F40009C6A18BF1820A40509D5986B986A0004EC
:101F500004D51AB19A6A22F400429A6219200C4BF5
:101F60009A6A12F4806F9A6A18BF1A20D2050CD4AC
:101F70009B6A13F4005F18BF1C20054A936A43F460
:101F80007F43936200230B7010BD1B20F5E700BF59
:101F900000ED00E010B51C4B0246986A9C6A10F0F8
:101FA000100F14BF1120102014F0080F9C6A18BFE6
:101FB0001220A40709D5586B986A000604D51AB1F7
:101FC0009A6A22F080029A6213200F4B9A6A12F0EA
:101FD000010F9A6A18BF142012F0200F9A6A18BFD6
:101FE0001520D40658BF9B6A074B9A6A920642BFD7
:101FF0005A6A22F400525A629A6A42F0FF029A62C6
:1020000000230B7010BD00BF00ED00E070B5444B25
:102010005B688AB00646C3F30803002585F3118880
:10202000BFF36F8F02F07F40B0F17F4F11D102F00C
:102030000C0008280DD010074CBF0E4601250022C9
:10204000033B8DF80720032B05D8DFE803F01E5C67
:1020500060592E46F3E700249DF807309BB92022F3
:10206000314602A806F0E2FB099B002D53D0C3F3D2
:10207000080222B96FEA53236FEA4323099302A9A6
:10208000204606F07BFB0AB070BD254BDA6A91074B
:10209000E1D4DA6A002ADEDBDA6A5200DBD55A695B
:1020A000B16942F480725A61BFF34F8FBFF36F8FF3
:1020B0005A6931F8021C22F480725A61BFF34F8FC3
:1020C000BFF36F8F4DF60272914209D09A6AD2B275
:1020D00042B10DF107010120FFF75CFF0446BBE7A9
:1020E0003468B9E79A6A12F47F4F05D00DF1070101
:1020F0000120FFF719FFF1E79B6AB3F5803FAAD3F0
:10210000FFF7E8FEEAE70DF107010020E4E70DF133
:1021100007010020EDE723F4FF7323F00103ADE78F
:1021200000ED00E0024A536943F010035361704729
:1021300000ED00E0EFF30880EFF3098101B572468E
:10214000FFF764FF01BD00BF002080F31488BFF3D8
:102150006F8F01F081FF00200D490860BFF34F8FA2
:102160000C4880F3088800F02BF8202080F31188B9
:1021700009484FF40061401880F30988EFF3148098
:102180000221084380F31488BFF36F8F00F004F935
:1021900094ED00E050540020102300200749D1F8AE
:1021A00090200023C2F307221846934200DB7047B9
:1021B000C1F89830C1F8A0000133F6E700ED00E067
:1021C00008B572B6002383F31388FFF7E7FF144BBB
:1021D0004FF0FF32C3F88020C3F88420C3F8882072
:1021E000C3F88C20C3F89020C3F89420C3F898203B
:1021F000C3F89C20C3F88021C3F88421C3F8882148
:10220000C3F88C21C3F89021C3F89421C3F8982116
:10221000C3F89C2162B6BFF34F8FBFF36F8F08BD29
:1022200000E100E0084B9B6883420BD1EFF305838C
:1022300043B1064B5A6842F080525A605A6A22F4FF
:1022400000425A6207F045BCC01F002000ED00E0CC
:10225000094A93686FF00A019967084958674B6803
:1022600043F080534B60002383F31188BFF36F8FDB
:102270009368986F704700BFC01F002000ED00E01A
:10228000EFF31183202383F31288BFF36F8F074A84
:1022900053699360064A4FF00061516000215A6F04
:1022A000596782F31188BFF36F8F7047C01F0020FA
:1022B00000ED00E00B498A684FF030001044EFF366
:1022C000098C80E8F01F74467046FFF7D9FFA646D8
:1022D00004498A6802F1300090E8F01F8CF3098805
:1022E00070470000C01F00201EF0040F0CBFEFF36A
:1022F0000880EFF30980816911F8021C0229FFD0E0
:1023000001B506F041FA01BD40B2002807DB044ADE
:102310004109012300F01F00834042F8213070473B
:1023200000E100E040B200280CDB4309064900F060
:102330001F0020330122824041F82320BFF34F8F3A
:10234000BFF36F8F704700BF00E100E0054B42090B
:1023500000F01F0053F82220012303FA00F0104080
:10236000704700BF00E100E040B20028A8BF00F1C4
:10237000604001F10101B8BF064B4FEA4111ACBF0B
:1023800000F5614000F00F00C9B2B4BF195480F8E5
:102390000013704714ED00E00B4A08B50B4B22F018
:1023A0007F029A60BFF34F8FBFF36F8FD3F88820FF
:1023B00022F47002C3F8882002F0F4FF03F056FD07
:1023C00000F042F803F02EF80000000000ED00E0FD
:1023D00042F8203C009B42F81C3C0A49019B42F811
:1023E000183C029B42F8143C21F001014FF080732D
:1023F00042F8043C42F8081C0023203A0265436777
:10240000704700BFD9840000094B0E4698601546FE
:102410002C4686F309884FF00000064B984720466B
:102420004FF000014FF000024FF00003024C204734
:10243000C01F0020A7870000D9840000014B102294
:102440001A61704700ED00E0044800232021C21803
:102450000133302B82F80013F9D1704700E100E01E
:1024600008B5EFF30583064A103B02EBC30152F8AF
:10247000330049688847BDE80840FFF717BD00BF33
:10248000689C0000024B034A0348012100F066B833
:10249000000004200000002014A10000084AC2F837
:1024A00098000B6823F01F03034343F01003C2F8A6
:1024B0009C308B6843F00103C2F8A030704700BF26
:1024C00000ED00E02DE9F043DFF8608085B00E46B6
:1024D0001F4604464FF00009B14523DA6068D8B1C1
:1024E0003FB1411E08421BD11F2819D92368194248
:1024F00016D12368019306F079F9A3680343039387
:10250000D8F89050C5F30725D0B2013DA84207D8AE
:1025100001A9FFF7C3FF421C09F101090C34DBE7F5
:102520006FF01502104605B0BDE8F08300ED00E045
:10253000044B0522C3F89420BFF34F8FBFF36F8F76
:10254000704700BF00ED00E0BFF35F8F024B002239
:10255000C3F89420704700BF00ED00E010B5034CB5
:1025600001232278FFF7AEFF207010BDC8220020A3
:102570002DE9F043534B544CD3F890302568C3F306
:1025800007239D4285B000F29A80FFF7DDFF00200F
:102590000C2685421AD14D4C4D4F25706846FFF7E9
:1025A00037FBDFF82081DFF82C9106460025AE428C
:1025B00013D1237843490020D1F89020C2F3072299
:1025C000934276DBFFF7B4FF002042E0616806FB30
:1025D0000011FFF763FF0130DBE7009800EB051106
:1025E0004FEA051CCB683B40B3F5000F48D00AD832
:1025F000B3F5001F30D0B3F5800F36D0B3F5801F90
:1026000010D00135D3E7B3F1807F42D0B3F1007F22
:10261000F7D150F80C3088684A6806F0E7F840F4C3
:10262000802009E050F80C3088684A6806F0DEF82F
:1026300040F0885040F43020CDE901230390D8F8D1
:1026400090302078C3F30723013B98422AD96FF0DA
:10265000150005B0BDE8F08350F80C3088684A6872
:1026600006F0C4F840EA0900E6E750F80C30886844
:102670004A6806F0BBF840F0007040F40030DBE739
:1026800050F80C3088684A6806F0B0F840F0827064
:10269000D2E750F80C3088684A6806F0A7F840F096
:1026A0008870C9E701A9FFF7F9FE23780133237089
:1026B000A7E7C1F89830C1F8A00001337CE74FF0DC
:1026C000FF30C6E700ED00E020A10000C822002096
:1026D0000000F0FF00000811014B1860704700BFB8
:1026E00034000020024B0122C3F84025002070472F
:1026F00000E0014020B1034B800143F00103184783
:10270000704700BF209E0000084B70B5C31A0D46ED
:1027100007499B10044659430648402206F0A6F894
:102720002B4601462046BDE870401847E81E0020B1
:10273000B76DDBB6C89B000073B50C4C0C4A402348
:10274000041B00930D460B460A49A410614306463C
:10275000094806F0B7F8011E05DA30462B4602B0EC
:10276000BDE87040184702B070BD00BFE81E0020F1
:102770002F890000B76DDBB6C89B000010B5EFF3E2
:102780001184202383F31288BFF36F8F074A1368E5
:1027900023F00201DB07116002D4012006F021FFC3
:1027A00084F31188BFF36F8F10BD00BF381F002066
:1027B000002270B5012104461046FFF7D5FD0F48F1
:1027C00001F0D4FD0E4B984215D101F0DFFD2669D2
:1027D0000C49304605F0D9FE00280BDB0125356495
:1027E0002469084904F11C0005F0CFFE002801DB34
:1027F000E564002070BD6FF00400FBE701290000D4
:102800000000AD0B40A100001FB500220123CDE95F
:102810000223094ACDF800D06B46CDF804D006F06B
:102820007FF8002805DB4FF480420023684602F061
:102830007FFF05B05DF804FB4D89000030B4104BFC
:102840000C2202FB003301460020D3E90E529863AC
:10285000EFF31180202484F31288BFF36F8F1C6C78
:1028600004F0C00444F002041C6480F31188BFF338
:102870006F8F1DB12B46034830BC184730BC7047E2
:10288000E81E0020C89B000010B4EFF31182202343
:1028900083F31288BFF36F8F1748016841F0020479
:1028A0000460C80707D482F31188BFF36F8F01203B
:1028B00010BC01F07DBD4FF08041D1F80C04D1F87F
:1028C0000C14C907EFD5EFF3118083F31288BFF31F
:1028D0006F8F0A490B6C03F0C00343F002030B64D3
:1028E00080F31188BFF36F8F82F31188BFF36F8F6E
:1028F000002010BCFFF7A2BF381F0020E81E0020F8
:1029000010B1012804D07047034B1B6C5B0701D149
:10291000FFF794BF704700BFE81E00202DE9F0418B
:102920003849BFF35B8F0746012251E8003F41E879
:1029300000200028F9D1BFF35B8F33B93249334807
:102940004B60CB608A6005F033FE7B1E012B2BD8D9
:10295000012F07D14FF08043D3F81C3403F0030359
:10296000012B21D007F00AF80546F8B9284B1B784F
:10297000E3B14FF080430222C3F808230646DFF894
:1029800094804FF08044D4F81824D4F81834D2033B
:1029900015D503F00303012B01D0012F0FD155B33F
:1029A00086F31188BFF36F8FBDE8F081EFF31186D6
:1029B000202383F31288BFF36F8F0125DFE7ADB1CA
:1029C000304605F004FFD4F81835002BDBD1D4F8DD
:1029D0000421002AD7D0C4F80431D4F804310123EB
:1029E000C4F81835C8F88031A360CCE70021212055
:1029F00003F092F9E7E74FF080430222C3F8042383
:102A0000D2E700BFE41E0020D41E0020041F0020D7
:102A10000E23002000E100E008B5074806F00DFF96
:102A200038B10648FFF758FE0448FEF7DDFF0020E6
:102A300008BD6FF01200FBE7189C0000412A00005F
:102A40000A2838B5074D044604D1AB680D215B68F0
:102A500028469847AB6803485B68E1B29847204630
:102A600038BD00BF189C000000487047C0A100009E
:102A70002DE9F74F43680F1ED3F818A005461646F8
:102A800076DBBB18534573D847EA0209C9F30B0933
:102A9000B9F1000F6CD106F071F84946284605F0EF
:102AA000A5FF4FF0FF3B0446002E5AD101212846D6
:102AB00005F09CFF002C08BF0446284605F0D8FF0F
:102AC000204603B0BDE8F08FCDE9004423468022C4
:102AD0000621284605F043FFB2450FD1CDE9004459
:102AE00023468022C721284605F039FF264640F2BA
:102AF00067620023284605F0D5FFD5E71E4B214627
:102B0000A0465A7882B10BFA02F037EA00000BD1E6
:102B100001209040B04207D8B8F1000F1CD098F8BF
:102B20000100904238BF98460131042903F10203A5
:102B3000E7D1B8F1000F11D03B4698F80010812280
:102B4000CDE90099284605F00AFF98F801200123F5
:102B500093401F44F61ACAE79846E5E76FF015045C
:102B6000C5E7002CB0D00121284605F03FFFA4E7BF
:102B70006FF01504A4E700BF82A60000024B0B60B3
:102B800001231360704700BF541F002000487047A6
:102B9000DCA1000010B5012211460648064C06F0E3
:102BA000E1FE06F0BEFD206006F0B7FD606000208B
:102BB00010BD00BF5C1F0020541F00204FF080425A
:102BC000D2F81015D2F8103501F01E0123F01F03C2
:102BD0000B4343F00103C2F81035024B00221A7078
:102BE000704700BFC92200204FF08053D3F8303126
:102BF000082B20D14FF08042D2F81015CB071AD500
:102C0000D2F8103501F01E0123F01F030B43C2F868
:102C10001035D2F808315BB1D2F8103523F01F031C
:102C20000B4343F00103C2F810356FF08B0070477F
:102C3000024B01221A700020704700BFC9220020F9
:102C40002DE9F0410D46164606F067FD3146074670
:102C5000284606F0D8F878B3B5FBF7F307FB135313
:102C600053BBB6FBF7F407FB14642CBBB7421DD86B
:102C70004FF0FF324FF0FF331148DFF8488002F089
:102C800057FD06F04AFD0746FFF7AEFF044680B940
:102C9000284602F011F898F800300BB1FFF78EFFCC
:102CA000F61B3D44F0D1064802F01EFD2046BDE86B
:102CB000F0816FF08B04F6E76FF01504F6E700BFC4
:102CC0005C1F0020C92200202DE9F8430E46304643
:102CD000194617461C4606F096F888B344EA0605DE
:102CE00015F003052CD1BCB11748DFF860904FF008
:102CF000FF324FF0FF3302F01BFD24F00304AC421F
:102D000006EB05080BD1124AD2F80034DB07FBD5DD
:102D100000240D4802F0E8FC2046BDE8F883FFF7E8
:102D200063FF50B97959404601F0E6FF99F8003049
:102D30000BB1FFF743FF0435E1E76FF08B04E8E7E1
:102D40006FF01504E8E700BF5C1F0020C9220020D7
:102D500000E00140F0B54068057B01F01F0444EA43
:102D60004514056987B0002D64D0B2F5001F00F14D
:102D7000100506D12146284606F0C4FC002007B005
:102D8000F0BD01AE0027B2F5800F0197776039D111
:102D9000B3F1007F14BF052304238DF80430002312
:102DA000CDE904630393836823FA01F111F0010173
:102DB0001AD1B2F1A07F17D104F01F03620903F505
:102DC000E0732AD0012A3BD11F4A52F82330DB0797
:102DD0000AD40DF1030632462146284601F0C6FD0D
:102DE0001A4B98421CD0029603AA2146284601F0AD
:102DF0007FFC174B984220D101222146284601F042
:102E000019FEBBE7B3F1C06F05D0B3F1007F14BF6B
:102E100001230223C1E70323BFE74FF0A042D4E719
:102E20003146284601F000FE094B9842DBD06FF096
:102E30000B00A4E76FF08500A1E76FF015009EE797
:102E400051F82330FFDE00BF000300500400AD0B3B
:102E50000000AD0B38B545682B69B3B11035284675
:102E600001F0D2FD044680B90146284601F098FDE4
:102E7000084B98420BD108492246284601F070FDC4
:102E8000224601210620FFF76FFA002038BD6FF0BF
:102E90000400FBE70000AD0B9D2E0000420970B559
:102EA000034602D0012A17D070BD0D4E3269516819
:102EB0000029F9D003F01F0301250C689D4000296B
:102EC000F2D08A682A4002D04B68304698472CB12D
:102ED000236821461C46F2E7024EE7E72346F8E75F
:102EE000F09B0000DC9B00002DE9F043466840F2B7
:102EF0000635D006337B87B002EA050554BFC2F31E
:102F00004010032001F01F07B5F5837F144647EA00
:102F100043178DF8030044D00FD8062D18D007D8DA
:102F2000B5B1022D3FD06FF0150007B0BDE8F083BA
:102F3000B5F5807FF7D101250AE040F202229542E3
:102F400033D0B5F5407F32D0B5F5007FEBD1022507
:102F500022032ED5726801238B40C2F808353269EE
:102F600092BB07F01F037F092BD0012F79D13F4A75
:102F700002EB830284F48033D2F80017C3F30043DA
:102F8000C4F3404444EA430421F4E16144EA800488
:102F900021F0070144EA05230B43C2F80037002063
:102FA000C3E70725D4E70425D2E70525D0E70325A5
:102FB000CEE7630341BF012372688B40C2F80C3532
:102FC000CDE74FF0A042D3E710360DF102023946AB
:102FD000304601F0CBFC14F4403F80460CD139461A
:102FE000304606F08DFB224B9845D8D19DF8021053
:102FF000304601F013FDD2E701AB4FF0000903AA00
:1030000039463046CDE90439CDE90199CDF80C9027
:1030100001F06EFB164B984285D114F4003315D0A5
:103020009DF803308DF80E3084F48034C4F30044EE
:103030004B4603AA394630468DF80C508DF80D40AA
:1030400001F010FC0A4B9842CDD06CE7CDE9043377
:1030500003AA0DF1030339463046039301F048FB00
:10306000F0E703F5E07352F82330FFDE0003005071
:103070000000AD0B036803F01F025B09026004D07F
:10308000012B034818BF002070474FF0A040704745
:10309000000300502DE9F04FDFF86091DFF860A1E8
:1030A00085B01546834600EB810140F2FF18594573
:1030B00003D1002005B0BDE8F08FDBF800305804E4
:1030C000C3F3C322C3F3080400F191805B0C19F829
:1030D0000270444508BF4FF0FF34192B00F28A807C
:1030E000DFE803F00D141A1D20261D888888883615
:1030F00063888888888888888888667C7F82C5F805
:103100000C45621C5ED10BF1040BD0E7C5F81445E9
:10311000631CF8D000265FE0C5F80845F1E7C5F864
:103120001045F5E7661CC5F80845ECD0002604E01C
:10313000601CC5F80C45E6D0012603A80394FFF7F0
:1031400099FF039B012202FA03F3C0F80C3508E053
:10315000C5F80845002FDBD1631CD4D000263246C9
:103160000627DBF80030019303F40040002818BF65
:10317000002203A8009218BF01260394FFF77AFFEC
:10318000039C019B009A00EB8400C3F3412CD0F810
:1031900000473B0243EA8C03134304EA0A04234337
:1031A00043EA4603C0F80037ADE7C5F80C45D1E760
:1031B000C5F86045621CDBF80030A4D0C3F30043BF
:1031C000002BB9D003A80394FFF754FF039B0126FB
:1031D00006FA03F3C0F808353246C2E7C5F864457D
:1031E000E8E7C5F86845E5E7C5F86C45E2E76FF044
:1031F00015005FE76FF085005CE700BFC0A6000028
:10320000F0F8FCFF2DE9F743476805693C684FF08B
:103210000008C4F800852860D7F80C90064601AA7B
:103220004146484605F0CAFE00283CDB019BD9F820
:10323000002019791868FFF72DFF002833DB6B7A1F
:103240003169012B03D0032B2BD14FF01008AB7A3F
:10325000032B26D195F80BC0BCF1000F02D0BCF1B6
:10326000010F1ED12A7A12B1022A1AD10E226B68DE
:103270007068B3F5164F006800F0B28034D8B3F52B
:10328000165F00F0B0801AD8B3F5966F00F0AD80ED
:103290000CD8B3F5967F00F0AB80B3F5167F00F045
:1032A000AA806FF0850003B0BDE8F083B3F5166F18
:1032B00000F0A480B3F5965FF3D15C4B43E0B3F527
:1032C000E14F00F09E8008D8B3F5615F00F09B806D
:1032D000B3F5964FE5D1564B35E047F6122E7345C0
:1032E000DFD14FF400032EE0B3F5613F00F08D8095
:1032F00015D8B3F5963F00F08B800AD84DF6C02E56
:10330000734500F08780B3F5614FCAD14FF46B036A
:1033100019E0B3F5E13FC4D14FF0EB7313E0B3F51F
:10332000612F7AD009D8DFF80CE1734578D0B3F576
:10333000E12FB6D14FF0E86305E0DFF8FCE073451C
:10334000AFD14FF08053C0F82435736848EA0C08B9
:103350001B6842EA0802C3F86C250B1DD5E9010180
:1033600083E803007B68990712D505F1180001F086
:10337000D1FC324B984256D1287E04F10C0204F560
:10338000907106F024F92B7E0120984000F086FF12
:103390000823C4F800353B7A53B9C4F81031D4F887
:1033A00010316B69C4F834350123C4F83835236013
:1033B0007B689A075CBF4FF48073C4F804337B6862
:1033C000DB0644BF4FF48003C4F804332B69C4F810
:1033D000443500200123C4F84805A360E36062E798
:1033E0004FF41D03AFE7164BADE74FF49E23AAE75A
:1033F0004FF4A033A7E74FF41C33A4E74FF41D2389
:10340000A1E7104B9FE7104B9DE74FF06C739AE7D5
:103410000E4B98E74FF4650395E74FF0706392E722
:103420004FF080638FE76FF004003CE700B01300BB
:1034300000A04E0090D0030040420F000000AD0BF2
:103440000050270000C0750000F03A0000903A01DB
:103450002DE9F041044607690D4606F08FFA4FF05A
:103460002008B0B92C4B1B789BB16426606805F02E
:10347000D3FDF0B9012006F0A8F8013EF6D10021F5
:10348000212002F049FCF0E786F31188BFF36F8F2B
:10349000F5E7EFF31186314688F31288BFF36F8F9B
:1034A000606805F0B9FD80B986F31188BFF36F8FAE
:1034B000EFE7EFF31186314688F31288BFF36F8F81
:1034C000606805F0A9FD0028DED03B691D706268C8
:1034D00038691368C3F844050120C3F84805002083
:1034E000C3F82001D3F82051C3F858015268D3F82B
:1034F0005801D20608D5626812680820C2F8000593
:103500004FF48002C3F8042301229A6081F31188EA
:10351000BFF36F8FBDE8F0810E2300202DE9FF413E
:103520000569D0F804802B6D0646A86C002835D1BB
:10353000002B53D0B8F830406A6CEF6C9C4228BF27
:103540001C46EB6C53B1296D41B107F06041B1F1FC
:10355000005F03D0202C6F6E28BF202400926A6C7D
:10356000AC651AB1AA6C002A18BF2246CDE9012722
:103570001BB12B6D002B18BF234600226946404625
:10358000039301F0A1FD184B984229D06FF004017C
:10359000304604B0BDE8F04105F074BE696CEF6CD4
:1035A000B8F830400A46ABB1834228BF03469C427C
:1035B00028BF1C460029C4D001F06043B3F1005F6E
:1035C000BFD0202C28BF20242246286E05F02EF9DB
:1035D0002A6EB6E7844228BF0446EBE71946D7E7D0
:1035E00004B0BDE8F08100BF0000AD0B2DE9F04F45
:1035F0008DB09846436801938B8804690F469904FF
:103600000546914600F11A814FF0FF324FF0FF332B
:1036100004F1100002F08CF86760D5F804B0D5F81A
:1036200010A0DBF8083003939AF85D3023B1DAF884
:1036300000309F4200F08680B7F804E01EF4006F6F
:1036400040F033811EF0090F40F02C81CEF345137A
:10365000082B40F027813B680293029AAB4B9A42B9
:1036600040F220810BF10C0CBCE80F0004AE0FC639
:103670009CE80F0086E80F00DDE902329A4228BF7D
:103680001A46A34B9A421BD2A24B9A4218D2A24B83
:103690009A4215D2A14B9A4200F2D980A04B9A428D
:1036A00000F2D7809F4B9A4200F2D5809E4B9A42FF
:1036B00000F2D3809D489E4B9E49824288BF0B46B4
:1036C0001EF0020F09930EF0040300F0C880002BD7
:1036D00014BF032302238DF82830CEF300138DF896
:1036E0002930DBF80030D3F808251EF0020F4FEA2E
:1036F0005213CEF3400102F01F0240F0B780002BBE
:1037000000F0B180012B40F0FA808B4901239340F7
:10371000C1F80C359AF85D302BB1584601F09AFC8F
:1037200000238AF85D302B46844A04A9584601F0EC
:103730005DFC834B984240F0A58001238AF85D3000
:10374000CAF80070012384F85C30019B996B4A1C15
:1037500003D003F13C0005F0FFFDB9F1000F40F08C
:10376000A780C4F834900023A36304F1480204F155
:10377000380104F1340005F0B9FC6064B8F1000FC1
:1037800040F09F80C4F83C800023236404F1500281
:1037900004F1400104F13C0005F0A8FC002632468B
:1037A000E06401212046266305F0C7FC2846FFF7A8
:1037B000B5FEA06B32463346834240F08B80002337
:1037C000266C1946B14240F08C809342274638BFA0
:1037D00013464FF4FA5202FB03F657F8203B4FF022
:1037E00000081B68B6FBF3F64FF4004CC8364146A0
:1037F00040F2E7304FF47A720023E6FB0C01FCF74D
:103800007FFC02460B46384601F092FF024618B98B
:10381000266B16F1740F6BD10198C4F8588001F033
:1038200019FC84F85D806FF07301284605F02AFDCD
:10383000384601F0A3FF6FF0730625E0A369002B63
:103840007FF4E2AE63689F427FF4DEAEE5E63D4B77
:1038500036E73D4B34E73D4B32E73D4B30E7003B2D
:1038600018BF012337E74FF0A0414FE73BB1012BD1
:1038700048D1314901239340C1F808354AE74FF058
:10388000A041F7E76FF0040623689B8813F4005308
:1038900004D1636004F1100001F026FF30460DB042
:1038A000BDE8F08F6FF01506EEE76FF08506EBE7E9
:1038B000D9F800306363002B3FF455AFD9F80430DA
:1038C00052E7D8F80030E363002B3FF45DAFD8F83F
:1038D00004305AE7616B01EBC301013349680A44C4
:1038E0006AE7E06B00EBC10001314068034469E71F
:1038F000002EC9D00146286905F01FFCC4E7C1F8B5
:103900000C15FFDE0023C3F80835FAE747E801008D
:103910000048E8010024F40000127A00FF083D008E
:103920007F841E003F420F001FA107008FD00300BD
:1039300048E8010090D0030000030050A792000067
:103940000000AD0B00093D0080841E0040420F00C6
:1039500020A1070000F01F0240090DD001280ED160
:103960000A4B03EB82030A4AD3F80007024042EAFB
:103970008102C3F8002770474FF0A043F1E702F53A
:10398000E072002353F82230FFDE00BF0003005036
:10399000F0F8FCFFF0B587B001238DF80230022368
:1039A0008DF804306B4403930F4601AB0DF1030116
:1039B0000024049305460291059401F035F80C4B60
:1039C000984206460FD103AA3946284600F090FED9
:1039D000B0420BD09DF80310284601F01FF86FF09D
:1039E000040007B0F0BD6FF01200FAE72046F8E7D8
:1039F0000000AD0B70B5012383400E4ABFF35B8F0F
:103A0000DC4352E8001F01EA040542E80056002E9C
:103A1000F7D1BFF35B8F4FF4803282400648C0F885
:103A20000823BFF35F8FBFF36F8F0B4214BF0120DA
:103A3000002070BD881F00200010014070B40E49A6
:103A4000D1E90034D01AC31844F1000422F07F46B3
:103A5000C1E90034A6F50013B3F5400F09D2074BB6
:103A60001B681A0A1B069C19054B42F10005C3E9A5
:103A7000004570BC02F0D4BA380200208C1F002030
:103A80004002002011B3BFF35B8F0123104A834033
:103A900052E800CF4CEA030C42E800C10029F7D1FC
:103AA000BFF35B8F0B4A4FF480338340C2F804337B
:103AB000094BBFF35B8F1B68BFF35B8FC340DB0712
:103AC00042BF064B4FF40032C3F80021704700BFDD
:103AD000881F002000100140841F002000E100E04A
:103AE0000D4B1868010A0006BFF35F8F0B4BD3F82C
:103AF0000435181841F10001B3F5801F0AD2084BB4
:103B0000D3E90023904271EB030303D210F18070DC
:103B100041F10001704700BF8C1F002000100140E0
:103B2000400200202DE9F04F85B016461F469DF853
:103B300040A00446FFF75EFF0190FFF7D1FFB042BF
:103B400071EB070354D23E4B301A67EB01019842E8
:103B500071F100014FD23B4B03EB0413D3E9022375
:103B60009F4208BF96425ED037494FF4803804F137
:103B7000500508FA04F8AD00C1F848832046ADB2FC
:103B800005F012FC26F07F4B05F1804504F5A87383
:103B900005F58835DC464FF003090293029A2CF0B4
:103BA0007F4341F82230C1F84483D1F80435274AD5
:103BB0006FF00200C01A604420F07F40904232D97A
:103BC000286868B1D1F804350393A3EB0B0020F00B
:103BD0007F40B0F5000F26D9204605F0E5FB039B9A
:103BE000BAF1000F07D109EB030C09F10109D5E780
:103BF000BAF1000F09D06FF0150520460199FFF7C3
:103C000041FF284605B0BDE8F08F0123104ABFF3FD
:103C10005B8FA34052E8000F184342E800010029DF
:103C2000F8D1BFF35B8F07490E98230101EB041213
:103C3000C8500F9B5360C2E902670025DDE700BF53
:103C4000010080002802002000100140FDFF7F00DD
:103C5000841F00207FB51C4C1C4BC4F80833C4F8EB
:103C600048331B4B00254FF0FF304FF0FF31C4F8B5
:103C70000855C3E902014FF48033C4F80433154BEF
:103C800002264FF400320121C4F804631120C3F866
:103C900080212A46FEF768FB1120FEF735FB0E4A0D
:103CA0000123A360236013600C4B0D4A0093CDE900
:103CB000015500232846FFF735FF3046FEF72EFE5C
:103CC000284604B070BD00BF0010014003000F0083
:103CD0002802002000E100E0881F00203D3A00009B
:103CE000FFFF7F002DE9F7432F4CD4F804339907E9
:103CF0000BD5D4F8043143B12C4A0023C4F8043165
:103D0000D4F80431136801331360D4F80433DA03B0
:103D100029D5BFF35B8F264B53E8002F22F001011A
:103D200043E800100028F7D1BFF35B8FD30702D41C
:103D3000D4F84031BBB10025C4F84051D4F840312B
:103D4000FFF7CEFEEFF31182202383F31288BFF337
:103D50006F8F184BD3E90267B042B94106D282F3A4
:103D60001188BFF36F8F03B0BDE8F0834FF0FF38C9
:103D70004FF0FF39C3E90289D3E900101D604FF409
:103D80008033C4F84833C4F84051D4F8403182F34A
:103D90001188BFF36F8F0029E5D0009032463B4673
:103DA00028468847DFE700BF001001408C1F002035
:103DB000841F00202802002030B5431C124C85B01F
:103DC00005D08442A8BF0446012CB8BF0124FFF7E8
:103DD00087FE0E4B0C4DD3E90013401AB0F5000FCF
:103DE00010D22218AA4228BF2A4652184FF00000CB
:103DF00007490091CDE9010043F10003FFF792FE6E
:103E000005B030BD2A46F0E7FFFF7F0038020020F2
:103E10003D3A000008B5FFF763FE024B1B68C01A6D
:103E200008BD00BF3802002010B5084C01236360B4
:103E30001120FEF777FA064BC4F80833C4F848336C
:103E4000044B4FF40032C3F8802110BD0010014034
:103E500003000F0000E100E030B50C490C4D0B6889
:103E60000246002405EB0310D0F80808C0B218B9C8
:103E700004B10B60002007E00133072B4FF0010471
:103E8000F0D90B606FF01B00136030BD901F002055
:103E900000E0014030B5816885B0103921F0070499
:103EA000054604F041FC10220146684604F0C9FCB6
:103EB00007491022684604F0B9FC10236A462146DF
:103EC000284604F001FC003818BF012005B030BDC1
:103ED000DCA3000030B50D46816887B0102302AA2C
:103EE0001039044604F0DBFB002802DA012007B099
:103EF00030BD102202A9204605F0C7FA00283AD1A9
:103F00001E49102202A804F081FC00280CBF0123E6
:103F100002232B70204605F0A4FA012301460DF17F
:103F20000702204604F0BBFB0028DFDB9DF80730CA
:103F300003F00F021B096A702B7101220DF10701BA
:103F4000204605F0A2FA10B96B78042B03D901239F
:103F50006B7000232B71A268183A22F00702083A0E
:103F6000A91C204605F0A4FA0028BFD1E91C204670
:103F700005F0F7FABBE70323CBE700BFDCA30000A3
:103F80007FB5264D4400694655F8240005F0EFFA48
:103F9000002835D1013402A955F8240005F0E7FACC
:103FA00001282BD103238DF808308DF80B309DF8B4
:103FB00000509DF808601A4A00241078294605F040
:103FC00056FA18B35078314605F051FAF0B19378AB
:103FD000042B03D09DF80310994217D1D378042BFA
:103FE00003D09DF80B10994210D11379042B09D1FD
:103FF0005079831E022B03D804B070BD0028D6D0A0
:10400000FF20F9E79DF802109942F1D00134032C0A
:1040100002F10602D1D10120EEE700BF18A3000093
:10402000F1A600004FF08053D3F83021082A06D1C2
:10403000D3F83431052B02D8024AD05C70470020F7
:10404000704700BF09A70000024AD2F80034002BD5
:10405000FBD0704700E0014010B54FF08053D3F81B
:104060003021082A4ED14FF080420021C2F80C11B5
:10407000C2F81011C2F8381502F54042D3F8041402
:10408000C2F82015D3F80814C2F82415D3F80C147C
:10409000C2F82815D3F81014C2F82C15D3F814144C
:1040A000C2F83015D3F81814C2F83415D3F81C141C
:1040B000C2F84015D3F82014C2F84415D3F82414DC
:1040C000C2F84815D3F82814C2F84C15D3F82C14AC
:1040D000C2F85015D3F83014C2F85415D3F834147C
:1040E000C2F86015D3F83814C2F86415D3F83C143C
:1040F000C2F86815D3F84014C2F86C15D3F84434EC
:10410000C2F87035FFF78EFF18B13A4B3A4AC3F840
:104110008C26FFF787FF18B1384BFB22C3F8182510
:10412000FFF780FF70B14FF080414FF08053D1F81E
:10413000E42ED3F8583222F00F0203F00F0313439A
:10414000C1F8E43EFFF76EFF20B12D4B4FF4007233
:10415000C3F840264FF08053D3F83031082B1AD1E2
:104160004FF08043D3F80024D20744BF6FF0010220
:10417000C3F800244FF08053D3F83431052B02D814
:10418000204AD35C3BB14FF01023D3F808224FF004
:104190008043C3F858254FF01023D3F80022002A9B
:1041A00003DBD3F80432002B22DA174901234FF046
:1041B0001020C1F804351224FFF746FFC0F8004272
:1041C000FFF742FFC0F80442FFF73EFF0023C1F8AB
:1041D0000435FFF739FFBFF34F8F0C490C4BCA680A
:1041E00002F4E0621343CB60BFF34F8F00BFFDE7E3
:1041F00010BD00BF005000404881030000F00040A7
:104200000090024003A7000000E0014000ED00E044
:104210000400FA0530B50468CCB1BFF35B8FB4FA83
:1042200084F3C3F11F03DBB201229A4024EA0202A5
:1042300050E8005FA54204D140E8002CBCF1000F1B
:10424000F6D1BFF35B8FE6D102480B7030BD024858
:10425000FCE700BF0000AD0B0200AD0B10B503681A
:10426000CB40DB0714D401238B400268BFF35B8F84
:1042700043EA020150E8004F944204D140E8001C98
:10428000BCF1000FF6D1BFF35B8FEED1014810BD3A
:104290000148FCE70000AD0B0400AD0B014BC3F877
:1042A0000405704700F00140F7B5044618B1012835
:1042B00023D003B0F0BD4FF080430222C3F808239F
:1042C0000122DA60C3F80401D3F804310646012361
:1042D0008DF8073042F210754FF08047D4B1012CB1
:1042E000E7D1D7F80C3403F48033AEBB83B301209D
:1042F00005F06BF9013DF4D12AE04FF08043002234
:10430000C3F808035860C3F80021D3F800310DF159
:104310000706DCE7D7F8183403F480333EB9002BE6
:10432000C7D0012005F051F9013DF3D1C1E7D7F81D
:10433000182402F003023260002BBAD09DF8070067
:10434000012803D105F041F9013DC7D1012CB0D1BD
:10435000054B00225A71ACE7D7F80C2402F0010299
:104360003270002BEAD1F3E7941F0020044B1A7936
:1043700022B9012218609A800248704702487047AB
:10438000941F00200000AD0B0C00AD0B08B5074BCF
:104390001B682BB10020FDF7D9FF08B9FDF7B4FF6A
:1043A0004FF080430022C3F8182508BD941F002059
:1043B00010B510B1012843D010BD4FF08043D3F8A1
:1043C0001814D3F81824C80321D502F00303012BD5
:1043D00004D013B10020FFF767FF00234FF08042A5
:1043E0000220C2F8183508224FF4827303F180438B
:1043F0000021196002F180421C6801241460154AF2
:1044000012680AB34FF08043C3F80403D4E7D3F82B
:104410001424D107E1D5D3F81C249207DAD40D4A2D
:1044200012681AB10222C3F80423C5E7D3F80421A5
:10443000002AFBD00022C3F80421D3F80431BBE7E3
:1044400000224FF48073D1E71A68002AFCD019606B
:104450001B68B1E7941F002010B54FF08043D3F8DC
:1044600000216AB10022C3F80021D3F80021012203
:10447000C3F80823114B587910B95A711B68984733
:104480004FF08043D3F8042172B10022C3F8042115
:10449000D3F80421D3F81824D3F81824920704D1B0
:1044A0000122C3F818259A6010BD0222C3F8082320
:1044B000024BBDE810401B6801201847941F0020E4
:1044C000036803F01F025B09026004D0012B03485C
:1044D00018BF002070474FF0A04070470003005005
:1044E000034A430900F01F00D35C1844C0B2704770
:1044F0000FA7000070B50546FFF7F2FF0C4C08301F
:104500000E4634F81030DA0508D5C3F3432304EB24
:10451000C302284654F8333052689847A3682BB139
:10452000E26831462846BDE87040184770BD00BFBC
:10453000D800002008B5FFF7D3FF034B083033F84D
:104540001000400B08BD00BFD800002008B5FFF7E1
:10455000C7FF034B083033F81000C0F3400008BD1C
:10456000D800002008B5FFF7BBFF034B083033F835
:104570001000C0F3401008BDD8000020034611F021
:10458000010010B5CCB20DD1A207C4F3400012D582
:10459000094AD2F820055860C2F82005003818BF33
:1045A000012008E04FF0A041D1F820251A60C1F8A1
:1045B0002025002AE8D010BD0003005010B5FFF7F9
:1045C0008FFF124A083032F81030D9051CD5C3F3DA
:1045D000432123F4F85322F8103002F10E04002096
:1045E00034F8023F13F4807F03D0C3F3432399428E
:1045F0000AD001303028F3D1002342F8313004488A
:10460000BDE81040FFF72ABE10BD00BFD800002053
:1046100050010020F0B5054600200446012607465B
:104620008C420BD1114BD3F87C2132B10022C3F85C
:104630007C21D3F87C3140F00040F0BDE3B29B0018
:1046400003F580729B0806FA03F31D420BD002F1BA
:10465000804202F5C042D2F800C0BCF1000F02D087
:104660001760126818430134DAE700BF00600040A9
:10467000F7B506460846FFF733FF194F00F1080566
:104680000C4637F81530DB0727D5304605F014F80F
:104690002046FFF767FF40B12046FFF74BFF316828
:1046A00000F5A270002341F820302046FFF786FF76
:1046B000002301A827F815300194FFF701FF019BA3
:1046C00000EB8300074BD0F80027134043F00203B0
:1046D000C0F80037044803B0F0BD0448FBE700BF52
:1046E000D8000020F0F8FCFF0000AD0B0400AD0B7B
:1046F0002DE9FF41164680460846FFF7F1FE0D46BC
:104700003168044609B32846FFF720FF18B1284650
:10471000FFF728FF10BB0023CDE900338DF80E30E2
:104720008DF80F300DF10F020B4628460DF10E01EA
:1047300004F059FF474A04F1080132F8113023F020
:10474000020343F0010322F81130736863B3284673
:104750001F785968FFF7FAFE10B1D1B13E4826E044
:104760003C4A04F1080032F8103023F02003DB0447
:10477000DB0C22F8103061B1032FEFD87168496863
:1047800091F800C0D8F80010A7B90CF5A27C41F848
:104790002C70304A04F1080132F8113023F01C0368
:1047A00043EA870322F81130B3684BBB2B4804B0AF
:1047B000BDE8F08101EB8C0143EA4C33D1F810E500
:1047C0002EF0030EC1F810E5D8F8001001EB8C0EA6
:1047D00043F02003DEF8101522F8103021F44F3199
:1047E00021F44071CEF810152902DEF8108501F48D
:1047F0007C5141EA074141EA0801CEF81015C8E7AB
:10480000D3E900672846FFF7D9FE002ECED0114D20
:10481000D5E90023964203D19F4201D1002209E04D
:104820000F480DF10F01FFF7F5FC0C4B9842BED17C
:104830009DF80F2045F8326005EBC20308345F6035
:1048400035F8143043EA422343F4807325F81430DA
:10485000ACE700BFD80000200400AD0B0000AD0B9A
:10486000500100202DE9F0430C4685B080462046DB
:1048700011461E46FFF734FE054629B32046FFF7D2
:1048800065FE18B92046FFF76DFE18BB314F05F1E4
:10489000080937F8193013F01C0F02D04B78012BA0
:1048A00018D001238DF80F300023CDE900134A1CE6
:1048B0008B1C20460DF10F0104F095FE37F81930DE
:1048C00043F0030327F81930002E41D02046FFF7AC
:1048D0003DFE18B9204805B0BDE8F08396F800C049
:1048E000D8F800301B4F0CF5A272002143F82210BB
:1048F00005F1080237F8121021F02001C904C90C93
:1049000027F8121075781DB3D8F80000B67800EBC0
:104910008C002D04D0F8103523F4991323F4F853A8
:10492000C0F81035230203F47C5305F440353605F6
:10493000D0F810E52B4306F4801641EA4C3133439E
:1049400041F0200143EA0E0327F81210C0F8103599
:104950000248C0E7D80000200400AD0B0000AD0BFA
:10496000014BC3E902127047D800002010B5084679
:104970001446FFF7F7FD50B10846FFF7B1FD054BB0
:10498000083033F8103004485B0B237010BD034827
:10499000FCE700BFD80000200000AD0B0400AD0B09
:1049A00070B5164D95F8804006462CBB2146602216
:1049B00005F1100003F045FF30682E6F21468E424E
:1049C0000ED10023C0F87C31D0F87C3140F30730A1
:1049D000FDF79AFC01230A4885F88030AB6770BD6B
:1049E000CBB29B0003F580727C2B08BF845001F191
:1049F000010108BF8358E2E70248F0E7D800002031
:104A00000000AD0B0C00AD0B034B93F88000003899
:104A100018BF0120704700BFD80000200148FFF7F1
:104A20001DBC00BF4C0100200148FFF7F3BB00BFD5
:104A30004C01002073B503681646D3F80423002AFE
:104A4000A8BF4FF000420546A8BFC3F8042308469C
:104A50000C46FFF787FD00B30846FFF777FD0146D8
:104A6000D8B92046FFF766FD04B2A40004F58072B1
:104A7000034628688150296882582144D1F81025BE
:104A800042F00102C1F810252EB12968012202FA74
:104A900003F3C1F8043302B070BD2046FFF720FDD8
:104AA0000F4B083033F81030C3F38203042B12D0BD
:104AB000052B12D001A80194FFF702FD019AD0F84E
:104AC0001035D34003F00103991C204602B0BDE825
:104AD000704004F0D1BD0321F7E70221F5E700BFE4
:104AE000D80000202DE9F04F694BDFF8A881D3F8FA
:104AF0000403D8F87010C0B289B040F00040FFF74E
:104B000089FD051E2FDAC24600235AF87C1F06A82D
:104B1000CDE90633FFF732FD5F4B01930DF1180924
:104B20004FF0000B019A12F8013B0192DA0803F0F2
:104B300007031AF8022022FA03F3DA071CD409F15A
:104B40000409BBF1000F14D0D8F870104FF00040EA
:104B5000FFF760FDD8F87C1006A8FFF70FFD0028CE
:104B6000DAD125F000450124002D79D109B0BDE846
:104B7000F08F4FF0010BD5E7484B5B440293D9F817
:104B800000100029DBD0029B91FAA1F11C78B1FA48
:104B900081F141EA44142046FFF7A2FC0830059455
:104BA00038F81070C808BB0819F80020039301F00A
:104BB0000701012303FA01F122EA010209F80020AA
:104BC00005A8FFF77DFC059A039B02F5E072C7F389
:104BD000820650F822205B073746C2F3014224D5F3
:104BE00020463946D6B2FFF785FC05A80594FFF7A5
:104BF00067FC059B03F5E07350F82330C3F30143D2
:104C00009E4207D10021204604F036FD3146204661
:104C100004F032FD05A80594FFF752FC059B012224
:104C200002FA03F3C0F82035A9E7022A0CD10321C8
:104C3000204604F021FD06F00503012BEAD1394698
:104C40002046FFF757FCE5E702212046039204F0D7
:104C500013FD032EF3D0039A032ADBD1022EEDE7D6
:104C600095FAA5F3B3FA83F304FA03F29B0003F178
:104C7000804303F5C04325EA0205D3F81005D3F8B5
:104C80001015C0F30520C1F30141FFF733FC6BE7BA
:104C900000600040D80000201FA700001FA70000F0
:104CA000044AD2F80034DB07FBD50160BFF35F8F05
:104CB000704700BF00E001404FF080531A69B0FB1D
:104CC000F2F302FB130373B9084B0222C3F8042565
:104CD000C3F80805D3F80024D207FBD50022044806
:104CE000C3F8042570470348704700BF00E0014047
:104CF0000000AD0B0A00AD0B10B5054C0123C4F844
:104D00000435FFF7CDFF0023C4F8043510BD00BF04
:104D100000E0014001460148FFF77CBA5C01002039
:104D2000036803F01F025B09026004D0012B0348F3
:104D300018BF002070474FF0A0407047000300509C
:104D40000F4B984219D00DD80E4B984215D007D86A
:104D50000D4B984211D00D4BC31A58425841704721
:104D60000B4BF9E70B4B984207D004D80A4B9842FB
:104D700003D00A4BF0E70A4BEEE70120704700BF73
:104D800080841E0020A1070048E8010090D00300A5
:104D900040420F000024F40000093D0000127A0098
:104DA0000048E80173B51646421C1C460546069BA2
:104DB00018D0012902D1BBB104F00AFD01A8019568
:104DC000FFF7AEFF019B00EB83002402D0F8002721
:104DD000074B44EA86040C4313401C4344EA410158
:104DE000C0F8001702B070BD04F0FFFCE6E700BF9A
:104DF000F0F8FCFF2DE9F347674B4D6990F80490FC
:104E00009D4206460C4600F0AF8000F29F80634B47
:104E10009D4200F0AC8000F29180614B9D4200F019
:104E2000A980604B9D420CBF4FF080654FF08045DC
:104E3000DFF87481E07E242202FB0983997F60F30E
:104E4000000199773379217C02FB03839A7F61F318
:104E500041029A77E77E5FBB6269544B9A420CBF6E
:104E60004FF0030A4FF0000A237E012B94BF00236A
:104E700001230093206853463A460121FFF792FF31
:104E80000097606853463A460121FFF78BFF009771
:104E9000A27EA06853463946FFF784FF237C83F047
:104EA00001030093E06853463A460121FFF77AFF79
:104EB000242303FB0983E2681A62217C9A7F61F351
:104EC00041029A77207FA77C217E627E336898B961
:104ED000D4E900ECA468C3F808E5C3F80CC5C3F82E
:104EE00010454FF0FF34C3F86C45C3F81445C3F8C0
:104EF00068050220C3F86405003A18BF01220229A0
:104F0000C3F8C075C3F824553DD003293ED001290C
:104F100001D142F00202C3F854250222C3F86025F1
:104F200033792422534358F8033093B3306840F365
:104F3000073002B0BDE8F047FDF7E6B91C4B9D42D3
:104F40000CBF4FF080554FF0804571E7194B9D42E3
:104F500013D0164B9D4213D0174B9D420CBF4FF000
:104F600000454FF0804563E74FF0005560E74FF094
:104F700000655DE74FF000755AE74FF0206557E791
:104F80004FF0A05554E742F00402C4E742F0060295
:104F9000C1E702B0BDE8F08780841E0020A10700B1
:104FA00048E8010090D003009C1F00200048E80161
:104FB00040420F000024F40000127A00431C07B5A1
:104FC0000ED0019001A8FFF7ABFE019B00EB830020
:104FD000054BD0F80027134043F00203C0F8003718
:104FE00003B05DF804FB00BFF0F8FCFF2DE9F843C7
:104FF0000746144C97F80480242505FB08F504EBBC
:1050000005091E4699F81C30C3B999B14869FFF7E4
:1050100097FEA8B138466251C9F80460FFF7EAFE6E
:10502000242303FB084400236377074801232377E5
:10503000BDE8F8836251C9F80460F1E70348F7E777
:105040000348F5E79C1F00200000AD0B0C00AD0BE2
:105050000400AD0BF8B5044606790068184D40F31E
:105060000730FDF75FF924237343EB5853B12368EE
:10507000144AC3F8082306EBC601206805EB81013A
:1050800004F0C0FB2421236801FB0651D3F8080576
:10509000D3F80C45D3F810758B7FDB070AD4FFF7E4
:1050A0008DFF3846FFF78AFF2046FFF787FF086A23
:1050B000FFF784FF242303FB065500232B77F8BD5D
:1050C0009C1F0020520108002DE9F0430779554D3F
:1050D00024237B439046EA180E46517F85B08146D3
:1050E000002940F09C80EB5823B118F0140F04BF46
:1050F0000123537796E80F00242404FB075404F19E
:105100000C0C8CE80F00206A421C04D0A37F9B0784
:105110001AD504F05DFB3368D9F8004023B103F0E1
:105120006043B3F1005F06D1B36883B103F060431D
:10513000B3F1005F0BD0242303FB075300223A484E
:105140005A7705B0BDE8F08304F04FFBE3E718F0B1
:10515000010318BF0123C4F8503518F0020318BF2B
:105160000123C4F8403596E80F00EC468CE80F00A8
:10517000039BC4F84405C4F84815C4F83425C4F8A2
:1051800038350023C4F81831D4F818310723C4F88F
:10519000003524237B4318F0080F05EB03021DD1D3
:1051A000E8580121216158B9D4F81831002BFBD0FF
:1051B00062464021204604F0CDFA24237B43EA18BE
:1051C000EB5813BB106A461C13D107EBC70705EB5E
:1051D0008701204604F016FB1448B2E7EB58A3B948
:1051E000106A411CF8D0937F9A070BD504F0FDFAA2
:1051F000F2E7937F9B0702D504F0F7FAE5E704F0A6
:10520000E7FAE2E704F0E4FAE6E718F0040F4FF0FB
:10521000400314BFC4F80833C4F80433DCE704487F
:105220008FE700BF9C1F00200A00AD0B0000AD0BF4
:105230000B00AD0B10B5104A1048402104F08AFA5B
:10524000C8B10F4C206A421C04D0A37F9B070FD526
:1052500004F0CBFA637F1BB10949084804F0D2FA85
:10526000002323720748D4E90031BDE810401847F5
:1052700004F0AEFAEEE710BDA81F00200030004099
:105280009C1F0020A41F002038B5EFF311852023B8
:1052900083F31288BFF36F8F064B9C6804F0E0FA2B
:1052A00085F31188BFF36F8F2046BDE83840FCF7C7
:1052B000B9BF00BFC01F002038B5094B53F82040CC
:1052C000013053F82050A54200D838BD636823B19F
:1052D000204604F0C8FA0834F5E723689847FAE74F
:1052E00020A3000070B52A4B2A4C2B4D012286B01A
:1052F00003201A70FFF7E0FF04F028FC0420FFF7FA
:10530000DBFF2646AE4204F1300410D300F046FC29
:10531000204C224EAC4226D300F054FCFBF75AF846
:105320001F4A137B23F00103137306B070BD54F8BA
:105330000C3C059354F8103C049354F8143C03932C
:1053400054F8183C029354F81C3C019354F8203C48
:10535000009354E90A2354E90C0100F02BFA54F8A5
:10536000303C5E65CDE7D4E90A23B3F1FF3F08BFC7
:10537000B2F1FF3F05D052EA0301206803D104F0E7
:1053800003FB3034C6E73146183000F0CFFDF8E7B4
:105390000E230020E89D0000E89D0000959A000083
:1053A000C802002008B50348034A0021121A04F07D
:1053B00072FA08BD280200201023002070B50023D7
:1053C00086B00122CDE90423114E124D01930F2224
:1053D000CDE902321049142303FB005506EBC01639
:1053E0004FF4A072044602FB00110C4B00953046AE
:1053F00000F0E0F9737B2C7423F004037373084B03
:10540000EE60013403EBC4236B6006B070BD00BFD7
:1054100048020020C01F0020102B002031990000FE
:1054200010230020BFB50020FFF746FF2C4B83F36D
:1054300008882C4D2C4E6B692C4F43F400736B6124
:105440000024E02385F82230EC772C766C76AC765D
:1054500085F820406B6A43F4E0236B6285F82340B3
:10546000FCF760FEFCF7EAFF4FF0FF33AB62EB6244
:10547000FDF77EF8FDF706F81D4BB36040F2011210
:105480009A81C3E919441C6704F0D6F90120FFF79B
:1054900013FF0220174DFFF70FFF00F0B3FB164B71
:1054A00075610593012315490094CDE903434FF439
:1054B00020523B46CDE90144284600F07BF96A7B47
:1054C000064622F0040228466A7304F099FA204640
:1054D000FFF774FF3A4631462846FCF795FF00BFB8
:1054E000102B002000ED00E0C01F0020E55200005E
:1054F00048030020C802002021A70000502C0020F3
:1055000038B5064C064D0020AC4200D338BD2046CD
:1055100004F0C5F90028F9DB1C34F5E7D8010020B8
:10552000D801002073B50C46EFF31181202585F3D7
:105530001288BFF36F8FC5685DB125602B68C360AB
:10554000836901338361002081F31188BFF36F8F7A
:1055500011E052EA030603D125606FF00B00F3E778
:10556000CDE900230246083000F064FA18B9034B75
:105570009B685B69236002B070BD00BFC01F002044
:105580002DE9F341044617461E46EFF31188202308
:1055900083F31288BFF36F8FC368334A7BB180688F
:1055A0009168884219D057EA060318D188F3118808
:1055B000BFF36F8F6FF00F0002B0BDE8F08191680C
:1055C00091F90E1021610133E3609368A36088F3C1
:1055D0001188BFF36F8F0020EEE72169F2E791F9A0
:1055E0000E1090F90E309942A8BF19466FF07E0256
:1055F0009142B8BF11468B422DDD04F0A4F9054657
:10560000CDE9007619482246414600F013FA0028F9
:10561000E1D0EFF31186202383F31288BFF36F8F5D
:10562000A068D0B1236821699C420AD04BB193F99C
:105630000E309942A8BF19466FF07E039942B8BF59
:10564000194604F080F940B10848314600F062FA8A
:105650006FF00A00B0E70025D2E7002DF4D186F301
:105660001188BFF36F8FF3E7C01F00200F230020C6
:1056700038B58368044663B3194A926893422BD1C4
:10568000C368012B03D9013BC360002038BDEFF391
:105690001185202383F31288BFF36F8F016980681F
:1056A00004F051F9204604F0F9F9A06058B190F9DE
:1056B0000E2022610022826704F0A2F909482946DF
:1056C00000F028FAE1E7E06085F31188BFF36F8FFF
:1056D000DBE76FF01500D9E74FF0FF30D6E700BFEA
:1056E000C01F00200F23002038B50446EFF31185BA
:1056F000202383F31288BFF36F8F04F0CFF948B1F2
:105700000022826704F07CF929460848BDE8384049
:1057100000F000BAD4E902329A4218BF0133A36004
:1057200085F31188BFF36F8F38BD00BF0F230020B2
:1057300013B5EFF31181202484F31288BFF36F8F28
:10574000846844B1013C846081F31188BFF36F8F9A
:10575000002002B010BD52EA030406D181F3118883
:10576000BFF36F8F6FF00F00F3E7CDE90023024620
:10577000014800F05FF9ECE70F23002070B5044604
:10578000EFF31185202383F31288BFF36F8F6FF03F
:105790000A06204604F082F918B1866704F030F951
:1057A000F7E7A06029460248BDE8704000F0B2B9B2
:1057B0000F2300202DE9FF410E9E06730426467339
:1057C0000D9E867300F15805D61DC0E916550C9A3A
:1057D000002526F00706C0E90655C0E919168560C0
:1057E000C573C56602920B9A019201EB06080A9AEC
:1057F000009242460446FCF7EBFD054B65659B684D
:1058000003B11B6F2367404604B0BDE8F08100BFC1
:10581000C01F002038B50D4D2B4653F8184F9C4241
:1058200000D004B9EC68AB6838B95A7BD20604D111
:10583000A26912B9DA897F2A05D89C4202D0204693
:1058400000F0BCFA23466B6138BD00BFC01F0020CA
:1058500008B590F90D20437B002A014604DA03F0D5
:105860007F03437304F092F8044B9868431A58423C
:105870005841BDE80840FFF7CDBF00BFC01F002062
:1058800070B490F90D30427B002B29DBD30627D171
:1058900083692BBB134962F07F0242730A4652F8B8
:1058A000184F944218BF2346CC6923B9C0E900249D
:1058B0002060C8610CE090F90E5093F90E60B5427B
:1058C0000AD0AE4208DD5A68C0E900321060586064
:1058D00070BC0020FFF79EBF9C42E7D01B68E4E746
:1058E00070BC7047C01F00202DE9F041002A427BA8
:1058F0000E460CBF10210821114204460FD141EA87
:105900000203D20918D1437308291BD00120FFF7E5
:1059100081FFBFF35F8F637B23F060036373264BCC
:105920009B68A34241D1EFF30583002B3DD1304664
:10593000BDE8F041FCF78CBC03F07F03437304F037
:1059400025F8E1E7A36813B1204604F027F804F135
:10595000180004F0E0F804F158074FF00008A56DB6
:10596000BD4200D0A5B9144DAB689C42CED1EFF337
:105970000583002BCAD00120FFF74CFF0F4BAB6013
:1059800040F201129A810022C3E919221A67C0E786
:10599000284604F003F805F1180004F0BCF8C5F837
:1059A00078802846FFF76CFFD9E786F31188BFF3AC
:1059B0006F8FBDE8F08100BFC01F002048030020AA
:1059C00070B590F90D20437B002A014604DA03F0FC
:1059D0007F03437303F0DAFF4B7B154A63F07F03C9
:1059E00010464B7350F8183FD469834208BF002318
:1059F00023B9C1E900042160D1610CE091F90E5096
:105A000093F90E60B5420ED0AE420CDD5868C1E984
:105A10000030016059609068431A5842BDE87040F8
:105A20005841FFF7F7BE9C42E3D01B68E0E700BF98
:105A3000C01F0020F8B5124B0C461146114A986859
:105A40001060DDE90676EFF31182202282F31288DE
:105A5000BFF36F8F9D68284603F0AAFFB6F1FF3FA2
:105A600008BFB7F1FF3F06D007493A46334605F174
:105A7000180000F05BFA2046BDE8F840FCF7E8BBF0
:105A8000C01F0020E01F0020959A0000F8B50446D2
:105A9000EFF31186202383F31288BFF36F8F437BCC
:105AA000DA0649B219D18569BDB903F07F034373A2
:105AB00003F06CFF437B164A817363F07F034373EB
:105AC000134653F8180F984218BF0546D0695DB9C0
:105AD000C4E900300460D46111E0A173002086F3B2
