:10000000C04D00205D4C00002FB50000494C0000A1
:10001000494C0000494C0000494C00000000000021
:10002000000000000000000000000000214E000061
:10003000494C000000000000ED4D0000494C00005C
:100040007D4F00007D4F00007D4F00007D4F000080
:100050007D4F00007D4F00007D4F00007D4F000070
:100060007D4F00007D4F00007D4F00007D4F000060
:100070007D4F00007D4F00007D4F00007D4F000050
:100080007D4F00007D4F00007D4F00007D4F000040
:100090007D4F00007D4F00007D4F00007D4F000030
:1000A0007D4F00007D4F00007D4F00007D4F000020
:1000B0007D4F00007D4F00007D4F00007D4F000010
:1000C0007D4F00007D4F00007D4F00007D4F000000
:1000D0007D4F00007D4F00007D4F00007D4F0000F0
:1000E0007D4F00007D4F00007D4F00007D4F0000E0
:1000F0007D4F00007D4F00007D4F00007D4F0000D0
:100100007BB972B90029BEBF00204FF0004106E064
:1001100008BF00281CBF6FF000414FF0FF3000F017
:1001200057B8ADF1080C6DE904CE002909DB002BAE
:100130001ADB00F04FF8DDF804E0DDE9022304B03B
:100140007047404261EB4101002B1BDB00F042F89D
:10015000DDF804E0DDE9022304B0404261EB410137
:10016000524263EB43037047524263EB430300F098
:1001700031F8DDF804E0DDE9022304B0404261EB30
:1001800041017047524263EB430300F023F8DDF86E
:1001900004E0DDE9022304B0524263EB43037047FD
:1001A00053B94AB9002908BF00281CBF4FF0FF31DE
:1001B0004FF0FF3000F00CB8ADF1080C6DE904CE43
:1001C00000F008F8DDF804E0DDE9022304B0704730
:1001D000704700BF2DE9F04786468C460846089ECA
:1001E000154674461946002B40F0C2808542B2FA8B
:1001F00082F245D94AB1C2F1200300FA02FC2EFA7C
:1002000003F3954043EA0C0C94404FEA154EA8B214
:10021000BCFBFEF8230C0EFB18CC08FB00F943EAEC
:100220000C43994528D9EB1808F1FF3704D29945BA
:1002300002D9A8F102072B44A3EB0903A4B2B3FB34
:10024000FEFC0EFB1C330CFB00F044EA0344A0420E
:1002500014D92C190CF1FF3304D2A04202D9ACF10D
:1002600002032C44241A43EA07401EB1D440002361
:1002700034607360BDE8F0874746DDE76346F1E729
:1002800092BB431B01214FEA154EAFB2B3FBFEFCFC
:10029000200C0EFB1C330CFB07F840EA0343984587
:1002A00062D9EB180CF1FF3004D2984502D9ACF1B9
:1002B00002002B44A3EB0803A4B2B3FBFEFC0EFB2D
:1002C0001C330CFB07F744EA0344A7424ED92C1910
:1002D0000CF1FF3304D2A74202D9ACF102032C4443
:1002E000E41B43EA0040C0E7C2F1200320FA03F117
:1002F000954090402EFA03F303434FEA154EAFB2F8
:10030000B1FBFEFC0EFB1C10190C0CFB07F841EABC
:100310000041884504FA02F422D969180CF1FF3033
:1003200004D2884502D9ACF102002944A1EB0801AE
:100330009BB2B1FBFEFC0EFB1C110CFB07F743EA62
:1003400001439F420ED9EB180CF1FF3104D29F42BA
:1003500002D9ACF102012B44DB1B41EA004192E7D8
:100360006046E3E76146F7E76046A3E76346B7E721
:10037000834206D916B9002108467BE7C6E900E0AA
:10038000F9E7B3FA83F78FB9834201D3724508D8EE
:10039000BEEB020460EB030301209C461EB9002162
:1003A00068E73846FAE7C6E9004CF8E7C7F1200CE1
:1003B000BB4022FA0CF41C432EFA0CF120FA0CF389
:1003C000B84001434FEA14490EFA07F5B3FBF9F8B8
:1003D0001FFA84FE09FB18300B0C08FB0EFA43EAE7
:1003E00000439A4502FA07F240D9E31808F1FF30BA
:1003F00004D29A4502D9A8F102002344A3EB0A03D0
:1004000089B2B3FBF9F809FB183308FB0EFE41EA89
:1004100003418E452CD9611808F1FF3304D28E4573
:1004200002D9A8F10203214443EA0040A0FB02984C
:10043000A1EB0E014145CE46434602D306D14D45C0
:1004400004D2B9EB020E68EB04030138002EA6D0EB
:10045000B5EB0E0261EB030101FA0CFC22FA07F383
:100460004CEA0303F940C6E9003198E74046C5E786
:100470004346D9E710F8012B11F8013B012A28BFA8
:100480009A42F7D0D01A7047034611F8012B03F8AF
:10049000012B002AF9D17047034613F8012B002ADB
:1004A000FBD1181A013870472DE9F04706468AB08B
:1004B0000F4690460BF0D5FE4FF47A73A0FB034530
:1004C00003FB0155E40B012F44EA45444FEAD535BF
:1004D00008D1CDE900452A4A082130460AF014F82F
:1004E000002013E0D8F8047026483946FFF7C2FF11
:1004F00078B125483946FFF7BDFF50B13046234A51
:100500003B4601210AF000F86FF004000AB0BDE894
:10051000F0872046294618A3D3E90023FFF7F0FD12
:1005200005460C4610461946194A0023FFF7E8FD18
:1005300080460F46104619464EF660220023FFF70C
:10054000DFFD82468946104619464FF47A72002331
:10055000FFF7D6FDCDE904A9CDE90601CDE90823D1
:10056000CDE90287CDE900540A4A0821304609F056
:10057000CBFFB5E7AFF30080005C2605000000006C
:10058000A8DC0000B9DC0000BCDC0000C5DC000019
:1005900080EE3600DCDC000010B5174A0446082166
:1005A00009F0B2FF2046154A082109F0ADFF2046A8
:1005B000134A082109F0A8FF2046124A082109F031
:1005C000A3FF2046104A082109F09EFF20460F4A4B
:1005D000082109F099FF20460D4A082109F094FFEF
:1005E00020460C4A082109F08FFF20460A4A0821BC
:1005F00009F08AFF002010BD84D40000A3D40000BD
:10060000B8D40000CBD40000DED40000F2D4000047
:1006100012D5000032D5000052D5000008B5034ABB
:10062000082109F071FF002008BD00BF74D500004B
:100630000329F7B5054608D0244A012109F064FFD3
:100640006FF01504204603B0F0BDD2E901672049E0
:100650003046FFF70FFF80B11E493046FFF70AFF13
:10066000D0B11D493046FFF705FFB8B11B4A3346EC
:100670000121284609F048FFE2E7194C194938469C
:10068000FFF7F8FE60B118493846FFF7F3FE014660
:1006900038B1164A3B46EBE7154CEFE7154CEDE752
:1006A0000121204608F0E5FF041E06DA124A23461F
:1006B0000121284609F028FFC4E7104A0097334675
:1006C0000821284609F020FF0024BBE77AD5000066
:1006D000A5D50000A9D50000AFD50000B4D5000015
:1006E00014CD0000DCDF0000E2D50000E6D50000FC
:1006F0000CCD000004CD000007D600001ED600007F
:100700002DE9F043CB1E012B87B005468946904664
:1007100013D9654A012109F0F7FE644A01212846F0
:1007200009F0F2FE624A0121284609F0EDFE6FF061
:100730001504204607B0BDE8F0830023CDE903335C
:100740005C49D8F8040004AB03AA07F053FF022861
:1007500007D0D8F80430584A0121284609F0D4FEC1
:10076000E5E7039B012B01D9544AF5E7049A1F2AB8
:1007700002D91346524AEFE7524A534F002B08BFA3
:10078000174638460BF067FB40B9039B4F4A0121DF
:10079000284609F0B9FE6FF01204CAE7D8F80840FD
:1007A0004B492046FFF766FE002838D19DF810100F
:1007B0004FF48032384608F032FF041E049E08DAF7
:1007C000CDE90064039B434A0121284609F09CFEC1
:1007D000AFE7D7F81080BB6805A95B683846984733
:1007E000041E04990BD0039B15DBCDE90014039B79
:1007F000394A0821284609F087FE002499E7059B1D
:10080000D8F80020F6B25A400123B3401A4214BF70
:1008100001240024E9E7CDE90014304AD4E7304947
:100820002046FFF727FE064600283AD1B9F1040F0B
:1008300010D1D8F80C402B492046FFF71BFE40B1E1
:1008400029492046FFF716FE064618B1274A2346D7
:1008500082E701269DF810104FF48022384608F0F8
:10086000DEFE041E05DA049B0093214A039B0194DB
:10087000AAE79DF810103246384608F0EAFE041E3A
:10088000049904DACDE90014039B1A4A9CE71A4A3A
:100890001A4B002E18BF1346CDE90013184A039BCC
:1008A000A7E7184A234657E732D6000063D6000070
:1008B00087D60000A5D60000ABD60000DDD600002C
:1008C000FCD6000060C900004CC9000018D7000029
:1008D000D7F2000037D700007FD7000062D70000B2
:1008E0008ED7000092D70000B3F2000097D7000027
:1008F000BAD70000E6D7000029D600002ED60000A7
:1009000002D8000012D80000064B10B59C684FF4C6
:10091000005163690348984700214FF4803007F085
:100920004FF9F4E760C9000038B55448544C0BF057
:1009300092FA58B923685B0704D0524A0121204635
:1009400008F09CFE6FF01205284638BD4B480BF0AE
:1009500082FA20B923685D07F4D04B4AEEE7474896
:100960000BF079FA20B923685807EBD0474AE5E73E
:10097000474A4248112108F052FE051E09DA236851
:100980005907E1D0434A2B460121204609F0DEFBFE
:10099000DAE73F4A39480D2108F041FE051E05DA25
:1009A00023685A07D0D03C4A2B46EDE7384A3348F3
:1009B0000F2108F034FE051E236804DA5B07C3D05C
:1009C000364A2B46E0E703F00703022B36D9344AB8
:1009D0000321204608F052FE236803F00703022B90
:1009E0002CD9304A0321204608F048FE236803F042
:1009F0000703022B22D92C4A0321204608F03EFE91
:100A0000236803F00703022B18D9284A1C48032146
:100A100008F034FE236803F00703022B0ED9244AA2
:100A20001748032108F02AFE236803F00703022B6E
:100A300004D9204A1248032108F020FE01211E4853
:100A400008F017FE01211D4808F013FE01211C4883
:100A500008F00FFE00214FF4804007F0B1F80021AC
:100A6000154808F006FE0021144808F002FE14485C
:100A7000002108F0FEFD002566E700BF60C9000008
:100A80006802002037D8000055D8000075D8000053
:100A90001100160094D80000B4D80000D6D8000089
:100AA000F7D8000025D9000042D900006ED9000017
:100AB0009BD90000BAD9000014CD00000CCD000075
:100AC00004CD000008B500F0B7F80A4941610A49B1
:100AD0000122C0E900220A6008490A60084A00238E
:100AE0001360084A03611360C0E90233064A1360C9
:100AF00008BD00BF08DE00001C0000201800002018
:100B0000801B00207C1B0020781B00202DE9F04179
:100B100007460E46154600F08FF8C36804461BB919
:100B200043691A78002A41D10023E3606368BB421D
:100B300056F8232008DB324B6361204600F062F850
:100B40004FF0FF30BDE8F081511C616192F80080E8
:100B5000B8F12D0FEFD1911C61615178A1602D2961
:100B600004D192786AB901336360E4E749B9244B50
:100B70006361414628460BF05EFD0028DDD0C4F8D5
:100B80000880D4F80880284641460BF054FDB8F19F
:100B90003A0F636900D070B91B7813B963680133E9
:100BA0006360204600F02EF83F20CBE75A1C4261DC
:100BB0001B788360E5E742783A2A0BD00022226155
:100BC0001B7813B9636801336360204600F01AF89C
:100BD000A068B7E718786268094928B901329742D6
:100BE000626004DD56F82230C4E90431EAE761614D
:100BF0002D783A2D2046D5D100F004F82846A1E7FB
:100C000008DE0000074B02681A60074B42681A6052
:100C1000064B82681A60064BC2681A60054B02696F
:100C20001A6070471C00002018000020801B002064
:100C30007C1B0020781B002000487047000000202B
:100C40002DE9F04F91B08407009302F00403029362
:100C5000C2F3C20303F10103DDF868900392054675
:100C60000E46059340F0BA81041D30B1072909D81A
:100C70006FF01B0011B0BDE8F08F01F00706341DC6
:100C8000C6F10806009B4FF00008591E4FF0040AF9
:100C90004FF0FF330193CDF810804746C3465346CB
:100CA0000DB1009A22600598002800F3E88098486A
:100CB000009A824203D397488242C0F0E080039AB0
:100CC000A4EB050E92074FEA9E0000F103810F2F5F
:100CD00000F2B180002D00F0058107F140020DEB1C
:100CE000020C019A0CF8200C0CF8102C049801301E
:100CF0000490E7E07A285DD84B280ED8472859D8C9
:100D000029282DD8252852D054D820287AD0233805
:100D1000D0F1000B4BEB000B74E04C382E2849D877
:100D2000DFE800F070484848484848484848484884
:100D30004B484848484848484859484B4B595959E6
:100D4000704B6D487048184B184848827F4B484894
:100D50004B487F0000204FF0000B4FF0040A38E0B2
:100D60002A38C0B2012202FA00F010EA0E0F49D16F
:100D700010F0625C2FD110EA020B43D06046013CB8
:100D80005444B4FBFAF40AFB04F4002D61D0A3EB45
:100D9000050CA444B4453FF66BAF002868D1042B82
:100DA00047D159F8043B2360043404232AE0019A14
:100DB000013A01924FF0000B24E011F8010C6C286D
:100DC00034D111F8023C00206C2B8346C5D14FF082
:100DD000080A5346D3E709F1070929F00709073440
:100DE000F9E802AB24F0070435B106982044B0427C
:100DF0003FF63EAFC4E900AB08344FF0000B4FF0B4
:100E0000080A534611F8010F002878D0BBF1000FF3
:100E10007FF470AF2528F5D1019B013301934FF08A
:100E2000010B4FF0040AECE7584694E70020834694
:100E3000A5E7082B02D06FF015001BE709F10709A1
:100E400029F00709F9E80223C4E90023083408233C
:100E5000D8E768B9042B02D109F10409A4E7082BEB
:100E6000E9D109F1070929F0070909F10809EDE7B6
:100E7000059A013A059259F8042B009210E7039A5B
:100E8000900720D5A4EB050E4FEA9E004FF0010C11
:100E9000BEF5007FCFD20F2FCDD8F5B107F14002BC
:100EA0000DEB020EC0B2019A0EF8200C0EF8102CB9
:100EB000BCF1000F3FF41AAF60F07F000EF8200C79
:100EC00008F101080137C5F10802043406924FF613
:100ED000DA7E97E74FF0000CDAE7BCF1000F01D0A3
:100EE0000136EFE7029802360028EBD10098CDE9F1
:100EF0000631FFF7D1FADDE906310644E2E7631B6C
:100F0000B3F5806F97D23DB9A6F10804E018B1E6B9
:100F1000B8C8000048F30000029A28609B082B70B4
:100F20009DF81030C2B1EB7085F80280B8F1000F67
:100F300005D008A80022C5F1010C97420ED1C5F1D9
:100F400001030DF120094FF0000A01930DF1300B60
:100F5000574512D1601B8DE66B70E5E710F8013B39
:100F6000190608D504EB0C0EB64503F07F033FF6D7
:100F70007FAE04F8013B0132DFE7B8F1000F03D088
:100F800099F90020002A17DB029BD3B11AF80B2035
:100F900004F8012B0022019B98182044B0423FF630
:100FA00067AE99F8000004F8010B009903922046FF
:100FB0000BF001FB039A14440AF1010A09F101093B
:100FC000C6E799F8002055F822300093029B45F8B7
:100FD00022300098FFF760FA421CDCE76FF00D004A
:100FE00048E600BF2DE9F04F97B000AF90F802A09F
:100FF000D7F880B03B62CBF3C0030446FA62BB6112
:10100000894641B9457800780AEB800020444D4577
:1010100017D8A0EB0409E378FB61BAF1000F02D006
:101020001BF0010F16D1FB6953BBFB6A1BB13A6A77
:101030004946204698474D4628465C37BD46BDE8A0
:10104000F08F461C3046FFF727FA0130304409F193
:101050000109DCE7237862687A62FA6A99007961AB
:1010600004EB8301002A40F004814D460E4601EB5B
:101070000A094FF000084E4550D101EB0A0610E076
:101080001BF0020FD1D023789A007A6162687A62ED
:10109000FA6A04EB8301002A7BD14D4601EB0A0674
:1010A00090461BF0050F0CBF02230123FB62FB6976
:1010B00006EB430A0BF00203BB625645BCD016F8A0
:1010C000021B16F8013C54F823909B4B994502D320
:1010D0009A4B99453AD3BB69002B44D0786A08F003
:1010E00069FB00283FD09648036813F0060F13D021
:1010F000E9468AB06A46934B53617B6AC2E906317E
:101100004FF400731384904B42F8103F00234FF4C8
:10111000125100F007FECD46023DCEE716F8013B26
:10112000F96254F82300FFF7B7F9D7F88430F96A69
:1011300001304BB1D7F8883098453EBFD7F884309E
:1011400023F8180008F10108054494E7BB6923B1AE
:10115000786A08F02FFB0028C5D11BF0010F05D1DC
:10116000FB6AED1AA9E7BB6A002BA6D04846FFF739
:1011700093F9D7F8843053B1D7F8883098453FBFFA
:10118000D7F88420431C22F8183008F101080544E0
:1011900093E7BAF1000F72D01BF0040672D0D0466C
:1011A000002607F1480052463B61B9620BF003FA92
:1011B000B96A3B6901EB0A02BA62FA69F96952003D
:1011C000FA60BA6A02EB41023A610BF00202BA60BD
:1011D0003A69B96A8A4257D162787A621BF0020F83
:1011E00032440CBF4FEA580100211BF0010FD2B26C
:1011F00040F09F801BF0040F14BF40460020BB61ED
:101200006270A070E1703A6A7969FB6A204698477B
:10121000051EFFF611AFBB6923707B6A6370FB6923
:10122000E37041463A6AFB6A84F802A007F148007D
:101230009847B0F10008C0F2B5807B693A6AA9EB23
:101240000A01C91AFB68C91AD7E90A039847002896
:10125000C0F2AA80A84408EB00054FF0000B07F18C
:10126000380AB34572D300213A6AFB6A08469847A8
:10127000E2E656464FF0000807F1380093E756467D
:10128000D04697E7B04695E7BA6A12F8021BBA62F1
:1012900012F8015C284A54F82500904202D3274AEC
:1012A00090421ED3BA6932B1786A7B6008F082FA44
:1012B0007B6800288CD1BA6802BB08F1280207F1CC
:1012C000300C08F10100944407F1580252FA80F002
:1012D00008F102080CF8101C5FFA88F800F8105C9E
:1012E00076E7BA693AB1786A7B6008F063FA7B689E
:1012F00000287FF46DAF1BF0010F09D006F1280222
:1013000007F13000711C161806F8205CCEB25FE7BA
:101310001BF0040F3FF45CAF08F1280207F1300026
:1013200008F1010102EB000808F8105C5FFA81F88F
:101330004EE7002063E700BFB8C8000048F3000094
:1013400048020020FDDA0000040000011BF80A300A
:1013500087F8373054F82390D7F88430FBB133F84E
:101360001B803A6AFB6A012107F137009847002881
:101370001ADB0544B8F1000F06D14846FFF78CF898
:1013800000F101081FFA88F83A6AFB6A41464846AC
:101390009847002808DB05440BF1010B61E7D7F8FB
:1013A0008480DEE7454647E6054645E6014B186082
:1013B000704700BF2000002080B505460E46174646
:1013C000984606F01BFC03460BF06CFADFF8189009
:1013D000044649F80030424630463946A84754F89A
:1013E000090003F0B1FC00BF080000002DE9F04740
:1013F000058B04462807904611D4022905F00705FD
:1014000040F0CC80204608F05BFC78B10138218B9D
:10141000042811D8DFE800F0C2106D85950001297D
:101420000CBF45F0100545F02005258388F3118891
:10143000BFF36F8FBDE8F08701F0070AAA4500F0FF
:10144000A5800027B9463E46A368002B00F0BC806B
:1014500041F00801218388F31188BFF36F8FA168E1
:10146000002900F0BA800D68002900F0B680D1F89C
:101470000480334652462046C047002D76D02B6864
:1014800029461D46F0E701F007035A1F012A1BD821
:10149000002221F00701062B276889B2C4E9002247
:1014A00009D13B4603E0628B013262831B68002B4B
:1014B000F9D141F002012183204608F001FC002807
:1014C0007AD041F0200176E0042B0AD121F0070107
:1014D00089B22183204608F0F3FB10B141F02001CE
:1014E0002183218B01F0070AAA454FD00027B94676
:1014F000AAE7236921F0070141F00601062DD3F880
:10150000009021832DD1B9F1000F3FD041F00801A7
:10151000218388F31188BFF36F8F3A492046C8476B
:1015200029E021F00701236941F0040189B2042D6B
:10153000D3F804902183E6D000273E464FF0040AFA
:1015400082E721F00701236941F0050189B2052DE9
:10155000D3F808902183D6D000273E464FF0050AE5
:1015600072E700273E464FF0060A6DE72B4687E7F5
:10157000B9F1000FD1D1EFF31188202383F3128842
:10158000BFF36F8F238B23F008032383258BEA0699
:101590002ED525F01003238305F007056669218BFE
:1015A000002EBFF670AF00232768C4E9003321F096
:1015B000070141F001012183218B01F0070AAA45AF
:1015C0004FF000097FF440AF002F9CD041F008019C
:1015D000218388F31188BFF36F8F002FC8D03D6837
:1015E000394633465246204608F096FB2F46F4E72C
:1015F000AB067FF51BAF25F02003238305F007051D
:1016000000E700BF459D00002DE9F047DFF8588056
:10161000044607464FF0010914B93846BDE8F08783
:1016200094FAA4F5B5FA85F509FA05F32E0108EB4D
:1016300005156FEA030A24EA03042B7B002BEBD089
:1016400058F806301B694BB9464404227368284693
:10165000196807EA0A0700F025FBDDE728469847E6
:101660000028D9D1F0E700BFB0CB000030B5104959
:10167000104889B000220AF0F6FD0F4D0F490022F4
:101680000023CDE9062300240E23CDE90334CDE960
:1016900001440B4B00944FF44072284605F0D6FFEE
:1016A0000849284605F010FF204609B030BD00BFAC
:1016B000C916000070140020B0030020802900200B
:1016C000E9190000B1DB0000014805F0B1BE00BF20
:1016D000DC0200202DE9F04780461F480F4608F045
:1016E00092FC0646002830D000252846BDE8F08749
:1016F000237B6BB12368DB680BB1204698472368D6
:101700001B69D3B9636804221968204600F0CAFA3D
:10171000013610344C45EBD3B8F1000FE5D0002D65
:10172000E2D02846FFF770FF0546002FF7D00021D2
:101730004FF4A47006F044FAF1E7204698470028D9
:10174000E0D00AFA06F31D43E2E7044CDFF81090FC
:1017500005464FF0010ADDE7941B0020B0CB0000E6
:10176000C0CB000008B5034608462BB1044A1360FD
:1017700000F068FD002008BD6FF01500FBE700BF1A
:101780002400002010B5044C237813B9034805F059
:101790004FFE0123237010BD10270020DC02002023
:1017A00010B50446084808F02EFC5CB1BFF35B8F0F
:1017B000064B53E8001F013943E80012002AF8D114
:1017C000BFF35B8F10BD00BF8C1B0020901B00205F
:1017D0000020064BBFF35B8F014653E8000F43E840
:1017E0000012002AF9D1BFF35B8F70478C1B0020D9
:1017F00070B5FFF7EDFF084C084E0546B44200D324
:1018000070BD63685B792BB123685B6813B12946AF
:10181000204698471034F1E7B0CB0000C0CB000061
:1018200010B5044C0449204608F0F2F8034B1C6044
:1018300010BD00BF040200201CCD0000841B00204E
:10184000094A0A4808B500231370094A1360094A77
:101850004FF400411360FFF785FFFFF7E1FFBDE89C
:10186000084000F06FB900BF1127002003A000005E
:101870008C1B0020901B0020014600220148002301
:1018800008F0E7B804020020014808F07DB900BF65
:1018900004020020024B0146186808F0C9B900BFD5
:1018A000841B0020014808F0FEB900BF040200209C
:1018B0002DE9F041354B1878002864D0FFF7E4FF9C
:1018C000044698B1BFF35B8F314B53E8001F0139D9
:1018D00043E80012002AF8D1BFF35B8F2D4DDFF8EB
:1018E000B88045452DD32046FFF7D4FF2B4B2C4C19
:1018F0001B68002B19DD0AF0B4FC4FF47A72A0FBD0
:10190000020302FB0131C30BD4E9002043EA414347
:101910009B1A4FEAD13140F2E93261EB0001934268
:1019200071F1000101D3FFF763FFD4E9003213F531
:101930007A7342F10002C4E90032BDE8F041FFF7DA
:10194000B1BF6B685B793BB121784B0706D52B683B
:1019500021461B68284698471035C2E7204626884E
:10196000C1F3C20700F0ACFAC6F382160246002E9D
:10197000EDD00028EBDB01233946284600F0ACF916
:10198000B042E9D3E3E7BDE8F08100BF10270020B3
:10199000901B0020B0CB0000C0CB00008C1B0020AF
:1019A0006814002070B50D4D297861B90120FFF74A
:1019B00091FE0B4C0B4EB44206D3FFF779FF002883
:1019C000FBD101232B7070BD63685B791BB1236869
:1019D00020469B6898471034EDE700BF1127002090
:1019E000B0CB0000C0CB000000212DE9F047084635
:1019F000FFF770FE044658B340F267684FF00009E5
:101A00000AF050FF1B4B1C4A1B58136033B11B4B91
:101A10001B68092B02DD1A4805F00AFD194FDFF893
:101A200060A0002544B12046FFF7EEFD044618B93A
:101A30004FF0FF384FF0FF39FFF73AFF064628B95D
:101A4000B5B942464B46504605F018FD3546E9E724
:101A50004FF0FF384FF0FF39D2E72B689B691BB17D
:101A600000221146284698471035BD42F5D3E8E7D5
:101A7000054DFAE708000000881B0020901B00209D
:101A8000DC020020C0CB0000B0CB000013B518482A
:101A900008F0B9FA174B1B7873B1EFF311842023C8
:101AA00083F31288BFF36F8FFFF702FF84F311886F
:101AB000BFF36F8F02B010BD0F4B1B68002BF9D026
:101AC00050B900220023CDE900230C484FF4004216
:101AD000002306F03DFBEDE70928EBD107480AF0AB
:101AE000CEFB074802B0BDE8104005F0A1BC00BF26
:101AF000901B002011270020881B0020701400205C
:101B0000DC02002010B5064B1B68044698472146AE
:101B1000A060044808F019F8BDE81040FFF7B6BF10
:101B20002400002004020020044A054B9B1AB1EB5C
:101B3000D30F34BF52F831000020704750CB000063
:101B4000B0CB00000B480C4B30B51B1A0B4CDB081C
:101B500000210430994200D130BD10F831202568B1
:101B600002F0070225F007052A4344F8042B01314F
:101B7000F0E700BF50CB0000B0CB000048020020CF
:101B8000F8B50B4F0B4DED1B0646ED080024AC429B
:101B900003D14FF0FF342046F8BD57F8340020B190
:101BA0003146FEF767FC0028F5D00134EFE700BFAF
:101BB00050CB0000B0CB000000282DE9F04788464C
:101BC00015461F461DDADFF89890264E4FF0000AA2
:101BD000A6EB090636095446B24509F1100902D1AF
:101BE0002046BDE8F08759F80C0C3B4600792A46A0
:101BF0004146FFF7E1FF844238BF04460AF1010A7B
:101C0000EAE7194B194AD21AB5EBD20F26D203EBE9
:101C1000C5031C79BC4228BF3C46154EC0B200EB40
:101C2000400056F825300722824023EA020304F0E0
:101C30000702824013430021032223FA02F000F03E
:101C40000700814202F1030238BF01461E2AF4D187
:101C500023F007030B4346F82530C1E70024DCE7F7
:101C6000B0CB0000C0CB000050CB0000B0CB0000D8
:101C700048020020F8B5094D094BED1A06460F46FB
:101C8000ED080024AC4200D3F8BD002122B23B464F
:101C90003046013408F0D7F9A4B2F3E7B0CB000026
:101CA00050CB000038B50B4BC31A0D461B11114623
:101CB000426801331371436804469971FFF7DAFFF4
:101CC00063681D60636801225A71BDE83840FFF700
:101CD00059BD00BFB0CB000070B14168097973B144
:101CE000002A17DBCBB20C4951F8220003EB430367
:101CF000D84000F0070070474FF0FF31EFE7074989
:101D00000748401AB2EBD00F3ABF01EBC201087985
:101D100018467047042070474802002050CB00004E
:101D2000B0CB00002DE9F04F8FB004AFC1F34A28CB
:101D3000B8600D4691467B600C0DB8F1000F67D07E
:101D4000002607F114034FF0040B4FF00A0AC7F8FE
:101D50000C80C7E907667E620193CDF808B0CDF824
:101D600000A007F11C03F96832464846FFF73AF92C
:101D7000B0F5006F034620D32A48036813F0060F1E
:101D800017D06C468AB0D9F8041004AB264DC3E9CD
:101D9000055140F2FF71D9611A464FF40071198460
:101DA000224B42F8103F4FF412513346FFF7BAFF6F
:101DB000A5462C37BD46BDE8F08FC0F30A0804F1F4
:101DC0001700184420F0070080083B60FFF754FD1F
:101DD00068F35325044690B13B68154AC7E90836B5
:101DE00000F1100107F11403F961CDE900A3CDF86A
:101DF00008B0F96807F11C034846FFF7F3F868F3E9
:101E000053257B68B9682A46204608F046F9D0E792
:101E100004F1170020F007008008FFF72DFD0446AD
:101E2000EDE700BF54020020C6DB00000400000103
:101E30006FA000002DE9F04F87B0DDE91269DDE900
:101E4000105A04460F4693469846A6B31021CDF883
:101E50000090334652460020CDF81490FEF7F0FE75
:101E6000014605F117000844144B039104F00704E0
:101E70000BF0070BE40020F0070003EA412344EADB
:101E80008B1480081C43FFF7F7FC44EA0554054611
:101E900040B13EB10399CDF8009033465246103020
:101EA000FEF7CEFE434622463946284607B0BDE837
:101EB000F04F08F0F2B83146D3E700BF00FE0F0044
:101EC000406820B1034BC01A40F38F0070474FF0B9
:101ED000FF307047480200200EB403B503AB014643
:101EE00053F8042B0448019303F0BCF902B05DF8E9
:101EF00004EB03B0704700BF97A10000CA0605D4E9
:101F00008B064CBF02490349FFF7E6BF704700BF8D
:101F100007DE000005DC00002DE9F04F89B09B468C
:101F2000149B06939DF84CA0159B0593169B179E3A
:101F3000049304460D469046BAF1000F00F09D80D0
:101F400006F48073079308F07CF806F00209024655
:101F500000283ED091492046FFF7BEFF0746B9F161
:101F6000000F08D016F0440F35D18D492A4620467F
:101F7000FFF7B2FF074406F0010353B1894B8A49CA
:101F800053F82A20894B2046002A08BF1A46FFF73B
:101F9000A3FF06F48073002B49D006F00803002B42
:101FA00063D1B8F1000F66D0814942462046FFF761
:101FB00093FF0546069B3D44002B6DD1049B002BEF
:101FC00073D1F30700F1E48031462046FFF796FF16
:101FD000D8E00746C3E7774B18680028CAD0764B8D
:101FE0004FF47A791B68B5FBF3F54FF46161B5FBEB
:101FF000F0F300FB135509FB05F54FF03C0CB3FB68
:10200000F1F201FB1231B5FBF0FEB1FBFCF300FB7A
:102010001E550CFB131109FB05F50091B5FBF0F5FE
:102020006649CDE901E52046FFF756FFA2E706F035
:102030000803EBB1624B634953F82A202046FFF7AF
:102040004BFF0546B8F1000F05D0594942462046DE
:10205000FFF742FF0544BBF1000FABD05A495A4687
:102060002046FFF739FF0544A4E74FF0000BE1E7F6
:1020700006F00805E6E745469CE7BBF1010F069B25
:1020800006D1002B64D1049B002B7BD000250CE0F3
:10209000002BF8D04D485CE04D48069B4D49224648
:1020A00007F057FB049B002B68D0DFF82C81DFF88A
:1020B0002C91049F3146102F204628BF1027FFF790
:1020C0001DFF4FF0000B5D4545DC059B49461A7826
:1020D0002046FFF701FF4FF0010B1BF0070F03D164
:1020E00041462046FFF7F8FE5F453BD9059B494630
:1020F00013F80B202046FFF7EFFE0BF1010BBBF1AD
:10210000100FEAD1364920464FF0000BFFF7E4FEEE
:102110005A46059B9A5CA2F120015F2928BF2E2216
:1021200030492046FFF7D8FE0BF1010BBBF1100F31
:102130001DD01BF0070F03D141462046FFF7CCFE10
:102140005F455A46E5D841462046FFF7C5FEEBE716
:102150001F485546A1E741462046FFF7BDFE0BF15B
:10216000010BB0E720492046FFF7B6FEC5E7059B07
:102170003B440593049BDB1B04939AD1BAF1000FF7
:102180007FF41FAF204609B0BDE8F04F07F0F6BF5F
:10219000064A05492046FFF79FFE15E70DDC0000C3
:1021A00011DC000030CD000041E0000008DC000040
:1021B00036DC00009C1B0020981B00201ADC00006D
:1021C00044CD00003ADC000040DC0000CDA100005E
:1021D00097A10000655200004DDC000045DC0000C6
:1021E0004FDC000055E600004BDC000073B542F206
:1021F0000F738B4228BF0B4605680F4A0446052122
:10220000684606F0CBF963680C495B680646042211
:10221000284607F0A5FF63683246694628465B6892
:1022200007F09EFF636806495B681722284607F09F
:1022300097FF02B070BD00BFB1D8000069DC00009C
:1022400051DC0000074A00210123904206D8064ACB
:1022500001B901231360054B1860704740085B000B
:102260000121F2E740420F00981B00209C1B002038
:10227000014B03600020704758CD000008B5034AA9
:10228000034B082108F040F9002008BD95DC000050
:102290008EDC000010B5044603F0B4FF084A034684
:1022A0000821204608F030F9064A2046082108F0A7
:1022B0002BF90548214605F05DFD002010BD00BF4B
:1022C0002ADD000049DD0000CD22000070B58EB08F
:1022D00004460D46D0F89C6009F066FE02460AF0FE
:1022E000E1FA254B1958254B002A18BF1346CDE9B2
:1022F0000043234A234B28468C4218BF1346224AE8
:10230000082108F001F9D4E90A23CDE9022394F960
:102310000E300093237B1D4A2846082108F0F4F86C
:1023200006A92022204605F0DFF8626E00920346DF
:10233000174A0821284608F0E7F805A9204609F0C1
:1023400043FE034630B1134A0821284608F0DCF862
:102350000EB070BD059A6423B11ACDE900214B433C
:102360000D4AB3FBF6F30821CDE902632846334654
:1023700008F0CAF8ECE700BF0800000053DD0000D9
:102380004DDC0000E8F0000056DD000062DD0000DA
:102390008EDD0000A5DD0000D2DD0000F0B50025D7
:1023A00093B0044629460AAF1C220BA80AF02BF969
:1023B000134E1A22202138460AF025F921461148E9
:1023C00005F0D8FC09AA4FF40061304609F0F0FD91
:1023D00009996422C1F5006042434FF40063D20AB8
:1023E000CDE90403CDE9023106922046CDE900573C
:1023F000054A3346082108F087F8284613B0F0BD97
:1024000080340020FD24000009DE000010B50446E1
:1024100009F07EFC034A03460821204608F074F8C0
:10242000002010BD52DE00002DE9F34117460023C5
:10243000044601AAB86801930A2101F06DFB019DD1
:10244000C6B255B12B46154A0121204608F05CF86A
:10245000019D284602B0BDE8F081042E0AD9104A39
:1024600033460121204608F04FF8204608F087F84F
:102470000125EEE77868FFF783FBB0F1000805DA85
:102480007B68084A0121204608F03EF800213346C7
:102490000FFA88F2084607F0D6FDDAE768DE00009A
:1024A0008FDE0000A6DE000073B513460022019205
:1024B000044601AA58680A2101F02EFB019D95B936
:1024C00020EAE0744FF40046294640F2E7304FF42A
:1024D0007A720023C4FB0601FDF762FE05F070FB73
:1024E000284602B070BD2B46034A0121204608F061
:1024F0000BF8019DF4E700BFC5DE0000F0B504460F
:10250000D0F89C6089B00D4607A909F05DFD03462F
:1025100030B1104A0821284607F0F6FF09B0F0BD97
:10252000204609F041FD0C4F079A002818BF0746C6
:10253000B11A6423CDE902214B43CDE90076B3FB08
:10254000F6F3064ACDE9046308212346284607F03E
:10255000DBFFE3E7A5DD000053DD0000E5DE000062
:102560002DE9F04387B00546684604F099FC009ECB
:10257000184A194FDFF86480DFF86490142303FBD6
:1025800000660821284607F0BFFF009CB44203D331
:10259000002007B0BDE8F08323680BB11A7832B988
:1025A00023463A46142101A805F0F8FF01AB424644
:1025B0000821284607F0A8FF204609F04CFC094BEB
:1025C000094A002808BF4B460821284607F09CFF0F
:1025D0001434DBE730E000003AE000003FE00000A8
:1025E00027E0000021E00000B4E600008B1E022B73
:1025F0002DE9F04107468846144637D86068102216
:10260000002106F08DF8B8F1020F064607D1264AE0
:1026100020230821384607F077FF336816E00A22A6
:102620000021A06806F07CF8C5B21F4A2B4608219D
:10263000384607F069FFB8F1040F1AD0102D0DD0FD
:10264000202DEAD0082D0CD13378DBB2174A0821AF
:10265000384607F059FF0020BDE8F08133889BB26F
:10266000F4E7134A0821384607F04EFF6FF01500D3
:10267000F2E7E0681022002106F052F80D4A034606
:1026800004460821384607F03FFF102D06D0202DC4
:1026900007D0082DE5D1E4B23470DCE7A4B2348071
:1026A000D9E73460D7E700BF78E00000A3E000007E
:1026B0008DE00000B4E000002DE9F04F594BDFF849
:1026C00068A185B091460122074688461A60FEF748
:1026D000F9F94FF0FF3520262C4649465246404630
:1026E000FEF714FA411C07D16A1C52D14F4A01214E
:1026F000384607F009FF1DE0732820D0772833D033
:10270000612817D1DFF828B11022DBF80000002182
:1027100006F006F805460028DFD10AF0C3F8454B5D
:102720001B58162BD9D1DBF80030434A012138461B
:1027300007F0EAFE6FF0150005B0BDE8F08FDFF896
:10274000F0B00022DBF80000114605F0E9FF044676
:102750000028C2D10AF0A6F8364B1B58162BBCD164
:10276000DBF80030354AE1E7DFF8C4B00022DBF8DF
:102770000000114605F0D4FF06460028ADD10AF04E
:1027800091F82C4B1B58162BA7D1DBF800302C4AA4
:10279000CCE7631C01D12B4AA9E75FFA86F8C6F3A0
:1027A000C406002C3CD06B4629461A46A6EB050C05
:1027B0000CE0B8F1100F1DD0B8F1200F20D0B8F107
:1027C000080F2AD10878187031443344A64203D840
:1027D0000CEB01001028ECD9102CA14628BF4FF0BB
:1027E000100929464B46384601F062F81035A4EB33
:1027F0000904D6E7088880B21870000A5870E3E729
:10280000086818704FEA102E83F801E04FEA104E66
:10281000000E83F802E0D870D6E70B4A082167E77C
:10282000204689E71800002002E1000009E10000CD
:10283000781B00200C000000C8E00000DBE0000076
:10284000EEE0000026E100008DE0000070B5104EC3
:10285000044633780D4681B12BB1BDE870400D4A76
:10286000012107F051BE012333700B4A0821204695
:1028700007F04AFE0123337004E083F00103337054
:10288000002BF2D129462046BDE8704007F094BEE7
:102890001227002040E100007BE1000070B50446F3
:1028A0003C480378182B02D10B78112B31D0013A18
:1028B0000B468D18AB4225D18B5C0A780370A2F1D0
:1028C0003003092B344C04D922F02003413B052B63
:1028D00004D823683149CA54013323602368022B8A
:1028E00034D110222D48002105F01AFF2C4A13681C
:1028F00003F8010B13602B4A1368013313600023A4
:10290000236023E013F8016B182ED3D11E78112E0B
:10291000D0D1244D244A2B680821204607F0F4FD2D
:1029200020460021FFF792FF204B187870B9204A0B
:102930002B681168042B0ADC08B111602B6013F0BE
:1029400003010BD1126813681BBA136070BD0868CD
:1029500000BA41F8040B043B0120EBE75B4203F0B3
:10296000030358BF5942022904D1126813885BBA85
:102970009BB2EAE70329E9D1106802681104C2F3A7
:10298000074301F47F010B4302F47F4213430360CA
:10299000DCE700BF13270020A01B00201527002024
:1029A000AC1B0020A41B0020A5E100001427002080
:1029B000A81B00202DE9F84F0C462B49DFF8AC800E
:1029C000DFF8AC90DFF8ACB000230B602A4988F840
:1029D000003006460B601546012C2F4655F804AF13
:1029E0001ED902224946504609F032FE80B99AF8B3
:1029F0000220003A18BF0122924420490222504688
:102A000009F026FE30B9012388F80030013CE3E7E5
:102A10000022F1E749465046FDF72CFDA8B90437DE
:102A200000221146786805F005FE154B002211467C
:102A30001860786805F0FEFD124B134918603046A7
:102A4000FFF704FF0020BDE8F88F9AF800202D2A38
:102A5000E6D19AF80120002AE2D053465A460821CE
:102A6000304607F051FDD1E7A01B002014270020BD
:102A7000BFE10000C5E10000A41B0020C2E100008E
:102A8000AC1B0020A81B00209D28000007B50A48A9
:102A900009F0E1F960B1094A0749126808480423BE
:102AA0000093012300F076FF002003B05DF804FBE3
:102AB0006FF01200F9E700BF88C90000A4CE000043
:102AC000C0CB000010B54468C4E90012A36042689E
:102AD0004023D36402F15803136300230821C2E9A1
:102AE0000E33C2E91133C2E90633C2E90933D162B8
:102AF0001468536302F1500113641161536113624E
:102B0000C2F8D030A36823B11B6C13B1044920462E
:102B10009847A3681B6A0BB120469847002010BD58
:102B2000252B00002DE9F74304460D468368DB6B37
:102B300003B19847A368DB6A0BBB4FF0000905F1AE
:102B40003008EA6C01A9404607F0A0F907460028C2
:102B500036D0A36801991B693BB3024620469847CB
:102B6000064628B33146404607F0AFF9B7424FF06A
:102B70000109E6D0D5E901310020984703E020465D
:102B800098470028D9D1A368DB6963BB05F110071A
:102B9000EA6A01A9384607F0CCF9064650BB204640
:102BA00007F067FBC5F8D0602FE06FF05706D9E754
:102BB0000146404607F089F9B9F1000FE3D0D9E7A3
:102BC0001648036813F0060F03D0154A022107F0D8
:102BD000B4FAA3681B69002BEED001220DF10301AA
:102BE00020469847E8E7204698470028CED103B012
:102BF000BDE8F083A3680199DB685BB1024620461B
:102C000098470146384607F0B4F9D5E9013101206B
:102C10009847ECE76FF05701F4E700BF6C02002023
:102C200026E3000010B581680446183101F0A8F9C8
:102C3000A168034A20461831BDE8104001F046B9AA
:102C40006AE3000038B58368D3F87832DB070446BE
:102C50001DD4C06908F0D2F9606803685B689847C2
:102C6000054620B9E06808F09EFBA3681D75A368BF
:102C70005B6C13B1294620469847A36809F012FE01
:102C80000022C3F82023034B185802F05DF86FF0C0
:102C90000F05ECE708000000014907F08EBB00BFFC
:102CA00007DE0000F7B504468068D0F878325A078E
:102CB0000D4605D5002107F0A2FBE06808F045FBB2
:102CC000E368DB6873B9002D3BD0A66806F15607B0
:102CD000384607F06CFB002835D0394606F5AB7056
:102CE000FDF7D2FBA268E0680DF1060356322946D3
:102CF00008F02EFB58B9A06800F5AB715630FDF70F
:102D0000C3FBA068563007F052FBADF80600204622
:102D100007F044FFA368D3F874329B0603D50B4930
:102D2000606907F04AFB204600F05EFFA268BDF82C
:102D30000630A2F85230A2682046A2F8503007F0C0
:102D400092FE03B0F0BD86F85601CBE738CC000008
:102D50002DE9F04FA7B004465422002111A809F034
:102D600052FC0023CDE90533A36820465633029375
:102D700007F01BFF204607F05FFE10B96069FFF700
:102D80008BFFA06814220021183009F03CFC20467B
:102D900007F0F9FDA168E068B1F85020563100262F
:102DA00008F00DFB204608F08CFB4FF0FF37B246D1
:102DB00003960DF14408B3463546B146DDE90532C8
:102DC000012A6DD0132B6ED85FBBBBF1000F0AD068
:102DD000204608F097FBA2681423563211A90DEB88
:102DE000030007F04FFCB9F1000F0CD099F8113037
:102DF000FE2B08D1059B26AA02EB830252F8542C25
:102E00000AB101330593A068059D436A002B40F089
:102E1000B680CEB1C3699E422DD00D9600F1180543
:102E200024E0029A0223414606A807F02BFC0699EB
:102E3000D8F804200292034631B101290AD148B1E1
:102E40006D4A204607F063FF6FF00705284627B05C
:102E5000BDE8F08F059B002B34D0D8F8000001F0BE
:102E6000AFF898B166B1A5680D9618350CAE0FCEC7
:102E70000FC533682B602046FFF7D4FE0125E5E738
:102E80005E4A0121204607F042FFDDE7059BCBB1FA
:102E9000D8F800202946204601F044FA022809D13A
:102EA000059B132B91D9069B022B8ED1544B554A6F
:102EB0000121C6E7032805D0059B013305934FF098
:102EC000010B7BE7039B33B9D8F8001007AA4846EB
:102ED00007F0CFFC054608F10408013F9DB3EB68FD
:102EE000BBF1000F08D0F3B1204607F05EFE20468C
:102EF00007F0B9FD444AC4E7ABB1A368DDF814A0FC
:102F0000AE4603F1180CBEE80F00ACE80F00DEF887
:102F10000030CCF80030AB682BB96B7CFE2B04BFC3
:102F20002F7C07F1FF37D5F804C0BCF1000F08D0A3
:102F3000AE46BEE80F000CAE0FC6DEF800303360C0
:102F40006646A94603E0059B53B101230393069B04
:102F500017B9022B7FF432AF059B013305932DE7A0
:102F6000A368DB6A13B1DB68002BEED1274B00931B
:102F7000274A119B0121204607F0C9FEE5E790F89A
:102F80002830A5EB0A05BBB190F829104FF6FF7267
:102F9000FF2918BF0A469D4202D313449D420BD914
:102FA00083691C4A0121204607F0B1FE2046FFF745
:102FB00039FE6FF0150549E7012107F015FAA06801
:102FC00000F5437007F034FAA36811AA294602EB12
:102FD0008A025B6A204698470546A0684FF0FF3298
:102FE0004FF0FF3300F5437007F0C9F9A0680021E6
:102FF00007F0FAF92AE700BF78E300008CE300004D
:10300000EDE30000C1DE0000AAE30000D9E3000008
:10301000C8E6000011E4000010B5836802221A75AA
:1030200083689B6C0446BBB907F080F98368D3F8CA
:103030007832DB040BD50321084B094A07F067FE01
:10304000A0686FF4805100F51E7007F089F92046E2
:10305000BDE8104000F01CBF10BD00BF2CE4000014
:1030600041E000002DE9F04F04468068B1B0012135
:1030700000F51E7007F065F9A3681B7D022B20D1B7
:1030800000230993A36860689E6C03681D6909ABFF
:103090000EB310221BA9A847099B93B1A068012178
:1030A00007F0A2F9099A1BA92046B047A0680021A1
:1030B00007F09AF9A3689B6C002BE3D12046FFF739
:1030C000ABFFA0686FF0010100F51E7031B0BDE8E4
:1030D000F04F07F045B901220DF12301A847099BE4
:1030E000002BEED09DF923209DF82310A368002A21
:1030F000C8DB5A7D032A00F29682DFE812F0040052
:1031000083029A0294020D297CD00A2958D0B3F880
:1031100078226FF3CA02A3F878220929A06800F088
:1031200086803DD80029ADD0082900F0FA810346F9
:10313000D3F874229207A5D501391629A2D801A285
:1031400052F821F0D53600005D35000065350000ED
:1031500055350000C9360000833500008530000079
:103160008530000085300000853000008B35000080
:103170009335000085300000BD350000853000002B
:10318000C735000085300000853000008530000024
:1031900085300000CB35000085300000F53500009B
:1031A0001B2941D07F2900F0C881A1F120025E2AAD
:1031B0000346BDD8012107F022F99DF82310B7E09E
:1031C000D3F87822C2F3C7022AB1D3F87822C2F327
:1031D000C7020A2AACD1B3F8782261F3CA02A3F875
:1031E0007822A568B5F85010C1B9284607F007F94C
:1031F000E06808F0AAF86069FFF74EFD2046FFF787
:103200000BFF3FE7D3F87822C2F3C702002AE2D0CF
:10321000D3F87822C2F3C7020D2ADBE72046FFF776
:1032200097FDC5F82403E9E7012343752AE7D0F8A1
:1032300074329B077FF526AF012107F0E0F8A06804
:10324000B0F85030FF2B3FF41DAFB0F8522000F122
:10325000560100F5AB7009F0AEF9A368B3F852203F
:103260001344002583F85651A2681BA9142302F5C4
:10327000AB720BA807F006FA0B9914293FF602AFC0
:1032800030AB03EB810343F8545CA368B3F85220DE
:10329000134493F85530202B02D0093B042B4BD814
:1032A00000294CD100250A950A9B30AA02EB830322
:1032B000002653F854AC504607F079F8B3468146DF
:1032C000B046374616AA3946284600F0EBFB0346BF
:1032D000002840D1012EA76865D10A9B30AA02EBD5
:1032E000830353F8540C07F062F807F118020646FE
:1032F0004146284600F0D6FB0568284607F057F8F7
:10330000864205D0821B92B2A919204607F046FDDD
:10331000A068B0F85230034493F85630202B31D0D7
:10332000093B042B2ED9D0F87432DF072FD420218B
:10333000204600F075FDA5E60129B3D9013900202A
:103340000CAB009301900AAB1BAA07F0BDFA05462F
:103350000028A9D196E61B6803934A4651461846B1
:1033600009F076F960B9039B1846FDF795F85845C2
:1033700038BF58461FFA80FB002E08BFB8460136FA
:1033800001379FE70121204607F0A1FB7AE60021E3
:1033900007F03FF82021204600F042FDA0680121FF
:1033A00007F037F86EE604907FF66CAE0A9A30AB01
:1033B00003EB8202C14652F8543C0393184606F0D0
:1033C000F6FF049B0590A7F840300496A268494692
:1033D0001832284600F066FB039BD0F800A009F1E4
:1033E00001094BB1BAF1000F06D0059A19465046B3
:1033F00009F02EF90028E9D1A168BAF1000F4ED1E9
:10340000A1F840A0049B013B0493DFD16069FFF762
:1034100043FC204600F03CFD0A9B30AA02EB8303EC
:1034200008F1010A53F8540C06F0C1FF414611AAF5
:103430008146284600F036FB0746A0683968FF221F
:1034400000F5AB7009F016F93B6803934FF6FF7770
:10345000B84616AA514628460AF1010B00F022FB95
:10346000002852D0A168036801F25511002211F81A
:1034700001EF985C704503D110B101324245F6D19D
:10348000B9F1000F01D04A4507DBBA4206F1FF3619
:10349000A8BF3A46012E97B237D0DA46D9E7994805
:1034A000069106F084FF069907914A8F00EB0B07FF
:1034B000BFB2121A504692FBF7F292B2069206F091
:1034C00076FF0799069A3F1AB1F8400000F1010C07
:1034D000A1F840C0B0FBF2F102FB110080B2BFB214
:1034E00060B9884B884ACDF800A00621204607F035
:1034F0000EFC3946204600F061FB83E7834A5346C1
:103500000621204607F003FCF3E7002F3FF4BAAD95
:103510000399A7EB090292B24944204607F03EFC0A
:10352000B0E5D0F874329E077FF5ACAD012106F00E
:1035300066FF204607F053FCA4E5D0F874329D07DF
:103540007FF5A0AD012106F05AFFA368D3F87432CD
:103550001907EED4204607F023FC93E5204607F038
:103560002DFB8FE5204607F020FB204607F064FA8C
:1035700010B96069FFF790FBA068012106F03FFFDA
:103580003CE6204607F023FB7CE5204607F02AFBBB
:1035900078E5D3F874329B0603D55D49606906F07F
:1035A0000CFFA368D3F874329F0603D559496069AC
:1035B00006F003FF204600F06BFC63E50021204687
:1035C000FFF770FB5EE50121F9E7204607F0E6FA18
:1035D000204606F0ABFE0121A06806F010FFA368AC
:1035E000D3F874329E067FF54DAD4B49606906F005
:1035F000E4FE47E5204600F071FBA068012106F0DB
:10360000FEFE3FE55B2902D102225A753AE5D3F866
:1036100074329D0706D5622907D14FF0FF3120464D
:1036200007F07EFAA3680022EFE76629FAD10121AC
:10363000F5E700225A75A268D2F8743298077FF530
:1036400021ADA1F131031B2B3FF61CAD01A151F8B7
:1036500023F000BFD1360000DD360000F136000057
:10366000C536000085300000853000008530000040
:103670008530000085300000853000008530000076
:103680008530000085300000853000008530000066
:1036900085300000C7350000BD35000083350000CF
:1036A0005D35000085300000C9360000853000001F
:1036B000D5360000853000008530000085300000E0
:1036C000E136000003235375204607F06EFAD9E473
:1036D00003235375204607F061FAD3E4032353759F
:1036E000A068D0F8741201F0010181F0010157E6E1
:1036F00003235375A368D3F874329B077FF5C2ACDC
:1037000028E700BF4CDC000070E4000041E000004E
:103710003DCC000042CC000038CC000010B58368DE
:103720001A7D012A04462BD1D3F87822510408D5FA
:10373000D3F87422520704D40146DA6CC06907F04A
:1037400046FCA0684FF0FF324FF0FF3300F54370A6
:1037500006F015FE2046082100F082FA206806F0E7
:1037600026FE18B10849606906F027FE2046FFF7DB
:1037700053FCA06800F5437006F05AFE002010BD0F
:103780006FF08500FBE700BF06DE00002DE9F04189
:1037900004468068154600F51E70002937D04FF4A6
:1037A000804106F0CEFDA368DD64606803680021F7
:1037B0009B68984700284BD12046FFF7AFFF0028B1
:1037C00046D1244E244FDFF89480A06800F52F7076
:1037D0004FF0FF324FF0FF33032104F0F3FC0546B6
:1037E000A0684FF0FF324FF0FF3300F543709DB1FA
:1037F00006F0C5FD20462B46194A012107F087FA3D
:10380000A068BDE8F04100F5437006F011BE6FF40A
:10381000804106F0A5FDC6E706F0B1FD3246022163
:10382000204606F0AEFD3A462946204606F0A9FDA0
:1038300020464246012106F0A4FD606803685B69EA
:1038400003B19847A06800F5437006F0F1FDBCE7AE
:10385000BDE8F081452C00006530000035A4000073
:1038600076E4000010B50D4A0446082106F04CFE2F
:1038700020460B4A082106F047FE2046094A082147
:1038800006F042FE2046084A082106F03DFE20468A
:10389000064A002100F01AFB002010BD8DE4000054
:1038A000CBE400002AE500007EE5000018E60000F9
:1038B000F8B51E4617460B462F4A0821044606F067
:1038C00023FE6EB33B782D4A0821204606F01CFEED
:1038D00001256A0704D12A4A0821204606F014FE71
:1038E000AE4223D97B5D254A0821204606F00CFE16
:1038F0000135102DEDD1234A0821204606F004FEA3
:10390000D6B91F4A0821204606F0FEFD0125AE4229
:103910002B4613D81A4A0821204606F0F5FD18E078
:10392000194A0821204606F0EFFD0125164A082114
:10393000204606F0E9FDDBE700252B46FB5CA3F102
:1039400020025F2A28BF2E23104A0821204606F0B5
:10395000DBFD0135102D07D06B07D8D1084A0821AF
:10396000204606F0D1FDD2E72046094ABDE8F840DE
:10397000082106F0C9BD00BF2EE6000045DC0000AE
:103980004DDC00004FDC00004BDC000055E6000081
:1039900035E600002DE9F043044680688846D0F8FB
:1039A000201389B015461F46002960D14FF44A7292
:1039B00008F029FEE06807F06AFDA06800F5437092
:1039C00008F0D5FA4FF42F794FF41F76A0683044F1
:1039D00008F0B7FDA0680022831901214844103681
:1039E00008F086FDB6F52F7F09F11409EED1A36921
:1039F00000261E60A068022100F51E7006F0A1FCE2
:103A0000A36850225A87A36818221A872168204683
:103A100006F087FDA368174A66F38205C3F874525F
:103A20006068036841461D682346A8470546D0B92B
:103A3000A36801221A75D4E90A0100220023CDE906
:103A400006230E230393109B0495CDE90173009484
:103A5000094B4FF4006203F0F9FDA368C3F820039B
:103A6000616A03F031FD284609B0BDE8F0836FF0CC
:103A70007705F8E7D5A300008D37000010B50446A0
:103A800013460A460146064801F0ECFB23691B7900
:103A900023B12046BDE8104006F094BD10BD00BF24
:103AA000DDA5000038B50B46154648B91449154A3E
:103AB000521AB3EB920F05D251F82350284638BD65
:103AC00084680CB90025F9E70F4A94420AD30F4ADB
:103AD000944207D218462268294690472B68002B4B
:103AE000ECD1EFE70A4A944202D30A4A944205D342
:103AF000246814225343E518E358F0E70133F8E74C
:103B0000F0CB00001CCC000030CC000030CC00001A
:103B10001CCC000030CC0000F7B51646027800231C
:103B20002D2A0446019305D16FF015033360002060
:103B300003B0F0BD08F0B6FE0B4F0546C3510A4670
:103B4000204601A904F0ECFDEB59222B02D16FF0C5
:103B50002103EBE7002BE7D1019BA342E4D01B78C4
:103B6000002BE5D0E0E700BF0C0000008368D3F82D
:103B700074329B0603D50249406906F03FBF704787
:103B800048CC0000014906F039BF00BF07DE000045
:103B90000A1E0DDC0ED042238168D1F8741289060A
:103BA00008D5002A04494069B8BF524206F026BF32
:103BB0004123F1E7704700BF51E600000A1E0DDC0B
:103BC0000ED044238168D1F87412890608D5002AE2
:103BD00004494069B8BF524206F010BF4323F1E7E1
:103BE000704700BF51E600002DE9F0478568DFF817
:103BF0006890044605F15600FCF74EFC002395F84A
:103C00003C7086B29846A268558FED1BB54209DB21
:103C1000002E1FDD563360691049BDE8F0471A4495
:103C200006F0ECBE1D442A44563392F856A082F8A2
:103C30005680A26860691A44494606F0DFFEA36810
:103C40002B4483F856A0A3685B8FDB1BF61A002772
:103C50002B46D8E7BDE8F087C1DE000041E0000058
:103C600008290A4617D8836893F83E10914212D06B
:103C700083F83E208368082AD3F8743205D0990669
:103C800009D50549406906F0B9BE9B0603D503492D
:103C9000406906F0B3BE704758E600004DCC000006
:103CA00038B50D4609780446FFF7DAFF6A78072A27
:103CB00011D8A36893F83F1091420CD083F83F20AD
:103CC000A368D3F874329B0605D560690249BDE844
:103CD000384006F093BE38BD61E60000F8B5836851
:103CE000B3F850200446002A55D0B3F852100029EA
:103CF00051D0553103F156050B441846A84206D35E
:103D0000014611F80169202E3CD0A8423CD286B26F
:103D10009DB2AB1B9BB2591C471CD21A01443846BA
:103D200008F057FCA268B2F85030711B13FA81F307
:103D3000A2F85030A368B3F850201344002283F84F
:103D4000562009B2204606F0C2FEA368D3F87432AA
:103D50009A0603D51049606906F050FE3B460F4AAB
:103D60000821204606F0D3FF2046FFF7FFFEA36898
:103D7000D3F874329B060ED560690949BDE8F84056
:103D800006F03CBE0846B9E7014611F80169202E4D
:103D9000BDD00846B9E7F8BD52CC000041E00000B4
:103DA00056CC00002DE9F04104460D4617460AB1F5
:103DB000FFF7DCFEA368B3F85220D3F87412563232
:103DC00013444A0721D51846FCF766FBDFF8488004
:103DD0000646A6B9A368B3F85020A3F85220A068FD
:103DE00006F019FE20B107B115B16069FFF7CAFEF0
:103DF0006942204609B2BDE8F04106F068BE60693C
:103E0000414606F0FBFD013EE3E7044A0821204657
:103E100006F07DFFDEE700BFE8F0000041E00000B3
:103E200013B583688DF80710D3F874220446D007C1
:103E300025D5B3F85210B3F850208A421FD0481C41
:103E4000A3F852000B449DF8072083F85620A3687E
:103E5000D3F87412890710D5D3F8743260690B490E
:103E600013F0040F18BF2A2206F0C8FD204606F002
:103E7000E3FD10B16069FFF785FE02B010BD0122BD
:103E80000DF10701204606F04FFFF6E755E600006A
:103E900010B504468368094A022106F038FFA3687A
:103EA000D3F874329B0707D52046FFF79DFE2046C6
:103EB000BDE8104006F0E6BD10BD00BF41E00000C7
:103EC000014907F011B900BF07DE00002DE9F04FEE
:103ED0000E46002189B0044617460D4603AA304617
:103EE00001F10108FFF7DEFDB0B995B127B13A46FF
:103EF0000821204606F00BFF1E4FDFF87C90DFF80C
:103F00007CA0002103AA304601F10108FFF7CAFD99
:103F100060B909B0BDE8F08F006810B1FCF7BCFAD9
:103F200080B2854238BF05464146D7E703688BB16A
:103F30001A787AB1D0F804B04A46CDE90053082186
:103F40003B46204606F0E3FEBBF1000F04D160695A
:103F5000FFF7B6FF4146D5E7524620463B460821CB
:103F600006F0D5FE6A1D92B25946204607F0C9F800
:103F7000F0E700BF7FE600006AE6000040DC0000DA
:103F8000F7B50F6805460E46A7B13846FCF784FA28
:103F900084B2094B00932846084A3B46082106F0A4
:103FA000B6FEE21C716892B2284603B0BDE8F0404C
:103FB00007F0A7B83C46ECE77BE6000071E40000A0
:103FC00010B507490446FCF755FA38B105492046B3
:103FD000FCF750FAB0FA80F0400910BD0120FCE770
:103FE00071E6000074E6000010B58368D3F87432FF
:103FF0009B06044603D50649406907F0F9F8A36813
:1040000050225A87A36818221A87002010BD00BFCB
:104010005ACC000008B58369034A1B68082106F0E2
:1040200073FA002008BD00BF82E600002DE9F341CD
:104030000F4A104C104EDFF844800821054606F068
:1040400063FA0023B44203F1010703D3002002B056
:10405000BDE8F081626A0192A26800929BB242467A
:104060000821284606F050FA30343B46EAE700BF04
:1040700092E60000C0CB0000F0CB0000AAE60000F2
:1040800008B5024906F04DFA002008BD08DE000020
:104090007FB50F4E04460025A268E0680DF10E03BF
:1040A00002F5AB72012107F053F9BDF80E00A368C9
:1040B00050B103F5AB73009332462B4608212046DE
:1040C00006F022FA0135E7E783F8560104B070BD27
:1040D000BBE6000010B5044606F066FA034A034644
:1040E0000821204606F010FA002010BD1AD6000064
:1040F000022907B50DD1536801930E4B0093136845
:104100000D4A012106F000FA6FF0150003B05DF8CA
:1041100004FB8368094AD3F8743213F0020F4FF09E
:104120000801074B08BF1346064A06F0EDF90020C8
:10413000ECE700BFCEE60000C5E60000E2D50000D7
:10414000DCDF0000E3E6000010B58368D3F87432CA
:104150009A06044603D50749406907F049F8A36861
:10416000D3F874329B0603D50349606907F040F821
:10417000002010BD61CC000066CC0000F0B5012924
:1041800085B004460CD053680193604B00931368CC
:104190005F4A012106F0B8F96FF0150005B0F0BDD7
:1041A0008368D3F87432990603D55A49406907F0F9
:1041B0001FF86FF0F9012046FFF7EAFCFA212046CC
:1041C000FFF7FCFCA06800254FF48072294600F53B
:1041D000AB708DF80B5008F016FA4F49606907F084
:1041E00007F8606906F0EEF94FF47A7660680368C4
:1041F00001221F690DF10B0103ABB847039BF3B913
:10420000013E4FF47A70B6B207F020FE002EEDD1D9
:10421000A368D3F874329B0603D54049606906F061
:10422000E7FFA36850225A87A36818221A872046FE
:104230003B4A032106F068F96FF00700AEE79DF8EE
:104240000B20A3681B2A53D093F856111B29CDD1FC
:10425000522A4DD15A19002382F85631A66896F891
:1042600057215B2A2BD106F25710022510F8011FA7
:104270002A463B2905F10105ADB223D1FF2AC7D05B
:1042800002F5AB7216FA82F1002211F8010F18BB89
:1042900086F85601FA2AA16828BFFA224A87FA2B23
:1042A000A26828BFFA231387A368D3F874329A064A
:1042B00003D51A49606906F09BFF00206EE786F877
:1042C0005631A5E703EB8303303901EB4301B5F524
:1042D000807F8BB2CAD19BE7013502EB8202ADB27F
:1042E000303800EB4200B5F5807F82B2CDD18FE748
:1042F0002B440135ADB2092D83F856217FF676AFF8
:10430000A368002283F8562182E700BFCEE60000B2
:10431000C5E600006CCC00002EE7000070CC000069
:10432000F4E600002DE9F04F074689B015468946AE
:1043300021B1104607F0B1F800285BD1032455E005
:104340005C463CE029460AF5AB7008F0AFF906463A
:10435000002854D0FCF7A0F882B2601C013231462C
:10436000304408F036F922465946304608F023F921
:104370004FF020033355BAF8543001331C44AAF8E7
:10438000544008F10108002401994B1C03AA484637
:104390000193FFF787FB0646E8B131680022284603
:1043A00007F038FA0028EFD1D6F800B0D7F808A007
:1043B000BBF1000FC4D05846FCF76EF884B2BAF8CF
:1043C00054302344FF2BBDDD0E4A2B4603213846D3
:1043D00006F09DFC0124B8F1000F07D0B8682A460A
:1043E00000F1540100F5AB7006F01CFA204609B04C
:1043F000BDE8F08F4FF0000841460224C5E70224D3
:10440000E9E700BFF6EB000008B5044805F0F9F94C
:10441000BDE80840024805F0F4B900BF48EC0000D0
:104420007DEC0000014804F051BF00BF08D200003D
:1044300038B5044618B90F4B0F485B689847616858
:10444000B1F5683F10D0B1F5680F0DD00B4DA94202
:104450000AD011F46861206807D00146084807F0C7
:104460004DFD00232360656038BD142208F0CBF8B1
:10447000F9E700BF98010020ABEC00002C5F5CA9BD
:104480003824002008B520B34368B3F5683F10D145
:1044900001220368BFF35B8F53E8001F002903D19B
:1044A00043E800200028F7D1BFF35B8F0DD1002037
:1044B00008BD094A93420AD000684FF0FF324FF01E
:1044C000FF3302F001FF0028F1D00448F0E7044870
:1044D000EEE76FF4E040EBE72C5F5CA9E98FFFFFAC
:1044E000EA8FFFFF08B5D8B14368B3F5683F10D134
:1044F00000220368BFF35B8F53E8001F012903D13B
:1045000043E800200028F7D1BFF35B8F0BD10020D8
:1045100008BD074A934208D0006802F04DFFF6E755
:104520006FF4E040F4E70348F2E70348F0E700BF28
:104530002C5F5CA9E98FFFFFEA8FFFFF10B50446EF
:1045400018B91D4B1D485B6898476368B3F5683F11
:104550002FD0B3F5680F2CD0194A934219D1236894
:1045600003BB18484FF0FF324FF0FF33214602F0F3
:104570007DFE08B923681BB90F4B13485B68984749
:1045800020681422002108F03EF84FF4686363604D
:1045900008E0B3F5683F0DD83A2B03D040F6BA6275
:1045A0009342DED1206807F0E2FC636843F03A03EF
:1045B000636010BD054AF3E798010020ABEC0000F2
:1045C0002C5F5CA938240020D1EC00003A00003AAE
:1045D00008B5064906484023142207F081FCBDE8CF
:1045E00008400449044804F0E3BE00BF381F00201F
:1045F0003824002010D2000024D200002DE9F84316
:10460000054600AF0C46002948D0DFF8B890D9F82D
:1046100000305A0742D06E468AB0D1E90001A36843
:104620006A46DFF8A4C04FF00508C2E905C0C2E938
:10463000071342F8108F00234FF421514846FDF72D
:1046400071FBD9F800305B07B54627D08AB0D4E9B2
:10465000030163696A46DFF874C0C2E90713C2E95F
:1046600005C042F8108F002348464FF42151FDF752
:1046700059FBD9F800305807B5460FD0E36901213E
:10468000134A484605F062FDD9F80030590705D0B5
:10469000A369104A0121484605F058FD012D0AD1B1
:1046A000EFF3058307480268520704D00A4A103B1B
:1046B000294605F04BFD2146284602F011FCBD4677
:1046C000BDE8F88360020020FEEC00002DED000044
:1046D0005CED00006BED000099ED000030BFFFF7CE
:1046E000FDBF00BF2DE9F0410B4EDFF8308006EB37
:1046F0000807CC1B054632460949204607F05BFFF8
:10470000A01942460021083C07F07DFFC5F8A840EB
:1047100007F10800BDE8F08100000000080000007B
:1047200030CC0000074A936893F90E10002907DB8C
:10473000526993421FBF044A536843F08053536049
:10474000704700BFFC24002000ED00E0F8B5364CB7
:1047500023685B0706460D4603D03449204606F021
:10476000EDFE334B9B6ADF065CD52368580703D008
:1047700030492D4806F0E2FE11202D4B9B6A1907A7
:1047800007D523685A0703D02B49274806F0D6FEE1
:104790001220274FBB6A9B0719D52368580703D0FF
:1047A0002649214806F0CAFE7B6BBA6A11060DD570
:1047B0002268520704D0224A1B48012105F0C6FC9A
:1047C00026B11B4A936A23F0800393621320184B8F
:1047D0009B6ADB0707D523685F0703D01949124896
:1047E00006F0ACFE1420124B9B6A9E0607D5236888
:1047F000580703D014490C4806F0A0FE15200C4BB6
:104800009A6AD10658BF9A6A9A6A920642BF5A6A51
:1048100022F400525A629A6A42F0FF029A6200231E
:104820002B70F8BD1020A8E760020020ACED00005E
:1048300000ED00E0C2ED0000F5ED000008EE000024
:1048400020EE000036EE000055EE000010B52D4CB5
:1048500023685A0703D02C49204606F06FFE2B4BE5
:104860009B6A9B014BD52368580703D028492548EC
:1048700006F064FE1E20254B9B6AD90107D52368EC
:104880005A0703D023491F4806F058FE1F201F4B2C
:104890009B6A1B0307D52368580703D01E49194894
:1048A00006F04CFE2120194B9B6A590307D523685B
:1048B0005A0703D01949134806F040FE2220134B33
:1048C0009B6A9B0307D52368590703D014490D48F9
:1048D00006F034FE23200D4B9B6ADA0307D52368CC
:1048E0005B0703D00F49074806F028FE2420074A3B
:1048F000936A6FEA03436FEA1343936210BD1D206E
:10490000B9E700BF6002002084EE000000ED00E087
:104910009CEE0000AFEE0000C9EE0000E7EE0000E4
:104920000CEF000026EF0000F8B5374C23685B075A
:1049300006460D4603D03549204606F0FFFD344BB0
:104940009B6ADF0451D52368580703D031492E48AC
:1049500006F0F4FD17202E4B9B6A190507D5236836
:104960005A0703D02C49284806F0E8FD1820284FA4
:10497000BB6A9B0519D52368580703D027492248ED
:1049800006F0DCFDBB6BBA6A11040DD52268520734
:1049900004D0234A1C48012105F0D8FB26B11C4A4B
:1049A000936A23F4004393621920194B9B6A5B05B9
:1049B00007D523685F0703D01A49134806F0BEFDE8
:1049C0001A20134B9A6AD60511D52368590703D0CC
:1049D00015490D4806F0B2FD1B200D4A936A43F4B9
:1049E0007F43936200232B70F8BD1620B3E79B6AC8
:1049F0009A04F2D523685B0703D00C49024806F0FD
:104A00009DFD1C20E9E700BF6002002051EF00007F
:104A100000ED00E067EF0000F5ED000078EF00002A
:104A200091EF0000A6EF0000C1EF000055EE00007E
:104A30002DE9F041734B8AB0D3F8048000AF0446EF
:104A4000C8F30806002585F31188BFF36F8F02F0C5
:104A50007F43B3F17F4F0AD102F00C03082B15D12D
:104A600069480368590702D0684906F067FD0025C8
:104A70002C460023FB71F31E092B00F29E80DFE819
:104A800003F00A90938C9C9C9C9C9C9612074CBFB4
:104A90000C460125EDE75C4E33685B0703D05C49AB
:104AA000304606F04BFD0023FB71564BDA6A900747
:104AB00008D53368590703D05649534806F03EFDE0
:104AC00000233BE0DA6A002A04DA33685A07F7D099
:104AD0005149F2E7DB6A5B00F2D53368580703D02F
:104AE0004E49494806F02AFD464BA1695A6942F4ED
:104AF00080725A61BFF34F8FBFF36F8F5A6931F8DD
:104B0000021C22F480725A61BFF34F8FBFF36F8F84
:104B10004DF60272914207D09A6AD2B282B3F91D61
:104B20000120FFF713FE3AE03368590705D02368E8
:104B30003B4A3548012105F009FB2368FA79DAB9C7
:104B400007F1080604F1200C20686168324603C2B0
:104B5000083464451646F7D17A6A002D4DD0C2F369
:104B6000080121B96FEA52226FEA42227A6207F104
:104B700008011846FFF742FD2837BD46BDE8F08121
:104B80009A6A12F47F4F04D0F91D0120FFF7CCFE82
:104B900005E09B6AB3F5803F92D3FFF757FE0346CB
:104BA000CCE7F91D0020BCE7F91D0020EEE7164810
:104BB00003685A0784D01B4980E7134803685B07E2
:104BC0003FF47EAF184A194B18F4F87FE8468AB0D4
:104BD00018BF13466A461649C2E905134FF400731D
:104BE0001384103E134BD66142F8103F00234FF45C
:104BF0001151FDF797F8C54662E722F4FF7222F0E3
:104C00000102B3E700ED00E06002002007F00000C1
:104C100032F0000049F000006AF0000078F0000077
:104C200097F00000B3F00000EEEF0000D9EF0000B5
:104C3000D7F0000004000001024A536943F010035A
:104C40005361704700ED00E0EFF30880EFF3098156
:104C500001B57246FFF7ECFE01BD00BF002080F3F6
:104C60001488BFF36F8F01F0F1FA0020114908603A
:104C7000BFF34F8F104880F3088800F033F82020EE
:104C800080F311880D484FF0AA014FF4006207F03D
:104C90000DF90A484FF40061401880F30988EFF3DA
:104CA00014800221084380F31488BFF36F8F00F053
:104CB000FBF8000094ED00E0C04D0020803400209F
:104CC0000749D1F890200023C2F3072218469342E7
:104CD00000DB7047C1F89830C1F8A0000133F6E757
:104CE00000ED00E008B572B6002383F31388FFF7E8
:104CF000E7FF144B4FF0FF32C3F88020C3F8842045
:104D0000C3F88820C3F88C20C3F89020C3F89420FF
:104D1000C3F89820C3F89C20C3F88021C3F88421ED
:104D2000C3F88821C3F88C21C3F89021C3F89421DB
:104D3000C3F89821C3F89C2162B6BFF34F8FBFF32D
:104D40006F8F08BD00E100E0084B9B6883420BD1E8
:104D5000EFF3058343B1064B5A6842F080525A6024
:104D60005A6A22F400425A6207F01DBAFC2400205D
:104D700000ED00E00A4A93686FF00A01C3F8B01032
:104D80000849C3F8AC004B6843F080534B600023E4
:104D900083F31188BFF36F8F9368D3F8B000704727
:104DA000FC24002000ED00E0EFF31183202383F3C7
:104DB0001288BFF36F8F0A4A53699360094A4FF014
:104DC00000615160084AD3F8A81011600021D3F89F
:104DD000AC20C3F8AC1082F31188BFF36F8F70471B
:104DE000FC24002000ED00E0542400200B498A68D8
:104DF0004FF030001044EFF3098C80E8F01F744648
:104E00007046FFF7D1FFA64604498A6802F13000D8
:104E100090E8F01F8CF3098870470000FC24002004
:104E20001EF0040F0CBFEFF30880EFF309808169D7
:104E300011F8021C0229FFD001B506F074FB01BD78
:104E400040B2002807DB044A4109012300F01F009B
:104E5000834042F82130704700E100E0054B4209F1
:104E600000F01F0053F82220012303FA00F0104045
:104E7000704700BF00E100E040B20028A8BF00F189
:104E8000604001F10101B8BF064B4FEA4111ACBFD0
:104E900000F5614000F00F00C9B2B4BF195480F8AA
:104EA0000013704714ED00E00B4A08B50B4B22F0DD
:104EB0007F029A60BFF34F8FBFF36F8FD3F88820C4
:104EC00022F47002C3F8882002F008F902F076FF9D
:104ED00000F048F802F046F90000000000ED00E0A4
:104EE00042F8203C009B42F81C3C0A49019B42F8D6
:104EF000183C029B42F8143C21F001014FF08073F2
:104F000042F8043C42F8081C0023203A0265C0F82D
:104F1000AC307047B91300000B4B98600B4B0E463A
:104F2000D0F8A810196015462C4686F309884FF072
:104F30000000074B984720464FF000014FF0000259
:104F40004FF00003034C2047FC2400205424002091
:104F50004DB50000B9130000014B10221A617047D3
:104F600000ED00E0044800232021C2180133302B5B
:104F700082F80013F9D1704700E100E008B5EFF3C3
:104F80000583064A103B02EBC30152F8330049681F
:104F90008847BDE80840FFF7C5BB00BF9CC90000BB
:104FA000024B034A0348012100F080B800000420AE
:104FB0000000002034D2000008B503461148D0F8A4
:104FC0009020C2F30722013A93420AD90E480268A0
:104FD000520703D00D4A012105F0B8F86FF0150013
:104FE00008BDC0F898300A6822F01F021A4342F048
:104FF0001002C0F89C208A6842F00102C0F8A0208C
:105000001846EDE700ED00E05C020020EEF0000045
:10501000F0B50E4685B01F4604460025B54210DAAD
:10502000606828B3AFB1431E18420DD01248036820
:105030005B0704D0114A2B46012105F087F86FF079
:105040001502104605B0F0BD1F28EFD921680B42AC
:10505000ECD12368019306F09CFAA36801A90343ED
:10506000D0B20393FFF7A8FF10F1160FE7D0421C50
:1050700001350C34D2E700BF5C02002014F10000BF
:10508000044B0522C3F89420BFF34F8FBFF36F8FFB
:10509000704700BF00ED00E0BFF35F8F024B0022BE
:1050A000C3F89420704700BF00ED00E010B5034C3A
:1050B00001232278FFF7ACFF207010BD35270020B8
:1050C0002DE9F04357485849D0F890300D68C3F3A4
:1050D00007239D4285B000F2A180FFF7DDFF4968FC
:1050E0000022954201F10C011AD1504C504F25700D
:1050F0006846FDF7BDF8DFF83C81DFF83C910646D5
:105100000025AE421FD1237846490020D1F89020D7
:10511000C2F3072293427BDBFFF7B2FF00204CE093
:10512000C0F8982051F80C3C23F01F03134343F0C0
:105130001003C0F89C3051F8043C43F00103C0F860
:10514000A0300132CDE7009800EB05114FEA051CB5
:10515000CB683B40B3F5000F44D00AD8B3F5001F2D
:105160002ED0B3F5800F34D0B3F5801F10D00135A9
:10517000C7E7B3F1807F3ED0B3F1007FF7D150F89D
:105180000C3088684A6806F004FA40F4802009E090
:1051900050F80C3088684A6806F0FBF940F08850F7
:1051A00040F43020039001A92078CDE90123FFF7D6
:1051B00003FF002828DA6FF0150005B0BDE8F08382
:1051C00050F80C3088684A6806F0E3F940EA0800B5
:1051D000E8E750F80C3088684A6806F0DAF940EAE7
:1051E0000900DFE750F80C3088684A6806F0D1F90A
:1051F00040F08270D6E750F80C3088684A6806F0B4
:10520000C8F940F08870CDE7237801332370AEE70A
:10521000C1F89830C1F8A000013377E74FF0FF30B4
:10522000CBE700BF00ED00E040D2000035270020B2
:105230000000F0FF000008110000020708B5024B53
:105240001B689847002008BD58240020034B044ADF
:105250001860937843F0020393707047582400203D
:1052600088000020F0B587B007460E46144600219E
:10527000102268461D4607F0C6F902238DF8023059
:105280002A46054B019321466846CDE9047603F092
:1052900049FB07B0F0BD00BFB3B5000008B5064933
:1052A000064821F00701C1F1005202F5802204F006
:1052B00013FA002008BD00BFC76300205C24002053
:1052C000024B0122C3F840250020704700E0014056
:1052D00020B1034B800143F001031847704700BF22
:1052E00080CC0000084B70B5C31A0D4607499B10CF
:1052F000044659430648402206F098FA2B460146D8
:105300002046BDE8704018477C240020B76DDBB60E
:1053100038C9000073B50C4C0C4A4023041B0093A1
:105320000D460B460A49A41061430646094806F09B
:10533000A8FA011E05DA30462B4602B0BDE87040DF
:10534000184702B070BD00BF7C240020EBB80000FD
:10535000B76DDBB638C9000010B5EFF31184202318
:1053600083F31288BFF36F8F074A136823F002019B
:10537000DB07116002D4012006F0E6FC84F31188FB
:10538000BFF36F8F10BD00BFCC240020002270B58A
:10539000012104461046FFF76FFD0F4801F0E0F8C9
:1053A0000E4B984215D101F0EBF826690C493046B6
:1053B00004F0D5FC00280BDB01253564246908497D
:1053C00004F11C0004F0CBFC002801DBE5640020A4
:1053D00070BD6FF00400FBE7E55400000000AD0B6A
:1053E00060D200007FB500220123CDE9022304AB87
:1053F000CDE90433094ACDF800D06B46CDF804D08E
:1054000006F06CFA002805DB4FF480420023684662
:1054100002F034F807B05DF804FB00BF09B90000E2
:1054200030B4104B0C2202FB003301460020D3E9BC
:105430000E529863EFF31180202484F31288BFF397
:105440006F8F1C6C04F0C00444F002041C6480F3F1
:105450001188BFF36F8F1DB12B46034830BC18472E
:1054600030BC70477C24002038C9000010B4EFF332
:105470001182202383F31288BFF36F8F17480168CE
:1054800041F002040460C80707D482F31188BFF317
:105490006F8F012010BC01F085B84FF08041D1F82A
:1054A0000C04D1F80C14C907EFD5EFF3118083F386
:1054B0001288BFF36F8F0A490B6C03F0C00343F0EF
:1054C00002030B6480F31188BFF36F8F82F311889E
:1054D000BFF36F8F002010BCFFF7A2BFCC240020C9
:1054E0007C24002010B1012804D07047034B1B6CB2
:1054F0005B0701D1FFF794BF704700BF7C240020F9
:105500002DE9F0413849BFF35B8F0746012251E88E
:10551000003F41E800200028F9D1BFF35B8F33B989
:10552000324933484B60CB608A6004F02BFC7B1E11
:10553000012B2BD8012F07D14FF08043D3F81C3417
:1055400003F00303012B21D006F028FD0546F8B92E
:10555000284B1B78E3B14FF080430222C3F80823A5
:105560000646DFF894804FF08044D4F81824D4F82D
:105570001834D20315D503F00303012B01D0012FFA
:105580000FD155B386F31188BFF36F8FBDE8F0815B
:10559000EFF31186202383F31288BFF36F8F012569
:1055A000DFE7ADB1304605F0E5FFD4F81835002B44
:1055B000DBD1D4F80421002AD7D0C4F80431D4F8C0
:1055C00004310123C4F81835C8F88031A360CCE752
:1055D0000021212002F0F4FAE7E74FF08043022295
:1055E000C3F80423D2E700BF7824002068240020F9
:1055F000982400207A27002000E100E008B5074841
:1056000006F029FC38B10648FFF720FE0448FBF7F6
:10561000CDFE002008BD6FF01200FBE788C9000036
:10562000255600000A2838B5074D044604D1AB685A
:105630000D215B6828469847AB6803485B68E1B278
:105640009847204638BD00BF88C90000F0B54068C3
:10565000057B01F01F0444EA4514056987B0002D5D
:1056600064D0B2F5001F00F1100506D1214628468E
:1056700006F0EAFB002007B0F0BD01AE0027B2F54E
:10568000800F0197776039D1B3F1007F14BF0523F4
:1056900004238DF804300023CDE904630393836869
:1056A00023FA01F111F001011AD1B2F1A07F17D153
:1056B00004F01F03620903F5E0732AD0012A3BD1ED
:1056C0001F4A52F82330DB070AD40DF10306324695
:1056D0002146284601F044FA1A4B98421CD0029603
:1056E00003AA2146284601F0FDF8174B984220D125
:1056F00001222146284601F097FABBE7B3F1C06FBB
:1057000005D0B3F1007F14BF01230223C1E70323B7
:10571000BFE74FF0A042D4E73146284601F07EFAB9
:10572000094B9842DBD06FF00B00A4E76FF08500C7
:10573000A1E76FF015009EE751F82330FFDE00BFB0
:10574000000300500400AD0B0000AD0B38B54568F8
:105750002B69B3B11035284601F050FA044680B9E0
:105760000146284601F016FA084B98420BD1084929
:105770002246284601F0EEF9224601210620FFF7D5
:105780007BFB002038BD6FF00400FBE70000AD0B91
:1057900095570000420970B5034602D0012A17D080
:1057A00070BD0D4E326951680029F9D003F01F0316
:1057B00001250C689D400029F2D08A682A4002D059
:1057C0004B68304698472CB1236821461C46F2E7C7
:1057D000024EE7E72346F8E760C900004CC9000025
:1057E0002DE9F043466840F20635D006337B87B09A
:1057F00002EA050554BFC2F34010032001F01F0761
:10580000B5F5837F144647EA43178DF8030044D06B
:105810000FD8062D18D007D8B5B1022D3FD06FF0A4
:10582000150007B0BDE8F083B5F5807FF7D10125FD
:105830000AE040F20222954233D0B5F5407F32D0E3
:10584000B5F5007FEBD1022522032ED57268012326
:105850008B40C2F80835326992BB07F01F037F09FD
:105860002BD0012F79D13F4A02EB830284F480339D
:10587000D2F80017C3F30043C4F3404444EA43049E
:1058800021F4E16144EA800421F0070144EA0523A0
:105890000B43C2F800370020C3E70725D4E70425EF
:1058A000D2E70525D0E70325CEE7630341BF0123F7
:1058B00072688B40C2F80C35CDE74FF0A042D3E7B9
:1058C00010360DF102023946304601F049F914F460
:1058D000403F80460CD13946304606F0B3FA224BA1
:1058E0009845D8D19DF80210304601F091F9D2E7E1
:1058F00001AB4FF0000903AA39463046CDE904391F
:10590000CDE90199CDF80C9000F0ECFF164B9842D0
:1059100085D114F4003315D09DF803308DF80E3086
:1059200084F48034C4F300444B4603AA394630461D
:105930008DF80C508DF80D4001F08EF80A4B98420E
:10594000CDD06CE7CDE9043303AA0DF1030339464A
:105950003046039300F0C6FFF0E703F5E07352F81A
:105960002330FFDE000300500000AD0B036803F09E
:105970001F025B09026004D0012B034818BF0020FE
:1059800070474FF0A0407047000300502DE9F04FE2
:10599000DFF86091DFF860A185B01546834600EB23
:1059A000810140F2FF18594503D1002005B0BDE840
:1059B000F08FDBF800305804C3F3C322C3F30804AC
:1059C00000F191805B0C19F80270444508BF4FF05C
:1059D000FF34192B00F28A80DFE803F00D141A1D42
:1059E00020261D88888888366388888888888888E3
:1059F0008888667C7F82C5F80C45621C5ED10BF1FD
:105A0000040BD0E7C5F81445631CF8D000265FE00E
:105A1000C5F80845F1E7C5F81045F5E7661CC5F877
:105A20000845ECD0002604E0601CC5F80C45E6D023
:105A3000012603A80394FFF799FF039B012202FAB2
:105A400003F3C0F80C3508E0C5F80845002FDBD19A
:105A5000631CD4D0002632460627DBF800300193C1
:105A600003F40040002818BF002203A8009218BFCA
:105A700001260394FFF77AFF039C019B009A00EB39
:105A80008400C3F3412CD0F800473B0243EA8C0367
:105A9000134304EA0A04234343EA4603C0F80037E9
:105AA000ADE7C5F80C45D1E7C5F86045621CDBF8E9
:105AB0000030A4D0C3F30043002BB9D003A8039453
:105AC000FFF754FF039B012606FA03F3C0F80835DD
:105AD0003246C2E7C5F86445E8E7C5F86845E5E73A
