:020000040000FA
:1000000028540020A52200005B83000091220000FC
:100010009122000091220000912200009122000014
:100020000000000000000000000000001924000093
:100030009122000000000000D9230000912200005E
:1000400095250000952500009525000095250000C8
:1000500095250000952500009525000095250000B8
:1000600095250000952500009525000095250000A8
:100070009525000095250000952500009525000098
:100080009525000095250000952500009525000088
:100090009525000095250000952500009525000078
:1000A0009525000095250000952500009525000068
:1000B0009525000095250000952500009525000058
:1000C0009525000095250000952500009525000048
:1000D0009525000095250000952500009525000038
:1000E0009525000095250000952500009525000028
:1000F0009525000095250000952500009525000018
:100100009525000095250000952500009525000007
:1001100095250000952500009525000095250000F7
:1001200095250000952500009525000095250000E7
:1001300095250000952500009525000095250000D7
:100140009525000053B94AB9002908BF00281CBFF3
:100150004FF0FF314FF0FF3000F00CB8ADF1080C5C
:100160006DE904CE00F008F8DDF804E0DDE90223D3
:1001700004B07047704700BF2DE9F04786468C46B3
:100180000846089E154674461946002B40F0C1806B
:100190008542B2FA82F245D94AB1C2F1200300FA8F
:1001A00002FC954094402EFA03F343EA0C0C4FEA0C
:1001B000154EA8B2230CBCFBFEF80EFB18CC08FBB6
:1001C00000F943EA0C43994528D9EB1808F1FF37A9
:1001D00004D2994502D9A8F102072B44A3EB0903E5
:1001E000A4B2B3FBFEFC0EFB1C330CFB00F044EA94
:1001F0000344A04214D92C190CF1FF3304D2A042BD
:1002000002D9ACF102032C44241A43EA07401EB180
:10021000D440002334607360BDE8F0874746DDE7D3
:100220006346F1E792BB431B01214FEA154EAFB283
:10023000200CB3FBFEFC0EFB1C330CFB07F840EA62
:100240000343984561D9EB180CF1FF3004D298456F
:1002500002D9ACF102002B44A3EB0803A4B2B3FB18
:10026000FEFC0EFB1C330CFB07F744EA0344A742D9
:100270004DD92C190CF1FF3304D2A74202D9ACF1AD
:1002800002032C44E41B43EA0040C0E7C2F1200310
:100290009540944020FA03F12EFA03F34FEA154EED
:1002A0009040AFB20343B1FBFEFC0EFB1C10190CD7
:1002B0000CFB07F841EA0041884522D969180CF186
:1002C000FF3004D2884502D9ACF102002944A1EBE9
:1002D00008019BB2B1FBFEFC0EFB1C110CFB07F7E7
:1002E00043EA01439F420ED9EB180CF1FF3104D2CF
:1002F0009F4202D9ACF102012B44DB1B41EA0041D1
:1003000093E76046E3E76146F7E76046A4E76346A4
:10031000B8E7834206D916B9002108467CE7C6E94A
:1003200000E0F9E7B3FA83F78FB9834201D372454E
:1003300008D8BEEB020460EB030301209C461EB903
:10034000002169E73846FAE7C6E9004CF8E7C7F14B
:10035000200CBB400EFA07F522FA0CF42EFA0CF131
:10036000BA401C4320FA0CF3B8404FEA1449014349
:100370001FFA84FEB3FBF9F809FB18300B0C08FBDD
:100380000EFA43EA00439A4540D9E31808F1FF30DA
:1003900004D29A4502D9A8F102002344A3EB0A0330
:1003A00089B2B3FBF9F809FB183308FB0EFE41EAEA
:1003B00003418E452CD9611808F1FF3304D28E45D4
:1003C00002D9A8F10203214443EA0040A1EB0E0147
:1003D000A0FB02984145CE46434602D306D14D4587
:1003E00004D20138B9EB020E68EB0403002EA7D04B
:1003F000B5EB0E0261EB030101FA0CFC22FA07F3E4
:10040000F9404CEA0303C6E9003199E74046C5E7E5
:100410004346D9E7F0B5284B284A85B0C3F80026F3
:10042000C3F80426C3F80826C3F80C26C3F8102620
:10043000C3F81426C3F81826C3F81C2605F058FE86
:1004400000F0D4FB054601A800F0FEFE0446284655
:1004500000F0DCFB1A4B1B68A34201D006F027F822
:100460004FF48031002003F0ABFB044600B1FEE7FF
:1004700069469DF8080005F01AFE009B039D1D4487
:10048000019B1E8903F084FBAF1901F013FB01F0FF
:10049000E3FA01F0FDFA84F30B8884F30A88AB5980
:1004A00083F3088884F31488BFF36F8FBFF36F8FD3
:1004B0007B689847FEE700BF008001503546526ECA
:1004C0000800002021B1012906D06FF01500704707
:1004D000044B53F830007047024B03EBC0035868DD
:1004E000704700BFA8990000084B400053F8202037
:1004F000914208D0013053F8200081420CBF012006
:100500004FF0FF3070470020704700BFA8990000EF
:100510002DE9F04F1D469B4BDDB0D3F800909A4B70
:100520009046DDE9684603EBC1035B68CDE9061040
:100530000593059A2B78934209D1D8F8103013F01F
:100540000C0F04D02A4605F0DEFE002850D03CA84F
:1005500001F0F6F934B1002E04DD324621463CA804
:1005600007F0A2FA0024B8F808B0D8F80CA0B8F840
:100570000A30DA4403EB0A07A7423DD83CA910A889
:1005800007F0B8FA6A9B23B12022184610A907F099
:1005900026FF00232A46009341464FF6FF730AA820
:1005A00005F0A7FD074618BB28460F9C05F070FF15
:1005B00084421DD84FF0FF34DFF8D0810DF12203C3
:1005C00008AA09A90AA805F0E2FD002810DB40F0FE
:1005D000D08009990AA805F026FE00284AD14FF6D6
:1005E000FF71BDF822006A4A32F8023B8B423FD1CC
:1005F000644BD3F80090BFE0679B3E1B9E4228BF30
:100600001E46A34504D9A3199B4538BFABEB04068E
:10061000A24504D9A3199A4538BFAAEB040633466C
:1006200021462846669A07F01FFE0028E0D12B7865
:10063000059A9A4215D1D8F8103013F00C0F10D04B
:10064000A3450ED8A2450CD9DDE90610669AA4EBA5
:100650000B03029203F00F02CDE900622A4605F077
:1006600063FE324666993CA807F01EFA344483E7DD
:100670009842B9D1BDF82230102B1DD1BDF82060B1
:10068000202EB5D13346284609993CAA07F0ECFD47
:100690000028ADD100F0AAFA324607463CA910A8BE
:1006A00000F052FA0646384600F0B0FA394B1B68A3
:1006B000B3429DD1012781E7012B32D1BDF8203013
:1006C000202B95D8284609993CAA07F0CDFD044671
:1006D00000288DD19DF820B0BBF1200F06D8D8F8A6
:1006E00000302D4E0593059B9C4202DB4FF0FF34FA
:1006F00064E720A801F024F9736820A81A6856F866
:10070000081B07F0D1F920A918A807F0F3F95A46F9
:100710003CA918A807F053FE00283FF44FAF01345E
:10072000E1E7222B7FF44AAF631C3FF447AFD8F8D0
:100730000030A342DADDBDF82030802B3FF658AF01
:10074000284609993CAA07F08FFD00287FF450AF96
:1007500000F04CFAE4B206462021BDF820303CAA55
:10076000009410A800F06AF98146304600F04EFA75
:10077000BCE7002F3FF43CAF00F040FA48465DB0C4
:10078000BDE8F08F04000020C4990000B899000073
:100790002C9F000008000020BC9900002DE9F04FBC
:1007A000A24BADF51B7D1C685B6804941B68064674
:1007B0001C448946302321461EAA04A806F001F9EC
:1007C00000285DD1049B1E9A13449C4270D1269050
:1007D000214626AA04A806F03DF9269B184364D1B9
:1007E00032AD2A4621465EAB04A806F04BF900283C
:1007F00058D16A68072A06D06FF0050420460DF527
:100800001B7DBDE8F08F8A49A86807F0D8FD002855
:10081000F2D15F9A082A02D06FF00604EEE785490C
:10082000609807F0CCFD0028F6D1042321461EAACB
:1008300004A806F0C6F890BB302321461EAA04A8DF
:1008400006F0BFF840BB0023214626AA04A8269341
:1008500006F000F9E8B9269B012B1AD104232146A2
:100860001EAA04A806F0ADF880B91E9C202C0AD15F
:10087000224604990EA807F0B2FD3378042B1AD053
:100880004FF0FF34BAE76FF00B04B7E76FF00A04DC
:10089000B4E76FF00904B1E76FF00804AEE76FF05A
:1008A0000704ABE76FF00404A8E76FF00204A5E7C4
:1008B0006FF00104A2E700F055FF06F101080146C0
:1008C000404606F023FF07460028D9D100F04AFF32
:1008D00006AA03460EA9404607F084FB0128CFD1A3
:1008E0000DF1580839462246404607F083FD41463F
:1008F0005EA805F0A6FC0028C2D1224606A95EA883
:1009000007F042FB0128BBD121465EAA1EA807F0D2
:1009100041FB0128B4D1012300249B46DFF818A134
:1009200005AF3B701EA95EA805F08BFC0028A7D17F
:10093000BBF1000F24D0102251465EA807F024FB23
:10094000012802469CD139465EA807F01DFB01280C
:1009500096D1202128465EAA07F01CFB0128834679
:100960008ED126AB03EB441094B92022294607F020
:1009700036FD3B785C4601334FF0000BDBB2D0E72D
:10098000202229465EA807F0FFFA0128D3D077E796
:100990001022294607F023FD2AA95EA805F051FC84
:1009A000044600287FF46CAF06F1610A102251461C
:1009B0005EA807F0E9FA01287FF462AF20215EAA61
:1009C0001EA807F0E7FA01287FF45AAFA34606F104
:1009D00040021EAB603612F8010F13F8011BB24241
:1009E00081EA00014BEA010BF5D1BBF1000F7FF466
:1009F00047AF284626A900F0DBFF01287FF440AF6F
:100A000010225946404607F0F5FC1023C7F800B005
:100A1000524619464846CDE90175CDF8008007F0E9
:100A2000F3F901283FF4EAAE2AE700BFB0990000CD
:100A3000729F0000699F0000589F00002DE9F04759
:100A400098B016461D469DF880203A4B074653F84D
:100A5000321003EBC2035B6803911868DFF8D8809B
:100A60000144302304AA03A8D8F8009005F0A9FF98
:100A7000002849D1DDE903431C44214608AB05AAFF
:100A800003A805F0FFFF00283ED1069A072A3BD1B4
:100A90002A49079807F093FC002835D1099A082ABB
:100AA00032D127490A9807F08AFC68BB214604AA7C
:100AB00003A805F0D3FF38BBDDE903A30AEB03026B
:100AC000944221D1412B1FD135443023294605AA18
:100AD00004A8049605F075FFA0B9DDE904321344BB
:100AE0009D420FD32A4604A908A805F052FC48B934
:100AF0002A4604A910A805F04CFC18B99AF8003051
:100B0000042B07D0D8F8009000F078F8484618B0C9
:100B1000BDE8F08700F026FE20220090394608ABA1
:100B20000AF1010006F05DFE0128EBD1054BD3F878
:100B30000090E9E7BC99000004000020839F0000BA
:100B40007A9F00000800002070B5094B04461D681C
:100B50000023934205D1074B1D6800F04FF828464B
:100B600070BDE65CC85C8642F7D10133F1E700BF97
:100B70000400002008000020094A40000B7852F8C9
:100B800020108B4209D0013052F82000834214BF5C
:100B90004FF0FF304FF4407070474FF44070704793
:100BA000CC9900001FB50F4B0C4613F8300001F034
:100BB000E3F850B92068102381686A46103907F0BD
:100BC00053FB28B1206807F04EFB4FF0FF3006E0E2
:100BD00010226846044907F0F2FB0028F2D104B065
:100BE00010BD00BFCC990000489F0000024B186860
:100BF000421C1A60704700BFD0030020024A1368ED
:100C0000013B1360704700BFD0030020034B1B68FB
:100C1000834201D005F04BBC704700BFD0030020D9
:100C20002DE9F04FDFF838918DB0064600200D46D3
:100C30009046D9F80040FFF745FC0AA9C0B201F080
:100C40009BF828B1FFF7DAFF20460DB0BDE8F08F22
:100C50002946FFF737FC2C270BA9C0B207FB056715
:100C600001F08AF8002843D02C2303FB056319699F
:100C700011F010014BD1CDE90831FFF7B7FFDDF8D6
:100C800028A0D9F800409AF800B00790BBF1010FF6
:100C900006F160094ED1089B1B6913F00C0F49D077
:100CA00053463A4648460999CDF8008005F0F1FAD6
:100CB000002837DAFFF7A2FF0798FFF7A7FF2C23DA
:100CC0006B43F258F118274B0A989A420AD1CA6826
:100CD0000B899B1806D28268934203D2224B1B6871
:100CE000A3421BD0C5B10021826807F0E7FA13E0E8
:100CF0000B9807F0FEFA04460B9807F0B4FA7B1E37
:100D0000FA1C13F8011FA142AED19A42F9D11DB1CC
:100D100030460A9905F0A8FC144B1C680A9807F0A5
:100D2000A2FA8FE706D142465946484605F09BFA9B
:100D30000028BFD1FFF75AFF4FF4807300210193C1
:100D40000B4B80463A46CDE9031102910093484689
:100D50005346FFF7DDFB04464046FFF757FFA9E780
:100D6000040000203DB8F396080000200000002099
:100D7000A02100202DE9F0430D46002187B0044654
:100D80002846CDE9041105F02EFC0646002855D072
:100D90002368404EB34203D1204605AA05F0B0FBBC
:100DA000236913F00C0F3BD0236A04F16007002184
:100DB000224638460095039305F06BFA014618B9B0
:100DC0002A46384605F04FFAE36AB34204D10121BE
:100DD000204604AA05F094FBE36B04F12C0213F007
:100DE0000C0F24D0E36C04F160060021304600951E
:100DF000039305F04EFA20B92A460121304605F04A
:100E000032FADDE90432934288BF0593059BAB605B
:100E100029462046059A00F0F7FA07B0BDE8F083AE
:100E20001022FF2105F10C0007F0E4FACCE71022B4
:100E3000FF2105F11C0007F0DDFAE2E703A9FFF747
:100E4000B1FE039805F1080105F0DFFAAB6805F182
:100E50000B07059304F160095FFA86F82A464146BC
:100E6000039805F0E0FA3A46002312F8011FFF2923
:100E70000AD10133102BF8D110371EB1039807F0B7
:100E8000F2F9C5E70126E7E72A464146484605F05C
:100E9000EAF9F1E73DB8F3962DE9F04F81468A462D
:100EA000002787B0CDE90423DFF8E8B03A4D3B4E88
:100EB000119B9F4201D3002010E0119B0599A3EBE9
:100EC0000708B8F5806F28BF4FF480685A4643463C
:100ED0005046791807F0C8F918B1012007B0BDE8ED
:100EE000F08F9AF80020049B012A1B7803D0012B75
:100EF0002DD14B4603E0012B29D009F12C03109A88
:100F0000BC181A6912F00C0F21D01A8904EB080ED4
:100F1000A24237D972451AD24FF0000C111BAEEB2A
:100F2000020089B2DB6813449E4503D99C422CBF62
:100F30000020181BA31A01EB0B02CDE901C200909F
:100F40000B445246002109F1600005F0EDF91099BB
:100F500043465A460498791807F09BF90028BCD1FB
:100F6000C5F800664744C5F80466C5F80866C5F8C4
:100F70000C66C5F81066C5F81466C5F81866C5F89D
:100F80001C6695E7A4EB020C404600210CF00F0C08
:100F9000C8E700BFD4130020008001503546526ED0
:100FA0002DE9F0430F460021A24B04464362A24BB9
:100FB0008FB003650846FFF785FA04F12001C0B23F
:100FC00000F0DAFE08B105F072FA01210020FFF707
:100FD00079FA04F14C01C0B200F0CEFE08B105F080
:100FE00066FA204605F0CDFA02AD00284AD100226B
:100FF0002046114605F06EFA002859D1204605F02A
:101000004AFC002854D0284605F0DDFA294620463F
:1010100005F088FB00284BD1284605F0E4FA80F063
:1010200001012A462046C9B205F054FA02460028BA
:101030003ED1284605F0D7FA064600283CD129467D
:101040002046FFF797FE9DF80F3084F85830033B99
:10105000012B06D8304600F027F910B1FF2384F8A1
:1010600058309DF80F30023B022B06D8002000F0CC
:1010700005F910B1FF2384F8583094F85830FF2B4D
:1010800011D1FEE70123984284F85830AFD194F88B
:1010900058308DF80F30013B042B71D8DFE803F096
:1010A0007445455F99002A460021204605F012FA52
:1010B000012384F85830EAE79DF80F80B8F1010F5A
:1010C0001FD1104602F010FE831E022B064615D8D3
:1010D000FFF78CFD414681462A462046FFF7A0FDDA
:1010E00080464846FFF792FD544B1B68984505D053
:1010F000534B1E68B04514BF0526012684F858607E
:10110000C5E7FFF773FD2A46804601212046FFF719
:1011100087FD06464046FFF779FD484B1B689E4217
:1011200014BF05239DF80F30C3E794F84020237DBA
:101130009A4214D80AD394F84120637D9A420ED87B
:1011400004D3B4F84220E38A9A4208D2E06C00212A
:10115000826807F0B3F8012384F8583014E0294678
:101160002046FFF707FE94F85830DA1E012A09D806
:10117000002000F099F818B9002000F07FF818B1AD
:10118000FF23E9E7022BF7D094F85830FF2B01D169
:1011900005F08DF9002294F858302A4E012B019267
:1011A0001BD01146204605F095F9B0B136680023F2
:1011B0001A46EA540133302BFBD1E06C07F053F8A8
:1011C000206A07F050F8FFF719FD30460FB0BDE870
:1011D000F083002000F068F8D1E7FFF707FD002258
:1011E000804611462046FFF71BFD81464046FFF72B
:1011F0000DFDDFF84880D8F800304B45D6D1326875
:101200009A42D3D00E4A12689A42CFD0019B013342
:101210000193019B012B01D005F049F9206A04F0EC
:101220004CFF3871236A5B683C60D8F80060BB6093
:10123000BDE700BFD40B0020D4030020080000202D
:10124000000000200400002070B50B4E04464FF44F
:10125000E4720021304607F0CDF8FFF7C7FC2146C5
:1012600005463046FFF79CFE04462846FFF7CEFCB5
:10127000FFF7C4FC204670BDD417002013B5094BFE
:1012800001A913F8300000F077FD48B9019807F084
:10129000F9FE0446019806F0E6FF204602B010BDB4
:1012A0000124FAE7D49900001FB50F4B01A913F8E8
:1012B000300000F061FDA8B9019802A902F0BEFC5F
:1012C000044668B99DF80B30032B03D1019807F051
:1012D000A7FE0446019806F0C6FF204604B010BDE4
:1012E0000124F7E70124F8E7D49900002DE9F34140
:1012F00006460C4617461D460BB9002628E0184640
:1013000005F071F90028F8D16946FFF74BFC009809
:1013100038B90124009806F0A6FF204602B0BDE8C7
:10132000F08101A905F071F80028F2D1009806F0CB
:101330009AFF3046019905F043FA736A5E686B794B
:10134000012B21D1002CD8D12B68834298BF0026D5
:1013500021460020FFF7B6F86946C0B200F00CFD48
:101360000028D6D120233A463146009806F07CFF6B
:1013700004460028CDD1002DCCD03C680D4BE41A9A
:1013800018BF4FF0FF34C5E7022BB6D12B68012BF5
:1013900005D98342B1D8B4FA84F46409ADE7ACD17D
:1013A000002CD5D0012CA8D12C79023C18BF0124E7
:1013B000A3E700BF3DB8F39673B54B681446114AD6
:1013C00003F0FF23934206460D4618D10B68012B0C
:1013D00015D16946204602F031FC9DF80030032B00
:1013E0000DD12146304605F03FF9204607F018FEA2
:1013F0002046A96805F029F8204602F0FFFB02B05C
:1014000070BD00BF000100042DE9F04F054689B012
:101410000C46114605F0D4F96B6A039020465E68CD
:1014200005F0E1F890B1E86D04F0DFFF0022AB6A4F
:10143000013B3244904201D9013BFAE7039A9342BF
:1014400004D80123E37109B0BDE8F08F06A9042098
:1014500000F092FC07A9012000F08EFC21462846EE
:10146000079AFFF7A9FF6379012B4BD1039FDFF8A0
:1014700058B141E022680399C2F101030B44BB4219
:1014800039D36B6A012A196853F8370003EBC70395
:1014900053F8083CA0EB0109A3EB010A11D1079B0B
:1014A0000493E36A022B08D04146284605F0DCF895
:1014B00022464146284605F00CF92846049905F0D5
:1014C000D3F832464946404605F0CCF853464246EA
:1014D00041462846CDE90096FFF7DEFC2146284626
:1014E00005F08EF823680133236020B1DBF800306B
:1014F0000133CBF80030013FDDF81880002FB9D15F
:1015000001232360022301276371039BDDF81890F8
:101510009F4206D9484606F0A6FE079806F0A3FEAD
:1015200091E72368BB424DD86A6AFB0052F8371036
:10153000083BD2F800B00491D1582A6DDDF81CA008
:10154000D0581368A0EB03082379012B38D1A1EB05
:101550000B0132464846059105F084F8059943464B
:101560004A460091284651460196FFF795FC2146D0
:10157000284605F045F80223237118B1124A136872
:101580000133136032464146504605F06BF8049B28
:101590005246A3EB0B0349462846CDE90086FFF7E8
:1015A0007BFC2146284605F02BF823680133236095
:1015B0000123237130B1044A13680133136001E041
:1015C000022BDFD00137A0E79C1900200A4619B191
:1015D000024B00211B681847704700BF0C00002019
:1015E0000822F0B589B005F089FBCB6A0027039388
:1015F0000B6B0C4604934B6B064605938B6BCDE946
:1016000001770693CB6B0097079313466A46114602
:10161000104605F081FA31460546304605F07CFA61
:10162000216B05440391616B10460491A16B0591F8
:10163000E16BCDE90617114605F06EFA3146054417
:10164000304605F069FA0544206ACDE90477009038
:10165000606A03970190A06A0290A06B0690E06B0D
:101660000790304605F058FA0544606AD4F838C04F
:101670000090A06ACDF810C00190E06AD4F83CC098
:101680000290606BCDE905C00390206A0790304658
:1016900005F042FA0544E06ACDE904770090206B3A
:1016A00003970190606B0290206A0690A06A0790F1
:1016B000304605F056FB236B2D1A0093636B3046C2
:1016C0000193A36B0293E36B0393636A0693E36A4C
:1016D0000793082305F045FB636B2D1A0093A36B5A
:1016E00030460193E36B0293236A0393636A049386
:1016F000A36ACDE90537236B0793082305F031FB77
:10170000A36B2D1A0093E36B3046CDE90137636A72
:101710000393A36A0493E36A0593636B0793082317
:1017200005F01FFB2D1A10D40D4C35B90822314697
:10173000204605F0EFFA01280FD008232246314653
:10174000304605F00EFB2D1AEFE7054A0823314617
:10175000304605F0E1F92D18F8D409B0F0BD00BF0E
:10176000E099000000487047DC9900002DE9F04F37
:10177000002703689DB002934368DFF8BCA1039380
:101780008368DDE902460493C36805930369DDE9D4
:1017900004BE0693436907938369DDE9062C089329
:1017A000C36998460993089B0093CD590CAB2DBA99
:1017B0005AF8049BDD514FEAF223A94483EAB2139D
:1017C000009D83EA72634B4425EA020502EA0C0994
:1017D00085EA09052B44434486EA0B054FEA743831
:1017E00088EAB408254006EA0B0985EA090588EA73
:1017F000B4580437A844402F03EB0E054344DE469B
:10180000DDF8008040F088804FF0100A4B490A91C3
:1018100051460AF1010A0DF1700E0AF00F070EEBA6
:10182000870757F8407C01F00F094FEAB748019746
:1018300088EAF71801F10E0707F00F070EEB87078C
:1018400057F8407C09314FEAF74E8EEA774ECDF8D3
:101850002CE001F00F010DF1700E0EEB81010EEB8B
:10186000890959F840EC51F8401CBAF1400F714415
:10187000DDF804E088EADE08DDF82CE041448EEA79
:10188000972E714405EA02084FEAF52E2CEA050767
:1018900087EA08078EEAB51EDDF828808EEA756EA5
:1018A000774458F804EF49F8401C77440F440099F6
:1018B0004FEA733E394484EA0607CDF828808EEA61
:1018C000B30E07EA030704EA06088EEAB35E87EA66
:1018D000080777440F4401EB0B0ECDF800C0B34668
:1018E00022D102993944016003991944049B416053
:1018F00023448360059B3344C360069B73440361A8
:10190000079B2B444361089B13448361099B6344F9
:10191000C3611DB0BDE8F08FB346CDF800C02646C8
:1019200094461C462A4640E7944626462A461C46CC
:1019300075463B466CE700BF8C9A0000C89A0000D1
:1019400010B50446C8B17022002106F03DF90B4BDA
:101950000B4A0C49C4E900230B4B0C48C4E90213A1
:101960000B4BC4E9040301200A4BA36103F1745338
:10197000A3F52303A3F69243E36110BD85AE67BBD5
:1019800067E6096A72F36E3C3AF54FA57F520E5135
:101990008C68059BABD9831F0449431E0F3013F895
:1019A000012F8A5C83421A70F9D170478B9F000027
:1019B000F0B50746264E8DB001AD0C460FCE0FC5D3
:1019C0000FCE0FC596E8070085E807003846002FC0
:1019D00039D0002C39D0381F0246214610344B78BC
:1019E0000D781B0443EA0563CD7804312B4311F8CD
:1019F000025C8C4243EA052342F8043FEFD1042104
:101A0000144C8A07036916D1C3F30742A55C1A0E6A
:101A1000A25C42EA0562C3F30725655DDBB2E35CC5
:101A200042EA054242EA032221F0030330336B44C9
:101A300053F82C3C534050F8042F013153402C29CB
:101A40000361DED101200DB0F0BD2046FBE700BFF1
:101A5000709900008B9F0000BFF36F8F72B6002358
:101A60004FF0FF30094A03F120010133102B42F8F7
:101A70002100F8D100234FF0FF30044A03F1600148
:101A80000133102B42F82100F8D1704700E100E04B
:101A9000002318460649D1F89020C2F3072293424A
:101AA00000DB7047C1F89830C1F8A0000133F6E7B9
:101AB00000ED00E02DE9F8434FF0FF3501274FF02E
:101AC0000008204BDFF880905F60C3F84853C3F8EC
:101AD000085303F580535F60C3F84853C3F80853B5
:101AE00059F8044B002644F30730C4F8085300F0BB
:101AF000B1FC80226760C4F84C61D4F84C31C4F862
:101B00001061D4F81031C4F844613146D4F844313E
:101B1000A018C4F8006506F06DFC8022314604F57B
:101B2000C07006F067FCB8F1000F08D0074BC3F88F
:101B300008554FF05023C3F80853BDE8F8834FF021
:101B40000108CDE700400150949B00000070015057
:101B5000014B1860704700BF100000202DE9F047CE
:101B6000058B04462807904611D4022905F0070585
:101B700040F0CC80204606F09EFA78B10138218BE7
:101B8000042811D8DFE800F0C2106D859500012906
:101B90000CBF45F0100545F02005258388F311881A
:101BA000BFF36F8FBDE8F08701F0070AAA4500F088
:101BB000A5800027B9463E46A368002B00F0BC80F4
:101BC00041F00801218388F31188BFF36F8FA1686A
:101BD000002900F0BA800D68002900F0B680334675
:101BE00052462046D1F80480C047002D76D02B689D
:101BF00029461D46F0E701F007035A1F012A1BD8AA
:101C0000002221F00701062B276889B2C4E90022CF
:101C100009D13B4603E0628B013262831B68002BD3
:101C2000F9D141F002012046218306F044FA002850
:101C30007AD041F0200176E0042B0AD121F007018F
:101C400089B22046218306F036FA10B141F0200116
:101C50002183218B01F0070AAA454FD00027B946FE
:101C6000AAE7236921F0070141F00601062DD3F808
:101C7000009021832DD1B9F1000F3FD041F0080130
:101C8000218388F31188BFF36F8F20463949C847F5
:101C900029E021F00701236941F0040189B2042DF4
:101CA000D3F804902183E6D000274FF0040A3E4683
:101CB00082E721F00701236941F0050189B2052D72
:101CC000D3F808902183D6D000274FF0050A3E466E
:101CD00072E700274FF0060A3E466DE72B4687E77E
:101CE000B9F1000FD1D1EFF31188202383F31288CB
:101CF000BFF36F8F238B23F008032383258BEA0622
:101D00002ED525F01003238305F007056669218B86
:101D1000002EBFF670AF00232768C4E9003321F01E
:101D2000070141F001012183218B4FF0000901F0EF
:101D3000070AAA457FF440AF002F9CD041F008016C
:101D4000218388F31188BFF36F8F002FC8D03D68BF
:101D5000394633465246204606F0D9F92F46F4E775
:101D6000AB067FF51BAF25F02003238305F00705A5
:101D700000E700BF3B81000070B5114B0D461C68A9
:101D8000DCB1104B196800238B4202DB6FF00100BD
:101D900070BD224612F8106B864202D01446013301
:101DA000F2E7E06810B96FF01200F1E707F0CEFA41
:101DB0000028F8D000202C60EAE76FF00C00E7E77D
:101DC000140000209C9B000070B588B005460C46AE
:101DD000C0B269461646FFF7CFFF00281BDB00980C
:101DE000C8B143682268029383680195CDE9033640
:101DF0000023CDE906230593C56806F034FA6DB1DA
:101E00002846084901AA06F030FE079808B9059B44
:101E1000236008B070BD6FF01500FAE76FF0120094
:101E2000F7E700BF01830000014803F095BF00BF42
:101E3000A09C000038B5044618B90F4B0F485B68EA
:101E400098476168B1F5683F10D0B1F5680F0DD0C3
:101E50000B4DA9420AD011F46861206807D00146F1
:101E6000084807F0C9FA00232360656038BD1422D2
:101E700006F0C0FAF9E700BF4C01002070A1000095
:101E80002C5F5CA9A01E002008B500B34368B3F521
:101E9000683F0CD101220368D3E8EF1F002903D16A
:101EA000C3E8E02F0028F7D10DD1002008BD094A72
:101EB00093420AD000684FF0FF324FF0FF3303F037
:101EC00033F90028F1D00448F0E70448EEE76FF456
:101ED000E040EBE72C5F5CA9E98FFFFFEA8FFFFF93
:101EE00008B5B8B14368B3F5683F0CD10022036868
:101EF000D3E8EF1F012903D1C3E8E02F0028F7D171
:101F00000BD1002008BD074A934208D0006803F0B7
:101F100083F9F6E76FF4E040F4E70348F2E703489B
:101F2000F0E700BF2C5F5CA9E98FFFFFEA8FFFFF9E
:101F300010B5044618B91D4B1D485B689847636887
:101F4000B3F5683F2FD0B3F5680F2CD0194A9342F0
:101F500019D1236803BB4FF0FF324FF0FF33214606
:101F6000154803F0B3F808B923681BB90F4B1348A1
:101F70005B68984714220021206806F03BFA4FF472
:101F80006863636008E0B3F5683F0DD83A2B03D06F
:101F900040F6BA629342DED1206807F065FA6368C2
:101FA00043F03A03636010BD054AF3E74C0100209B
:101FB00070A100002C5F5CA9A01E002096A100006B
:101FC0003A00003A08B5064940231422054807F0B4
:101FD00005FABDE808400449044803F02FBF00BFDC
:101FE000A0190020A01E0020A89C0000BC9C00009E
:101FF00030BFFFF7FDBF00BF074A936893F90E108B
:10200000002907DB526993421FBF044A536843F01B
:1020100080535360704700BF981F002000ED00E020
:10202000154B9A6A12F0007F9A6A14BF1E201D2079
:1020300012F0807F9A6A18BF1F2012F4801F9A6ADC
:1020400018BF022012F4002F9A6A18BF212012F440
:10205000802F9A6A18BF222012F4003F9A6A18BF94
:10206000232012F4803F9A6A18BF24206FEA0242AC
:102070006FEA12429A62704700ED00E010B5194B0A
:102080000246986A9C6A10F4805F14BF17201620DD
:1020900014F4006F9C6A18BF1820A40509D5986B2A
:1020A000986A000404D51AB19A6A22F400429A622E
:1020B00019200C4B9A6A12F4806F9A6A18BF1A2082
:1020C000D2050CD49B6A13F4005F18BF1C20054A8C
:1020D000936A43F47F43936200230B7010BD1B206F
:1020E000F5E700BF00ED00E010B51C4B0246986A12
:1020F0009C6A10F0100F14BF1120102014F0080F6C
:102100009C6A18BF1220A40709D5586B986A00066C
:1021100004D51AB19A6A22F080029A6213200F4BFA
:102120009A6A12F0010F9A6A18BF142012F0200F59
:102130009A6A18BF1520D40658BF9B6A074B9A6A43
:10214000920642BF5A6A22F400525A629A6A42F0D8
:10215000FF029A6200230B7010BD00BF00ED00E08B
:1021600070B5444B06465B6800258AB0C3F308038C
:1021700085F31188BFF36F8F02F07F40B0F17F4F7E
:1021800011D102F00C0008280DD010074CBF0E46EC
:1021900001250022033B8DF80720032B05D8DFE83B
:1021A00003F01E5C60592E46F3E700249DF80730CB
:1021B0009BB92022314602A806F011F9099B002D97
:1021C00053D0C3F3080222B96FEA53236FEA4323C3
:1021D0000993204602A906F0B6F80AB070BD254B57
:1021E000DA6A9107E1D4DA6A002ADEDBDA6A5200A1
:1021F000DBD55A69B16942F480725A61BFF34F8FDF
:10220000BFF36F8F5A6931F8021C22F480725A6151
:10221000BFF34F8FBFF36F8F4DF60272914209D01B
:102220009A6AD2B242B101200DF10701FFF75CFFBB
:102230000446BBE73468B9E79A6A12F47F4F05D0C9
:1022400001200DF10701FFF719FFF1E79B6AB3F5D4
:10225000803FAAD3FFF7E4FEEAE700200DF1070173
:10226000E4E700200DF10701EDE723F4FF7323F00D
:102270000103ADE700ED00E0044B5A6942F01002A3
:102280005A615A6942F480625A61704700ED00E079
:10229000EFF30880EFF3098101B57246FFF760FFA5
:1022A00001BD00BF002080F31488BFF36F8F0020B2
:1022B00080F30A8880F30B8801F0A6FD00200E4908
:1022C0000860BFF34F8F0D4880F3088800F01AF8BC
:1022D000202080F311880A484FF40061401880F3F1
:1022E0000988EFF314800221084380F31488BFF3B8
:1022F0006F8F00F0E7F8000094ED00E02854002014
:10230000E822002072B6002383F313884FF0FF30D9
:102310000C4A03F120010133102B42F82100F8D1BF
:1023200000234FF0FF30074A03F160010133102B07
:1023300042F82100F8D162B6BFF34F8FBFF36F8F21
:10234000704700BF00E100E0084B9B6883420BD15F
:10235000EFF3058343B1064B5A6842F080525A604E
:102360005A6A22F400425A6207F03CB9981F0020D2
:1023700000ED00E06FF00A01084A93689967084988
:1023800058674B6843F080534B60002383F31188F8
:10239000BFF36F8F9368986F704700BF981F00203E
:1023A00000ED00E0EFF31183202383F31288BFF3E5
:1023B0006F8F4FF00061064A53699360054A516080
:1023C00000215A6F596782F31188BFF36F8F7047EE
:1023D000981F002000ED00E00E498A684FF03000A1
:1023E0001044EFF3098C80E8F01F74467046FFF745
:1023F000D9FFA64607498A6802F1300090E8F01F2D
:102400008CF3098802F1000004B505F0B1FFBDE8C6
:1024100004407047981F00201EF0040F0CBFEFF31C
:102420000880EFF30980816911F8021C0229FFD0AE
:1024300001B505F08EFF01BD40B2002807DB012386
:102440004109034A00F01F00834042F821307047E1
:1024500000E100E040B200280CDB012206494309FC
:1024600000F01F008240203341F82320BFF34F8F3C
:10247000BFF36F8F704700BF00E100E0054B4209DA
:1024800053F82220012300F01F0003FA00F010404F
:10249000704700BF00E100E040B2002801F10101F7
:1024A000ACBF00F16040064B4FEA4111C9B2ABBF6F
:1024B00000F5614000F00F0080F8001319547047D8
:1024C00014ED00E00B4A08B50B4B22F07F029A6036
:1024D000BFF34F8FBFF36F8FD3F8882022F47002C1
:1024E000C3F8882002F036FD03F094FA00F046F8B5
:1024F00002F070FD0000000000ED00E042F8203C1A
:10250000009B0B4942F81C3C019B21F0010142F861
:10251000183C029B42F8081C42F8143C4FF08073B0
:1025200042F8043C0023203A02654367704700BF2D
:10253000A38000000B4B0E4698601546436E83F354
:102540000B882C4686F309884FF00000064B98470D
:1025500020464FF000014FF000024FF00003034C03
:10256000204700BF981F002079830000A38000004F
:102570001022014B1A61704700ED00E0002320217A
:102580000348C2180133412B82F80013F9D1704778
:1025900000E100E008B5EFF30583064A103B02EBCB
:1025A000C30152F8330049688847BDE80840FFF787
:1025B00023BD00BF5C970000014B1860704700BF4F
:1025C000380000200122024B0020C3F8402570474C
:1025D0000090035020B1034B800143F001031847E2
:1025E000704700BFA0990000084B70B5C31A0D4694
:1025F00007499B10044659434022064805F00FFF47
:102600002B4601462046BDE870401847D01E0020EA
:10261000B76DDBB6D0960000402373B50B4C00932A
:10262000041B0B460D460A49A41061430646094A9D
:10263000094805F020FF011E05DA30462B4602B09E
:10264000BDE87040184702B070BD00BFD01E00202A
:10265000B76DDBB6E1840000D096000010B5EFF353
:102660001184202383F31288BFF36F8F074A136806
:1026700023F00201DB07116002D4012006F08EFD79
:1026800084F31188BFF36F8F10BD00BF201F00209F
:1026900070B50022012104460520FFF7FDFE0F481A
:1026A00001F0D2FC0E4B984215D101F0DDFC2669F9
:1026B0000C49304605F04EFD00280BDB0125356442
:1026C0002469084904F11C0005F044FD002801DBE1
:1026D0000020E56470BD6FF00400FBE7E127000017
:1026E0000000AD0BCC9C00001FB500220123CDE9FA
:1026F00002236B46084ACDF800D0CDF804D005F08F
:10270000E8FE002805DB4FF480420023684602F013
:10271000E3FD05B05DF804FBFF8400000C22104BC4
:10272000014602FB0033002030B4D3E90E52986317
:10273000EFF31180202484F31288BFF36F8F1C6C99
:1027400004F0C00444F002041C6480F31188BFF359
:102750006F8F1DB12B4630BC0248184730BC704704
:10276000D01E0020D096000010B4EFF31182202379
:1027700083F31288BFF36F8F1748016841F002049A
:102780000460C80707D482F31188BFF36F8F01205C
:1027900010BC01F07DBC4FF05021D1F80C04D1F8F1
:1027A0000C14C907EFD5EFF3118083F31288BFF340
:1027B0006F8F0A490B6C03F0C00343F002030B64F4
:1027C00080F31188BFF36F8F82F31188BFF36F8F8F
:1027D000002010BCFFF7A2BF201F0020D01E002049
:1027E00010B1012804D07047034B1B6C5B0701D16B
:1027F000FFF794BF704700BFD01E00202DE9F041C5
:10280000012207463649D1E8EF3FC1E8E02F002812
:10281000F9D133B9334934484B60CB608A6005F055
:10282000ACFC7B1E012B2BD8012F07D14FF050237E
:10283000D3F81C3403F00303022B21D006F027FE4B
:102840000546F8B9294B1B78E3B14FF0502302221B
:102850000646C3F808234FF05024DFF89480D4F8DC
:102860001824D4F81834D20315D503F00303022B2F
:1028700001D0012F0FD16DB386F31188BFF36F8F95
:10288000BDE8F081EFF31186202383F31288BFF3B4
:102890006F8F0125DFE7C5B1304605F081FDD4F823
:1028A0001835DBB2012BDAD1D4F80421002AD6D0B6
:1028B0000022C4F80421D4F804210222C4F8182507
:1028C0002022C8F88021A360C9E70021212002F05E
:1028D000F7FFE4E74FF050230222C3F80423CFE7C9
:1028E000CC1E0020BC1E0020EC1E0020E422002094
:1028F00000E100E008B5074806F028FD38B10648B9
:10290000FFF75AFE0448FFF723F9002008BD6FF0D7
:102910001200FBE70C9700001D2900000A2838B5BB
:102920000446074D04D1AB680D2128465B689847E3
:10293000AB6803485B68E1B29847204638BD00BFEA
:102940000C970000004870474C9D00002DE9F74FA0
:1029500043680F1E05461646D3F818A076DBBB1851
:10296000534573D847EA0209C9F30B09B9F1000FBF
:102970006CD105F0DBFE4946284605F010FE4FF00D
:10298000FF3B0446002E5AD10121284605F007FEE0
:10299000002C08BF0446284605F042FE204603B03E
:1029A000BDE8F08F2346802206212846CDE9004469
:1029B00005F0AEFDB2450FD123468022C72128463F
:1029C000CDE9004405F0A4FD264640F267620023ED
:1029D000284605F03FFED5E72146A0461D4B5A7814
:1029E00082B10BFA02F037EA00000BD101209040CF
:1029F000B04207D8B8F1000F1CD098F801009042FF
:102A000038BF98460131042903F10203E7D1B8F138
:102A1000000F11D03B46812298F800102846CDE9DE
:102A2000009905F075FD012398F8012093401F449B
:102A3000F61ACAE79846E5E76FF01504C5E7002CDB
:102A4000B0D00121284605F0AAFDA4E76FF01504D7
:102A5000A4E700BFDBA10000024B0B600123136061
:102A6000704700BF3C1F002000487047689D000071
:102A700010B501220648114606F0FDFC06F0F5FBF4
:102A8000044C206006F0EEFB6060002010BD00BF2B
:102A9000441F00203C1F002070B50C46154606F070
:102AA000E1FB29460646204605F085FF08B3B4FB46
:102AB000F6F306FB1343E3B9B5FBF6F306FB13533A
:102AC000BBB9AE4201D9002070BD4FF0FF324FF0CC
:102AD000FF33094802F000FC06F0C4FB064620461E
:102AE00001F0F6FEAD1B3444F9D1034802F0D0FBEF
:102AF000E9E76FF01500E7E7441F0020F8B50E4640
:102B00001946304617461C4605F055FF08B344EAFF
:102B1000060515F003051CD1A4B14FF0FF324FF0AC
:102B2000FF330D4802F0D8FB24F00304A54206EB66
:102B3000050009D1094AD2F80034DB07FBD5064865
:102B400002F0A6FB0020F8BD795901F0DFFE043544
:102B5000ECE76FF01500F6E7441F002000900350EB
:102B600038B545682B69B3B11035284601F08CFDA6
:102B7000044680B90146284601F054FD084B9842AE
:102B80000BD122462846074901F034FD2246012197
:102B90000D20FFF781FC002038BD6FF00400FBE73B
:102BA0000000AD0BA92B0000430970B507D10B4BFA
:102BB000596821B101250C68094E854001B970BDE5
:102BC0008A682A4002D030464B6898471CB1236877
:102BD00021461C46F2E72346FAE700BF541F0020B7
:102BE000E49600002DE9F04340F206354668D00631
:102BF00048BF0320337B02EA050558BFC2F34010EB
:102C000087B001F01F07B5F5837F144647EA4317E5
:102C10008DF8030041D00FD8062D18D007D8B5B1D4
:102C2000022D3CD06FF0150007B0BDE8F083B5F57C
:102C3000807FF7D101250AE040F20222954230D090
:102C4000B5F5407F2FD0B5F5007FEBD102252203EB
:102C50002BD5012372688B409360326962BB07F009
:102C60001F037F0975D13D4A84F4803102EB830252
:102C7000D2F80032C1F30041C4F3404423F4E163CD
:102C800044EA410423F007031C4344EA800444EA75
:102C90000524C2F800420020C6E70725D7E704252F
:102CA000D5E70525D3E70325D1E7630341BF01231A
:102CB00072688B40D360D0E71036394630460DF14C
:102CC000020201F09DFC14F4403F80460CD13946CD
:102CD000304606F0BDFA224B9845DCD130469DF8CF
:102CE000021001F0DBFCD6E74FF0000901AB3946DA
:102CF000304603AACDE90439CDE90199CDF80C900D
:102D000001F052FB164B98428CD114F4003315D0CD
:102D10009DF8033084F48034C4F300448DF80E3001
:102D200039464B46304603AA8DF80C508DF80D40BD
:102D300001F0E8FB0A4B9842CDD073E7CDE90433AC
:102D400039460DF10303304603AA039301F02CFB2F
:102D5000F0E7803352F82330FFDE00BF00258450B7
:102D60000000AD0BF0B5406801F01F04057B87B093
:102D700044EA45140569002D5FD0B2F5001F00F14B
:102D8000100506D12146284606F064FA002007B057
:102D9000F0BD0027B2F5800F01AE0197776037D103
:102DA000B3F1007F14BF052304238DF80430002302
:102DB000CDE904630393836823FA01F111F0010163
:102DC00018D1B2F1A07F15D104F01F03620903F1FD
:102DD000800338D11D4A52F82330DB070AD40DF1A5
:102DE000030632462146284601F00AFC184B984259
:102DF00019D002962146284603AA01F0D5FA154BB0
:102E000098421DD101222146284601F053FCBDE71E
:102E1000B3F1C06F05D0B3F1007F14BF01230223CB
:102E2000C3E70323C1E73146284601F03DFC094BC7
:102E30009842DED06FF00B00A9E76FF08500A6E79F
:102E40006FF01500A3E751F82330FFDE0025845012
:102E50000400AD0B0000AD0B2DE9F04F002640F251
:102E6000FF17DFF814C1DFF814E1DFF81481F3B2C3
:102E7000994202D80020BDE8F08F50F8265015F492
:102E8000804FC5F3C324C5F3080362D16D0CBB4268
:102E900008BF4FF0FF331CF80440062D5CD8DFE874
:102EA00005F0040A114B14454B00C2F80C355D1CAB
:102EB00045D10136DBE7C2F814355D1CF9D0002599
:102EC000AA4612E0C2F80835F1E75D1CC2F80835E1
:102ED000EFD000255FEA531941D14FF0010ADFF826
:102EE0009C900AFA03FBC9F80CB050F826B00BF41A
:102EF0000049B9F1000F1CBF4FF0000A012503F093
:102F00001F095B0931D10EEB8909D9F80032CBF3E7
:102F1000412B240244EA8B0403EA0803234343EAD7
:102F20000A0343EA4503C9F80032C2E75D1CC2F850
:102F30000C35BED00125CDE7C2F81035BDE75D09DF
:102F400010D10125DFF8349005FA03FAC9F808A07A
:102F5000B6E76FF015008EE76FF085008BE7002372
:102F6000DB60FFDE00239B60FBE7002309F18009A3
:102F700053F82930F5E700BF06A200000025845071
:102F8000F0F8FCFF2DE9F7434FF0000847680569AA
:102F90003C680646C4F800852860D7F80C90414686
:102FA000484601AA05F0DAFD00283CDB019BD9F870
:102FB000002019791868FFF74FFF002833DB6B7A80
:102FC0003169012B03D0032B2BD14FF01008AB7AC2
:102FD000032B26D195F80BC0BCF1000F02D0BCF139
:102FE000010F1ED12A7A12B1022A1AD10E226B6861
:102FF0007068B3F5164F006800F0B28034D8B3F5AE
:10300000165F00F0B0801AD8B3F5966F00F0AD806F
:103010000CD8B3F5967F00F0AB80B3F5167F00F0C7
:10302000AA806FF0850003B0BDE8F083B3F5166F9A
:1030300000F0A480B3F5965FF3D15C4B43E0B3F5A9
:10304000E14F00F09E8008D8B3F5615F00F09B80EF
:10305000B3F5964FE5D1564B35E047F6122E734542
:10306000DFD14FF400032EE0B3F5613F00F08D8017
:1030700015D8B3F5963F00F08B800AD84DF6C02ED8
:10308000734500F08780B3F5614FCAD14FF46B03ED
:1030900019E0B3F5E13FC4D14FF0EB7313E0B3F5A2
:1030A000612F7AD009D8DFF80CE1734578D0B3F5F9
:1030B000E12FB6D14FF0E86305E0DFF8FCE073459F
:1030C000AFD14FF08053C0F82435736848EA0C083C
:1030D0001B6842EA0802C3F86C250B1DD5E9010103
:1030E00083E803007B68990712D505F1180001F009
:1030F00059F8324B984256D1287E04F10C0204F55F
:10310000907105F0EBFF01202B7E984000F096FFB8
:103110000823C4F800353B7A53B9C4F81031D4F809
:1031200010316B69C4F834350123C4F83835236095
:103130007B6800209A075CBF4FF48073C4F80433A7
:103140007B68DB0644BF4FF48003C4F804332B696B
:10315000C4F844350123C4F84805A360E36062E77E
:103160004FF41D03AFE7164BADE74FF49E23AAE7DC
:103170004FF4A033A7E74FF41C33A4E74FF41D230B
:10318000A1E7104B9FE7104B9DE74FF06C739AE758
:103190000E4B98E74FF4650395E74FF0706392E7A5
:1031A0004FF080638FE76FF004003CE700B013003E
:1031B00000A04E0090D0030040420F000000AD0B75
:1031C0000050270000C0750000F03A0000903A015E
:1031D0002DE9F04104460D46076906F058F94FF015
:1031E0002008B0B92C4B1B789BB16426606805F0B1
:1031F000E3FCF0B9012005F06FFF013EF6D100219C
:10320000212002F05DFBF0E786F31188BFF36F8F9A
:10321000F5E7EFF31186314688F31288BFF36F8F1D
:10322000606805F0C9FC80B986F31188BFF36F8F21
:10323000EFE7EFF31186314688F31288BFF36F8F03
:10324000606805F0B9FC0028DED03B691D7062683B
:1032500038691368C3F844050120C3F84805002005
:10326000C3F82001D3F82051C3F858015268D3F8AD
:103270005801D20608D5082062681268C2F8000515
:103280004FF48002C3F8042301229A6081F311886D
:10329000BFF36F8FBDE8F081E42200202DE9FF41EC
:1032A00005690646D0F80480A86C2B6D002835D13E
:1032B000002B53D0B8F830406A6C9C4228BF1C46A3
:1032C000EF6CEB6C53B1296D41B107F06041B1F186
:1032D000005F03D0202C28BF20246F6E00926A6C00
:1032E000AC651AB1AA6C002A18BF2246CDE90127A5
:1032F0001BB12B6D002B18BF2346002269464046A8
:10330000039301F0BBFC184B984229D06FF00401E5
:10331000304604B0BDE8F04105F084BD696CEF6C47
:103320000A46B8F83040ABB1834228BF03469C42FE
:1033300028BF1C460029C4D001F06043B3F1005FF0
:10334000BFD0202C28BF2024286E224605F047F845
:103350002A6EB6E7844228BF0446EBE71946D7E752
:1033600004B0BDE8F08100BF0000AD0B2DE9F04FC7
:10337000984643688DB001938B880F4699040546A3
:103380009146046900F10E814FF0FF324FF0FF3398
:1033900004F1100001F0A0FF6760D5F804B0D5F883
:1033A00010A0DBF8083003939AF85D301BB1DAF80F
:1033B00000309F427AD0B7F804E01EF4006F40F06E
:1033C0001E811EF0090F40F01781CEF34513082B24
:1033D00040F012813B680293029AA04B9A4240F25D
:1033E0000B8104AE0BF10C0CBCE80F000FC69CE87F
:1033F0000F0086E80F00DDE902329A4228BF1A4624
:10340000974B9A4215D2974B9A4200F2D480964B32
:103410009A4200F2D280954B9A4200F2D080944BAF
:103420009A4200F2CE809348934B9449824288BFDF
:103430000B461EF0020F09930EF0040300F0C38048
:10344000002B14BF032302238DF82830CEF3001382
:103450008DF82930DBF800301EF0020FD3F8082574
:1034600087484FF00103CEF340014FEA521640F077
:10347000AE80002E40F0ED809340C3609AF85D303E
:103480002BB1584601F0BEFB00238AF85D302B4675
:1034900058467C4A04A901F081FB7B4B984240F0DE
:1034A0009B800123CAF800708AF85D30012384F8FC
:1034B0005C30019B996B4A1C03D003F13C0000F087
:1034C0001DF9B9F1000F40F09D80C4F8349000233D
:1034D000A36304F1480204F1380104F1340005F05B
:1034E000D5FB6064B8F1000F40F09580C4F83C80D3
:1034F0000023236404F1500204F1400104F13C0074
:1035000005F0C4FB002601213246E0642663204614
:1035100005F0E3FB2846FFF7C1FE32463346A06BB9
:10352000834240F0818000231946266CB14240F06E
:103530008280934238BF134627464FF4FA524FF029
:10354000000802FB03F657F8203B4FF4004C1B68C1
:103550004146B6FBF3F640F2E730C8364FF47A72D4
:103560000023E6FB0C01FCF7EDFD02460B46384656
:1035700001F0B2FE024618B9266B16F1740F61D144
:103580000198C4F8588001F03DFB6FF073012846A4
:1035900084F85D8005F046FC384601F0C3FE6FF00C
:1035A00073061BE0A369002B7FF4EEAE63689F42B5
:1035B0007FF4EAAEF1E6354B3BE7354B39E7354B67
:1035C00037E7354B35E7003B18BF01233CE7002EBA
:1035D00041D19340836051E76FF0040623689B88D4
:1035E00013F4005304D1636004F1100001F050FEA5
:1035F00030460DB0BDE8F08F6FF01506EEE76FF0C6
:103600008506EBE7D9F800306363002B3FF45FAF2A
:10361000D9F804305CE7D8F80030E363002B3FF4BE
:1036200067AFD8F8043064E7616B01EBC301496808
:1036300001330A4474E7E06B00EBC10040680131DC
:10364000034473E7002EC9D00146286905F045FB05
:10365000C4E7C960FFDE00239B60FBE747E8010089
:1036600000127A00FF083D007F841E003F420F00D9
:103670001FA107008FD0030048E8010090D003008D
:1036800000258450478E00000000AD0B00093D006E
:1036900080841E0040420F0020A107000123F0B5E6
:1036A00087B08DF80230022300248DF804306B447B
:1036B00003930F4601AB0DF10301049305460291FC
:1036C000059400F0F1FF0C4B064698420FD13946A5
:1036D000284603AA00F068FEB0420BD028469DF8A9
:1036E000031000F0DBFF6FF0040007B0F0BD6FF0D7
:1036F0001200FAE72046F8E70000AD0B2DE9F04193
:103700000D46064605F0A8FD00220746294630462C
:1037100000F0D0FF6B0905F01F0429D1174B03EB14
:103720008404D4F80022164B134043F00C03C4F871
:10373000003205F0EDFB80463368DB597BB1002792
:103740003046294605F086FDD4F800220C4B384659
:10375000134043F00403C4F80032BDE8F08105F0E3
:10376000D7FBA0EB08000628E6D96FF07307E7E760
:103770000023803453F82430FFDE00BF002584503E
:10378000F0F8FCFF0123834070B5DC430B4AD2E81C
:10379000EF1F01EA0405C2E8E65F002EF7D14FF4FF
:1037A000803282400648C0F80823BFF35F8FBFF322
:1037B0006F8F0B4214BF0120002070BD641F0020DA
:1037C0000050015070B40E4922F07F46D1E9003418
:1037D000D01AC31844F10004C1E90034A6F500135F
:1037E000B3F5400F09D2074B1B681A0A1B069C1938
:1037F000054B42F10005C3E9004570BC02F0E4B995
:1038000020020020681F002028020020D9B10123D7
:103810000D4A8340D2E8EFCF4CEA030CC2E8E1CF77
:103820000029F7D14FF48033084A8340C2F80433AB
:10383000074BD3E8AF3FC340DB0742BF4FF4001252
:10384000044BC3F800217047641F00200050015052
:10385000601F002000E100E00D4B1868010A00061F
:10386000BFF35F8F0B4BD3F80435181841F10001FB
:10387000B3F5801F0AD2084BD3E90023904271EBC5
:10388000030303D210F1807041F10001704700BFC3
:10389000681F002000500150280200202DE9F04F41
:1038A00085B016461F4604469DF840A0FFF76AFF04
:1038B0000190FFF7D1FFB04271EB070352D23B4BAF
:1038C000301A67EB0101984271F100014DD2384B7B
:1038D00003EB0413D3E902239F4208BF964258D05A
:1038E0004FF48038334908FA04F8204626F07F4B1D
:1038F000C1F8488305F000FB4FF00309584604F176
:103900005005AD00ADB205F1502504F5A87305F5DD
:1039100080350293029A20F07F4341F82230C1F8AB
:103920004483D1F80435244AC01A033820F07F407C
:1039300090422ED9286868B1D1F80435A3EB0B006A
:1039400020F07F40B0F5000F039322D9204605F008
:10395000D3FA039BBAF1000F07D109EB030009F179
:103960000109D7E7BAF1000F09D06FF0150520461D
:103970000199FFF74BFF284605B0BDE8F08F012302
:103980000E4AA340D2E8EF0F1843C2E8E10F002926
:10399000F8D107490E982301C8500F9B01EB041280
:1039A0000025C2E902675360E1E700BF0100800023
:1039B0001002002000500150FDFF7F00601F00201A
:1039C0007FB500254FF0FF304FF0FF31194C1A4BF7
:1039D0000226C4F80833C4F84833184BC4F8085515
:1039E000C3E902014FF480334FF40012C4F80433EA
:1039F000134B0121C4F804631520C3F880212A4623
:103A0000FEF74AFD1520FEF717FD01230D4AA360BE
:103A1000236013600C4B0D4A009328460023CDE928
:103A20000155FFF73BFF3046FEF7E8FE284604B09D
:103A300070BD00BF0050015003000F0010020020B5
:103A400000E100E0641F0020C5370000FFFF7F0099
:103A50002DE9F7432E4BD3F8042390070BD5D3F869
:103A6000042142B10022C3F804212A4AD3F80431C8
:103A7000136801331360264AD2F80433D90326D5DC
:103A8000254BD3E8EF1F21F00100C3E8E40F002C21
:103A9000F7D1CB0702D4D2F84031C3B100251C4C7A
:103AA000C4F84051D4F84031FFF7D6FEEFF311824D
:103AB000202383F31288BFF36F8F184BD3E902677B
:103AC000B042B94106D282F31188BFF36F8F03B0C1
:103AD000BDE8F0834FF0FF38D3E900104FF0FF3915
:103AE0001D60C3E902894FF48033C4F84833C4F839
:103AF0004051D4F8403182F31188BFF36F8F002911
:103B0000E5D0009032463B4628468847DFE700BFB5
:103B100000500150681F0020601F0020100200208C
:103B200030B5431C124C85B005D08442A8BF044672
:103B3000012CB8BF0124FFF78FFE0E4B0C4DD3E9CB
:103B40000013401AB0F5000F0FD22218AA4228BF66
:103B50002A46002052180849CDE90100009143F19E
:103B60000003FFF79BFE05B030BD2A46F1E700BF1A
:103B7000FFFF7F0020020020C537000008B5FFF7D7
:103B80006BFE024B1B68C01A08BD00BF200200205C
:103B9000012310B5074C15206360FEF75BFC4FF462
:103BA0000012054BC4F80833C4F84833034BC3F87C
:103BB000802110BD0050015003000F0000E100E023
:103BC00040EA0103C3F30E0330B58BB940F215157B
:103BD000094CC90BC0F3C730994201D1002030BD58
:103BE000C218D2B202F5C07244F822500133F3E792
:103BF0006FF01500F3E700BF0030005030B581686A
:103C000085B0103921F00704054604F072FB10223C
:103C10000146684604F0EEFB10226846064904F0AF
:103C2000DEFB10236A462146284604F032FB0038AA
:103C300018BF012005B030BD489F000030B50D46CB
:103C4000816887B0102302AA1039044604F00CFBE7
:103C5000002802DA012007B030BD1022204602A958
:103C600005F079F900283AD110221E4902A804F083
:103C7000A6FB00280CBF012302232B70204605F071
:103C800056F9012301460DF10702204604F0ECFA33
:103C90000028DFDB9DF80730204603F00F021B09E8
:103CA0006A702B7101220DF1070105F054F910B96A
:103CB0006B78042B03D901236B7000232B71A2684E
:103CC0002046183A22F00702083AA91C05F056F9D6
:103CD0000028BFD12046E91C05F0A9F9BBE7032362
:103CE000CBE700BF489F00007FB5264D44006946E2
:103CF00055F8240005F0A1F9002835D1013455F814
:103D0000240002A905F099F901282BD103238DF88D
:103D100008308DF80B3000249DF800509DF80860A5
:103D2000194A2946107805F008F918B33146507839
:103D300005F003F9F0B19378042B03D09DF803103C
:103D4000994217D1D378042B03D09DF80B109942D8
:103D500010D11379042B09D15079831E022B03D87B
:103D600004B070BD0028D6D0FF20F9E79DF80210FE
:103D70009942F1D00134032C02F10602D1D1012085
:103D8000EEE700BF849E00002BA2000008B5EFF311
:103D90001083012B0C4A07D1126ABFF34F8F511CBD
:103DA0004A424A41104608BD05F074F900B172B6A6
:103DB000126ABFF34F8F531C5A425A4105F06AF9F9
:103DC0000028EFD062B6EDE70080FF0008B5EFF302
:103DD0001083012B0B4A06D1D269BFF34F8F02F03B
:103DE0000102104608BD05F055F900B172B6D2695E
:103DF000BFF34F8F02F0010205F04CF90028F0D01C
:103E000062B6EEE70080FF0010B505F043F930B16F
:103E10004FF050230022C3F81421C3F8182105F0F5
:103E200048F928B101225F4BC3F8382AC3F8782536
:103E30004FF47F02D2F83031D2F83421BFF34F8FE4
:103E4000C3F30B03092B05D1012A1EBF0122554BD9
:103E5000C3F8782505F02DF918B10E22524BC3F89E
:103E6000E42E05F017F930B100224E4BC3F80C27B1
:103E70000122C3F810270022D30003F57F03D3F8F3
:103E80000013BFF34F8F013108D0D3F80013013274
:103E9000D3F80433B2F5807F0B60EDD1EFF31084DB
:103EA000FFF794FF00284DD0BFF34F8F3F4BD3F85F
:103EB0000024012AFBD1C3F80425D3F80024012AE9
:103EC000FBD1012C03D005F0E5F800B172B6FFF785
:103ED0007DFF58B1364AD36923F00103D361BFF3A4
:103EE0004F8F324AD2F80034012BFBD1FFF74EFF3F
:103EF00068B12F4A136A23F0FF0343F020031362D3
:103F0000BFF34F8F294AD2F80034012BFBD1012C8B
:103F100003D005F0BFF800B162B60022234BC3F80E
:103F20000425D3F80024012AFBD1BFF34F8F214988
:103F3000214BCA6802F4E0621343CB60BFF34F8F9A
:103F400000BFFDE7FFF722FF0028ADD1194AD2F8E4
:103F50008C3043F44063C2F88C304FF47F03D3F8C5
:103F60003021D3F83431BFF34F8FC2F30B02092A4B
:103F700016D1013B022B02D8104AD35C83B10C4806
:103F80000F490368094A8B420CBF5A230023C2F829
:103F9000103EC36A8B420CBF5A230023C2F8003E76
:103FA00010BD00BF0040005000A00350009003501F
:103FB0000080FF0000ED00E00400FA053DA20000D3
:103FC000FA50FA5030B50468ACB1B4FA84F3012267
:103FD000C3F11F03DBB29A4024EA0202D0E8EF5F8C
:103FE000A54204D1C0E8EC2FBCF1000FF6D1EAD114
:103FF00002480B7030BD0248FCE700BF0000AD0B6B
:104000000200AD0B10B50368CB40DB0710D40123D1
:104010008B40026843EA0201D0E8EF4F944204D19A
:10402000C0E8EC1FBCF1000FF6D1F2D1014810BD81
:104030000148FCE70000AD0B0400AD0B014BC3F8D9
:104040000405704700700150044B1A7922B901220F
:1040500018601A7102487047024870476C1F0020B0
:104060000000AD0B0C00AD0B08B5084B1B6833B15D
:104070000520FEF703FA10B90520FEF7DDF94FF031
:1040800050230122C3F8182508BD00BF6C1F002073
:1040900010B510B1012847D010BD4FF05023D3F810
:1040A0001814D3F81824C90322D502F00303022BF5
:1040B00005D0012B02D0002005F017F801234FF0A6
:1040C00050220220C2F8183508224FF482730021D2
:1040D00003F1502319601C68012402F1502214607E
:1040E000164A126822B34FF05023C3F80403D3E7F3
:1040F000D3F81424D207E1D5D3F81C2402F003022C
:10410000013A012AD7D80D4A12681AB10222C3F81F
:104110000423C1E7D3F80421002AFBD00022C3F80E
:104120000421D3F80431B7E700224FF48073CEE7BF
:104130001A68002AFCD019601B68ADE76C1F0020CC
:104140004FF0502310B5D3F8002152B10020C3F82E
:104150000001D3F800210122C3F80823104B1B688B
:1041600098474FF05023D3F8042182B10022C3F8BE
:104170000421D3F80421D3F81824D3F818240221F9
:1041800002F00302012A03D1C3F818159A6010BD8A
:10419000C3F80813024B0120BDE810401B68184704
:1041A0006C1F002001460148FFF70CBFDC00002017
:1041B000036803F01F025B090260024818BF002079
:1041C000704700BF0025845070B50D4C00F1080306
:1041D00034F813300546DA050E4607D5C3F34323FA
:1041E00004EBC302526854F833309847A3682BB1EC
:1041F00031462846E268BDE87040184770BD00BFF0
:10420000E0000020024611F0010004D003490B6ACF
:1042100013600B6203B90020704700BF0025845073
:1042200010B4124AC0B2083032F81030D9051BD58C
:10423000C3F3432123F4F85322F81030002002F195
:104240000E0434F8023F13F4807F03D0C3F34323FA
:10425000994209D001302028F3D1002342F83130AF
:10426000034810BCFFF7CEBE10BC7047E000002032
:1042700038010020F0B50546002001260446074617
:104280008C420BD1114BD3F87C2132B10022C3F800
:104290007C21D3F87C3140F00040F0BDE3B29B00BC
:1042A00003F580729B0806FA03F31D420BD002F15E
:1042B000A04202F55042D2F800C0BCF1000F02D07B
:1042C0001760126818430134DAE700BF00D00050CD
:1042D000064BC0B2083033F81000830643BF400BD2
:1042E000800000F580704FF4BE707047E000002041
:1042F000CBB2024608460D49083331F8133099060F
:1043000011D599070FD4012110685B0B9940C0F8B3
:104310000813126802EB8303D3F8102522F003027E
:10432000C3F810257047002104F083BFE00000208F
:10433000F7B5194ECDB2083536F815300746DB070C
:104340000C4626D5FFF7D4FF36F815309A0608D567
:104350005A0B3B6803EB82030022C3F81025C3F815
:1043600010252046FFF75CFF002301A826F8153032
:104370000194FFF71DFF019B00EB8300D0F80022A2
:10438000064B134043F00203C0F80032044803B068
:10439000F0BD0448FBE700BFE0000020F0F8FCFFA0
:1043A0000000AD0B0400AD0B2DE9FF41136807467B
:1043B0000C461646FBB1DFF83C81CDB2083538F823
:1043C000152002F02202222A22D000222046CDE926
:1043D00000228DF80E208DF80F200DF10E010DF149
:1043E0000F0204F0DDFE38F8153023F0020343F02D
:1043F000010328F8153073684BB31A785868DFF852
:10440000F4C0E3B208333CF813108D0702D5B0B105
:1044100039481FE021F02001C904C90C2CF8131001
:1044200068B1032AF4D870683D68406890F800E0ED
:1044300005EB8E058AB9C5F81025C5F810253CF89E
:10444000131021F01C0141EA82022CF81320B368FA
:104450002BBB2A4804B0BDE8F081D5F8108541EAAD
:104460004E3128F00308C5F810853D6841F0200161
:1044700005EB8E05D5F810052CF8131020F4473005
:1044800020F44070C5F810052002D5F8107500F42E
:10449000F85040EA02403843C5F81005CFE72046FF
:1044A000D3E90067FFF7BCFE002ED2D0114DD5E94D
:1044B0000023964203D19F4201D1002209E0104817
:1044C0000DF10F01FFF77EFD0C4B9842C2D19DF814
:1044D0000F20E4B205EBC20308345F6035F81430F6
:1044E00045F8326043EA422343F4807325F81430E0
:1044F000AFE700BFE00000200400AD0B0000AD0BF3
:10450000380100202DE9FF4107460C461E4612B334
:10451000DFF8D480CDB2083538F81530980701D4CB
:10452000990621D413F01C0F02D05378012B1BD015
:1045300001238DF80F3000232046CDE900230DF133
:104540000F01931C013204F02BFE38F8153043F0B4
:10455000030328F81530002E44D0234DE1B2083172
:1045600035F81120930703D4204804B0BDE8F0814A
:10457000002096F800E03B6822F02002D20403EB12
:104580008E03D20CC3F8100525F81120C3F81005CE
:1045900096F801C04FEA8E08BCF1000F22D03868AF
:1045A000B6784044D0F810354FEA0C4C23F49813F9
:1045B00023F4F853C0F81035230203F4F8530CF435
:1045C000403C3605D0F8107543EA0C0306F480161B
:1045D000334342EA4E323B4342F02002C0F81035EA
:1045E00025F811200248C0E7E00000200400AD0BD0
:1045F0000000AD0B014BC3E902127047E000002040
:10460000054BC9B2083133F81130990643BF5B0B33
:104610000248137002487047E00000200000AD0B14
:104620000400AD0B70B5154D064695F860401CBBF7
:104630002146402205F1100003F0DCFE21463068DF
:104640002E6D8E420ED10023C0F87C31D0F87C3123
:1046500040F30730FDF7F0FE0123094885F860308C
:10466000AB6570BDCBB29B0003F580727C2B04BFA1
:10467000845083580131E4E70248F2E7E00000206B
:104680000000AD0B0C00AD0B034B93F8600000383D
:1046900018BF0120704700BFE00000200148FFF76D
:1046A000B1BC00BF340100200148FFF78BBC00BF44
:1046B0003401002073B503680C46D3F804130029B5
:1046C000A4BF4FF00041C3F804131E49E3B20833FE
:1046D00031F8133099061AD513F0020617D15B0B87
:1046E00005689C0004F580716E506958016821448A
:1046F000D1F8104544F00104C1F810452AB1012257
:10470000016802FA03F3C1F8043302B070BDC3F3C9
:104710008203042B11D0052B11D001A80194FFF7BF
:1047200047FD019A0369D34003F00103991C204619
:1047300002B0BDE8704004F07CBD0321F7E7022120
:10474000F5E700BFE00000202DE9F347534B544F3D
:10475000D3F80403396DC0B240F00040FFF78AFD82
:10476000051E18DA00236846F96D00934FF0010822
:10477000FFF748FD97F85C30DA0757D4396D4FF0F2
:104780000040FFF777FD6846F96DFFF73BFD002815
:10479000F0D125F000450124002D66D102B0BDE81E
:1047A000F08794FAA4F4B4FA84F4E00804F108035E
:1047B00037F8139004F007021DF8003008FA02F2EF
:1047C00023EA02030DF8003001A80194FFF7F0FC82
:1047D000019B4FEA9901803350F82360C9F3820AA4
:1047E0004B07D146C6F3014624D520465146FFF774
:1047F000EBFC01A80194FFF7DBFC019BF6B28033D0
:1048000050F82330C3F301439E4207D100212046D4
:1048100004F00FFD3146204604F00BFD01A8019481
:10482000FFF7C6FC019B08FA03F30362009C002C0F
:10483000B7D1A3E7022E0CD10321204604F0F9FCE6
:104840000AF00503012BE9D149462046FFF7BCFCDD
:10485000E4E70221204604F0ECFCBAF1030FF3D0A8
:10486000032EDBD1BAF1020FEDE795FAA5F3B3FA07
:1048700083F304FA03F29B0003F1A04303F55043D2
:10488000D3F81005D3F81015C0F30420C1F301418B
:1048900025EA0205FFF798FC7EE700BF00D0005034
:1048A000E00000200022034BC3F88425C3F8042550
:1048B000704700BF00900350044AD2F80834DB0769
:1048C000FBD50160BFF35F8F704700BF00900350BE
:1048D00008B5C0F30B0383B90222094BC3F8842542
:1048E000C3F804254FF0FF320260D3F80024D2074A
:1048F000FBD5FFF7D7FF034808BD0348FCE700BF1F
:10490000009003500000AD0B0A00AD0B012208B56A
:10491000054BC3F88425C3F80425FFF7CDFFBDE898
:104920000840FFF7BFBF00BF00900350430904D108
:104930000123034A83409360704700239B60FFDE9E
:10494000002584500C4B984213D00AD80B4B984248
:104950000FD00B4B98420CD00A4BC31A5842584107
:104960007047094B984204D0084B984201D0084B3D
:10497000F3E70120704700BF40420F0090D00300D2
:1049800020A1070048E8010000093D0000127A005C
:1049900080841E00431C14D000F01F0340090BD17B
:1049A000084A02EB8302D2F80012074B0B4043F097
:1049B0000203C2F8003270470022803352F82330DD
:1049C000FFDE704700258450F0F8FCFF430904D156
:1049D0000123034A8340D36070470023DB60FFDE7E
:1049E0000025845038B51446421C054616D00129CE
:1049F00002D1A3B1FFF79AFF05F01F036D0911D192
:104A00000B4A41EA840402EB8303D3F80002094A0B
:104A10000240144344EA4101C3F8001238BDFFF7D5
:104A2000D5FFE9E70022803352F82330FFDE00BFD4
:104A300000258450F0F8FCFF2DE9F843504B4D69F8
:104A400006469D420C4690F8049000F0848077D88A
:104A50004C4B9D4200F082804B4B9D4200F0818088
:104A60004A4B9D420CBF4FF000754FF08045242209
:104A7000DFF81C81E07E02FB0983997F60F300016F
:104A800099773379217C02FB03839A7F61F341029A
:104A90009A77E77EEFB9237E3A46012B94BF002335
:104AA000012301212068FFF79DFF3B463A46012183
:104AB0006068FFF797FF3B463946A27EA068FFF784
:104AC00091FF237C3A460121E06883F00103FFF760
:104AD00089FF242303FB0983E2681A62217C9A7F01
:104AE00061F341029A77277FA07C217E637E326842
:104AF00047B9D4E900C7A468C2F808C5C2F80C7564
:104B0000C2F81045003B18BF01230229C2F8C005B6
:104B1000C2F824552BD003292CD0012901D143F010
:104B20000203C2F8543524223379534358F8033032
:104B30001BB33068BDE8F84340F30730FDF77CBC99
:104B4000144B9D4210D0144B9D420CBF4FF00045BA
:104B50004FF080458BE74FF0805588E74FF0806538
:104B600085E74FF0006582E74FF000557FE743F09F
:104B70000403D6E743F00603D3E7BDE8F88300BF9C
:104B800040420F0090D0030020A1070048E8010038
:104B9000741F002080841E0000127A002DE9F84363
:104BA0000746242597F80480124C05FB08F504EB12
:104BB00005091E4699F81C30C3B999B14869FFF739
:104BC000C1FEA8B138466251C9F80460FFF734FF4E
:104BD000242303FB0844002363770123064823773B
:104BE000BDE8F8836251C9F80460F1E70348F7E7CC
:104BF0000348F5E7741F00200000AD0B0C00AD0B5F
:104C00000400AD0B2DE9F041044606790068194D0A
:104C100040F30730FDF71EFC24237343EB5853B1D8
:104C20002368154A06EBC601C3F80823206805EB84
:104C3000810104F070FB2368242404FB0654D3F89C
:104C40000805D3F80C75D3F81085A37FDB070AD4C9
:104C5000FFF7A0FE4046FFF79DFE3846FFF79AFE9D
:104C6000206AFFF797FE242303FB065500232B77CA
:104C7000BDE8F081741F00205201080024232DE9B3
:104C8000F0430779534D7B439046EA180E46517F17
:104C9000814685B0002940F09B80EB5823B118F085
:104CA000140F04BF01235377242496E80F0004FB5C
:104CB000075404F10C0C8CE80F00206A421C04D04D
:104CC000A37F9B071AD5FFF731FE3368D9F8004060
:104CD00023B103F06043B3F1005F06D1B36883B141
:104CE00003F06043B3F1005F0BD02423002203FBE9
:104CF000075339485A7705B0BDE8F083FFF766FEE1
:104D0000E3E718F0010318BF0123C4F8503518F089
:104D1000020318BF0123EC46C4F8403596E80F00A3
:104D20008CE80F00039BC4F84405C4F84815C4F888
:104D30003425C4F838350023C4F81831D4F81831B4
:104D40000723C4F8003524237B4318F0080F05EB34
:104D500003021DD10121E858216158B9D4F8183156
:104D6000002BFBD062464021204604F096FA242313
:104D70007B43EA18EB5813BB106A461C13D107EBB0
:104D8000C707204605EB870104F0C5FA1348B2E7D0
:104D9000EB58A3B9106A411CF8D0937F9A070BD542
:104DA000FFF714FEF2E7937F9B0702D5FFF70EFE95
:104DB000E5E7FFF7BBFDE2E7FFF7B8FDE6E74023D5
:104DC00018F0040F14BFC4F80833C4F80433DDE747
:104DD000034890E7741F00200A00AD0B0000AD0BE4
:104DE0000B00AD0B10B540210F4A104804F055FAE6
:104DF000C8B10F4C206A421C04D0A37F9B070FD57B
:104E0000FFF7E4FD637F1BB10949084804F083FA0A
:104E1000002323720748D4E90031BDE81040184749
:104E2000FFF784FDEEE710BD801F002000A00050BA
:104E3000741F00207C1F002038B5EFF3118520235C
:104E400083F31288BFF36F8F064B9C6804F091FACE
:104E500085F31188BFF36F8F2046BDE83840FDF71A
:104E600073BA00BF981F002038B5094B53F8204093
:104E7000013053F82050A54200D838BD636823B1F3
:104E8000204604F079FA0834F5E723689847FAE7F2
:104E90008C9E0000012270B5294B032086B01A7049
:104EA000FFF7E2FF04F0DBFB0420FFF7DDFF254CFA
:104EB000254D2646AE4204F1300410D300F042FCEA
:104EC000204C224EAC4226D300F050FCFBF7A2FA55
:104ED0001F4A137B23F00103137306B070BD54F80F
:104EE0000C3C059354F8103C049354F8143C039381
:104EF00054F8183C029354F81C3C019354F8203C9D
:104F0000009354E90A2354E90C0100F027FA54F8FD
:104F1000303C5E65CDE7D4E90A23B3F1FF3F08BF1B
:104F2000B2F1FF3F05D052EA0301206803D104F03B
:104F3000B4FA3034C6E73146183000F0CBFDF8E75C
:104F4000E42200206499000064990000A795000005
:104F5000B002002008B50348034A0021121A04F0E9
:104F600023FA08BD10020020E822002000230122BD
:104F700070B586B0CDE904230F220193CDE902324A
:104F800014234FF4A0720E4D0E4E03FB00550E4934
:104F900006EBC016044602FB00110C4B3046009590
:104FA00000F0DCF9737B2C7423F004037373084B5B
:104FB000013403EBC423EE606B6006B070BD00BF2C
:104FC000981F002030020020E82A002043940000AF
:104FD000E8220020BFB50020FFF746FF2A4B03F56B
:104FE000006282F3088883F30A880024E023274DB7
:104FF000274E85F82230EC772C766C76AC7685F8E7
:1050000020406B6A234F43F4E0236B6285F8234012
:10501000FDF732F9FDF7ACFA4FF0FF3340F2011221
:10502000AB62EB621C4B1D4D9A81B360C3E919441E
:105030001C6704F08AF90120FFF716FF0220FFF732
:1050400013FF00F0B3FB164B75610593012315495F
:105050004FF42052CDE9034328463B46CDE90144B5
:10506000009400F07BF906466A7B284622F0040291
:105070006A7304F04EFA2046FFF778FF3A4631464D
:105080002846FDF757FA00BFE822002000ED00E0B7
:10509000981F0020954E000030030020B002002031
:1050A00040A20000282C0020002038B5054C064DF9
:1050B000AC4200D338BD204604F07AF90028F9DB71
:1050C0001C34F5E7BA010020BA01002073B50C4684
:1050D000EFF31181202585F31288BFF36F8FC56828
:1050E0005DB125602B68C360836901338361002053
:1050F00081F31188BFF36F8F11E052EA030603D1E9
:105100006FF00B002560F3E7CDE90023024608307D
:1051100000F064FA18B9034B9B685B69236002B026
:1051200070BD00BF981F00202DE9F34104461746CB
:105130001E46EFF31188202383F31288BFF36F8F8D
:10514000C368334A7BB180689168884219D057EAB6
:10515000060318D188F31188BFF36F8F6FF00F002B
:1051600002B0BDE8F081916891F90E100133E3605F
:1051700093682161A36088F31188BFF36F8F0020CB
:10518000EEE72169F2E791F90E1090F90E306FF019
:105190007E029942A8BF19469142B8BF11468B4280
:1051A0002DDD04F059F9054622464146CDE9007649
:1051B000184800F013FA0028E1D0EFF311862023FD
:1051C00083F31288BFF36F8FA068D0B12368216981
:1051D0009C420AD04BB193F90E309942A8BF1946B0
:1051E0006FF07E039942B8BF194604F035F940B11B
:1051F0003146084800F062FA6FF00A00B0E7002577
:10520000D2E7002DF4D186F31188BFF36F8FF3E757
:10521000981F0020E522002038B58368044663B358
:10522000194A926893422BD1C368012B03D9013BE1
:10523000C360002038BDEFF31185202383F312886B
:10524000BFF36F8F0169806804F006F9204604F00F
:10525000AEF9A06058B190F90E2022610022826759
:1052600004F057F92946094800F028FAE1E7E06020
:1052700085F31188BFF36F8FDBE76FF01500D9E777
:105280004FF0FF30D6E700BF981F0020E522002036
:1052900038B50446EFF31185202383F31288BFF35A
:1052A0006F8F04F084F948B10022826704F031F96D
:1052B0002946BDE83840074800F000BAD4E9023278
:1052C0009A4218BF0133A36085F31188BFF36F8F33
:1052D00038BD00BFE522002013B5EFF31181202473
:1052E00084F31288BFF36F8F846844B1013C8460FB
:1052F00081F31188BFF36F8F002002B010BD52EA16
:10530000030406D181F31188BFF36F8F6FF00F0094
:10531000F3E7CDE900230246014800F05FF9ECE72E
:10532000E522002070B50446EFF31185202383F3B6
:105330001288BFF36F8F6FF00A06204604F037F92A
:1053400018B1866704F0E5F8F7E7A0602946BDE8E4
:105350007040014800F0B2B9E52200202DE9FF417C
:105360000E9E00F1580506730426C0E91655002567
:10537000044646730D9EC0E906558673D61D0C9AE9
:1053800026F00706C0E919168560C573C566029246
:105390000B9A01EB060801920A9A00924246FDF729
:1053A000ADF8054B65659B6803B11B6F40462367ED
:1053B00004B0BDE8F08100BF981F002038B50D4D46
:1053C0002B4653F8184F9C4200D004B9EC68AB68E8
:1053D00038B95A7BD20604D1A26912B9DA897F2A78
:1053E00005D89C4202D0204600F0BCFA23466B61EF
:1053F00038BD00BF981F002008B590F90D20014668
:10540000002A437B04DA03F07F03437304F047F878
:10541000044B9868431A58425841BDE80840FFF7CA
:10542000CDBF00BF981F002070B490F90D30427BB3
:10543000002B29DBD30627D183692BBB134962F0EC
:105440007F0242730A4652F8184F944218BF23460F
:10545000CC6923B9C0E900242060C8610CE090F950
:105460000E5093F90E60B5420AD0AE4208DD5A687C
:10547000C0E9003210605860002070BCFFF79EBF8A
:105480009C42E7D01B68E4E770BC7047981F00207F
:10549000002A2DE9F0410E460CBF10210821427B65
:1054A000044611420FD141EA0203D20918D14373D5
:1054B00008291BD00120FFF781FFBFF35F8F637BBB
:1054C00023F060036373264B9B68A34241D1EFF343
:1054D0000583002B3DD13046BDE8F041FCF74ABFC3
:1054E00003F07F03437303F0DAFFE1E7A36813B12E
:1054F000204603F0DCFF04F1180004F095F84FF0AB
:10550000000804F15807A56DBD4200D0A5B9144D9F
:10551000AB689C42CED1EFF30583002BCAD00120AB
:10552000FFF74CFF40F201120E4B9A810022AB6054
:10553000C3E919221A67C0E7284603F0B8FF05F14E
:10554000180004F071F82846C5F87880FFF76CFF62
:10555000D9E786F31188BFF36F8FBDE8F08100BFF4
:10556000981F00203003002070B590F90D200146EF
:10557000002A437B04DA03F07F03437303F08FFFB9
:10558000154A4B7B104663F07F034B7350F8183F6E
:10559000D469834208BF002323B9C1E90004216014
:1055A000D1610CE091F90E5093F90E60B5420ED026
:1055B000AE420CDD5868C1E9003001605960906866
:1055C000BDE87040431A58425841FFF7F7BE9C426D
:1055D000E3D01B68E0E700BF981F0020F8B5124B2E
:1055E0000C46DDE9067611469868104A1060EFF324
:1055F0001182202282F31288BFF36F8F9D682846A4
:1056000003F05FFFB6F1FF3F08BFB7F1FF3F06D0E1
:105610003A463346064905F1180000F05BFA204689
:10562000BDE8F840FCF7A6BE981F0020B81F002078
:10563000A7950000F8B50446EFF31186202383F305
:105640001288BFF36F8F437B49B2DA0619D185699F
:10565000BDB903F07F03437303F021FF437B164A78
:1056600063F07F0343731346817353F8180F984216
:1056700018BF0546D0695DB9C4E900300460D46143
:1056800011E00020A17386F31188BFF36F8FF8BD7E
:1056900095F90E70B9420BD08F4209DD6B68C4E9F1
:1056A00000531C606C600120FFF788FE0120EAE7D0
:1056B000A842E1D02D68DEE7981F002049B9EFF33A
:1056C000058030B9054B5A699B689A4201D0FCF7B6
:1056D00051BE81F31188BFF36F8F7047981F002070
:1056E00010B5EFF31184202282F31288BFF36F8F7D
:1056F000427B510704D484F31188BFF36F8F10BD30
:1057000022F004024273FFF78FFE2146BDE81040ED
:105710000148FFF7D3BF00BFE5220020034648B988
:10572000EFF3058232B9064A51699268914201D07D
:10573000FCF720BE83F31188BFF36F8F704700BF63
:10574000981F0020EFF31181202383F31288BFF309
:105750006F8F054B9A68D37B013BD37381F311881C
:10576000BFF36F8F704700BF981F002038B5EFF36D
:105770001185202484F31288BFF36F8F0A4B002019
:105780009A68D37B0133D373FFF718FE85F3118832
:10579000BFF36F8FEFF3118084F31288BFF36F8F25
:1057A000BDE83840FFF7BABF981F0020024B03F155
:1057B0001802C3E906227047981F0020F8B5EFF3DE
:1057C0001185202383F31288BFF36F8F19498868EE
:1057D000437B03F07F03437303F061FE08468B684D
:1057E0005A7B62F07F025A7350F8182FCC698242BC
:1057F00008BF002222B9C3E900042360CB610CE09A
:1058000093F90E6092F90E70BE420ED0B7420CDDD5
:105810005168C3E900210B6053600120FFF7CEFD02
:105820002846BDE8F840FCF7A5BDA242E3D01268C7
:10583000E0E700BF981F002050EA01032DE9F04186
:1058400005460E4603D1FFF7B9FF00202BE0831C6D
:1058500071F1FF3329DB03F0FCFE2C18EFF3118804
:10586000202383F31288BFF36F8F124F124BB86857
:105870001860FFF7C1FDB86810492A463346183052
:1058800000F028F9BA684046537B43F01003537385
:10589000FCF770FD03F0DDFE201A63EB0303012823
:1058A00073F10003D1DBBDE8F0816FF00104241A2D
:1058B000D4E700BF981F0020B81F0020A795000064
:1058C000B1F1FF3F08BFB0F1FF3F08B506D10A4B69
:1058D000986803F02DFE4FF0FF3008BDFFF7ACFFD6
:1058E0004FF47A7147F6FF730022C0FB0132D80BE8
:1058F00040EA4240F1E700BF981F0020014B986842
:10590000704700BF981F00200122044BC01A044BAF
:10591000C0105843034B1A54704700BFB003002017
:10592000ABAAAAAAE5220020C3897F2B12D80A4B72
:105930001B6863B1094B90F90E201B689A4209DB82
:10594000437BDB0606D1064BC31A18BF012303F0C5
:10595000010070470023FAE7C01F0020BC1F002091
:105960003002002070B50E4B0E4C1E7C054606EB37
:10597000460304EBC304204603F056FE00220A4B04
:1059800028469A55FFF7D0FF48B1084B2046BDE89E
:1059900070401A680649013AD31700F09BB870BDF1
:1059A000981F0020B0030020E5220020C01F002027
:1059B0000959000038B5EFF31185202383F31288CD
:1059C000BFF36F8F104B114A9C681068A04206D13C
:1059D000FFF7C8FF85F31188BFF36F8F38BD002133
:1059E0001B7C11600A4AD35C002BF3D02046FFF7E2
:1059F0009BFF0028EED0637BDB0602D12046FFF739
:105A0000B3FD2046E4E700BF981F0020B81F002028
:105A1000E522002008B50648064A0749121A03F095
:105A2000C5FCBDE80840054A0549064803F0BEBC70
:105A3000000000200C02002048A20000000000002E
:105A400048A2000000000020034B1B680BB9FEF7C2
:105A500095B80020704700BFC41F002030B570B15A
:105A60000B4B5B6898420AD0036843B1D3E9042129
:105A7000D0E90445121941EB0501C3E90421D0E93D
:105A8000003213605A600023C0E9003330BD00BF0C
:105A90004401002010B50E4B1C689C4204D1FFF756
:105AA000D3FF6FF0004010BDFFF7CEFF002CF8D001
:105AB000D4E904321B1A62EBE072B3F1004F72F1C9
:105AC0000001EEDA002AACBF18460020EBE700BF69
:105AD00044010020B3F1FF3F08BFB2F1FF3FF8B52A
