:020000040000FA
:10000000505400209D2900001D8F00008929000008
:1000100089290000892900008929000000000000CA
:100020000000000000000000000000003D2B000068
:100030008929000000000000092B00008929000028
:10004000B52C0000B52C0000B52C0000B52C00002C
:10005000B52C0000B52C0000B52C0000B52C00001C
:10006000B52C0000B52C0000B52C0000B52C00000C
:10007000B52C0000B52C0000B52C0000B52C0000FC
:10008000B52C0000B52C0000B52C0000B52C0000EC
:10009000B52C0000B52C0000B52C0000B52C0000DC
:1000A000B52C0000B52C0000B52C0000B52C0000CC
:1000B000B52C0000B52C0000B52C0000B52C0000BC
:1000C000B52C0000B52C0000B52C0000B52C0000AC
:1000D000B52C0000B52C0000B52C0000B52C00009C
:1000E000B52C0000B52C0000B52C0000B52C00008C
:1000F000B52C0000B52C0000B52C0000B52C00007C
:1001000053B94AB9002908BF00281CBF4FF0FF317E
:100110004FF0FF3000F00CB8ADF1080C6DE904CEE3
:1001200000F008F8DDF804E0DDE9022304B07047D0
:10013000704700BF2DE9F04786468C460846089E6A
:10014000154674461946002B40F0C2808542B2FA2B
:1001500082F245D94AB1C2F1200300FA02FC2EFA1C
:1001600003F3954043EA0C0C94404FEA154EA8B2B5
:10017000BCFBFEF8230C0EFB18CC08FB00F943EA8D
:100180000C43994528D9EB1808F1FF3704D299455B
:1001900002D9A8F102072B44A3EB0903A4B2B3FBD5
:1001A000FEFC0EFB1C330CFB00F044EA0344A042AF
:1001B00014D92C190CF1FF3304D2A04202D9ACF1AE
:1001C00002032C44241A43EA07401EB1D440002302
:1001D00034607360BDE8F0874746DDE76346F1E7CA
:1001E00092BB431B01214FEA154EAFB2B3FBFEFC9D
:1001F000200C0EFB1C330CFB07F840EA0343984528
:1002000062D9EB180CF1FF3004D2984502D9ACF159
:1002100002002B44A3EB0803A4B2B3FBFEFC0EFBCD
:100220001C330CFB07F744EA0344A7424ED92C19B0
:100230000CF1FF3304D2A74202D9ACF102032C44E3
:10024000E41B43EA0040C0E7C2F1200320FA03F1B7
:10025000954090402EFA03F303434FEA154EAFB298
:10026000B1FBFEFC0EFB1C10190C0CFB07F841EA5D
:100270000041884504FA02F422D969180CF1FF30D4
:1002800004D2884502D9ACF102002944A1EB08014F
:100290009BB2B1FBFEFC0EFB1C110CFB07F743EA03
:1002A00001439F420ED9EB180CF1FF3104D29F425B
:1002B00002D9ACF102012B44DB1B41EA004192E779
:1002C0006046E3E76146F7E76046A3E76346B7E7C2
:1002D000834206D916B9002108467BE7C6E900E04B
:1002E000F9E7B3FA83F78FB9834201D3724508D88F
:1002F000BEEB020460EB030301209C461EB9002103
:1003000068E73846FAE7C6E9004CF8E7C7F1200C81
:10031000BB4022FA0CF41C432EFA0CF120FA0CF329
:10032000B84001434FEA14490EFA07F5B3FBF9F858
:100330001FFA84FE09FB18300B0C08FB0EFA43EA87
:1003400000439A4502FA07F240D9E31808F1FF305A
:1003500004D29A4502D9A8F102002344A3EB0A0370
:1003600089B2B3FBF9F809FB183308FB0EFE41EA2A
:1003700003418E452CD9611808F1FF3304D28E4514
:1003800002D9A8F10203214443EA0040A0FB0298ED
:10039000A1EB0E014145CE46434602D306D14D4561
:1003A00004D2B9EB020E68EB04030138002EA6D08C
:1003B000B5EB0E0261EB030101FA0CFC22FA07F324
:1003C0004CEA0303F940C6E9003198E74046C5E727
:1003D0004346D9E7F0B52E4B2E4AC3F800262E48E7
:1003E000C3F8042685B0C3F808264921C3F80C26B3
:1003F000C3F81026C3F81426C3F81826C3F81C2621
:1004000008F005FD06F0F0FC01A800F019FF234BF1
:100410001B68834204D02248452108F0F8FCFEE71F
:10042000039A2048492108F0F2FC1F48492108F0AE
:10043000EEFC4FF44041002009F0D0FB044620B10F
:100440001A48452108F0E3FCFEE769469DF80800DC
:1004500000F030F8009B039D1D44019B1E8904F0B1
:100460000DF9AF1901F050FC01F024FC02F0C0FAC4
:10047000AB5983F3088884F31488BFF36F8FBFF3FD
:100480006F8F7B6898470A48452108F0C0FCFEE75B
:10049000000001403546526E94AB0000E803002096
:1004A000ADAB0000D0AB0000FFAB000024AC0000FF
:1004B00057AC000008B5024638B105480023452175
:1004C00008F0A5FC6FF0150008BD0860FCE700BF50
:1004D0007AAC000021B1012906D06FF015007047F9
:1004E000044B53F830007047024B03EBC0035868CD
:1004F000704700BFC8A5000008B540000A4B53F87C
:10050000202091420BD0013053F820308B4208D08C
:100510000648452108F07BFC4FF0FF3008BD002065
:10052000FCE70120FAE700BFC8A50000A0AC00006E
:100530002DE9F04F1D46944BD3F80090934B03EBFD
:10054000C103DDB05B68059390462B78059A934212
:10055000CDE90610DDE9684609D1D8F8103013F06E
:100560000C0F04D02A4606F04AFD002850D03CA8C3
:1005700001F016FB34B1002E04DD324621463CA8C2
:1005800008F058F8B8F808B0D8F80CA0B8F80A3055
:10059000DA4403EB0A070024A7423DD83CA910A87F
:1005A00008F06EF86A9B23B1202210A9184608F0C3
:1005B0000AFD002300932A464FF6FF7341460AA81E
:1005C00006F013FC074618BB28460F9C00F0F6FA0D
:1005D00084421DD8DFF8B8A14FF0FF340DF122039B
:1005E00008AA09A90AA806F04EFC002810DB40F072
:1005F000C38009990AA806F092FC00284AD1BDF8E8
:100600002200644A4FF6FF7132F8023B8B423FD121
:100610005D4BD3F80090B2E0679B3E1B9E4228BF23
:100620001E46A34504D9A3199B4538BFABEB04066E
:10063000A24504D9A3199A4538BFAAEB0406669AC5
:1006400033462146284608F0F0FB0028E0D12B78FD
:10065000059A9A4215D1D8F8103013F00C0F10D02B
:10066000A3450ED8A2450CD9669A0292A4EB0B03BF
:1006700003F00F02CDE90062DDE906102A4606F01C
:10068000CFFC669932463CA807F0D4FF344483E798
:100690009842B9D1BDF82230102B16D1BDF8206098
:1006A000202EB5D1099933463CAA284608F0BDFB57
:1006B0000028ADD132463CA910A806F012FD364BF9
:1006C0001B688342A4D1012788E7012B32D1BDF8F2
:1006D0002030202B9CD809993CAA284608F0A5FB7D
:1006E0000446002894D19DF820B0BBF1200F06D815
:1006F000DAF80030294E0593059B9C4202DB4FF04F
:10070000FF346BE720A801F04BFA736856F8081B1A
:100710001A6820A807F08EFF20A918A807F0B0FFDC
:100720005A463CA918A808F03EFC00283FF456AFF2
:100730000134E1E7222B7FF451AF631C3FF44EAF4D
:10074000DAF80030A342DADDBDF82030802B3FF626
:100750005FAF09993CAA284608F067FB00287FF4A0
:1007600057AFE4B2BDF8203000943CAA202110A875
:1007700000F066F98146C2E7002F3FF449AF4846D2
:100780005DB0BDE8F08F00BF04000020E4A50000CC
:10079000D8A5000068AB0000E8030020DCA500003D
:1007A0002DE9F04FA24BADF51B7D1C685B680494EE
:1007B0001B681C440646894630231EAA214604A80D
:1007C00006F0C4FE00285DD1049B1E9A13449C428F
:1007D00070D1269026AA214604A806F000FF269B89
:1007E000184364D132AD5EAB2A46214604A806F018
:1007F0000EFF002858D16A68072A06D06FF005045A
:1008000020460DF51B7DBDE8F08F8A49A86808F0E9
:10081000CAFB0028F2D15F9A082A02D06FF00604C2
:10082000EEE78549609808F0BEFB0028F6D1042366
:100830001EAA214604A806F089FE90BB30231EAAFA
:10084000214604A806F082FE40BB002326AA2146CA
:1008500004A8269306F0C3FEE8B9269B012B1AD103
:1008600004231EAA214604A806F070FE80B91E9C2F
:10087000202C0AD1049922460EA808F0A4FB337854
:10088000042B1AD04FF0FF34BAE76FF00B04B7E730
:100890006FF00A04B4E76FF00904B1E76FF00804E1
:1008A000AEE76FF00704ABE76FF00404A8E76FF062
:1008B0000204A5E76FF00104A2E701F085F806F154
:1008C00001080146404607F0E6FC07460028D9D15A
:1008D00001F07AF806AA03460EA9404608F049F945
:1008E0000128CFD10DF1580839462246404608F07C
:1008F00075FB41465EA806F020FB0028C2D12246C7
:1009000006A95EA808F007F90128BBD15EAA214616
:100910001EA808F006F90128B4D10123DFF81CA1B4
:1009200000249B4605AF3B701EA95EA806F005FBA0
:100930000028A7D1BBF1000F24D0102251465EA899
:1009400008F0E9F8012802469CD139465EA808F073
:10095000E2F8012896D15EAA2021284608F0E1F8A5
:10096000012883468ED126AB03EB441094B9202294
:10097000294608F028FB3B7801335C46DBB24FF098
:10098000000BD0E7202229465EA808F0C4F8012811
:10099000D3D077E71022294608F015FB2AA95EA8D4
:1009A00006F0CBFA044600287FF46CAF06F1610A2A
:1009B000102251465EA808F0AEF801287FF462AF1D
:1009C0005EAA20211EA808F0ACF801287FF45AAFD7
:1009D00006F140021EAB6036A34612F8010F13F871
:1009E000011BB24281EA00014BEA010BF5D1BBF1D8
:1009F000000F7FF447AF26A9284601F009F9012826
:100A00007FF440AF10225946404608F0E7FA102321
:100A1000C7F800B05246CDE90175CDF800801946FF
:100A2000484607F0B8FF01283FF4EAAE2AE700BFC6
:100A3000D0A50000D5AC0000CCAC0000BBAC0000E1
:100A40002DE9F04798B016461D469DF88020394B99
:100A5000DFF8E48053F83210039103EBC20307463A
:100A60005B68D8F80090186804AA0144302303A8F2
:100A700006F06CFD002849D1DDE903431C4405AABA
:100A800008AB214603A806F0C2FD00283ED1069A15
:100A9000072A3BD12949079808F085FA002835D163
:100AA000099A082A32D126490A9808F07CFA68BBCC
:100AB00004AA214603A806F096FD38BBDDE903A38E
:100AC0000AEB0302944221D1412B1FD1354430233C
:100AD00005AA294604A8049606F038FDA0B9DDE968
:100AE000043213449D420FD32A4604A908A806F0F5
:100AF000CCFA48B92A4604A910A806F0C6FA18B9D3
:100B00009AF80030042B05D0D8F80090484618B069
:100B1000BDE8F08700F058FF08AB0090202239466E
:100B20000AF1010007F023FC0128EDD1054BD3F8B1
:100B30000090EBE7DCA5000004000020E6AC00001C
:100B4000DDAC0000E8030020094A0B78400052F8B1
:100B500020108B4209D0013052F82000834214BF8C
:100B60004FF0FF304FF4407070474FF440707047C3
:100B7000ECA500001FB50F4B13F830000C4601F038
:100B800065FC50B92068816810236A46103908F066
:100B90004CF928B1206808F047F94FF0FF3006E023
:100BA00005491022684608F0FEF90028F2D104B089
:100BB00010BD00BFECA5000084AB000013B50446D7
:100BC00006F096FA6A460146204606F0F4F830B17F
:100BD0000448452108F01BF9002002B010BD009820
:100BE000FBE700BFEEAC00002DE9F04FDFF82091ED
:100BF00089B0064600200D46D9F800409046FFF720
:100C000069FC06A9C0B201F021FC002864D1294684
:100C1000FFF760FC2C2707A9C0B207FB056701F0AE
:100C200015FC00283FD02C2303FB0563DDF818A03A
:100C30001B6913F0100145D19AF800B0D9F80040B3
:100C4000BBF1010F06F160094AD04FF48073002117
:100C50000193304B0093CDE90311029153463A467C
:100C60004846FFF765FC04462C236B43F118F25805
:100C7000294B06989A420AD1CA680B899B1806D25A
:100C80008268934203D2254B1B68A34221D0002DDA
:100C90003BD08268002108F0F2F8214A2148452122
:100CA00008F0B5F813E0079808F004F9044607982F
:100CB00008F0BAF87B1EFA1C13F8011FA142B2D14A
:100CC0009342F9D11DB10699304606F029FB164B27
:100CD0001C68069808F0A8F8204609B0BDE8F08F17
:100CE00013F00C0FB1D0CDF8008053463A46484679
:100CF00006F04BF90028B7DBA7D1424659464846D3
:100D000006F02DF90028A0D0AEE7084AC6E700BFDC
:100D100004000020C82100203DB8F396E80300201D
:100D200031AD00003BAD00000000002029AD000007
:100D30002DE9F0430D4687B0044600212846CDE951
:100D4000041106F0ACFA064600285DD02368444E34
:100D5000B34203D105AA204606F02EFA236913F008
:100D60000C0F43D004F16007236A0095002122464E
:100D70003846039306F009F9014618B92A46384661
:100D800006F0EDF8E36AB34204D104AA012120463B
:100D900006F012FAE36B13F00C0F04F12C022CD0C6
:100DA00004F16006E36C009500213046039306F0E1
:100DB000ECF820B92A460121304606F0D0F8DDE9EA
:100DC0000432934288BF0593059BAB60059A294680
:100DD000204600F035FC234B1A68002A03DD224828
:100DE000572108F014F807B0BDE8F0831022FF2166
:100DF00005F10C0008F0F2F8C4E71022FF2105F11C
:100E00001C0008F0EBF8DAE703A9FFF7B3FE03983C
:100E100005F1080106F077F9AB68059305F10B07BA
:100E200004F160095FFA86F82A460398414606F005
:100E300078F93A46002312F8011FFF290AD101333D
:100E4000102BF8D110371EB1039807F0EDFFBDE766
:100E50000126E7E72A464146484606F080F8F1E7D2
:100E60003DB8F396B419002063AD00002DE9F04FB2
:100E700087B0CDE90423DFF8F0B03C4D3C4E81460D
:100E80008A460027119B9F4201D3002010E0119B4E
:100E90000599A3EB0708B8F5806F28BF4FF4806869
:100EA00043465A467918504607F0BFFF18B1012053
:100EB00007B0BDE8F08F9AF80020049B012A1B7848
:100EC00003D0012B2DD14B4603E0012B29D009F192
:100ED0002C03109ABC181A6912F00C0F21D01A8931
:100EE000A24204EB080E37D972451AD2111BAEEBA1
:100EF000020089B24FF0000CDB6813449E4503D911
:100F00009C4234BF181B0020A31A01EB0B02CDE951
:100F100001C200900B445246002109F1600006F026
:100F20007FF81099049843465A46791807F092FFC3
:100F30000028BCD1C5F800664744C5F80466C5F86A
:100F40000866C5F80C66C5F81066C5F81466C5F8DD
:100F50001866C5F81C6695E7A4EB020C0CF00F0CA4
:100F600040460021C8E700BFEC130020000001400C
:100F70003546526EF0B5A24B43620E46A14B036557
:100F8000002191B004460846FFF7A4FA04F12001BD
:100F90000546C0B201F05AFA0346E8B90121FFF74D
:100FA00099FA04F14C010546C0B201F04FFA03462C
:100FB000E0B9204606F041F90546C8B900221146BD
:100FC000204606F0E3F8054650B38F48002257212B
:100FD00007F01DFF01239CE00022CDE900238B4890
:100FE00000232A46452107F012FFFEE70122F4E71D
:100FF00087484FF48072572107F009FF01239D4273
:1010000084F85830DAD194F858308DF81730013B15
:10101000042B00F2B180DFE803F0B37F7F9EBC00B9
:10102000204600F01FFA0028D4D004A806F027F9C3
:1010300004A9204606F0D3F918B176482A4657216C
:10104000C6E704A806F02BF980F0010104AAC9B292
:10105000204606F09BF802460028B6D104A806F008
:101060001EF9054660BB04A92046FFF761FE9DF806
:10107000173084F85830033B012B06D8284600F07F
:1010800005F910B1FF2384F858309DF81730023B62
:10109000022B0BD8002000F0E3F838B1FF2384F8CE
:1010A00058305D48452107F0B2FEFEE794F858300D
:1010B000FF2BF6D004AA0021204606F067F889E746
:1010C0009DF81770012F18D1104603F083FB831E83
:1010D000022B05460ED804AA39462046FFF784FDA8
:1010E0004E4B1B68984205D04D4B1D68A84214BF5B
:1010F0000525012584F8585085E7012104AA2046DA
:10110000FFF772FD454B1B6898420CBF9DF81730E6
:10111000052384F8583076E794F84020237D9A42DE
:1011200019D80AD394F84120637D9A4213D804D386
:10113000B4F84220E38A9A420DD23A48002249216B
:1011400007F065FEE06C0021826807F098FE01233D
:1011500084F8583014E004A92046FFF7E9FD94F81C
:101160005830DA1E012A09D8002000F08FF818B98B
:10117000002000F075F818B1FF23E9E7022BF7D043
:1011800094F85830FF2B08D12348452107F03FFE43
:10119000FEE7002000F07AF8EDE70022012B224D57
:1011A000039215D01146204605F0F0FF80B12D685E
:1011B000002304AA1946D1540133302BFBD1E06C33
:1011C00007F032FE206A07F02FFE284611B0F0BD6E
:1011D000002211462046FFF707FD104F3B6898425A
:1011E000E5D12B689842E2D00D4B1B689842DED0C7
:1011F000039B01330393039B012B17D0FEE700BF32
:10120000EC0B0020EC03002021AE000092AD0000AA
:10121000DFAD00004DAE000077AE0000E803002017
:101220000000002083AE000004000020206A05F0CA
:10123000C0FD3071236A5B6834603D68B360B7E716
:1012400038B5064D04464FF4E4720021284607F0F5
:10125000C5FE21462846FFF78DFE38BDEC1700205D
:1012600013B5094B01A913F8300001F0EFF848B9A4
:10127000019808F06CFD0446019807F0D5FD204662
:1012800002B010BD0124FAE7F4A500001FB50F4B12
:1012900001A913F8300001F0D9F8A8B9019802A902
:1012A00003F042FA044668B99DF80B30032B03D1D2
:1012B000019808F01AFD0446019807F0B5FD204694
:1012C00004B010BD0124F7E70124F8E7F4A50000FD
:1012D0002DE9F34106460C4617461D460BB900267C
:1012E00028E0184605F0DBFF0028F8D16946FFF733
:1012F00041FC009838B90124009807F095FD20467C
:1013000002B0BDE8F08101A905F0FDFE0028F2D190
:10131000009807F089FD3046019906F0AEF8736A2F
:101320005E686B79012B21D1002CD8D12B688342C8
:1013300098BF002621460020FFF7CCF86946C0B2CE
:1013400001F084F80028D6D1009820233A4631468F
:1013500007F06BFD04460028CDD1002DCCD03C68B1
:101360000D4BE41A18BF4FF0FF34C5E7022BB6D17E
:101370002B68012B05D98342B1D8B4FA84F46409EF
:10138000ADE7ACD1002CD5D0012CA8D12C79023CF2
:1013900018BF0124A3E700BF3DB8F3962DE9F04F35
:1013A000074685B00C46014600201646FFF7CCFBE9
:1013B000051E51DB3846E46D05F09AFE5FFA84F9AC
:1013C0006B1E09FB03084FF0000A4FF0010B4FF0B2
:1013D000FF349DB9BAF1010F03DD2148452107F023
:1013E00016FD631C06D0FF2C2ADC013440F20113E9
:1013F0003460B380284605B0BDE8F08F6B1E0093C3
:101400000DF10F0201234146384607F00EFD031E81
:10141000019323DB01220DF10F01384608F000FC97
:10142000019B40B15B4501D00AF1010A009DA8EB88
:1014300009089B46CDE7B4F1FF3F08BF2C46F5E70E
:101440000223A4F580747371631004F00104013366
:10145000013433603471CDE70725CBE70125C9E7B7
:10146000BEAE000070B5866A456D044605F0F4FF17
:10147000AE420AD06B1CB34207D0834205D0144859
:10148000572107F0C4FC002070BDB6F5807F1CD941
:1014900010485721F5E7626A216D02EBC30201EBA8
:1014A000C30152684968914202D00B485721E8E7CE
:1014B00001339D42EFD1AE4205D9636A03EBC50308
:1014C0005B689342F1D10120DEE700231A46F0E782
:1014D000E1AE000019AF000048AF000000B589B0D0
:1014E00004A9032008F00EFC9DF81020012A41D029
:1014F000254B2649032A08BF0B469DF8132002926C
:101500009DF8122001929DF8112021480092492156
:10151000204A07F07CFC06A9012008F0F3FB9DF8A7
:101520001820012A28D0184B1849032A08BF0B4657
:101530009DF81B2002929DF81A2001929DF8192017
:1015400000921348144A492107F061FC9DF81030BD
:10155000012B13D19DF81230032B0FD19DF81830B9
:10156000012B0BD00D48492107F051FC022009B096
:101570005DF804FB0A4BC0E7094BD9E7094849214C
:1015800007F045FC0020F2E774AF00007DAF0000DB
:1015900091AF000083AF0000D2AF0000E2AF0000C7
:1015A00078AF000001B0000070B54B6814461E4AC9
:1015B00003F0FF23934286B006460D462FD10B68F9
:1015C000012B2CD104A9204603F0AEF89DF8102081
:1015D000012A26D0154B1649032A08BF0B469DF851
:1015E000132002929DF8122001929DF81120009282
:1015F0001048114A492107F00AFC9DF81030032BCE
:101600000DD12146304605F08BFE204608F06DFBDB
:10161000A968204605F097FD204603F065F806B05E
:1016200070BD064BDBE700BF0001000474AF000093
:101630007DAF000091AF0000D2AF000078AF000096
:101640002DE9F04F164689B005460C4674484921ED
:1016500007F0DDFB3146284605F00FFF6B6A824636
:1016600020465E6805F01BFEE8B1E86D05F03BFD25
:10167000AF6A0023013F3344834201D2013FFAE7BE
:10168000BA4510D36748572107F0C1FB07FB06F3A3
:1016900065480AFB0662572107F0B9FB0123E37195
:1016A00009B0BDE8F08F06A9032000F0CFFE07A91E
:1016B000012000F0CBFE079A21462846FFF774FF71
:1016C0006379012B4BD1DFF864B1574641E02268C2
:1016D000C2F1010353449F423AD86B6A196853F828
:1016E000370003EBC703012A53F8083CA3EB0103BF
:1016F000A0EB0109049311D1079B0393E36A022B2A
:1017000008D04146284605F00BFE224641462846B1
:1017100005F03CFE0399284605F002FE3246494694
:10172000404605F0FBFD049B42464146CDE900964C
:101730002846FFF79BFB2146284605F0BDFD2368A0
:101740000133236020B1DBF800300133CBF80030E7
:10175000013FDDF81880002FB9D101232360022357
:1017600063710127BA45DDF8189006D2484607F0A4
:101770005BFB079807F058FB92E723689F424DD325
:101780006A6ADDF81CB052F837100491FB00083B80
:1017900011680391D1582A6DD0581368A0EB030843
:1017A0002379012B38D1039B3246C91A484605914B
:1017B00005F0B4FD0599009143464A465946019605
:1017C0002846FFF753FB2146284605F075FD022306
:1017D000237118B1154A136801331360324641462C
:1017E000584605F09BFDDDE9032349469B1ACDE9E8
:1017F00000865A462846FFF739FB2146284605F061
:101800005BFD2368013323600123237130B1074A54
:1018100013680133136001E0022BDFD00137A1E729
:1018200018B0000041B0000070B00000B4190020F2
:101830000A4619B1024B00211B681847704700BFC8
:1018400008000020F0B5082289B006F01CF8CB6A29
:1018500003930B6B04934B6B05938B6B0693CB6BD2
:10186000079313466A460C46064600271146104663
:10187000CDE90177009705F014FF31460546304663
:1018800005F00FFF216B0391616B0491A16B059132
:10189000E16B0544CDE906171046114605F001FF3E
:1018A00031460544304605F0FCFE0544206A0090B0
:1018B000606A0190A06A0290A06B0690E06B0790AE
:1018C0003046CDE90477039705F0EBFE0544606AE6
:1018D0000090A06AD4F838C00190E06A0290CDF878
:1018E00010C0606BD4F83CC00390CDE905C0206AFD
:1018F0000790304605F0D5FE0544E06A0090206B65
:101900000190606B0290206A0690A06A07903046B2
:10191000CDE90477039705F0E9FF236B0093636B30
:101920000193A36B0293E36B0393636A0693E36AE9
:1019300007932D1A0823304605F0D8FF636B0093F8
:10194000A36B0193E36B0293236A0393636A04938B
:10195000A36ACDE90537236B07932D1A0823304678
:1019600005F0C4FFA36B0093E36BCDE90137636A15
:101970000393A36A0493E36A0593636B07932D1A99
:101980000823304605F0B2FF2D1A10D40D4C35B99E
:1019900008223146204605F082FF01280FD0082397
:1019A00022463146304605F0A1FF2D1AEFE7054AE1
:1019B00008233146304605F074FE2D18F8D409B0DE
:1019C000F0BD00BF00A6000000487047FCA5000065
:1019D0002DE9F04F9DB00368029343680393836839
:1019E0000493C36805930369069343690793836966
:1019F0000893C3690993DDE9062CDDE904BEDDE93E
:101A000002469846DFF890A1089B00930027CD5925
:101A10005AF8049B0CAB2DBADD514FEAF223A944CE
:101A200083EAB213009D83EA72634B4425EA020500
:101A300002EA0C0985EA09052B44434486EA0B05B2
:101A40004FEA743888EAB408254006EA0B0985EAAB
:101A5000090588EAB4580437A844402F03EB0E0563
:101A60004344DE46DDF8008040F087804B490A9110
:101A70004FF0100A51460AF1010A0DF1700E0AF0FA
:101A80000F070EEB870701F00F0957F8407C01970D
:101A90004FEAB74888EAF71801F10E0707F00F0779
:101AA0000EEB8707093157F8407C4FEAF74E8EEA74
:101AB000774ECDF82CE001F00F010DF1700E0EEB1A
:101AC00081010EEB890951F8401C59F840EC714432
:101AD000DDF804E088EADE08DDF82CE041448EEA17
:101AE000972E714405EA02084FEAF52E2CEA050705
:101AF00087EA08078EEAB51EDDF8288049F8401C01
:101B00008EEA756E774458F804EFCDF82880774454
:101B10000F440099CDF800C039444FEA733E84EA7F
:101B200006078EEAB30E1F4004EA06088EEAB35E8B
:101B300087EA08077744BAF1400F01EB0B0E0F4418
:101B4000B34622D102993944016003991944049B98
:101B5000416023448360059B3344C360069B734408
:101B60000361079B2B444361089B13448361099BDA
:101B70006344C3611DB0BDE8F08FCDF800C0B3462B
:101B8000944626462A461C4641E7944626462A465F
:101B90001C4675463B466DE7ACA60000E8A6000073
:101BA00010B50446C8B17022002106F0D4FD0B4BDD
:101BB0000B4A0C490C48C4E900230C4BC4E902133E
:101BC0000B4BC4E904030B4BA36103F17453A3F55E
:101BD0002303A3F69243E361012010BD85AE67BBEA
:101BE00067E6096A72F36E3C7F520E513AF54FA5D3
:101BF0008C68059BABD9831F0449431E0F3013F833
:101C0000012F8A5C1A708342F9D17047A1B000009D
:101C1000F0B5264E07460C460FCE8DB001AD0FC570
:101C20000FCE0FC596E8070085E807003846002F5D
:101C300038D0002C38D0381F2146024610344B785B
:101C40000D781B0443EA0563CD782B438D7804316E
:101C500043EA05238C4242F8043FF0D1144C04219E
:101C60008A07036916D1C3F30742A55C1A0EA25C6A
:101C700042EA0562C3F30725DBB2655DE35C42EA35
:101C8000054242EA032221F0030330336B4453F848
:101C90002C3C534050F8042F013153402C29036150
:101CA000DED101200DB0F0BD2046FBE790A500007D
:101CB000A1B00000BFF36F8F72B6124B4FF0FF322E
:101CC000C3F88020C3F88420C3F88820C3F88C2090
:101CD000C3F89020C3F89420C3F89820C3F89C2040
:101CE000C3F88021C3F88421C3F88821C3F88C216C
:101CF000C3F89021C3F89421C3F89821C3F89C211C
:101D0000704700BF00E100E0F8B5254B254D4FF0CE
:101D1000FF3401275F60C3F84843C3F8084303F565
:101D2000C04300265F60C3F84843C3F8084303F587
:101D3000983302205F60C3F84843C3F80843C5F8EE
:101D4000084300F019FF6F60C5F84C61D5F84C31BD
:101D5000C5F81061D5F81031C5F84461D5F84431A3
:101D6000C5F8006505F518352820C5F8084300F0CA
:101D700003FF6F60C5F84C61D5F84C31C5F81061B0
:101D8000D5F81031C5F84461D5F84431064BC5F893
:101D90000065C3F808454FF08043C3F80843F8BD19
:101DA00000B000400020004000F00140014B1B68E3
:101DB000184700BF0C00002007B50B460021024663
:101DC0000091034800F00CF803B05DF804FB00BF7D
:101DD000AD1D0000014B1860704700BF0C000020D3
:101DE0002DE9F04F8DB01D46531E8246019103939D
:101DF0004FF00009039B5878252803F1010419D1FD
:101E00001E4600204FF0FF3802360346029044463B
:101E100031780396392954D81F2914D8002900F0A5
:101E2000EE8101992520D04701993078D04709F1FA
:101E30000209DFE7002800F0E2810199D04709F1AB
:101E400001090394D6E7A1F12002192AE9D801A7D4
:101E500057F822F0BD1E0000231E0000231E0000C4
:101E6000BD1E0000231E00003D1F0000231E0000B9
:101E7000231E0000231E0000231E0000891F0000F7
:101E8000BD1E0000231E00009D1F0000491F000012
:101E9000231E0000571F0000771F0000771F00005F
:101EA000771F0000771F0000771F0000771F0000DA
:101EB000771F0000771F0000771F000008460136DB
:101EC000A6E7582900F0EB80A1F16302D7B2172FE3
:101ED000A7D8172AA5D801A757F822F04521000056
:101EE000C31F0000231E0000231E0000231E00004D
:101EF000A31F0000C31F0000231E0000231E0000BC
:101F0000A31F0000231E0000231E0000231E00004C
:101F100079200000231E0000231E0000192100006C
:101F2000231E0000C31F0000231E0000231E00000C
:101F300079200000231E0000A31F00000199252026
:101F4000D04709F1010955E7029A02F0FE02029218
:101F50004FF00008B3E7002C0DDAB8F1000F0DDAEE
:101F6000029A002A00F0438124EAE4740A2202FB68
:101F70000414303CA3E7B8F1000FF5DB0A2202FBA2
:101F80000812A2F130089AE7B8F1000F55F8042BB7
:101F900080F22F81002A80F22E8154420222029286
:101FA0008DE7682903D1682B06D1482387E76C2980
:101FB00002D16C2B00F02181002B7FF432AF0B4655
:101FC0007DE77A2B06D1752955F8046B14D14FF0B3
:101FD000000B0CE06C2BF6D04C2BF4D1073525F020
:101FE00007037529D3E9006B03F1080506D1202802
:101FF0003BD1854F013C09E04FEAE67BBBF1000F86
:10200000F5DA7642814F6BEB4B0B013C0DF12D0362
:10201000059300230493304659460A220023FEF715
:102020006FF8059B303203F8012DB4460593049BED
:102030005A46BCF10A0F8B4672F1000203F1FF31E0
:1020400006460491E7D2C3F1010B30330DEB0306D2
:10205000B8F1000FA6F104066DDA029BD9077DD412
:10206000A8EB0B03A4EB0B0413E02B280ABF684F6B
:10207000684F04F1FF34C9E770290FD155F8042BDC
:102080000023FAB9634F644E053C6FF004034FF030
:10209000050B029A920770D4A04666E078216C2B5B
:1020A00003D155F8042B002308E04C2BF9D1073558
:1020B00025F007031D465B6855F8082B232825D11A
:1020C000880621D5554F023C01F06001A1F1390B82
:1020D0000DF12D0E002602F00F01092988BF594489
:1020E00030310EF8011D102A4FEA121141EA037136
:1020F0004FEA131C73F1000306F1FF3008D2C6F15A
:10210000010B06F13003A1E7454FDCE7414FDBE768
:1021100006460A466346DEE755F8046B304606F08D
:102120003BFFB8F1000F834602DB4045A8BFC34622
:10213000384F4FF00008A8EB0B03002B92DDA4EB07
:102140000804A6E755F8043B8DF81830314F013CE0
:102150004FF0FF334FF0010B06AE9AE7A046EAE7D7
:10216000029301992020D047029BB8F10108F7D5CE
:1021700024EAE472013C9144A41AB84606E00493B0
:1021800002920199D047029A049B9046424612F867
:10219000010B0028F3D11A46013A15D5002BACBF2C
:1021A000C7EB03077F425B46013B15D5BBF1000F30
:1021B000A8BF5F444F442646013E14D5002CA8BF5B
:1021C0003F1907EB080915E60493029201993020A4
:1021D000D047049B029ADFE70293019916F8010B9E
:1021E000D047029BE0E701992020D047E4E7012295
:1021F000D5E6904663E6144661E64C235FE6484622
:102200000DB0BDE8F08F00BF88B2000086B20000BC
:102210008AB2000082AE000092B200008CB20000D0
:102220008FB200002DE9F047058B04462807904641
:1022300011D4022905F0070540F0CC80204606F0B5
:102240000EFD78B10138218B042811D8DFE800F0A9
:10225000C2106D85950001290CBF45F0100545F0B1
:102260002005258388F31188BFF36F8FBDE8F087C1
:1022700001F0070AAA4500F0A5800027B9463E46AE
:10228000A368002B00F0BC8041F00801218388F393
:102290001188BFF36F8FA168002900F0BA800D6824
:1022A000002900F0B680D1F804803346524620461B
:1022B000C047002D76D02B6829461D46F0E701F077
:1022C00007035A1F012A1BD8002221F00701062B01
:1022D000276889B2C4E9002209D13B4603E0628B3A
:1022E000013262831B68002BF9D141F00201218386
:1022F000204606F0B4FC00287AD041F0200176E0B8
:10230000042B0AD121F0070189B22183204606F06F
:10231000A6FC10B141F020012183218B01F0070AB6
:10232000AA454FD00027B946AAE7236921F0070143
:1023300041F00601062DD3F8009021832DD1B9F18B
:10234000000F3FD041F00801218388F31188BFF3CB
:102350006F8F3A492046C84729E021F007012369D9
:1023600041F0040189B2042DD3F804902183E6D012
:1023700000273E464FF0040A82E721F00701236957
:1023800041F0050189B2052DD3F808902183D6D0FC
:1023900000273E464FF0050A72E700273E464FF001
:1023A000060A6DE72B4687E7B9F1000FD1D1EFF3AD
:1023B0001188202383F31288BFF36F8F238B23F0C0
:1023C00008032383258BEA062ED525F010032383EB
:1023D00005F007056669218B002EBFF670AF00235C
:1023E0002768C4E9003321F0070141F0010121838E
:1023F000218B01F0070AAA454FF000097FF440AF96
:10240000002F9CD041F00801218388F31188BFF38D
:102410006F8F002FC8D03D6839463346524620465C
:1024200006F049FC2F46F4E7AB067FF51BAF25F01D
:102430002003238305F0070500E700BFE38C0000BD
:10244000014B036000207047B4A7000070B5114B2A
:102450001C680D46DCB1104B196800238B4202DB6F
:102460006FF0010070BD224612F8106B864202D058
:1024700001331446F2E7E06810B96FF01200F1E79B
:1024800007F0A6FD0028F8D02C600020EAE76FF0E6
:102490000C00E7E710000020B4A7000070B588B07A
:1024A00005460C46C0B269461646FFF7CFFF002826
:1024B0001BDB0098C8B143680293836822680195CA
:1024C000CDE903360023CDE906230593C56806F060
:1024D000ABFC6DB12846084901AA07F0B9F8079886
:1024E00008B9059B236008B070BD6FF01500FAE7CE
:1024F0006FF01200F7E700BFC38E000008B5054873
:1025000006F096FB044806F093FBBDE8084003483C
:1025100006F08EBB98B20000C9B20000FCB2000009
:10252000014804F09DBA00BF88A8000038B50446F1
:1025300018B90F4B0F485B6898476168B1F5683F61
:1025400010D0B1F5680F0DD00B4DA9420AD011F48F
:102550006861206807D00146084807F08FFD002316
:102560002360656038BD142206F038FDF9E700BF2E
:10257000680100202AB300002C5F5CA9B81E00206F
:1025800008B520B34368B3F5683F10D10122036852
:10259000BFF35B8F53E8001F002903D143E80020FD
:1025A0000028F7D1BFF35B8F0DD1002008BD094A89
:1025B00093420AD000684FF0FF324FF0FF3303F030
:1025C00037FC0028F1D00448F0E70448EEE76FF448
:1025D000E040EBE72C5F5CA9E98FFFFFEA8FFFFF8C
:1025E00008B5D8B14368B3F5683F10D1002203683D
:1025F000BFF35B8F53E8001F012903D143E800209C
:102600000028F7D1BFF35B8F0BD1002008BD074A2C
:10261000934208D0006803F083FCF6E76FF4E040D3
:10262000F4E70348F2E70348F0E700BF2C5F5CA93A
:10263000E98FFFFFEA8FFFFF10B5044618B91D4B65
:102640001D485B6898476368B3F5683F2FD0B3F5C2
:10265000680F2CD0194A934219D1236803BB18483C
:102660004FF0FF324FF0FF33214603F0B3FB08B9C0
:1026700023681BB90F4B13485B68984720681422E6
:10268000002106F0ABFC4FF46863636008E0B3F52B
:10269000683F0DD83A2B03D040F6BA629342DED1A0
:1026A000206807F023FD636843F03A03636010BDC0
:1026B000054AF3E7680100202AB300002C5F5CA9FB
:1026C000B81E002050B300003A00003A08B5064991
:1026D00006484023142207F0C3FCBDE80840044923
:1026E000044804F02FBA00BFB8190020B81E00201B
:1026F00090A80000A4A8000030BFFFF7FDBF00BFF6
:10270000074A936893F90E10002907DB5269934238
:102710001FBF044A536843F080535360704700BFA3
:10272000C01F002000ED00E0134B9A6A12F0007FFA
:102730009A6A14BF1E201D2012F0807F9A6A18BF6B
:102740001F2012F4002F9A6A18BF212012F4802F44
:102750009A6A18BF222012F4003F9A6A18BF2320F9
:1027600012F4803F9A6A6FEA02426FEA12429A625A
:1027700018BF2420704700BF00ED00E010B5194BD2
:102780000246986A9C6A10F4805F14BF17201620D6
:1027900014F4006F9C6A18BF1820A40509D5986B23
:1027A000986A000404D51AB19A6A22F400429A6227
:1027B00019200C4B9A6A12F4806F9A6A18BF1A207B
:1027C000D2050CD49B6A13F4005F18BF1C20054A85
:1027D000936A43F47F43936200230B7010BD1B2068
:1027E000F5E700BF00ED00E010B51C4B0246986A0B
:1027F0009C6A10F0100F14BF1120102014F0080F65
:102800009C6A18BF1220A40709D5586B986A000665
:1028100004D51AB19A6A22F080029A6213200F4BF3
:102820009A6A12F0010F9A6A18BF142012F0200F52
:102830009A6A18BF1520D40658BF9B6A074B9A6A3C
:10284000920642BF5A6A22F400525A629A6A42F0D1
:10285000FF029A6200230B7010BD00BF00ED00E084
:1028600070B5444B5B688AB00646C3F30803002585
:1028700085F31188BFF36F8F02F07F40B0F17F4F77
:1028800011D102F00C0008280DD010074CBF0E46E5
:1028900001250022033B8DF80720032B05D8DFE834
:1028A00003F01E5C60592E46F3E700249DF80730C4
:1028B0009BB92022314602A806F085FB099B002D1A
:1028C00053D0C3F3080222B96FEA53236FEA4323BC
:1028D000099302A9204606F017FB0AB070BD254BEC
:1028E000DA6A9107E1D4DA6A002ADEDBDA6A52009A
:1028F000DBD55A69B16942F480725A61BFF34F8FD8
:10290000BFF36F8F5A6931F8021C22F480725A614A
:10291000BFF34F8FBFF36F8F4DF60272914209D014
:102920009A6AD2B242B10DF107010120FFF75CFFB4
:102930000446BBE73468B9E79A6A12F47F4F05D0C2
:102940000DF107010120FFF719FFF1E79B6AB3F5CD
:10295000803FAAD3FFF7E8FEEAE70DF10701002068
:10296000E4E70DF107010020EDE723F4FF7323F006
:102970000103ADE700ED00E0024A536943F01003A4
:102980005361704700ED00E0EFF30880EFF3098139
:1029900001B57246FFF764FF01BD00BF002080F360
:1029A0001488BFF36F8F01F0AFFF00200D4908605E
:1029B000BFF34F8F0C4880F3088800F02BF82020DD
:1029C00080F3118809484FF40061401880F30988AA
:1029D000EFF314800221084380F31488BFF36F8F54
:1029E00000F004F994ED00E0505400201023002082
:1029F0000749D1F890200023C2F3072218469342DA
:102A000000DB7047C1F89830C1F8A0000133F6E749
:102A100000ED00E008B572B6002383F31388FFF7DA
:102A2000E7FF144B4FF0FF32C3F88020C3F8842037
:102A3000C3F88820C3F88C20C3F89020C3F89420F2
:102A4000C3F89820C3F89C20C3F88021C3F88421E0
:102A5000C3F88821C3F88C21C3F89021C3F89421CE
:102A6000C3F89821C3F89C2162B6BFF34F8FBFF320
:102A70006F8F08BD00E100E0084B9B6883420BD1DB
:102A8000EFF3058343B1064B5A6842F080525A6017
:102A90005A6A22F400425A6207F0E6BBC01F0020C7
:102AA00000ED00E0094A93686FF00A019967084950
:102AB00058674B6843F080534B60002383F31188C1
:102AC000BFF36F8F9368986F704700BFC01F0020DF
:102AD00000ED00E0EFF31183202383F31288BFF3AE
:102AE0006F8F074A53699360064A4FF00061516047
:102AF00000215A6F596782F31188BFF36F8F7047B7
:102B0000C01F002000ED00E00B498A684FF0300044
:102B10001044EFF3098C80E8F01F74467046FFF70D
:102B2000D9FFA64604498A6802F1300090E8F01FF8
:102B30008CF3098870470000C01F00201EF0040FAE
:102B40000CBFEFF30880EFF30980816911F8021CD4
:102B50000229FFD001B506F0DDF901BD40B2002821
:102B600007DB044A4109012300F01F00834042F8BB
:102B70002130704700E100E040B200280CDB43093F
:102B8000064900F01F0020330122824041F8232033
:102B9000BFF34F8FBFF36F8F704700BF00E100E0BE
:102BA000054B420900F01F0053F82220012303FACD
:102BB00000F01040704700BF00E100E040B2002884
:102BC000A8BF00F1604001F10101B8BF064B4FEA18
:102BD0004111ACBF00F5614000F00F00C9B2B4BFB5
:102BE000195480F80013704714ED00E00B4A08B543
:102BF0000B4B22F07F029A60BFF34F8FBFF36F8FB2
:102C0000D3F8882022F47002C3F8882003F022F859
:102C100003F084FD00F042F803F05CF800000000CF
:102C200000ED00E042F8203C009B42F81C3C0A49C1
:102C3000019B42F8183C029B42F8143C21F0010130
:102C40004FF0807342F8043C42F8081C0023203AFD
:102C500002654367704700BF4B8C0000094B0E466E
:102C6000986015462C4686F309884FF00000064B05
:102C7000984720464FF000014FF000024FF000034C
:102C8000024C2047C01F0020338F00004B8C0000F7
:102C9000014B10221A61704700ED00E00448002348
:102CA0002021C2180133302B82F80013F9D170476C
:102CB00000E100E008B5EFF30583064A103B02EBA4
:102CC000C30152F8330049688847BDE80840FFF760
:102CD00017BD00BFFCA30000024B034A03480121BB
:102CE00000F066B80000042000000020B4A8000036
:102CF000084AC2F898000B6823F01F03034343F00F
:102D00001003C2F89C308B6843F00103C2F8A03076
:102D1000704700BF00ED00E02DE9F043DFF8608070
:102D200085B00E461F4604464FF00009B14523DA30
:102D30006068D8B13FB1411E08421BD11F2819D984
:102D40002368194216D12368019306F015F9A36888
:102D500003430393D8F89050C5F30725D0B2013D43
:102D6000A84207D801A9FFF7C3FF421C09F10109D6
:102D70000C34DBE76FF01502104605B0BDE8F083B8
:102D800000ED00E0044B0522C3F89420BFF34F8F01
:102D9000BFF36F8F704700BF00ED00E0BFF35F8FA0
:102DA000024B0022C3F89420704700BF00ED00E002
:102DB00010B5034C01232278FFF7AEFF207010BD41
:102DC000C82200202DE9F043534B544CD3F89030E7
:102DD0002568C3F307239D4285B000F29A80FFF770
:102DE000DDFF00200C2685421AD14D4C4D4F257039
:102DF0006846FFF725FBDFF82081DFF82C910646B7
:102E00000025AE4213D1237843490020D1F8902009
:102E1000C2F30722934276DBFFF7B4FF002042E0C3
:102E2000616806FB0011FFF763FF0130DBE70098E4
:102E300000EB05114FEA051CCB683B40B3F5000FD2
:102E400048D00AD8B3F5001F30D0B3F5800F36D084
:102E5000B3F5801F10D00135D3E7B3F1807F42D0A6
:102E6000B3F1007FF7D150F80C3088684A6806F05B
:102E700083F840F4802009E050F80C3088684A68F4
:102E800006F07AF840F0885040F43020CDE9012374
:102E90000390D8F890302078C3F30723013B984281
:102EA0002AD96FF0150005B0BDE8F08350F80C305A
:102EB00088684A6806F060F840EA0900E6E750F8DA
:102EC0000C3088684A6806F057F840F0007040F40B
:102ED0000030DBE750F80C3088684A6806F04CF8A0
:102EE00040F08270D2E750F80C3088684A6806F0EB
:102EF00043F840F08870C9E701A9FFF7F9FE23788D
:102F000001332370A7E7C1F89830C1F8A00001335E
:102F10007CE74FF0FF30C6E700ED00E0C0A80000FE
:102F2000C82200200000F0FF00000811014B1860CB
:102F3000704700BF34000020024B0122C3F8402537
:102F40000020704700E0014020B1034B800143F0B6
:102F500001031847704700BFC0A50000084B70B5BB
:102F6000C31A0D4607499B100446594306484022A0
:102F700006F049F82B4601462046BDE87040184748
:102F8000E81E0020B76DDBB65CA3000073B50C4CE7
:102F90000C4A4023041B00930D460B460A49A4101B
:102FA00061430646094806F059F8011E05DA304625
:102FB0002B4602B0BDE87040184702B070BD00BF9C
:102FC000E81E0020C5900000B76DDBB65CA30000D2
:102FD00010B5EFF31184202383F31288BFF36F8FB2
:102FE000074A136823F00201DB07116002D40120B5
:102FF00006F0C2FE84F31188BFF36F8F10BD00BFCF
:10300000381F0020002270B5012104461046FFF74A
:10301000D5FD0F4801F002FE0E4B984215D101F08C
:103020000DFE26690C49304605F068FE00280BDBD2
:10303000012535642469084904F11C0005F05EFE91
:10304000002801DBE564002070BD6FF00400FBE7A1
:10305000553100000000AD0BE0A800001FB50022B4
:103060000123CDE90223094ACDF800D06B46CDF803
:1030700004D006F020F8002805DB4FF4804200233E
:10308000684602F0ADFF05B05DF804FBE390000078
:1030900030B4104B0C2202FB003301460020D3E970
:1030A0000E529863EFF31180202484F31288BFF34B
:1030B0006F8F1C6C04F0C00444F002041C6480F3A5
:1030C0001188BFF36F8F1DB12B46034830BC1847E2
:1030D00030BC7047E81E00205CA3000010B4EFF382
:1030E0001182202383F31288BFF36F8F1748016882
:1030F00041F002040460C80707D482F31188BFF3CB
:103100006F8F012010BC01F0ABBD4FF08041D1F8B2
:103110000C04D1F80C14C907EFD5EFF3118083F339
:103120001288BFF36F8F0A490B6C03F0C00343F0A2
:1031300002030B6480F31188BFF36F8F82F3118851
:10314000BFF36F8F002010BCFFF7A2BF381F002015
:10315000E81E002010B1012804D07047034B1B6CFF
:103160005B0701D1FFF794BF704700BFE81E002046
:103170002DE9F0413849BFF35B8F0746012251E842
:10318000003F41E800200028F9D1BFF35B8F33B93D
:10319000324933484B60CB608A6005F0C2FD7B1E2C
:1031A000012B2BD8012F07D14FF08043D3F81C34CB
:1031B00003F00303012B21D006F0ABFF0546F8B95D
:1031C000284B1B78E3B14FF080430222C3F8082359
:1031D0000646DFF894804FF08044D4F81824D4F8E1
:1031E0001834D20315D503F00303012B01D0012FAE
:1031F0000FD155B386F31188BFF36F8FBDE8F0810F
:10320000EFF31186202383F31288BFF36F8F01251C
:10321000DFE7ADB1304605F0A0FED4F81835002B3D
:10322000DBD1D4F80421002AD7D0C4F80431D4F873
:1032300004310123C4F81835C8F88031A360CCE705
:103240000021212003F0C0F9E7E74FF0804302227C
:10325000C3F80423D2E700BFE41E0020D41E0020E0
:10326000041F00200E23002000E100E008B50748FD
:1032700006F0AEFE38B10648FFF758FE0448FEF7E8
:10328000A9FD002008BD6FF01200FBE7ACA3000011
:10329000953200000A2838B5074D044604D1AB68C2
:1032A0000D215B6828469847AB6803485B68E1B22C
:1032B0009847204638BD00BFACA3000000487047C7
:1032C00068A900002DE9F74F43680F1ED3F818A036
:1032D0000546164676DBBB18534573D847EA020904
:1032E000C9F30B09B9F1000F6CD106F012F8494689
:1032F000284605F046FF4FF0FF3B0446002E5AD10A
:103300000121284605F03DFF002C08BF0446284651
:1033100005F079FF204603B0BDE8F08FCDE9004409
:10332000234680220621284605F0E4FEB2450FD14F
:10333000CDE9004423468022C721284605F0DAFE65
:10334000264640F267620023284605F076FFD5E75F
:103350001E4B2146A0465A7882B10BFA02F037EA9A
:1033600000000BD101209040B04207D8B8F1000F07
:103370001CD098F80100904238BF984601310429CA
:1033800003F10203E7D1B8F1000F11D03B4698F8E2
:1033900000108122CDE90099284605F0ABFE98F88F
:1033A0000120012393401F44F61ACAE79846E5E737
:1033B0006FF01504C5E7002CB0D00121284605F0B8
:1033C000E0FEA4E76FF01504A4E700BFB4B300006B
:1033D000024B0B6001231360704700BF541F002095
:1033E0000048704784A9000010B501221146064824
:1033F000064C06F082FE06F05FFD206006F058FDE8
:103400006060002010BD00BF5C1F0020541F002022
:103410004FF08042D2F81015D2F8103501F01E019D
:1034200023F01F030B4343F00103C2F81035024B96
:1034300000221A70704700BFC92200204FF080534D
:10344000D3F83031082B20D14FF08042D2F810153C
:10345000CB071AD5D2F8103501F01E0123F01F0357
:103460000B43C2F81035D2F808315BB1D2F81035F1
:1034700023F01F030B4343F00103C2F810356FF034
:103480008B007047024B01221A700020704700BF6A
:10349000C92200202DE9F0410D46164606F008FD30
:1034A00031460746284606F079F878B3B5FBF7F3BE
:1034B00007FB135353BBB6FBF7F407FB14642CBB99
:1034C000B7421DD84FF0FF324FF0FF331148DFF8FD
:1034D000488002F085FD06F0EBFC0746FFF7AEFFE3
:1034E000044680B9284602F03FF898F800300BB146
:1034F000FFF78EFFF61B3D44F0D1064802F04CFD6D
:103500002046BDE8F0816FF08B04F6E76FF01504FC
:10351000F6E700BF5C1F0020C92200202DE9F84318
:103520000E463046194617461C4606F037F888B353
:1035300044EA060515F003052CD1BCB11748DFF8A5
:1035400060904FF0FF324FF0FF3302F049FD24F05E
:103550000304AC4206EB05080BD1124AD2F8003442
:10356000DB07FBD500240D4802F016FD2046BDE820
:10357000F883FFF763FF50B97959404602F014F819
:1035800099F800300BB1FFF743FF0435E1E76FF026
:103590008B04E8E76FF01504E8E700BF5C1F00202C
:1035A000C922002000E00140F0B54068057B01F031
:1035B0001F0444EA4514056987B0002D64D0B2F5B4
:1035C000001F00F1100506D12146284606F065FCD3
:1035D000002007B0F0BD01AE0027B2F5800F0197C3
:1035E000776039D1B3F1007F14BF052304238DF830
:1035F00004300023CDE904630393836823FA01F1C7
:1036000011F001011AD1B2F1A07F17D104F01F030C
:10361000620903F5E0732AD0012A3BD11F4A52F810
:103620002330DB070AD40DF1030632462146284633
:1036300001F0F4FD1A4B98421CD0029603AA2146D1
:10364000284601F0ADFC174B984220D101222146BB
:10365000284601F047FEBBE7B3F1C06F05D0B3F1D8
:10366000007F14BF01230223C1E70323BFE74FF00C
:10367000A042D4E73146284601F02EFE094B98427D
:10368000DBD06FF00B00A4E76FF08500A1E76FF0CF
:1036900015009EE751F82330FFDE00BF0003005005
:1036A0000400AD0B0000AD0B38B545682B69B3B114
:1036B0001035284601F000FE044680B90146284630
:1036C00001F0C6FD084B98420BD108492246284616
:1036D00001F09EFD224601210620FFF76FFA00202F
:1036E00038BD6FF00400FBE70000AD0BF1360000C1
:1036F000420970B5034602D0012A17D070BD0D4EA5
:10370000326951680029F9D003F01F0301250C68C4
:103710009D400029F2D08A682A4002D04B6830468A
:1037200098472CB1236821461C46F2E7024EE7E792
:103730002346F8E784A3000070A300002DE9F043BE
:10374000466840F20635D006337B87B002EA0505AD
:1037500054BFC2F34010032001F01F07B5F5837F6B
:10376000144647EA43178DF8030044D00FD8062DBE
:1037700018D007D8B5B1022D3FD06FF0150007B0B3
:10378000BDE8F083B5F5807FF7D101250AE040F26E
:103790000222954233D0B5F5407F32D0B5F5007F97
:1037A000EBD1022522032ED5726801238B40C2F88B
:1037B0000835326992BB07F01F037F092BD0012F18
:1037C00079D13F4A02EB830284F48033D2F80017A8
:1037D000C3F30043C4F3404444EA430421F4E161E9
:1037E00044EA800421F0070144EA05230B43C2F8B0
:1037F00000370020C3E70725D4E70425D2E70525D5
:10380000D0E70325CEE7630341BF012372688B40F5
:10381000C2F80C35CDE74FF0A042D3E710360DF1DA
:1038200002023946304601F0F9FC14F4403F80466C
:103830000CD13946304606F02EFB224B9845D8D1A4
:103840009DF80210304601F041FDD2E701AB4FF088
:10385000000903AA39463046CDE90439CDE901997A
:10386000CDF80C9001F09CFB164B984285D114F4D6
:10387000003315D09DF803308DF80E3084F4803479
:10388000C4F300444B4603AA394630468DF80C5029
:103890008DF80D4001F03EFC0A4B9842CDD06CE70C
:1038A000CDE9043303AA0DF10303394630460393EF
:1038B00001F076FBF0E703F5E07352F82330FFDE0A
:1038C000000300500000AD0B036803F01F025B090A
:1038D000026004D0012B034818BF002070474FF04E
:1038E000A0407047000300502DE9F04FDFF86091D1
:1038F000DFF860A185B01546834600EB810140F2F8
:10390000FF18594503D1002005B0BDE8F08FDBF862
:1039100000305804C3F3C322C3F3080400F19180BC
:103920005B0C19F80270444508BF4FF0FF34192BA7
:1039300000F28A80DFE803F00D141A1D20261D888E
:103940008888883663888888888888888888667C9C
:103950007F82C5F80C45621C5ED10BF1040BD0E7E9
:10396000C5F81445631CF8D000265FE0C5F808458B
:10397000F1E7C5F81045F5E7661CC5F80845ECD039
:10398000002604E0601CC5F80C45E6D0012603A81B
:103990000394FFF799FF039B012202FA03F3C0F897
:1039A0000C3508E0C5F80845002FDBD1631CD4D0E6
:1039B000002632460627DBF80030019303F400406E
:1039C000002818BF002203A8009218BF0126039404
:1039D000FFF77AFF039C019B009A00EB8400C3F37E
:1039E000412CD0F800473B0243EA8C03134304EA1E
:1039F0000A04234343EA4603C0F80037ADE7C5F89D
:103A00000C45D1E7C5F86045621CDBF80030A4D056
:103A1000C3F30043002BB9D003A80394FFF754FF6E
:103A2000039B012606FA03F3C0F808353246C2E7C5
:103A3000C5F86445E8E7C5F86845E5E7C5F86C45AD
:103A4000E2E76FF015005FE76FF085005CE700BF0D
:103A5000F2B30000F0F8FCFF2DE9F7434768056971
:103A60003C684FF00008C4F800852860D7F80C9037
:103A7000064601AA4146484605F06BFE00283CDB9D
:103A8000019BD9F8002019791868FFF72DFF00284D
:103A900033DB6B7A3169012B03D0032B2BD14FF031
:103AA0001008AB7A032B26D195F80BC0BCF1000FA0
:103AB00002D0BCF1010F1ED12A7A12B1022A1AD10A
:103AC0000E226B687068B3F5164F006800F0B28084
:103AD00034D8B3F5165F00F0B0801AD8B3F5966FFE
:103AE00000F0AD800CD8B3F5967F00F0AB80B3F555
:103AF000167F00F0AA806FF0850003B0BDE8F08368
:103B0000B3F5166F00F0A480B3F5965FF3D15C4B6C
:103B100043E0B3F5E14F00F09E8008D8B3F5615F54
:103B200000F09B80B3F5964FE5D1564B35E047F654
:103B3000122E7345DFD14FF400032EE0B3F5613F41
:103B400000F08D8015D8B3F5963F00F08B800AD831
:103B50004DF6C02E734500F08780B3F5614FCAD192
:103B60004FF46B0319E0B3F5E13FC4D14FF0EB73B1
:103B700013E0B3F5612F7AD009D8DFF80CE1734573
:103B800078D0B3F5E12FB6D14FF0E86305E0DFF868
:103B9000FCE07345AFD14FF08053C0F82435736813
:103BA00048EA0C081B6842EA0802C3F86C250B1DA2
:103BB000D5E9010183E803007B68990712D505F177
:103BC000180001F0FFFC324B984256D1287E04F1D8
:103BD0000C0204F5907106F0C5F82B7E0120984088
:103BE00000F0B4FF0823C4F800353B7A53B9C4F899
:103BF0001031D4F810316B69C4F834350123C4F89E
:103C0000383523607B689A075CBF4FF48073C4F833
:103C100004337B68DB0644BF4FF48003C4F80433ED
:103C20002B69C4F8443500200123C4F84805A3607B
:103C3000E36062E74FF41D03AFE7164BADE74FF4C7
:103C40009E23AAE74FF4A033A7E74FF41C33A4E761
:103C50004FF41D23A1E7104B9FE7104B9DE74FF05A
:103C60006C739AE70E4B98E74FF4650395E74FF0B6
:103C7000706392E74FF080638FE76FF004003CE7DA
:103C800000B0130000A04E0090D0030040420F008F
:103C90000000AD0B0050270000C0750000F03A0096
:103CA00000903A012DE9F041044607690D4606F0FF
:103CB00030FA4FF02008B0B92C4B1B789BB164262A
:103CC000606805F074FDF0B9012006F049F8013E86
:103CD000F6D10021212002F077FCF0E786F311886D
:103CE000BFF36F8FF5E7EFF31186314688F3128843
:103CF000BFF36F8F606805F05AFD80B986F31188B5
:103D0000BFF36F8FEFE7EFF31186314688F3128828
:103D1000BFF36F8F606805F04AFD0028DED03B6975
:103D20001D70626838691368C3F844050120C3F840
:103D300048050020C3F82001D3F82051C3F85801EA
:103D40005268D3F85801D20608D562681268082074
:103D5000C2F800054FF48002C3F8042301229A60E0
:103D600081F31188BFF36F8FBDE8F0810E2300202F
:103D70002DE9FF410569D0F804802B6D0646A86C3B
:103D8000002835D1002B53D0B8F830406A6CEF6C66
:103D90009C4228BF1C46EB6C53B1296D41B107F022
:103DA0006041B1F1005F03D0202C6F6E28BF20244A
:103DB00000926A6CAC651AB1AA6C002A18BF224640
:103DC000CDE901271BB12B6D002B18BF2346002224
:103DD00069464046039301F0CFFD184B984229D025
:103DE0006FF00401304604B0BDE8F04105F015BEA7
:103DF000696CEF6CB8F830400A46ABB1834228BF1B
:103E000003469C4228BF1C460029C4D001F06043F1
:103E1000B3F1005FBFD0202C28BF20242246286E9B
:103E200005F0D1F82A6EB6E7844228BF0446EBE7D6
:103E30001946D7E704B0BDE8F08100BF0000AD0B24
:103E40002DE9F04F8DB09846436801938B88046943
:103E50000F4699040546914600F11A814FF0FF3252
:103E60004FF0FF3304F1100002F0BAF86760D5F8A4
:103E700004B0D5F810A0DBF8083003939AF85D3051
:103E800023B1DAF800309F4200F08680B7F804E0F2
:103E90001EF4006F40F033811EF0090F40F02C81BA
:103EA000CEF34513082B40F027813B680293029A1A
:103EB000AB4B9A4240F220810BF10C0CBCE80F0096
:103EC00004AE0FC69CE80F0086E80F00DDE9023261
:103ED0009A4228BF1A46A34B9A421BD2A24B9A423F
:103EE00018D2A24B9A4215D2A14B9A4200F2D98025
:103EF000A04B9A4200F2D7809F4B9A4200F2D580A5
:103F00009E4B9A4200F2D3809D489E4B9E4982422E
:103F100088BF0B461EF0020F09930EF0040300F059
:103F2000C880002B14BF032302238DF82830CEF362
:103F300000138DF82930DBF80030D3F808251EF087
:103F4000020F4FEA5213CEF3400102F01F0240F07D
:103F5000B780002B00F0B180012B40F0FA808B4934
:103F600001239340C1F80C359AF85D302BB15846C7
:103F700001F0C8FC00238AF85D302B46844A04A96E
:103F8000584601F08BFC834B984240F0A5800123FA
:103F90008AF85D30CAF80070012384F85C30019B18
:103FA000996B4A1C03D003F13C0005F0A0FDB9F168
:103FB000000F40F0A780C4F834900023A36304F1FD
:103FC000480204F1380104F1340005F05AFC606441
:103FD000B8F1000F40F09F80C4F83C8000232364B8
:103FE00004F1500204F1400104F13C0005F049FCE9
:103FF00000263246E06401212046266305F068FC75
:104000002846FFF7B5FEA06B32463346834240F0A8
:104010008B800023266C1946B14240F08C8093427D
:10402000274638BF13464FF4FA5202FB03F657F8FF
:10403000203B4FF000081B68B6FBF3F64FF4004C32
:10404000C836414640F2E7304FF47A720023E6FB6F
:104050000C01FCF755F802460B46384601F0C0FF4C
:10406000024618B9266B16F1740F6BD10198C4F88B
:10407000588001F047FC84F85D806FF0730128469A
:1040800005F0CBFC384601F0D1FF6FF0730625E058
:10409000A369002B7FF4E2AE63689F427FF4DEAE3B
:1040A000E5E63D4B36E73D4B34E73D4B32E73D4BD4
:1040B00030E7003B18BF012337E74FF0A0414FE73F
:1040C0003BB1012B48D1314901239340C1F8083558
:1040D0004AE74FF0A041F7E76FF0040623689B889A
:1040E00013F4005304D1636004F1100001F054FF95
:1040F00030460DB0BDE8F08F6FF01506EEE76FF0BB
:104100008506EBE7D9F800306363002B3FF455AF29
:10411000D9F8043052E7D8F80030E363002B3FF4BD
:104120005DAFD8F804305AE7616B01EBC30101338E
:1041300049680A446AE7E06B00EBC100013140685E
:10414000034469E7002EC9D00146286905F0C0FB89
:10415000C4E7C1F80C15FFDE0023C3F80835FAE701
:1041600047E801000048E8010024F40000127A004A
:10417000FF083D007F841E003F420F001FA1070083
:104180008FD0030048E8010090D0030000030050E6
:104190003D9A00000000AD0B00093D0080841E0028
:1041A00040420F0020A1070000F01F0240090DD07F
:1041B00001280ED10A4B03EB82030A4AD3F8000709
:1041C000024042EA8102C3F8002770474FF0A04343
:1041D000F1E702F5E072002353F82230FFDE00BF62
:1041E00000030050F0F8FCFFF0B587B001238DF814
:1041F000023002238DF804306B4403930F4601AB69
:104200000DF103010024049305460291059401F089
:1042100063F80C4B984206460FD103AA394628464C
:1042200000F0BEFEB0420BD09DF80310284601F00E
:104230004DF86FF0040007B0F0BD6FF01200FAE720
:104240002046F8E70000AD0B70B5012383400E4A0D
:10425000BFF35B8FDC4352E8001F01EA040542E82C
:104260000056002EF7D1BFF35B8F4FF480328240AF
:104270000648C0F80823BFF35F8FBFF36F8F0B4270
:1042800014BF0120002070BD881F002000100140D5
:1042900070B40E49D1E90034D01AC31844F10004B7
:1042A00022F07F46C1E90034A6F50013B3F5400FB4
:1042B00009D2074B1B681A0A1B069C19054B42F1D1
:1042C0000005C3E9004570BC02F002BB38020020C3
:1042D0008C1F00204002002011B3BFF35B8F01232D
:1042E000104A834052E800CF4CEA030C42E800C178
:1042F0000029F7D1BFF35B8F0B4A4FF48033834023
:10430000C2F80433094BBFF35B8F1B68BFF35B8FAD
:10431000C340DB0742BF064B4FF40032C3F8002115
:10432000704700BF881F002000100140841F00203C
:1043300000E100E00D4B1868010A0006BFF35F8F33
:104340000B4BD3F80435181841F10001B3F5801F69
:104350000AD2084BD3E90023904271EB030303D246
:1043600010F1807041F10001704700BF8C1F0020E8
:1043700000100140400200202DE9F04F85B01646A4
:104380001F469DF840A00446FFF75EFF0190FFF72F
:10439000D1FFB04271EB070354D23E4B301A67EBAA
:1043A0000101984271F100014FD23B4B03EB041322
:1043B000D3E902239F4208BF96425ED037494FF4AB
:1043C000803804F1500508FA04F8AD00C1F84883BC
:1043D0002046ADB205F0B3FB26F07F4B05F18045DA
:1043E00004F5A87305F58835DC464FF00309029300
:1043F000029A2CF07F4341F82230C1F84483D1F86F
:104400000435274A6FF00200C01A604420F07F4054
:10441000904232D9286868B1D1F804350393A3EBF0
:104420000B0020F07F40B0F5000F26D9204605F0A4
:1044300086FB039BBAF1000F07D109EB030C09F1CE
:104440000109D5E7BAF1000F09D06FF01505204634
:104450000199FFF741FF284605B0BDE8F08F012321
:10446000104ABFF35B8FA34052E8000F184342E8A5
:1044700000010029F8D1BFF35B8F07490E98230193
:1044800001EB0412C8500F9B5360C2E9026700257C
:10449000DDE700BF0100800028020020001001407D
:1044A000FDFF7F00841F00207FB51C4C1C4BC4F80F
:1044B0000833C4F848331B4B00254FF0FF304FF052
:1044C000FF31C4F80855C3E902014FF48033C4F842
:1044D0000433154B02264FF400320121C4F8046363
:1044E0001120C3F880212A46FEF768FB1120FEF751
:1044F00035FB0E4A0123A360236013600C4B0D4A69
:104500000093CDE9015500232846FFF735FF3046DB
:10451000FEF72EFE284604B070BD00BF001001401B
:1045200003000F002802002000E100E0881F0020A7
:1045300091420000FFFF7F002DE9F7432F4CD4F894
:10454000043399070BD5D4F8043143B12C4A002326
:10455000C4F80431D4F80431136801331360D4F87B
:104560000433DA0329D5BFF35B8F264B53E8002FC2
:1045700022F0010143E800100028F7D1BFF35B8F60
:10458000D30702D4D4F84031BBB10025C4F8405160
:10459000D4F84031FFF7CEFEEFF31182202383F3EE
:1045A0001288BFF36F8F184BD3E90267B042B9414D
:1045B00006D282F31188BFF36F8F03B0BDE8F0839A
:1045C0004FF0FF384FF0FF39C3E90289D3E90010FB
:1045D0001D604FF48033C4F84833C4F84051D4F818
:1045E000403182F31188BFF36F8F0029E5D000902E
:1045F00032463B4628468847DFE700BF00100140AF
:104600008C1F0020841F00202802002030B5431C8E
:10461000124C85B005D08442A8BF0446012CB8BF17
:104620000124FFF787FE0E4B0C4DD3E90013401A0F
:10463000B0F5000F10D22218AA4228BF2A465218FD
:104640004FF0000007490091CDE9010043F100035C
:10465000FFF792FE05B030BD2A46F0E7FFFF7F006E
:10466000380200209142000008B5FFF763FE024BBC
:104670001B68C01A08BD00BF3802002010B5084CE6
:10468000012363601120FEF777FA064BC4F8083364
:10469000C4F84833044B4FF40032C3F8802110BDF6
:1046A0000010014003000F0000E100E030B50C49AC
:1046B0000C4D0B680246002405EB0310D0F80808E7
:1046C000C0B218B904B10B60002007E00133072B1A
:1046D0004FF00104F0D90B606FF01B00136030BD88
:1046E000901F002000E0014030B5816885B010398E
:1046F00021F00704054604F0DDFB10220146684660
:1047000004F06CFC07491022684604F05CFC10239E
:104710006A462146284604F09DFB003818BF012058
:1047200005B030BD84AB000030B50D46816887B060
:10473000102302AA1039044604F077FB002802DA9D
:10474000012007B030BD102202A9204605F068FA0A
:1047500000283AD11E49102202A804F024FC0028A7
:104760000CBF012302232B70204605F045FA0123DC
:1047700001460DF10702204604F057FB0028DFDB5D
:104780009DF8073003F00F021B096A702B7101229C
:104790000DF10701204605F043FA10B96B78042BA0
:1047A00003D901236B7000232B71A268183A22F001
:1047B0000702083AA91C204605F045FA0028BFD197
:1047C000E91C204605F098FABBE70323CBE700BFBE
:1047D00084AB0000F0B5354F460085B0054669460C
:1047E00057F8260005F08EFA044610B1FF2005B0F8
:1047F000F0BD013602A957F8260005F083FA01281A
:1048000037D12B482A46492104F001FB294B02935A
:104810008DF80C409DF800609DF80870264C002231
:104820002078314605F0EEF950B36078394605F04E
:10483000E9F928B3A378042B03D09DF8031099421B
:104840001ED1E378042B03D09DF80B10994217D1A9
:104850002379042B10D16279022A1DD1174B1848F5
:104860002A46492104F0D3FA6079831E022BBED96F
:10487000BCE70028CED0B9E79DF802109942EAD0F3
:104880000132032A04F10604CAD10E482A464921FE
:1048900004F0BDFA0120AAE7032A05D00A4B0B4910
:1048A000042A08BF0B46DAE7094BD8E7C0AA000084
:1048B00046B4000003010303DBB4000028B4000089
:1048C00091B40000B5B400002DB400003FB4000066
:1048D00023B400004FF08053D3F83021082A06D1CA
:1048E000D3F83431052B02D8024AD05C704700203F
:1048F000704700BFF3B40000024AD2F80034002B26
:10490000FBD0704700E0014010B54FF08053D3F862
:104910003021082A4ED14FF080420021C2F80C11FC
:10492000C2F81011C2F8381502F54042D3F8041449
:10493000C2F82015D3F80814C2F82415D3F80C14C3
:10494000C2F82815D3F81014C2F82C15D3F8141493
:10495000C2F83015D3F81814C2F83415D3F81C1463
:10496000C2F84015D3F82014C2F84415D3F8241423
:10497000C2F84815D3F82814C2F84C15D3F82C14F3
:10498000C2F85015D3F83014C2F85415D3F83414C3
:10499000C2F86015D3F83814C2F86415D3F83C1483
:1049A000C2F86815D3F84014C2F86C15D3F8443433
:1049B000C2F87035FFF78EFF18B13A4B3A4AC3F888
:1049C0008C26FFF787FF18B1384BFB22C3F8182558
:1049D000FFF780FF70B14FF080414FF08053D1F866
:1049E000E42ED3F8583222F00F0203F00F031343E2
:1049F000C1F8E43EFFF76EFF20B12D4B4FF400727B
:104A0000C3F840264FF08053D3F83031082B1AD129
:104A10004FF08043D3F80024D20744BF6FF0010267
:104A2000C3F800244FF08053D3F83431052B02D85B
:104A3000204AD35C3BB14FF01023D3F808224FF04B
:104A40008043C3F858254FF01023D3F80022002AE2
:104A500003DBD3F80432002B22DA174901234FF08D
:104A60001020C1F804351224FFF746FFC0F80042B9
:104A7000FFF742FFC0F80442FFF73EFF0023C1F8F2
:104A80000435FFF739FFBFF34F8F0C490C4BCA6851
:104A900002F4E0621343CB60BFF34F8F00BFFDE72A
:104AA00010BD00BF005000404881030000F00040EE
:104AB00000900240EDB4000000E0014000ED00E095
:104AC0000400FA0530B50468CCB1BFF35B8FB4FACB
:104AD00084F3C3F11F03DBB201229A4024EA0202ED
:104AE00050E8005FA54204D140E8002CBCF1000F63
:104AF000F6D1BFF35B8FE6D102480B7030BD0248A0
:104B0000FCE700BF0000AD0B0200AD0B10B5036861
:104B1000CB40DB0714D401238B400268BFF35B8FCB
:104B200043EA020150E8004F944204D140E8001CDF
:104B3000BCF1000FF6D1BFF35B8FEED1014810BD81
:104B40000148FCE70000AD0B0400AD0B014BC3F8BE
:104B50000405704700F00140F7B5044618B101287C
:104B600023D003B0F0BD4FF080430222C3F80823E6
:104B70000122DA60C3F80401D3F8043106460123A8
:104B80008DF8073042F210754FF08047D4B1012CF8
:104B9000E7D1D7F80C3403F48033AEBB83B30120E4
:104BA00005F0DEF8013DF4D12AE04FF08043002209
:104BB000C3F808035860C3F80021D3F800310DF1A1
:104BC0000706DCE7D7F8183403F480333EB9002B2E
:104BD000C7D0012005F0C4F8013DF3D1C1E7D7F8F3
:104BE000182402F003023260002BBAD09DF80700AF
:104BF000012803D105F0B4F8013DC7D1012CB0D193
:104C0000054B00225A71ACE7D7F80C2402F00102E0
:104C10003270002BEAD1F3E7941F0020044B1A797D
:104C200022B9012218609A800248704702487047F2
:104C3000941F00200000AD0B0C00AD0B08B5074B16
:104C40001B682BB10020FDF7ABFF08B9FDF786FF0D
:104C50004FF080430022C3F8182508BD941F0020A0
:104C600010B510B1012843D010BD4FF08043D3F8E8
:104C70001814D3F81824C80321D502F00303012B1C
:104C800004D013B10020FFF767FF00234FF08042EC
:104C90000220C2F8183508224FF4827303F18043D2
:104CA0000021196002F180421C6801241460154A39
:104CB00012680AB34FF08043C3F80403D4E7D3F873
:104CC0001424D107E1D5D3F81C249207DAD40D4A75
:104CD00012681AB10222C3F80423C5E7D3F80421ED
:104CE000002AFBD00022C3F80421D3F80431BBE72B
:104CF00000224FF48073D1E71A68002AFCD01960B3
:104D00001B68B1E7941F002010B54FF08043D3F823
:104D100000216AB10022C3F80021D3F8002101224A
:104D2000C3F80823114B587910B95A711B6898477A
:104D30004FF08043D3F8042172B10022C3F804215C
:104D4000D3F80421D3F81824D3F81824920704D1F7
:104D50000122C3F818259A6010BD0222C3F8082367
:104D6000024BBDE810401B6801201847941F00202B
:104D7000036803F01F025B09026004D0012B0348A3
:104D800018BF002070474FF0A0407047000300504C
:104D9000034A430900F01F00D35C1844C0B27047B7
:104DA000F9B4000070B50546FFF7F2FF0C4C08306F
:104DB0000E4634F81030DA0508D5C3F3432304EB6C
:104DC000C302284654F8333052689847A3682BB181
:104DD000E26831462846BDE87040184770BD00BF04
:104DE000D800002008B5FFF7D3FF034B083033F895
:104DF0001000400B08BD00BFD800002008B5FFF729
:104E0000C7FF034B083033F81000C0F3400008BD63
:104E1000D800002008B5FFF7BBFF034B083033F87C
:104E20001000C0F3401008BDD8000020034611F068
:104E3000010010B5CCB20DD1A207C4F3400012D5C9
:104E4000094AD2F820055860C2F82005003818BF7A
:104E5000012008E04FF0A041D1F820251A60C1F8E8
:104E60002025002AE8D010BD0003005010B5FFF740
:104E70008FFF124A083032F81030D9051CD5C3F321
:104E8000432123F4F85322F8103002F10E040020DD
:104E900034F8023F13F4807F03D0C3F343239942D5
:104EA0000AD001303028F3D1002342F831300448D1
:104EB000BDE81040FFF72ABE10BD00BFD80000209B
:104EC00050010020F0B505460020044601260746A3
:104ED0008C420BD1114BD3F87C2132B10022C3F8A4
:104EE0007C21D3F87C3140F00040F0BDE3B29B0060
:104EF00003F580729B0806FA03F31D420BD002F102
:104F0000804202F5C042D2F800C0BCF1000F02D0CE
:104F10001760126818430134DAE700BF00600040F0
:104F2000F7B506460846FFF733FF194F00F10805AD
:104F30000C4637F81530DB0727D5304604F087FFDD
:104F40002046FFF767FF40B12046FFF74BFF31686F
:104F500000F5A270002341F820302046FFF786FFBD
:104F6000002301A827F815300194FFF701FF019BEA
:104F700000EB8300074BD0F80027134043F00203F7
:104F8000C0F80037044803B0F0BD0448FBE700BF99
:104F9000D8000020F0F8FCFF0000AD0B0400AD0BC2
:104FA0002DE9FF41164680460846FFF7F1FE0D4603
:104FB0003168044609B32846FFF720FF18B1284698
:104FC000FFF728FF10BB0023CDE900338DF80E302A
:104FD0008DF80F300DF10F020B4628460DF10E0132
:104FE00004F0CCFE474A04F1080132F8113023F0F6
:104FF000020343F0010322F81130736863B32846BB
:105000001F785968FFF7FAFE10B1D1B13E4826E08B
:105010003C4A04F1080032F8103023F02003DB048E
:10502000DB0C22F8103061B1032FEFD871684968AA
:1050300091F800C0D8F80010A7B90CF5A27C41F88F
:105040002C70304A04F1080132F8113023F01C03AF
:1050500043EA870322F81130B3684BBB2B4804B0F6
:10506000BDE8F08101EB8C0143EA4C33D1F810E547
:105070002EF0030EC1F810E5D8F8001001EB8C0EED
:1050800043F02003DEF8101522F8103021F44F31E0
:1050900021F44071CEF810152902DEF8108501F4D4
:1050A0007C5141EA074141EA0801CEF81015C8E7F2
:1050B000D3E900672846FFF7D9FE002ECED0114D68
:1050C000D5E90023964203D19F4201D1002209E095
:1050D0000F480DF10F01FFF7F5FC0C4B9842BED1C4
:1050E0009DF80F2045F8326005EBC20308345F607D
:1050F00035F8143043EA422343F4807325F8143022
:10510000ACE700BFD80000200400AD0B0000AD0BE1
:10511000500100202DE9F0430C4685B08046204622
:1051200011461E46FFF734FE054629B32046FFF719
:1051300065FE18B92046FFF76DFE18BB314F05F12B
:10514000080937F8193013F01C0F02D04B78012BE7
:1051500018D001238DF80F300023CDE900134A1C2D
:105160008B1C20460DF10F0104F008FE37F81930B2
:1051700043F0030327F81930002E41D02046FFF7F3
:105180003DFE18B9204805B0BDE8F08396F800C090
:10519000D8F800301B4F0CF5A272002143F8221002
:1051A00005F1080237F8121021F02001C904C90CDA
:1051B00027F8121075781DB3D8F80000B67800EB08
:1051C0008C002D04D0F8103523F4991323F4F853F0
:1051D000C0F81035230203F47C5305F4403536053E
:1051E000D0F810E52B4306F4801641EA4C313343E6
:1051F00041F0200143EA0E0327F81210C0F81035E1
:105200000248C0E7D80000200400AD0B0000AD0B41
:10521000014BC3E902127047D800002010B50846C0
:105220001446FFF7F7FD50B10846FFF7B1FD054BF7
:10523000083033F8103004485B0B237010BD03486E
:10524000FCE700BFD80000200000AD0B0400AD0B50
:1052500070B5164D95F8804006462CBB214660225D
:1052600005F1100003F0BAFE30682E6F21468E4221
:105270000ED10023C0F87C31D0F87C3140F30730E8
:10528000FDF76CFC01230A4885F88030AB6770BDE0
:10529000CBB29B0003F580727C2B08BF845001F1D8
:1052A000010108BF8358E2E70248F0E7D800002078
:1052B0000000AD0B0C00AD0B034B93F880000038E1
:1052C00018BF0120704700BFD80000200148FFF739
:1052D0001DBC00BF4C0100200148FFF7F3BB00BF1D
:1052E0004C01002073B503681646D3F80423002A46
:1052F000A8BF4FF000420546A8BFC3F804230846E4
:105300000C46FFF787FD00B30846FFF777FD01461F
:10531000D8B92046FFF766FD04B2A40004F58072F8
:10532000034628688150296882582144D1F8102505
:1053300042F00102C1F810252EB12968012202FABB
:1053400003F3C1F8043302B070BD2046FFF720FD1F
:105350000F4B083033F81030C3F38203042B12D004
:10536000052B12D001A80194FFF702FD019AD0F895
:105370001035D34003F00103991C204602B0BDE86C
:10538000704004F044BD0321F7E70221F5E700BFB8
:10539000D80000202DE9F04F694BDFF8A881D3F841
:1053A0000403D8F87010C0B289B040F00040FFF795
:1053B00089FD051E2FDAC24600235AF87C1F06A875
:1053C000CDE90633FFF732FD5F4B01930DF118096C
:1053D0004FF0000B019A12F8013B0192DA0803F03A
:1053E00007031AF8022022FA03F3DA071CD409F1A2
:1053F0000409BBF1000F14D0D8F870104FF0004032
:10540000FFF760FDD8F87C1006A8FFF70FFD002815
:10541000DAD125F000450124002D79D109B0BDE88D
:10542000F08F4FF0010BD5E7484B5B440293D9F85E
:1054300000100029DBD0029B91FAA1F11C78B1FA8F
:1054400081F141EA44142046FFF7A2FC083005949C
:1054500038F81070C808BB0819F80020039301F051
:105460000701012303FA01F122EA010209F80020F1
:1054700005A8FFF77DFC059A039B02F5E072C7F3D0
:10548000820650F822205B073746C2F3014224D53A
:1054900020463946D6B2FFF785FC05A80594FFF7EC
:1054A00067FC059B03F5E07350F82330C3F3014319
:1054B0009E4207D10021204604F0A9FC3146204637
:1054C00004F0A5FC05A80594FFF752FC059B0122FA
:1054D00002FA03F3C0F82035A9E7022A0CD1032110
:1054E000204604F094FC06F00503012BEAD139466E
:1054F0002046FFF757FCE5E702212046039204F01F
:1055000086FC032EF3D0039A032ADBD1022EEDE7AB
:1055100095FAA5F3B3FA83F304FA03F29B0003F1BF
:10552000804303F5C04325EA0205D3F81005D3F8FC
:105530001015C0F30520C1F30141FFF733FC6BE701
:1055400000600040D800002009B5000009B5000047
:10555000044AD2F80034DB07FBD50160BFF35F8F4C
:10556000704700BF00E001404FF080531A69B0FB64
:10557000F2F302FB130373B9084B0222C3F80425AC
:10558000C3F80805D3F80024D207FBD5002204484D
:10559000C3F8042570470348704700BF00E001408E
:1055A0000000AD0B0A00AD0B10B5054C0123C4F88B
:1055B0000435FFF7CDFF0023C4F8043510BD00BF4C
:1055C00000E0014001460148FFF77CBA5C01002081
:1055D000036803F01F025B09026004D0012B03483B
:1055E00018BF002070474FF0A040704700030050E4
:1055F0000F4B984219D00DD80E4B984215D007D8B2
:105600000D4B984211D00D4BC31A58425841704768
:105610000B4BF9E70B4B984207D004D80A4B984242
:1056200003D00A4BF0E70A4BEEE70120704700BFBA
:1056300080841E0020A1070048E8010090D00300EC
:1056400040420F000024F40000093D0000127A00DF
:105650000048E80173B51646421C1C460546069BE9
:1056600018D0012902D1BBB104F07DFC01A801953D
:10567000FFF7AEFF019B00EB83002402D0F8002768
:10568000074B44EA86040C4313401C4344EA41019F
:10569000C0F8001702B070BD04F072FCE6E700BF6E
:1056A000F0F8FCFF2DE9F347674B4D6990F8049043
:1056B0009D4206460C4600F0AF8000F29F80634B8F
:1056C0009D4200F0AC8000F29180614B9D4200F061
:1056D000A980604B9D420CBF4FF080654FF0804524
:1056E000DFF87481E07E242202FB0983997F60F356
:1056F000000199773379217C02FB03839A7F61F360
:1057000041029A77E77E5FBB6269544B9A420CBFB5
:105710004FF0030A4FF0000A237E012B94BF0023B1
:1057200001230093206853463A460121FFF792FF78
:105730000097606853463A460121FFF78BFF0097B8
:10574000A27EA06853463946FFF784FF237C83F08E
:1057500001030093E06853463A460121FFF77AFFC0
:10576000242303FB0983E2681A62217C9A7F61F398
:1057700041029A77207FA77C217E627E336898B9A8
:10578000D4E900ECA468C3F808E5C3F80CC5C3F875
:1057900010454FF0FF34C3F86C45C3F81445C3F807
:1057A00068050220C3F86405003A18BF01220229E7
:1057B000C3F8C075C3F824553DD003293ED0012954
:1057C00001D142F00202C3F854250222C3F8602539
:1057D00033792422534358F8033093B3306840F3AD
:1057E000073002B0BDE8F047FDF7B8B91C4B9D4249
:1057F0000CBF4FF080554FF0804571E7194B9D422B
:1058000013D0164B9D4213D0174B9D420CBF4FF047
:1058100000454FF0804563E74FF0005560E74FF0DB
:1058200000655DE74FF000755AE74FF0206557E7D8
:105830004FF0A05554E742F00402C4E742F00602DC
:10584000C1E702B0BDE8F08780841E0020A10700F8
:1058500048E8010090D003009C1F00200048E801A8
:1058600040420F000024F40000127A00431C07B5E8
:105870000ED0019001A8FFF7ABFE019B00EB830067
:10588000054BD0F80027134043F00203C0F800375F
:1058900003B05DF804FB00BFF0F8FCFF2DE9F8430E
:1058A0000746144C97F80480242505FB08F504EB03
:1058B00005091E4699F81C30C3B999B14869FFF72C
:1058C00097FEA8B138466251C9F80460FFF7EAFEB6
:1058D000242303FB0844002363770748012323772D
:1058E000BDE8F8836251C9F80460F1E70348F7E7BF
:1058F0000348F5E79C1F00200000AD0B0C00AD0B2A
:105900000400AD0BF8B5044606790068184D40F365
:105910000730FDF731F924237343EB5853B1236863
:10592000144AC3F8082306EBC601206805EB810181
:1059300004F033FB2421236801FB0651D3F808054A
:10594000D3F80C45D3F810758B7FDB070AD4FFF72B
:105950008DFF3846FFF78AFF2046FFF787FF086A6A
:10596000FFF784FF242303FB065500232B77F8BDA4
:105970009C1F0020520108002DE9F0430779554D86
:1059800024237B439046EA180E46517F85B081461A
:10599000002940F09C80EB5823B118F0140F04BF8D
:1059A0000123537796E80F00242404FB075404F1E5
:1059B0000C0C8CE80F00206A421C04D0A37F9B07CC
:1059C0001AD504F0D0FA3368D9F8004023B103F0B7
:1059D0006043B3F1005F06D1B36883B103F0604365
:1059E000B3F1005F0BD0242303FB075300223A4896
:1059F0005A7705B0BDE8F08304F0C2FAE3E718F087
:105A0000010318BF0123C4F8503518F0020318BF72
:105A10000123C4F8403596E80F00EC468CE80F00EF
:105A2000039BC4F84405C4F84815C4F83425C4F8E9
:105A300038350023C4F81831D4F818310723C4F8D6
:105A4000003524237B4318F0080F05EB03021DD11A
:105A5000E8580121216158B9D4F81831002BFBD046
:105A600062464021204604F040FA24237B43EA1892
:105A7000EB5813BB106A461C13D107EBC70705EBA5
:105A80008701204604F089FA1448B2E7EB58A3B91D
:105A9000106A411CF8D0937F9A070BD504F070FA76
:105AA000F2E7937F9B0702D504F06AFAE5E704F07A
:105AB0005AFAE2E704F057FAE6E718F0040F4FF05D
:105AC000400314BFC4F80833C4F80433DCE70448C7
:105AD0008FE700BF9C1F00200A00AD0B0000AD0B3C
